:100000000C94D5000C94F6000C94F6000C94190195
:100010000C94F6000C94F6000C94F6000C94F60088
:100020000C94F6000C94F6000C94F6000C94F60078
:100030000C94F6000C94F6000C94F6000C94F60068
:100040000C94F6000C94F6000C94F6000C94F60058
:100050000C94F6000C94F6000C94F6000C94F60048
:100060000C94F6000C94F6000C94F6000C94F60038
:100070000C94F6000C94F6000C94F6000C94F60028
:100080000C9481010C94F6000C94F6000C94F6008C
:100090000C94F6000C94F6000C94F6000C94C40634
:1000A0000C94F6000C94F6000C94F6000C94F600F8
:1000B0000C94F6000C94F6000C94F6000C94F600E8
:1000C0000C94F6000C94F6000C94F6000C94F600D8
:1000D0000C94F6000C94F6000C94F6000C94F600C8
:1000E0000C94F600E3063507350735073507350765
:1000F00035073507E3063507350735073507350773
:1001000035073507E5063507350735073507350760
:1001100035073507350735073507350735073507FF
:1001200035073507E5063507350735073507350740
:1001300035073507350735073507350735073507DF
:1001400035073507310735073507350735073507D3
:10015000350735070E0735073507350735073507E6
:1001600035073507350735073507350735073507AF
:1001700035073507020735073507350735073507D2
:100180003507350720070C9420070C9435070C948D
:10019000E3060C94E5060C9402070C9431070C94CA
:1001A0009C010C940E070C94940111241FBECFEFF8
:1001B000D1E2DEBFCDBF00E00CBF14E0A0E0B2E0B2
:1001C000E2E8F6E200E00BBF02C007900D92A43A0D
:1001D000B107D9F724E0A4EAB4E001C01D92A73D1D
:1001E000B207E1F70E94F8000C943F130C94000052
:1001F000F89487E690E00E94B40180E00E947502C6
:100200000E9429040E9496040E9445050E94A205AE
:100210000E94F1050E944B070E945C08789481E0DF
:100220000E94790A81E00E94790A82E00E94790A9C
:10023000F6CF1F920F920FB60F9211240BB60F92AA
:100240002F933F934F935F936F937F938F939F93DE
:10025000AF93BF93EF93FF938091A4048230F0F5A6
:100260006091C2047091C30480E090E00E941D037D
:10027000E091C204F091C30483810E943004E091B4
:10028000C204F091C30485810E9467078091A7048E
:100290009091A804892B99F4E091C204F091C304D1
:1002A00080910002E80FF11D8381882399F00E945C
:1002B0005F0881E090E09093A8048093A704E09108
:1002C000C204F091C30480910002E80FF11D838104
:1002D000811104C01092A8041092A704FF91EF911D
:1002E000BF91AF919F918F917F916F915F914F914E
:1002F0003F912F910F900BBE0F900FBE0F901F904C
:1003000018951F920F920FB60F9211248F9381E0D0
:100310008093040210929500109294008F910F9098
:100320000FBE0F901F901895E0ECF0E0908195FFC4
:10033000FDCF8093C6000895E0ECF0E08081882333
:10034000ECF78091C6000895E4E6F0E020812D7F6F
:1003500020839093C5008093C40088E18093C100FE
:100360008EE08093C20008950E94A4016CE971E0C0
:1003700084E991E00E94E90E089584B1876884B908
:100380008CB581658CBD08958EBD0DB407FEFDCF83
:10039000089580E00E94C4018EB50895882319F065
:1003A000813019F008952F9808952F9A0895CF93CA
:1003B000C82F80E00E94CE0183E00E94C4018C2FF0
:1003C0000E94C4010E94C901C82F81E00E94CE0191
:1003D0008C2FCF910895CF93DF93C82FD62F80E035
:1003E0000E94CE0182E00E94C4018D2F0E94C401B0
:1003F0008C2F0E94C40181E00E94CE01DF91CF9139
:100400000895CF93C82F80E00E94CE01C13051F0F3
:1004100028F0C23059F0C33069F00FC081E80E9463
:10042000C4010BC082E80E94C40107C084E80E9496
:10043000C40103C087E80E94C40181E00E94CE018C
:10044000CF910895CF9380E00E94CE0180EA0E9470
:10045000C4010E94C901C82F81E00E94CE018C2FE7
:10046000CF9108951F93CF93DF93182FD62FC42FCA
:1004700080E00E94CE0185E00E94C401812F0E948D
:10048000C4018D2F0E94C4018C2F0E94C40181E001
:100490000E94CE01DF91CF911F91089580E00E94CC
:1004A000CE0180EC0E94C40181E00E94CE0183EC69
:1004B00099E00197F1F700C0000008950E94BD0186
:1004C0000E944E028EE00E94D701807E803861F04B
:1004D0001F928F938AE394E09F938F930E94340F2F
:1004E0000F900F900F900F900895CF93C82F0E94F8
:1004F0005E026FE08C2F0E94EB018FE00E94D7011B
:1005000043E063E08BE20E94320240E063E08CE271
:100510000E943202E9E6F0E0808182608083EA9AFC
:10052000E29ACF910895FC0150E0518340832283E9
:1005300063830895EF92FF920F931F93CF93DF93FE
:100540008C018091AA049091AB04019683309105AF
:100550002CF49093AB048093AA0404C01092AB04D3
:100560001092AA04F801208131817901F7E0EF228D
:10057000FF24CAEAD4E068816295607F6F5CC9019C
:100580009695879596958795969587950E94EB0108
:1005900068816295607F6E5C8E2D8295880F807E6B
:1005A0000E94EB0168816295607F6B5CF80182813B
:1005B0000E94EB01F80182818823D1F0C0E00F2E68
:1005C000FAEAEF2EF4E0FF2EF02DF70180816C2F78
:1005D000F0E18F9F600D11246A5CF801EC0FF11DB2
:1005E00083810E94EB01CF5FF8018281C81768F315
:1005F0008091AA049091AB048130910551F0823032
:10060000910561F0892B71F460E388E00E94EB01B1
:1006100009C060E488E00E94EB0104C060E588E066
:100620000E94EB018091AA040E940102DF91CF9108
:100630001F910F91FF90EF900895EF92FF920F930B
:100640001F93CF93DF937C018B01D82FD295D07F5E
:1006500081E68D0F0E94D701C82F82E68D0F0E9480
:10066000D701807E282F30E0369527953295229548
:100670002F7023273F702327C90148E0C49F800DB6
:10068000911D1124F8019183808385E68D0F0E94CE
:10069000D7018F70F8018283882379F0C0E0DA599E
:1006A0008D2F8C0F0E94D701F801EC0FF11D838371
:1006B000CF5FF8019281C91798F3E114F10421F09A
:1006C000EA94EF2831F009C061E080E00E94EB017C
:1006D00004C062E080E00E94EB01F801C081D1819A
:1006E000CE0196958795969587959695879561E322
:1006F0000E94EB0162E38C2F8295880F807E0E941E
:10070000EB0165E3F80182810E94EB01F80182812F
:10071000882371F0C0E066E36C0FF801EC0FF11D67
:1007200083810E94EB01CF5FF8018281C81798F3A3
:100730008CE20E94D7018E7F8F7D6CE20E94EB01DC
:1007400040E063E08CE20E943202DF91CF911F9182
:100750000F91FF90EF900895A1E8B0E09C9198610F
:100760009C93E0E8F0E090819260908390819E7F7E
:1007700090839C9194609C939C919D7F9C939C9171
:100780009E7F9C93259A90819068908390819F7B17
:100790009083282F30E0322F2227032E000C440BA9
:1007A000550B60E074E284EF90E00E94620C2150EF
:1007B000310930938700209386008CE590E0909378
:1007C0008900809388000895CF93682F70E0645665
:1007D0007109072E000C880B990B0E94C70D20E0B1
:1007E00030E04AE752E40E947C0E20E030E048EC22
:1007F00052E40E941D0D20E030E046E752E40E94E2
:10080000AC0C0E94960DC62F70E080E090E00E9434
:10081000C70D20E030E046E752E40E94180D88231F
:100820003CF48DE390E090938900809388000FC0A2
:10083000CD3738F08CE790E0909389008093880062
:1008400006C06C2F70E07093890060938800CF9190
:10085000089582E30E94AC0308950E94E403089582
:100860008730FCF0682F880F770B65507109072ED1
:10087000000C880B990B0E94C70D29E93BEB46E061
:100880005FE30E947C0E9B01AC0160E070E086E1BA
:1008900093E40E94AB0C0E94960D862F0E94E40305
:1008A00008958A3FECF46BEF7FEF681B710987FDB9
:1008B0007395072E000C880B990B0E94C70D29E930
:1008C0003BEB46E05FE30E947C0E20E030E046E137
:1008D00053E40E94AC0C0E94960D862F0E94E40304
:1008E00008958098EAE7F0E0808187688083ECE7EC
:1008F000F0E08081806C80838081806280830895B5
:10090000EAE7F0E0808180648083808184FFFDCF0E
:100910002091780080917900229526952695237064
:10092000880F880F90E0820F911D0895CF930E9449
:10093000710490910602992341F0E5ECF4E080E027
:10094000119211928F5F8917D8F3C091AF040E9462
:100950008004EC2FF0E0EE0FFF1FEB53FB4F918371
:100960008083E091AF04F0E0EE0FFF1FEB53FB4FED
:10097000808191819093AE048093AD04CF910895CE
:10098000CF938091AD049091AE04E091AF04F0E07C
:10099000EE0FFF1FEB53FB4F20813181821B930B26
:1009A0009093AE048093AD04C091AF040E94800484
:1009B000EC2FF0E0EE0FFF1FEB53FB4F9183808392
:1009C000E091AF042091AD043091AE04F0E0EE0F61
:1009D000FF1FEB53FB4F80819181820F931F9093F8
:1009E000AE048093AD048091AF048F5F8093AF0419
:1009F0008091AF0460910602861710F01092AF0448
:100A00008091AD049091AE0470E00E943A0CCB014D
:100A1000CF9108950E94C004069760F4809105026A
:100A2000811108C08091AC048F5F8093AC0481E099
:100A3000809305020E94C0048035910530F08091BA
:100A40000502813011F4109205028091AC041F92CE
:100A50008F9382E894E09F938F930E94340F80914C
:100A6000AC040F900F900F900F9090E008950E94AB
:100A70000A058093AC049091AC0481E0923008F4B4
:100A800080E008958091AC0408950E944106E1E061
:100A9000F1E080818A67808310920701E2E0F1E053
:100AA00080818061808380818F7B80838AE68A95C4
:100AB000F1F700C08081806480830895E2E0F1E076
:100AC00080818F7D80838081877F80838AE68A957D
:100AD000F1F700C0A6E0B1E02C91808188608083AE
:100AE0008AE68A95F1F700C08C919081906290839C
:100AF00090E0922B08950E9445060895882331F0D6
:100B0000E2E0F1E08081826080830895E2E0F1E03C
:100B100080818D7F80830895CF93C82F8E3F44F4CA
:100B200080E00E947E058C2F81950E94450608C0BA
:100B3000833034F081E00E947E058C2F0E944506B0
:100B4000CF91089580E00E947E0584E60E944506CC
:100B50002FEF83ED90E3215080409040E1F700C0FB
:100B60000000E2E0F1E080818F7B80832AE62A9515
:100B7000F1F700C08081806480830E945E058093CD
:100B8000B0049093B1049F938F938EE894E09F9369
:100B90008F930E94340F81E00E947E0584E60E94BC
:100BA00045068FEF93ED20E3815090402040E1F720
:100BB00000C000000E945E058093B2049093B304CD
:100BC0009F938F9388E994E09F938F930E94340FB3
:100BD0008DB79EB708960FB6F8949EBF0FBE8DBF17
:100BE0000895CF92DF92EF92FF920F931F93CF93CE
:100BF000DF938091B0049091B1042091B2043091C0
:100C0000B304821B930BBC0112F46F5F7F4FEB01A7
:100C1000D595C795DD231CF4D195C195D1090E94C6
:100C20005E058C01BE01DD0F880B990B0E94C70D7C
:100C30006B017C01C801992324F488279927801B24
:100C4000910BBC01990F880B990B0E94C70DA7014E
:100C500096010E94AB0CA70196010E941D0D20E099
:100C600030E048EC52E40E947C0E0E948F0D862FEB
:100C7000DF91CF911F910F91FF90EF90DF90CF9078
:100C8000089578940E9459060895CF93DF9300D079
:100C9000CDB7DEB790E599831A828B8363E0CE01EE
:100CA00001960E946F060F900F900F90DF91CF91E9
:100CB00008958CE08093B8008FEF8093BB0084E0B0
:100CC0008093BC0008958091BC0081700895ECEB86
:100CD000F0E0808180FDFDCF809107020895CF93E1
:100CE000DF93EC01ECEBF0E0908190FDFDCF6093A1
:100CF000B60498819093B70490FD13C0623088F0D9
:100D0000FE013196A8EBB4E06250262F30E02E5F52
:100D10003F4FCE01820F931F21912D93E817F907C2
:100D2000D9F71092B40488EF8093070285EA809384
:100D3000BC00DF91CF910895ECEBF0E0808180FD65
:100D4000FDCF1092B40488EF8093070285EA809368
:100D5000BC000895ECEBF0E0208120FDFDCF209158
:100D6000B40420FF0DC0662359F027EB34E0A82F10
:100D7000B92FF90181918D938E2F821B8617D0F3A5
:100D80008091B404817008951F920F920FB60F9254
:100D900011240BB60F922F933F938F939F93AF9392
:100DA000BF93EF93FF93E091B9008E2F90E0FC0189
:100DB0003897E135F10508F058C08827EE58FF4F05
:100DC0008F4F0C94810C1092B504E091B504809182
:100DD000B604E81770F481E08E0F8093B504F0E05C
:100DE000E954FB4F80818093BB0085E88093BC0071
:100DF00043C08091B40481608093B40484E98093FB
:100E0000BC003AC0E091B50481E08E0F8093B50438
:100E10008091BB00F0E0E954FB4F80832091B50442
:100E200030E08091B60490E001972817390724F448
:100E300085EC8093BC0020C085E88093BC001CC07A
:100E40008091BB00E091B504F0E0E954FB4F808352
:100E50008091B40481608093B40484E98093BC00E1
:100E60000BC085EA8093BC0007C08091B9008093D5
:100E7000070284E08093BC00FF91EF91BF91AF9196
:100E80009F918F913F912F910F900BBE0F900FBEAE
:100E90000F901F901895E0E9F0E0808188608083D2
:100EA000E1E9F0E080818460808380818D7F8083B0
:100EB00080818E7F808381E792E090939900809378
:100EC0009800E1E7F0E0808182608083089580935C
:100ED000BB040895CF92DF92EF92FF920F931F937E
:100EE000FC014083518362837383048315832683CB
:100EF0003783C086D186E286F3868FEF8587868723
:100F00001F910F91FF90EF90DF90CF9008958F92F7
:100F10009F92AF92BF92CF92DF92EF92FF920F9388
:100F20001F93CF93DF930E94F105C091BB040C2E59
:100F3000000CDD0BC81BD10987FDD395D0930B02A4
:100F4000C0930A02BE010D2E000C880B990B0E9463
:100F5000C70D6B017C01209118023091190240915C
:100F60001A0250911B020E947C0E2091BC04309109
:100F7000BD044091BE045091BF040E94AC0C4B01D3
:100F80005C016093BC047093BD048093BE04909395
:100F9000BF042097A1F51092BC041092BD041092DA
:100FA000BE041092BF0420911402309115024091AA
:100FB000160250911702C701B6010E947C0E6B0108
:100FC0007C0120E030E0A9016091100270911102D3
:100FD00080911202909113020E947C0E9B01AC0141
:100FE000C701B6010E94AC0C0E948F0D8B017723C4
:100FF0000CF04AC000271127061B170B45C0209193
:101000001402309115024091160250911702C70147
:10101000B6010E947C0E6B017C0120911002309180
:1010200011024091120250911302C501B4010E94B5
:101030007C0E9B01AC01C701B6010E94AC0C0E9462
:101040008F0D8B01772324F400271127061B170B24
:10105000CE01DD2324F4882799278C1B9D0B029752
:101060009CF0DD234CF480E00E947E0507341105DE
:101070005CF006E410E008C081E00E947E050734C1
:10108000110514F006E410E0802F0E947B0580918A
:101090000A0290910B029093090280930802DF915B
:1010A000CF911F910F91FF90EF90DF90CF90BF9065
:1010B000AF909F908F900895839A8B9A08958B9804
:1010C0002FEF80E792E0215080409040E1F700C090
:1010D00000008B9A0895A1E9B0E09C9198619C93DF
:1010E000E0E9F0E090819260908390819E7F908310
:1010F0009C9194609C939C919D7F9C939C919E7FDE
:101100009C93A1E0B1E09C9190629C939081906847
:10111000908390819F7B9083282F30E0322F22276D
:10112000032E000C440B550B60E074E284EF90E05A
:101130000E94620C21503109309397002093960051
:101140008CE590E090939900809398000895CF9358
:10115000682F70E064567109072E000C880B990BFC
:101160000E94C70D20E030E04AE752E40E947C0E66
:1011700020E030E048EC52E40E941D0D20E030E019
:1011800046E752E40E94AC0C0E94960DC62F70E018
:1011900080E090E00E94C70D20E030E046E752E496
:1011A0000E94180D88233CF48DE390E09093990001
:1011B000809398000FC0CD3738F08CE790E0909383
:1011C00099008093980006C06C2F70E0709399008E
:1011D00060939800CF9108952F923F924F925F9223
:1011E0006F927F928F929F92AF92BF92CF92DF9237
:1011F000EF92FF920F931F93CF93DF93CDB7DEB79C
:101200002E970FB6F894DEBF0FBECDBF6C017B01E9
:101210009C01990F440B550B60E271EA87E090E066
:101220000E94620C89019A01CE9CC001CF9C900D56
:10123000DE9C900D112468EE73E00E944E0C1B01A1
:10124000161617060CF03CC1B801110F880B990B4C
:101250000E94C70D69877A878B879C872BEA3AEAB9
:101260004AEA50E40E947C0E6B017C0120E030E0F1
:1012700040E850E469857A858B859C850E947C0EC8
:101280006D837E838F839887C701B6010E94960D78
:10129000B62E6D817E818F8198850E94960D7E8706
:1012A0006D8700E010E0442443945B2C0F2EF0E99E
:1012B0006F2E77247394F02D46015701E2E0F1E0A0
:1012C00080818062808320E030E040E85FE3C501F8
:1012D000B4010E94180D88230CF467C020E03FEF92
:1012E0004FE757E46D817E818F8198850E94770E4C
:1012F00018160CF04BC020E030E04AE754E4698552
:101300007A858B859C850E941D0D69837A838B83EA
:101310009C8320E030E04AE755E40E947C0E6B019C
:101320007C0120E030E040E85FE30E94180D882354
:1013300034F120E03FEF4FE757E4C701B6010E94C8
:10134000770E1816BCF420E030E040E251E46981E9
:101350007A818B819C810E947C0E0E94960D611582
:10136000710529F1C3010197F1F761507109D1F7B6
:1013700080E020C0C701B6010E94960D02C061E066
:1013800070E0CB010197F1F780E014C020E030E07D
:101390004FE753E4C501B4010E94770E18164CF4D0
:1013A0008D859E850197F1F707C0842D03C080E0ED
:1013B00001C0852D8A95F1F7E2E0F1E080818F7D13
:1013C000808320E030E040E85FE3C501B4010E9483
:1013D000180D88230CF467C020E03FEF4FE757E477
:1013E0006D817E818F8198850E94770E18160CF092
:1013F0004BC020E030E04AE754E469857A858B856C
:101400009C850E941D0D69837A838B839C8320E0D9
:1014100030E04AE755E40E947C0E6B017C0120E03D
:1014200030E040E85FE30E94180D882334F120E0AB
:101430003FEF4FE757E4C701B6010E94770E181639
:10144000BCF420E030E040E251E469817A818B8194
:101450009C810E947C0E0E94960D6115710529F1F8
:10146000C3010197F1F761507109D1F780E020C005
:10147000C701B6010E94960D02C061E070E0CB0189
:101480000197F1F780E014C020E030E04FE753E42B
:10149000C501B4010E94770E18164CF48D859E8507
:1014A0000197F1F707C0842D03C080E001C0852DAE
:1014B0008A95F1F70F5F1F4F0215130509F0FECE55
:1014C0002E960FB6F894DEBF0FBECDBFDF91CF9141
:1014D0001F910F91FF90EF90DF90CF90BF90AF9052
:1014E0009F908F907F906F905F904F903F902F9044
:1014F00008952F923F924F925F926F927F928F92B8
:101500009F92AF92BF92CF92DF92EF92FF920F9392
:101510001F93CF93DF9300D01F92CDB7DEB7029712
:1015200009F0C9C00CE112E00F2EFCE82F2EF2E00A
:101530003F2EF02D0F2EFCE86F2EF2E07F2EF02DC7
:101540002101F801619171918F0188EE93E00E9471
:101550004E0C1B01F201819191912F010E94EC0828
:10156000B101032C000C880B990B0E94C70D2AE9CE
:1015700039E948EC52E40E947C0E0E948F0D072E40
:10158000000C880B990B0E94C70D6B017C012BEAA4
:101590003AEA4AEA50E40E947C0E4B015C0120E0EA
:1015A00030E040E85FE30E94180D88230CF474C01B
:1015B00020E030E040E850E4C701B6010E947C0E14
:1015C00069837A838B839C8320E03FEF4FE757E466
:1015D0000E94770E18160CF046C020E030E04AE773
:1015E00054E4C701B6010E941D0D4B015C0120E0CF
:1015F00030E04AE755E40E947C0E6B017C0120E05C
:1016000030E040E85FE30E94180D88232CF120E0D1
:101610003FEF4FE757E4C701B6010E94770E181657
:10162000B4F420E030E040E251E4C501B4010E948E
:101630007C0E0E94960D6115710581F180E991E0A3
:101640000197F1F761507109C9F760E028C0C7013F
:10165000B6010E94960D02C061E070E0CB010197D7
:10166000F1F760E01CC020E030E04FE753E4C50133
:10167000B4010E94770E181654F469817A818B8127
:101680009C810E94960DCB010197F1F70AC0C5011C
:10169000B4010E94960D03C061E001C060E06A954C
:1016A000F1F7B10180E090E00E94EC080615170503
:1016B00009F047CFC8C00CEF12E00F2EF8E92F2E2B
:1016C000F3E03F2EF02D0F2EF8E96F2EF3E07F2E82
:1016D000F02D2101F801619171918F0188EE93E065
:1016E0000E944E0C1B01F201819191912F010E94E9
:1016F000EC08B101032C000C880B990B0E94C70D5C
:101700002AE939E948EC52E40E947C0E0E948F0DD0
:10171000072E000C880B990B0E94C70D6B017C01F2
:101720002BEA3AEA4AEA50E40E947C0E4B015C0143
:1017300020E030E040E85FE30E94180D88230CF4BD
:1017400074C020E030E040E850E4C701B6010E94D8
:101750007C0E69837A838B839C8320E03FEF4FE785
:1017600057E40E94770E18160CF046C020E030E0D7
:101770004AE754E4C701B6010E941D0D4B015C010C
:1017800020E030E04AE755E40E947C0E6B017C01CA
:1017900020E030E040E85FE30E94180D88232CF140
:1017A00020E03FEF4FE757E4C701B6010E94770EF4
:1017B0001816B4F420E030E040E251E4C501B40171
:1017C0000E947C0E0E94960D6115710581F180E9E1
:1017D00091E00197F1F761507109C9F760E028C005
:1017E000C701B6010E94960D02C061E070E0CB0116
:1017F0000197F1F760E01CC020E030E04FE753E4D0
:10180000C501B4010E94770E181654F469817A81DB
:101810008B819C810E94960DCB010197F1F70AC044
:10182000C501B4010E94960D03C061E001C060E0F3
:101830006A95F1F7B10180E090E00E94EC0806158E
:10184000170509F047CF0F900F900F900F90DF9181
:10185000CF911F910F91FF90EF90DF90CF90BF90AD
:10186000AF909F908F907F906F905F904F903F9040
:101870002F900895AA1BBB1B51E107C0AA1FBB1FD5
:10188000A617B70710F0A61BB70B881F991F5A950C
:10189000A9F780959095BC01CD01089597FB072E7F
:1018A00016F4009407D077FD09D00E943A0C07FC8B
:1018B00005D03EF4909581959F4F08957095619560
:1018C0007F4F0895052E97FB1EF400940E94790C1B
:1018D00057FD07D00E94890C07FC03D04EF40C94EE
:1018E000790C50954095309521953F4F4F4F5F4F64
:1018F000089590958095709561957F4F8F4F9F4F7C
:101900000895EE0FFF1F881F8BBF0790F691E02D03
:101910001994A1E21A2EAA1BBB1BFD010DC0AA1F20
:10192000BB1FEE1FFF1FA217B307E407F50720F048
:10193000A21BB30BE40BF50B661F771F881F991FC3
:101940001A9469F760957095809590959B01AC010C
:10195000BD01CF0108955058BB27AA270E94C30C90
:101960000C943D0E0E942F0E38F00E94360E20F08F
:1019700039F49F3F19F426F40C942C0E0EF4E095E4
:10198000E7FB0C94260EE92F0E944E0E58F3BA176F
:10199000620773078407950720F079F4A6F50C9485
:1019A000700E0EF4E0950B2EBA2FA02D0B01B9018D
:1019B00090010C01CA01A0011124FF27591B99F0C5
:1019C000593F50F4503E68F11A16F040A22F232FD1
:1019D000342F4427585FF3CF469537952795A79521
:1019E000F0405395C9F77EF41F16BA0B620B730BC8
:1019F000840BBAF09150A1F0FF0FBB1F661F771F39
:101A0000881FC2F70EC0BA0F621F731F841F48F4ED
:101A1000879577956795B795F7959E3F08F0B0CF76
:101A20009395880F08F09927EE0F9795879508955D
:101A30000E94020E08F481E008950E94310D0C947A
:101A40003D0E0E94360E58F00E942F0E40F029F4F1
:101A50005F3F29F00C94260E51110C94710E0C94DA
:101A60002C0E0E944E0E68F39923B1F3552391F387
:101A7000951B550BBB27AA2762177307840738F0FD
:101A80009F5F5F4F220F331F441FAA1FA9F335D05A
:101A90000E2E3AF0E0E832D091505040E695001C0E
:101AA000CAF72BD0FE2F29D0660F771F881FBB1FC8
:101AB000261737074807AB07B0E809F0BB0B802DA6
:101AC000BF01FF2793585F4F3AF09E3F510578F0D2
:101AD0000C94260E0C94710E5F3FE4F3983ED4F301
:101AE000869577956795B795F7959F5FC9F7880FA6
:101AF000911D9695879597F90895E1E0660F771FF8
:101B0000881FBB1F621773078407BA0720F0621B88
:101B1000730B840BBA0BEE1F88F7E09508950E94B3
:101B2000960D6894B1110C94710E08950E94560E92
:101B300088F09F5798F0B92F9927B751B0F0E1F08E
:101B4000660F771F881F991F1AF0BA95C9F714C03E
:101B5000B13091F00E94700EB1E008950C94700EB7
:101B6000672F782F8827B85F39F0B93FCCF3869577
:101B700077956795B395D9F73EF4909580957095D4
:101B800061957F4F8F4F9F4F0895E89409C097FB51
:101B90003EF490958095709561957F4F8F4F9F4F44
:101BA0009923A9F0F92F96E9BB279395F695879588
:101BB00077956795B795F111F8CFFAF4BB0F11F44B
:101BC00060FF1BC06F5F7F4F8F4F9F4F16C08823F2
:101BD00011F096E911C0772321F09EE8872F762F28
:101BE00005C0662371F096E8862F70E060E02AF069
:101BF0009A95660F771F881FDAF7880F9695879555
:101C000097F90895990F0008550FAA0BE0E8FEEF29
:101C100016161706E807F907C0F012161306E407B0
:101C2000F50798F0621B730B840B950B39F40A26A9
:101C300061F0232B242B252B21F408950A2609F487
:101C4000A140A6958FEF811D811D089597F99F678B
:101C500080E870E060E008959FEF80EC0895002434
:101C60000A941616170618060906089500240A9401
:101C700012161306140605060895092E0394000C87
:101C800011F4882352F0BB0F40F4BF2B11F460FF16
:101C900004C06F5F7F4F8F4F9F4F089557FD90583F
:101CA000440F551F59F05F3F71F04795880F97FB20
:101CB000991F61F09F3F79F08795089512161306DA
:101CC0001406551FF2CF4695F1DF08C01616170609
:101CD0001806991FF1CF869571056105089408953E
:101CE000E894BB2766277727CB0197F908950E94D0
:101CF000020E08F48FEF08950E948F0E0C943D0E93
:101D00000E942F0E38F00E94360E20F0952311F01D
:101D10000C94260E0C942C0E11240C94710E0E941F
:101D20004E0E70F3959FC1F3950F50E0551F629FC3
:101D3000F001729FBB27F00DB11D639FAA27F00D24
:101D4000B11DAA1F649F6627B00DA11D661F829F4B
:101D50002227B00DA11D621F739FB00DA11D621F30
:101D6000839FA00D611D221F749F3327A00D611D4D
:101D7000231F849F600D211D822F762F6A2F11242F
:101D80009F5750409AF0F1F088234AF0EE0FFF1F62
:101D9000BB1F661F771F881F91505040A9F79E3FB9
:101DA000510580F00C94260E0C94710E5F3FE4F305
:101DB000983ED4F3869577956795B795F795E7950F
:101DC0009F5FC1F7FE2B880F911D9695879597F918
:101DD00008950F931F93CF93DF93009731F461150C
:101DE000710519F480E090E03AC08B01EC016EE0DF
:101DF00070E081E090E00E944311FC01892B91F397
:101E000080E883830115110571F01387028781E84B
:101E100083838091CD049091CE04892B21F4F0939B
:101E2000CE04E093CD042097C9F0D187C087838189
:101E3000826083838091CF049091D004892B71F4C8
:101E4000F093D004E093CF048091D1049091D20418
:101E5000892B21F4F093D204E093D104CF01DF91D8
:101E6000CF911F910F910895CF93DF93CDB7DEB738
:101E7000AE014A5F5F4FFA0161917191AF018091AC
:101E8000CF049091D0040E94480FDF91CF91089524
:101E90002F923F924F925F926F927F928F929F927A
:101EA000AF92BF92CF92DF92EF92FF920F931F9368
:101EB000CF93DF93CDB7DEB72C970FB6F894DEBF84
:101EC0000FBECDBF7C016B018A01FC011782168217
:101ED000838181FFBDC1CE0101964C01F701938141
:101EE000F60193FD859193FF81916F01882309F499
:101EF000ABC1853239F493FD859193FF81916F01D8
:101F0000853229F4B70190E00E94A912E7CF512C45
:101F1000312C20E02032A0F48B3269F030F4803292
:101F200059F0833269F420612CC08D3239F080334E
:101F300039F4216026C02260246023C0286021C0BB
:101F400027FD27C030ED380F3A3078F426FF06C061
:101F5000FAE05F9E300D1124532E13C08AE0389EA4
:101F6000300D1124332E20620CC08E3221F426FD58
:101F70006BC1206406C08C3611F4206802C088361C
:101F800041F4F60193FD859193FF81916F018111D9
:101F9000C1CF982F9F7D9554933028F40C5F1F4F2D
:101FA000FFE3F9830DC0833631F0833771F0833559
:101FB00009F05BC022C0F801808189830E5F1F4F4A
:101FC00044244394512C540115C03801F2E06F0EA3
:101FD000711CF801A080B18026FF03C0652D70E060
:101FE00002C06FEF7FEFC5012C870E949E122C016B
:101FF00083012C852F77222E17C03801F2E06F0E57
:10200000711CF801A080B18026FF03C0652D70E02F
:1020100002C06FEF7FEFC5012C870E948C122C014C
:102020002C852068222E830123FC1BC0832D90E089
:1020300048165906B0F4B70180E290E00E94A91258
:102040003A94F4CFF50127FC859127FE81915F0139
:10205000B70190E00E94A91231103A94F1E04F1AB2
:1020600051084114510471F7E5C0843611F08936E6
:1020700039F5F80127FF07C0608171818281938162
:102080000C5F1F4F08C060817181072E000C880B08
:10209000990B0E5F1F4F2F76722E97FF09C09095F8
:1020A0008095709561957F4F8F4F9F4F2068722E5E
:1020B0002AE030E0A4010E94E112A82EA81844C032
:1020C000853729F42F7EB22E2AE030E025C0F22F8A
:1020D000F97FBF2E8F36C1F018F4883579F0B4C07F
:1020E000803719F0883721F0AFC02F2F2061B22E32
:1020F000B4FE0DC08B2D8460B82E09C024FF0AC029
:102100009F2F9660B92E06C028E030E005C020E180
:1021100030E002C020E132E0F801B7FE07C0608184
:102120007181828193810C5F1F4F06C06081718134
:1021300080E090E00E5F1F4FA4010E94E112A82EE4
:10214000A818FB2DFF777F2E76FE0BC0372D3E7F24
:10215000A51450F474FE0AC072FC08C0372D3E7EF0
:1021600005C0BA2C372D03C0BA2C01C0B52C34FFE2
:102170000DC0FE01EA0DF11D8081803311F4397E1E
:1021800009C032FF06C0B394B39404C0832F86788D
:1021900009F0B39433FD13C030FF06C05A2CB314BA
:1021A00018F4530C5B18B32CB31468F4B70180E235
:1021B00090E03C870E94A912B3943C85F5CFB314FC
:1021C00010F43B1801C0312C34FF12C0B70180E37A
:1021D00090E03C870E94A9123C8532FF17C031FD78
:1021E00003C088E790E002C088E590E0B7010CC02A
:1021F000832F867859F031FF02C08BE201C080E264
:1022000037FD8DE2B70190E00E94A912A51438F4C1
:10221000B70180E390E00E94A9125A94F7CFAA94E4
:10222000F401EA0DF11D8081B70190E00E94A9122E
:10223000A110F5CF332009F451CEB70180E290E030
:102240000E94A9123A94F6CFF7018681978102C0C5
:102250008FEF9FEF2C960FB6F894DEBF0FBECDBF69
:10226000DF91CF911F910F91FF90EF90DF90CF9072
:10227000BF90AF909F908F907F906F905F904F90A6
:102280003F902F9008950F931F93CF93DF93869FD6
:102290008001879F100D969F100D1124C8010E9488
:1022A0005F11EC01009729F0A80160E070E00E9446
:1022B0009712CE01DF91CF911F910F910895CF9387
:1022C000DF938230910510F482E090E0E091D50434
:1022D000F091D60420E030E0C0E0D0E0309711F17A
:1022E0004081518148175907C0F04817590761F4D8
:1022F00082819381209719F09B838A832BC09093CE
:10230000D6048093D50426C02115310519F0421753
:10231000530718F49A01BE01DF01EF010280F38137
:10232000E02DDCCF2115310509F1281B390B2430B4
:10233000310590F412968D919C911397611571055A
:1023400021F0FB019383828304C09093D604809391
:10235000D504FD01329644C0FD01E20FF31F8193C5
:102360009193225031092D933C933AC02091D3048C
:102370003091D404232B41F420913604309137045A
:102380003093D4042093D304209134043091350445
:102390002115310541F42DB73EB7409138045091D5
:1023A0003904241B350BE091D304F091D404E217D7
:1023B000F307A0F42E1B3F0B2817390778F0AC0168
:1023C0004E5F5F4F2417350748F04E0F5F1F509345
:1023D000D4044093D3048193919302C0E0E0F0E0F1
:1023E000CF01DF91CF9108950F931F93CF93DF9388
:1023F000009709F48CC0FC0132971382128200917D
:10240000D5041091D6040115110581F42081318184
:10241000820F931F2091D3043091D40428173907D9
:1024200079F5F093D404E093D30471C0D80140E06F
:1024300050E0AE17BF0750F412962D913C911397C0
:10244000AD012115310509F1D901F3CF9D01DA0163
:102450003383228360817181860F971F82179307D0
:1024600069F4EC0128813981260F371F2E5F3F4F19
:10247000318320838A819B8193838283452B29F436
:10248000F093D604E093D50442C01396FC93EE93E8
:102490001297ED01499159919E01240F351FE217C2
:1024A000F30771F480819181840F951F0296119634
:1024B0009C938E938281938113969C938E93129713
:1024C000E0E0F0E0D80112968D919C91139700976F
:1024D00019F0F8018C01F6CF8D919C9198012E5F37
:1024E0003F4F820F931F2091D3043091D4042817BB
:1024F000390769F4309729F41092D6041092D50464
:1025000002C0138212821093D4040093D304DF918B
:10251000CF911F910F910895FC010590615070407B
:102520000110D8F7809590958E0F9F1F0895DC01BC
:1025300001C06D9341505040E0F70895FC01615097
:10254000704001900110D8F7809590958E0F9F1FD5
:1025500008950F931F93CF93DF93FB01238121FDF8
:1025600003C08FEF9FEF28C022FF16C0468157811E
:10257000248135814217530744F4A081B1819D0124
:102580002F5F3F4F318320838C93268137812F5FCC
:102590003F4F3783268310C0EB01092F182F00848B
:1025A000F185E02D1995892BE1F68E819F810196A9
:1025B0009F838E83812F902FDF91CF911F910F9159
:1025C0000895FA01AA27283051F1203181F1E894C9
:1025D0006F936E7F6E5F7F4F8F4F9F4FAF4FB1E016
:1025E0003ED0B4E03CD0670F781F891F9A1FA11D11
:1025F000680F791F8A1F911DA11D6A0F711D811D12
:10260000911DA11D20D009F468943F912AE0269FD6
:1026100011243019305D3193DEF6CF010895462F35
:102620004770405D4193B3E00FD0C9F7F6CF462F16
:102630004F70405D4A3318F0495D31FD405241937F
:1026400002D0A9F7EACFB4E0A6959795879577953C
:102650006795BA95C9F700976105710508959B01C3
:10266000AC010A2E06945795479537952795BA954C
:10267000C9F7620F731F841F951FA01D0895F8945A
:02268000FFCF8A
:1026820004030201010104F8FFFFFFFF00002041E3
:102692000000C03F0000803F0AD7233C0C000C0022
:1026A2000C000C000C000C00060003000C000C00D7
:1026B2000C000C000C000C00060003000C000C00C7
:1026C2000C000C000C000C00060003000C000C00B7
:1026D2000C000C000C000C00060006001200120098
:1026E20012000600060006000600060006001200A0
:1026F200120012001200120012000A000A000A0060
:102702000A000A000A0003000300030006010B028C
:10271200DC00B801E900D2010000000006010B0252
:10272200DC00B801E900D20100000000AF005D0149
:10273200930026019C00370100000000AF005D01FC
:10274200930026019C0037010000000037011501AB
:102752002601150137013701D000C4001501060119
:1027620072015D01A500D201B8019F013701F70096
:10277200E900DC00D0000000000000000C000C00AA
:102782000C000C000C000C000C000C000C000C00E7
:102792000C000C000C000C000C000C000C000C00D7
:1027A2000C000C000C000C000C000C000C000C00C7
:1027B2000C000C000C000C000C000C0009000900BD
:1027C20009000C000C000C000C000C000C000C00AA
:1027D2000C000C000C000C000C000C000C000C0097
:1027E2000C000C000C000C000C000C000C000C0087
:1027F2000C000C000C000C000C0009000900090080
:102802000C000C000C000C000C000C000C000C0066
:102812000C000C000C000C004D0A4D0A00004D0A81
:1028220000002D084D0A0000400C000000000000CE
:1028320020060000000000002D0800000000200615
:1028420000000000270500000000E0060000B807B5
:1028520000004907E006000020064D0A400CC00DAA
:102862000000EA0A400C00004D0A00002D082D0964
:10287200B807000000002D0800000000200600003C
:102882000000270500000000E0060000B807000075
:102892004907E006000020064D0A400CC00D00006A
:1028A200EA0A400C00004D0A00002D082D09B80765
:1028B200000000000000D70420004D4350323531A3
:1028C20035206973204E4F5420696E20436F6E6627
:1028D200696775726174696F6E206D6F64652061DE
:1028E200667465722072657365742120436F6E662B
:1028F20069672062697473206172653A2025780ADB
:102902000D0053636F72653A2025640A0D006C65F1
:1029120066742025640A0D00726967687420256454
:042922000A0D00009A
:00000001FF
