:100000000C94D5000C94F6000C94F6000C9453015B
:100010000C94F6000C94F6000C94F6000C94F60088
:100020000C94F6000C94F6000C94F6000C94F60078
:100030000C94F6000C94F6000C94F6000C94F60068
:100040000C94F6000C94F6000C94F6000C94F60058
:100050000C94F6000C94F6000C94F6000C94F60048
:100060000C94F6000C94F6000C94F6000C94F60038
:100070000C94F6000C94F6000C94F6000C94F60028
:100080000C94BB010C94F6000C94F6000C94F60052
:100090000C94F6000C94F6000C94F6000C94FE06FA
:1000A0000C94F6000C94F6000C94F6000C94F600F8
:1000B0000C94F6000C94F6000C94F6000C94F600E8
:1000C0000C94F6000C94F6000C94F6000C94F600D8
:1000D0000C94F6000C94F6000C94F6000C94F600C8
:1000E0000C94F6001D076F076F076F076F076F0708
:1000F0006F076F071D076F076F076F076F076F07A2
:100100006F076F071F076F076F076F076F076F078F
:100110006F076F076F076F076F076F076F076F072F
:100120006F076F071F076F076F076F076F076F076F
:100130006F076F076F076F076F076F076F076F070F
:100140006F076F076B076F076F076F076F076F0703
:100150006F076F0748076F076F076F076F076F0716
:100160006F076F076F076F076F076F076F076F07DF
:100170006F076F073C076F076F076F076F076F0702
:100180006F076F075A070C945A070C943C070C949E
:100190006F070C9448070C94D6010C941D070C941F
:1001A000CE010C946B070C941F0711241FBECFEFD8
:1001B000D1E2DEBFCDBF00E00CBF12E0A0E0B2E0B4
:1001C000E6E2FFE100E00BBF02C007900D92AA3902
:1001D000B107D9F722E0AAE9B2E001C01D92AD3C17
:1001E000B207E1F70E94F8000C94910F0C94000004
:1001F000F89487E690E00E94EE0180E00E94AF0252
:100200000E9463040E94D0040E947F050E94DC05C6
:100210000E942B060E9485070E94960878941092EF
:100220009C0210929B02C2E2D2E001E010E00E9428
:10023000440580939A02823048F480910402882316
:10024000B1F30E94C10710920402F1CF80919B028A
:1002500090919C02892B59F7E091B602F091B70278
:100260008381282F082E000C330B3F938F93DF934D
:10027000CF930E94860B21E040E062E08091B602BD
:100280009091B7020E94CD028091B6029091B70280
:100290000E94D40210939C0200939B020F900F9037
:1002A0000F900F90C4CF1F920F920FB60F92112490
:1002B0000BB60F922F933F934F935F936F937F9360
:1002C0008F939F93AF93BF93EF93FF9380919A0285
:1002D0008230F0F56091B8027091B90280E090E050
:1002E0000E945703E091B802F091B90283810E9405
:1002F0006A04E091B802F091B90285810E94A107D9
:1003000080919D0290919E02892B99F4E091B80210
:10031000F091B90280910002E80FF11D83818823DA
:1003200099F00E94990881E090E090939E0280935A
:100330009D02E091B802F091B90280910002E80FAD
:10034000F11D8381811104C010929E0210929D02C2
:10035000FF91EF91BF91AF919F918F917F916F919D
:100360005F914F913F912F910F900BBE0F900FBE59
:100370000F901F9018951F920F920FB60F92112495
:100380008F9381E080930402109295001092940064
:100390008F910F900FBE0F901F901895E0ECF0E03A
:1003A000908195FFFDCF8093C6000895E0ECF0E0CA
:1003B00080818823ECF78091C6000895E4E6F0E0A0
:1003C00020812D7F20839093C5008093C40088E115
:1003D0008093C1008EE08093C20008950E94DE01E8
:1003E00066ED71E08EEC91E00E943B0B089584B1C4
:1003F000876884B98CB581658CBD08958EBD0DB4B8
:1004000007FEFDCF089580E00E94FE018EB508959D
:10041000882319F0813019F008952F9808952F9AA4
:100420000895CF93C82F80E00E94080283E00E94C5
:10043000FE018C2F0E94FE010E940302C82F81E062
:100440000E9408028C2FCF910895CF93DF93C82F7D
:10045000D62F80E00E94080282E00E94FE018D2FCC
:100460000E94FE018C2F0E94FE0181E00E94080282
:10047000DF91CF910895CF93C82F80E00E940802AA
:10048000C13051F028F0C23059F0C33069F00FC0CC
:1004900081E80E94FE010BC082E80E94FE0107C0B5
:1004A00084E80E94FE0103C087E80E94FE0181E00B
:1004B0000E940802CF910895CF9380E00E94080225
:1004C00080EA0E94FE010E940302C82F81E00E9480
:1004D00008028C2FCF9108951F93CF93DF93182F8D
:1004E000D62FC42F80E00E94080285E00E94FE0102
:1004F000812F0E94FE018D2F0E94FE018C2F0E94F1
:10050000FE0181E00E940802DF91CF911F910895C2
:1005100080E00E94080280EC0E94FE0181E00E94BF
:10052000080283EC99E00197F1F700C000000895FC
:100530000E94F7010E9488028EE00E941102807ED4
:10054000803861F01F928F9380E392E09F938F93A6
:100550000E94860B0F900F900F900F900895CF93ED
:10056000C82F0E9498026FE08C2F0E9425028FE016
:100570000E94110243E063E08BE20E946C0240E0C3
:1005800063E08CE20E946C02E9E6F0E08081826028
:100590008083EA9AE29ACF910895FC0150E051835A
:1005A0004083228363830895EF92FF920F931F93FA
:1005B000CF93DF938C018091A0029091A1020196CC
:1005C000833091052CF49093A1028093A00204C083
:1005D0001092A1021092A002F801208131817901CC
:1005E000F7E0EF22FF24C0EAD2E068816295607FE5
:1005F0006F5CC90196958795969587959695879591
:100600000E94250268816295607F6E5C8E2D8295C6
:10061000880F807E0E94250268816295607F6B5CF6
:10062000F80182810E942502F80182818823D1F09D
:10063000C0E00F2EF0EAEF2EF2E0FF2EF02DF701D2
:1006400080816C2FF0E18F9F600D11246A5CF801AE
:10065000EC0FF11D83810E942502CF5FF80182819A
:10066000C81768F38091A0029091A1028130910592
:1006700051F08230910561F0892B71F460E388E0DC
:100680000E94250209C060E488E00E94250204C09F
:1006900060E588E00E9425028091A0020E943B0252
:1006A000DF91CF911F910F91FF90EF900895EF92FE
:1006B000FF920F931F93CF93DF937C018B01D82F71
:1006C000D295D07F81E68D0F0E941102C82F82E65D
:1006D0008D0F0E941102807E282F30E036952795DD
:1006E000329522952F7023273F702327C90148E0B8
:1006F000C49F800D911D1124F8019183808385E6AC
:100700008D0F0E9411028F70F8018283882379F087
:10071000C0E0DA598D2F8C0F0E941102F801EC0F06
:10072000F11D8383CF5FF8019281C91798F3E1141B
:10073000F10421F0EA94EF2831F009C061E080E093
:100740000E94250204C062E080E00E942502F801B8
:10075000C081D181CE01969587959695879596957E
:10076000879561E30E94250262E38C2F8295880FB2
:10077000807E0E94250265E3F80182810E942502A5
:10078000F8018281882371F0C0E066E36C0FF80104
:10079000EC0FF11D83810E942502CF5FF801828159
:1007A000C81798F38CE20E9411028E7F8F7D6CE255
:1007B0000E94250240E063E08CE20E946C02DF911F
:1007C000CF911F910F91FF90EF900895A1E8B0E0B5
:1007D0009C9198619C93E0E8F0E090819260908316
:1007E00090819E7F90839C9194609C939C919D7F2F
:1007F0009C939C919E7F9C93259A90819068908376
:1008000090819F7B9083282F30E0322F2227032E68
:10081000000C440B550B60E074E284EF90E00E9402
:10082000B9082150310930938700209386008CE568
:1008300090E090938900809388000895CF93682F6B
:1008400070E064567109072E000C880B990B0E940A
:100850001E0A20E030E04AE752E40E94CE0A20E07F
:1008600030E048EC52E40E94740920E030E046E7B2
:1008700052E40E9403090E94ED09C62F70E080E057
:1008800090E00E941E0A20E030E046E752E40E9419
:100890006F0988233CF48DE390E090938900809366
:1008A00088000FC0CD3738F08CE790E09093890036
:1008B0008093880006C06C2F70E07093890060936D
:1008C0008800CF91089582E30E94E60308950E9474
:1008D0001E0408958730FCF0682F880F770B655051
:1008E0007109072E000C880B990B0E941E0A29E93A
:1008F0003BEB46E05FE30E94CE0A9B01AC0160E067
:1009000070E086E193E40E9402090E94ED09862FBF
:100910000E941E0408958A3FECF46BEF7FEF681B82
:10092000710987FD7395072E000C880B990B0E94A7
:100930001E0A29E93BEB46E05FE30E94CE0A20E075
:1009400030E046E153E40E9403090E94ED09862F3E
:100950000E941E0408958098EAE7F0E0808187688D
:100960008083ECE7F0E08081806C8083808180620E
:1009700080830895EAE7F0E080818064808380814D
:1009800084FFFDCF209178008091790022952695F3
:1009900026952370880F880F90E0820F911D08958F
:1009A000CF930E94AB0490910602992341F0EBEBA8
:1009B000F2E080E0119211928F5F8917D8F3C09115
:1009C000A5020E94BA04EC2FF0E0EE0FFF1FE554E1
:1009D000FD4F91838083E091A502F0E0EE0FFF1FB1
:1009E000E554FD4F808191819093A4028093A302EE
:1009F000CF910895CF938091A3029091A402E091AA
:100A0000A502F0E0EE0FFF1FE554FD4F208131817C
:100A1000821B930B9093A4028093A302C091A50222
:100A20000E94BA04EC2FF0E0EE0FFF1FE554FD4FDB
:100A300091838083E091A5022091A3023091A402CA
:100A4000F0E0EE0FFF1FE554FD4F80819181820F92
:100A5000931F9093A4028093A3028091A5028F5FBD
:100A60008093A5028091A50260910602861710F07E
:100A70001092A5028091A3029091A40270E00E94BE
:100A8000A508CB01CF9108950E94FA04069760F45F
:100A900080910502811108C08091A2028F5F80932E
:100AA000A20281E0809305020E94FA04803591053C
:100AB00030F080910502813011F41092050280918E
:100AC000A2021F928F9388E792E09F938F930E94D8
:100AD000860B8091A2020F900F900F900F9090E0E4
:100AE00008950E9444058093A2029091A20281E0A1
:100AF000923008F480E008958091A20208950E9447
:100B00007B06E1E0F1E080818A6780831092070133
:100B1000E2E0F1E080818061808380818F7B80834F
:100B20008AE68A95F1F700C0808180648083089509
:100B3000E2E0F1E080818F7D80838081877F808308
:100B40008AE68A95F1F700C0A6E0B1E02C91808199
:100B5000886080838AE68A95F1F700C08C91908145
:100B60009062908390E0922B08950E947F060895F2
:100B7000882331F0E2E0F1E0808182608083089593
:100B8000E2E0F1E080818D7F80830895CF93C82FCC
:100B90008E3F44F480E00E94B8058C2F81950E941E
:100BA0007F0608C0833034F081E00E94B8058C2FA6
:100BB0000E947F06CF91089580E00E94B80584E6E8
:100BC0000E947F062FEF83ED90E3215080409040FC
:100BD000E1F700C00000E2E0F1E080818F7B8083DC
:100BE0002AE62A95F1F700C08081806480830E9404
:100BF00098058093A6029093A7029F938F9384E811
:100C000092E09F938F930E94860B81E00E94B8052B
:100C100084E60E947F068FEF93ED20E381509040A1
:100C20002040E1F700C000000E9498058093A802D0
:100C30009093A9029F938F938EE892E09F938F9356
:100C40000E94860B8DB79EB708960FB6F8949EBF8C
:100C50000FBE8DBF0895CF92DF92EF92FF920F9358
:100C60001F93CF93DF938091A6029091A7022091CA
:100C7000A8023091A902821B930BBC0112F46F5F92
:100C80007F4FEB01D595C795DD231CF4D195C19518
:100C9000D1090E9498058C01BE01DD0F880B990BCC
:100CA0000E941E0A6B017C01C801992324F4882745
:100CB0009927801B910BBC01990F880B990B0E94FF
:100CC0001E0AA70196010E940209A70196010E942F
:100CD000740920E030E048EC52E40E94CE0A0E9401
:100CE000E609862FDF91CF911F910F91FF90EF9032
:100CF000DF90CF90089578940E9493060895CF9343
:100D0000DF9300D0CDB7DEB790E599831A828B834D
:100D100063E0CE0101960E94A9060F900F900F90FC
:100D2000DF91CF9108958CE08093B8008FEF80938E
:100D3000BB0084E08093BC0008958091BC0081706A
:100D40000895ECEBF0E0808180FDFDCF80910702FB
:100D50000895CF93DF93EC01ECEBF0E0908190FDF0
:100D6000FDCF6093AC0298819093AD0290FD13C0CB
:100D7000623088F0FE013196AEEAB2E06250262F72
:100D800030E02E5F3F4FCE01820F931F21912D93B4
:100D9000E817F907D9F71092AA0288EF80930702A3
:100DA00085EA8093BC00DF91CF910895ECEBF0E0F1
:100DB000808180FDFDCF1092AA0288EF8093070208
:100DC00085EA8093BC000895ECEBF0E0208120FDE3
:100DD000FDCF2091AA0220FF0DC0662359F02DEA15
:100DE00032E0A82FB92FF90181918D938E2F821BAC
:100DF0008617D0F38091AA02817008951F920F92F6
:100E00000FB60F9211240BB60F922F933F938F932F
:100E10009F93AF93BF93EF93FF93E091B9008E2F11
:100E200090E0FC013897E135F10508F058C08827BB
:100E3000EE58FF4F8F4F0C94D8081092AB02E09100
:100E4000AB028091AC02E81770F481E08E0F8093C2
:100E5000AB02F0E0E355FD4F80818093BB0085E855
:100E60008093BC0043C08091AA0281608093AA0253
:100E700084E98093BC003AC0E091AB0281E08E0F20
:100E80008093AB028091BB00F0E0E355FD4F80837F
:100E90002091AB0230E08091AC0290E001972817DE
:100EA000390724F485EC8093BC0020C085E880934A
:100EB000BC001CC08091BB00E091AB02F0E0E355A8
:100EC000FD4F80838091AA0281608093AA0284E909
:100ED0008093BC000BC085EA8093BC0007C0809162
:100EE000B9008093070284E08093BC00FF91EF91EA
:100EF000BF91AF919F918F913F912F910F900BBE1A
:100F00000F900FBE0F901F901895E0E9F0E08081E0
:100F100088608083E1E9F0E0808184608083808163
:100F20008D7F808380818E7F808381E792E09093A4
:100F3000990080939800E1E7F0E0808182608083EF
:100F400008958093B1020895CF92DF92EF92FF92BD
:100F50000F931F93FC014083518362837383048347
:100F6000158326833783C086D186E286F3868FEF8A
:100F7000858786871F910F91FF90EF90DF90CF902C
:100F800008958F929F92AF92BF92CF92DF92EF928D
:100F9000FF920F931F93CF93DF930E942B06C09174
:100FA000B1020C2E000CDD0BC81BD10987FDD395B7
:100FB000D0930B02C0930A02BE010D2E000C880BC9
:100FC000990B0E941E0A6B017C012091180230913E
:100FD000190240911A0250911B020E94CE0A2091E0
:100FE000B2023091B3024091B4025091B5020E9416
:100FF00003094B015C016093B2027093B3028093CA
:10100000B4029093B5022097A1F51092B20210920B
:10101000B3021092B4021092B502209114023091E2
:1010200015024091160250911702C701B6010E94A5
:10103000CE0A6B017C0120E030E0A9016091100232
:101040007091110280911202909113020E94CE0AB7
:101050009B01AC01C701B6010E9403090E94E60989
:101060008B0177230CF04AC000271127061B170BB2
:1010700045C0209114023091150240911602509102
:101080001702C701B6010E94CE0A6B017C012091B4
:101090001002309111024091120250911302C501C9
:1010A000B4010E94CE0A9B01AC01C701B6010E94A7
:1010B00003090E94E6098B01772324F400271127F6
:1010C000061B170BCE01DD2324F4882799278C1BE0
:1010D0009D0B02979CF0DD234CF480E00E94B80544
:1010E000073411055CF006E410E008C081E00E94BE
:1010F000B8050734110514F006E410E0802F0E94B3
:10110000B50580910A0290910B0290930902809399
:101110000802DF91CF911F910F91FF90EF90DF9028
:10112000CF90BF90AF909F908F900895839A8B9AA5
:1011300008958B982FEF80E792E0215080409040F7
:10114000E1F700C000008B9A0895AA1BBB1B51E178
:1011500007C0AA1FBB1FA617B70710F0A61BB70B27
:10116000881F991F5A95A9F780959095BC01CD01CC
:101170000895052E97FB1EF400940E94D00857FD99
:1011800007D00E94E00807FC03D04EF40C94D0086E
:1011900050954095309521953F4F4F4F5F4F0895A3
:1011A00090958095709561957F4F8F4F9F4F0895D3
:1011B000EE0FFF1F881F8BBF0790F691E02D19944B
:1011C000A1E21A2EAA1BBB1BFD010DC0AA1FBB1F4B
:1011D000EE1FFF1FA217B307E407F50720F0A21BBD
:1011E000B30BE40BF50B661F771F881F991F1A942A
:1011F00069F760957095809590959B01AC01BD0154
:10120000CF0108955058BB27AA270E941A090C94B1
:10121000940A0E94860A38F00E948D0A20F039F460
:101220009F3F19F426F40C94830A0EF4E095E7FB33
:101230000C947D0AE92F0E94A50A58F3BA17620799
:1012400073078407950720F079F4A6F50C94C70A74
:101250000EF4E0950B2EBA2FA02D0B01B9019001D1
:101260000C01CA01A0011124FF27591B99F0593F15
:1012700050F4503E68F11A16F040A22F232F342F5D
:101280004427585FF3CF469537952795A795F040AB
:101290005395C9F77EF41F16BA0B620B730B840BC0
:1012A000BAF09150A1F0FF0FBB1F661F771F881F78
:1012B000C2F70EC0BA0F621F731F841F48F48795D0
:1012C00077956795B795F7959E3F08F0B0CF9395C2
:1012D000880F08F09927EE0F9795879508950E943B
:1012E000590A08F481E008950E9488090C94940A30
:1012F0000E948D0A58F00E94860A40F029F45F3F50
:1013000029F00C947D0A51110C94C80A0C94830A9C
:101310000E94A50A68F39923B1F3552391F3951B15
:10132000550BBB27AA2762177307840738F09F5F06
:101330005F4F220F331F441FAA1FA9F335D00E2E73
:101340003AF0E0E832D091505040E695001CCAF7E0
:101350002BD0FE2F29D0660F771F881FBB1F2617A3
:1013600037074807AB07B0E809F0BB0B802DBF017A
:10137000FF2793585F4F3AF09E3F510578F00C9449
:101380007D0A0C94C80A5F3FE4F3983ED4F3869537
:1013900077956795B795F7959F5FC9F7880F911D6A
:1013A0009695879597F90895E1E0660F771F881F56
:1013B000BB1F621773078407BA0720F0621B730B09
:1013C000840BBA0BEE1F88F7E09508950E94ED0993
:1013D0006894B1110C94C80A08950E94AD0A88F06F
:1013E0009F5798F0B92F9927B751B0F0E1F0660FE9
:1013F000771F881F991F1AF0BA95C9F714C0B1302A
:1014000091F00E94C70AB1E008950C94C70A672FB3
:10141000782F8827B85F39F0B93FCCF38695779558
:101420006795B395D9F73EF4909580957095619541
:101430007F4F8F4F9F4F0895E89409C097FB3EF46C
:1014400090958095709561957F4F8F4F9F4F992311
:10145000A9F0F92F96E9BB279395F695879577958F
:101460006795B795F111F8CFFAF4BB0F11F460FF4F
:101470001BC06F5F7F4F8F4F9F4F16C0882311F0A7
:1014800096E911C0772321F09EE8872F762F05C0BB
:10149000662371F096E8862F70E060E02AF09A9556
:1014A000660F771F881FDAF7880F9695879597F94B
:1014B0000895990F0008550FAA0BE0E8FEEF1616E5
:1014C0001706E807F907C0F012161306E407F50738
:1014D00098F0621B730B840B950B39F40A2661F0AC
:1014E000232B242B252B21F408950A2609F4A1404F
:1014F000A6958FEF811D811D089597F99F6780E85C
:1015000070E060E008959FEF80EC089500240A9455
:101510001616170618060906089500240A941216CE
:101520001306140605060895092E0394000C11F401
:10153000882352F0BB0F40F4BF2B11F460FF04C0AE
:101540006F5F7F4F8F4F9F4F089557FD9058440F07
:10155000551F59F05F3F71F04795880F97FB991F12
:1015600061F09F3F79F087950895121613061406CF
:10157000551FF2CF4695F1DF08C01616170618065C
:10158000991FF1CF86957105610508940895E89437
:10159000BB2766277727CB0197F908950E94E10AB8
:1015A0000C94940A0E94860A38F00E948D0A20F05A
:1015B000952311F00C947D0A0C94830A11240C9449
:1015C000C80A0E94A50A70F3959FC1F3950F50E0D9
:1015D000551F629FF001729FBB27F00DB11D639FE5
:1015E000AA27F00DB11DAA1F649F6627B00DA11D8B
:1015F000661F829F2227B00DA11D621F739FB00D31
:10160000A11D621F839FA00D611D221F749F3327A0
:10161000A00D611D231F849F600D211D822F762F39
:101620006A2F11249F5750409AF0F1F088234AF016
:10163000EE0FFF1FBB1F661F771F881F9150504082
:10164000A9F79E3F510580F00C947D0A0C94C80ABE
:101650005F3FE4F3983ED4F3869577956795B79509
:10166000F795E7959F5FC1F7FE2B880F911D969523
:10167000879597F908950F931F93CF93DF93009762
:1016800031F46115710519F480E090E03AC08B01E6
:10169000EC016EE070E081E090E00E94950DFC01AD
:1016A000892B91F380E883830115110571F013876D
:1016B000028781E883838091C3029091C402892BC1
:1016C00021F4F093C402E093C3022097C9F0D187BC
:1016D000C0878381826083838091C5029091C60216
:1016E000892B71F4F093C602E093C5028091C70282
:1016F0009091C802892B21F4F093C802E093C702AD
:10170000CF01DF91CF911F910F910895CF93DF9378
:10171000CDB7DEB7AE014A5F5F4FFA0161917191BB
:10172000AF018091C5029091C6020E949A0BDF9191
:10173000CF9108952F923F924F925F926F927F9236
:101740008F929F92AF92BF92CF92DF92EF92FF92D1
:101750000F931F93CF93DF93CDB7DEB72C970FB6C0
:10176000F894DEBF0FBECDBF7C016B018A01FC0186
:1017700017821682838181FFBDC1CE0101964C0183
:10178000F7019381F60193FD859193FF81916F019C
:10179000882309F4ABC1853239F493FD859193FF19
:1017A00081916F01853229F4B70190E00E94FB0E10
:1017B000E7CF512C312C20E02032A0F48B3269F09D
:1017C00030F4803259F0833269F420612CC08D32BC
:1017D00039F0803339F4216026C02260246023C0B0
:1017E000286021C027FD27C030ED380F3A3078F44B
:1017F00026FF06C0FAE05F9E300D1124532E13C061
:101800008AE0389E300D1124332E20620CC08E32B7
:1018100021F426FD6BC1206406C08C3611F42068CB
:1018200002C0883641F4F60193FD859193FF8191C2
:101830006F018111C1CF982F9F7D9554933028F46B
:101840000C5F1F4FFFE3F9830DC0833631F0833700
:1018500071F0833509F05BC022C0F8018081898373
:101860000E5F1F4F44244394512C540115C038017E
:10187000F2E06F0E711CF801A080B18026FF03C05A
:10188000652D70E002C06FEF7FEFC5012C870E94CD
:10189000F00E2C0183012C852F77222E17C03801E2
:1018A000F2E06F0E711CF801A080B18026FF03C02A
:1018B000652D70E002C06FEF7FEFC5012C870E949D
:1018C000DE0E2C012C852068222E830123FC1BC0F8
:1018D000832D90E048165906B0F4B70180E290E0FD
:1018E0000E94FB0E3A94F4CFF50127FC859127FE68
:1018F00081915F01B70190E00E94FB0E31103A9494
:10190000F1E04F1A51084114510471F7E5C08436D3
:1019100011F0893639F5F80127FF07C06081718120
:10192000828193810C5F1F4F08C060817181072EF7
:10193000000C880B990B0E5F1F4F2F76722E97FFAE
:1019400009C090958095709561957F4F8F4F9F4FFF
:101950002068722E2AE030E0A4010E94330FA82EE6
:10196000A81844C0853729F42F7EB22E2AE030E033
:1019700025C0F22FF97FBF2E8F36C1F018F48835BD
:1019800079F0B4C0803719F0883721F0AFC02F2F1D
:101990002061B22EB4FE0DC08B2D8460B82E09C01C
:1019A00024FF0AC09F2F9660B92E06C028E030E0C1
:1019B00005C020E130E002C020E132E0F801B7FECE
:1019C00007C060817181828193810C5F1F4F06C0C7
:1019D0006081718180E090E00E5F1F4FA4010E9442
:1019E000330FA82EA818FB2DFF777F2E76FE0BC095
:1019F000372D3E7FA51450F474FE0AC072FC08C057
:101A0000372D3E7E05C0BA2C372D03C0BA2C01C03D
:101A1000B52C34FF0DC0FE01EA0DF11D808180332D
:101A200011F4397E09C032FF06C0B394B39404C0E8
:101A3000832F867809F0B39433FD13C030FF06C0BE
:101A40005A2CB31418F4530C5B18B32CB31468F469
:101A5000B70180E290E03C870E94FB0EB3943C8586
:101A6000F5CFB31410F43B1801C0312C34FF12C071
:101A7000B70180E390E03C870E94FB0E3C8532FF7B
:101A800017C031FD03C088E790E002C088E590E010
:101A9000B7010CC0832F867859F031FF02C08BE26A
:101AA00001C080E237FD8DE2B70190E00E94FB0E9D
:101AB000A51438F4B70180E390E00E94FB0E5A941D
:101AC000F7CFAA94F401EA0DF11D8081B70190E0EF
:101AD0000E94FB0EA110F5CF332009F451CEB701BF
:101AE00080E290E00E94FB0E3A94F6CFF7018681E7
:101AF000978102C08FEF9FEF2C960FB6F894DEBF50
:101B00000FBECDBFDF91CF911F910F91FF90EF904E
:101B1000DF90CF90BF90AF909F908F907F906F900D
:101B20005F904F903F902F9008950F931F93CF9306
:101B3000DF93869F8001879F100D969F100D1124C3
:101B4000C8010E94B10DEC01009729F0A80160E0E6
:101B500070E00E94E90ECE01DF91CF911F910F91AD
:101B60000895CF93DF938230910510F482E090E0E6
:101B7000E091CB02F091CC0220E030E0C0E0D0E078
:101B8000309711F14081518148175907C0F048172B
:101B9000590761F482819381209719F09B838A838E
:101BA0002BC09093CC028093CB0226C02115310527
:101BB00019F04217530718F49A01BE01DF01EF0133
:101BC0000280F381E02DDCCF2115310509F1281BBE
:101BD000390B2430310590F412968D919C91139716
:101BE0006115710521F0FB019383828304C09093FA
:101BF000CC028093CB02FD01329644C0FD01E20F7E
:101C0000F31F81939193225031092D933C933AC055
:101C10002091C9023091CA02232B41F420911E0267
:101C200030911F023093CA022093C90220911C02F6
:101C300030911D022115310541F42DB73EB7409179
:101C4000200250912102241B350BE091C902F09132
:101C5000CA02E217F307A0F42E1B3F0B281739071F
:101C600078F0AC014E5F5F4F2417350748F04E0FF8
:101C70005F1F5093CA024093C9028193919302C09F
:101C8000E0E0F0E0CF01DF91CF9108950F931F9333
:101C9000CF93DF93009709F48CC0FC013297138235
:101CA00012820091CB021091CC020115110581F432
:101CB00020813181820F931F2091C9023091CA0285
:101CC0002817390779F5F093CA02E093C90271C069
:101CD000D80140E050E0AE17BF0750F412962D91A6
:101CE0003C911397AD012115310509F1D901F3CFCD
:101CF0009D01DA013383228360817181860F971FF2
:101D00008217930769F4EC0128813981260F371F68
:101D10002E5F3F4F318320838A819B81938382830F
:101D2000452B29F4F093CC02E093CB0242C01396EA
:101D3000FC93EE931297ED01499159919E01240F66
:101D4000351FE217F30771F480819181840F951F8D
:101D5000029611969C938E938281938113969C9305
:101D60008E931297E0E0F0E0D80112968D919C914D
:101D70001397009719F0F8018C01F6CF8D919C9183
:101D800098012E5F3F4F820F931F2091C90230911F
:101D9000CA022817390769F4309729F41092CC0247
:101DA0001092CB0202C0138212821093CA020093D7
:101DB000C902DF91CF911F910F910895FC01059009
:101DC000615070400110D8F7809590958E0F9F1F3D
:101DD0000895DC0101C06D9341505040E0F7089533
:101DE000FC016150704001900110D8F780959095EA
:101DF0008E0F9F1F08950F931F93CF93DF93FB01C7
:101E0000238121FD03C08FEF9FEF28C022FF16C062
:101E100046815781248135814217530744F4A081BC
:101E2000B1819D012F5F3F4F318320838C932681A9
:101E300037812F5F3F4F3783268310C0EB01092F77
:101E4000182F0084F185E02D1995892BE1F68E81FC
:101E50009F8101969F838E83812F902FDF91CF9159
:101E60001F910F910895FA01AA27283051F12031CE
:101E700081F1E8946F936E7F6E5F7F4F8F4F9F4F1E
:101E8000AF4FB1E03ED0B4E03CD0670F781F891F60
:101E90009A1FA11D680F791F8A1F911DA11D6A0F2E
:101EA000711D811D911DA11D20D009F468943F91E1
:101EB0002AE0269F11243019305D3193DEF6CF01E0
:101EC0000895462F4770405D4193B3E00FD0C9F7A6
:101ED000F6CF462F4F70405D4A3318F0495D31FD13
:101EE0004052419302D0A9F7EACFB4E0A695979566
:101EF000879577956795BA95C9F70097610571053C
:101F000008959B01AC010A2E069457954795379585
:101F10002795BA95C9F7620F731F841F951FA01DDF
:061F20000895F894FFCFC4
:101F260004030201010104F8FFFFFFFF0000204146
:101F36000000C03F0000803F0AD7233C0000CD02CE
:101F4600200053656E64696E673A2025640A0D00A9
:101F56004D435032353135206973204E4F54206938
:101F66006E20436F6E66696775726174696F6E2065
:101F76006D6F646520616674657220726573657441
:101F86002120436F6E6669672062697473206172EF
:101F9600653A2025780A0D0053636F72653A20254D
:101FA600640A0D006C6566742025640A0D0072696A
:0A1FB6006768742025640A0D00001E
:00000001FF
