:100000000C945D040C947A040C947A040C94DB0434
:100010000C947A040C947A040C947A040C947A0468
:100020000C947A040C947A040C947A040C947A0458
:100030000C947A040C947A040C947A040C947A0448
:100040000C947A040C947A040C947A040C947A0438
:100050000C947A040C947A040C947A040C947A0428
:100060000C947A040C947A040C947A040C947A0418
:10007000084AD73B3BCE016E84BCBFFDC12F3D6C0F
:1000800074319ABD56833DDA3D00C77F11BED9E475
:10009000BB4C3E916BAAAABE000000803F0000004E
:1000A00000000000000000065F5F0600000000077F
:1000B000070007070000147F7F147F7F1400242EA1
:1000C0006B6B3A120000466630180C666200307A9C
:1000D0004F5D377A48000407030000000000001C51
:1000E0003E63410000000041633E1C000000082AFE
:1000F0003E1C1C3E2A0808083E3E0808000000A0DE
:10010000E06000000000080808080808000000007F
:100110006060000000006030180C060301003E7FA4
:10012000594D7F3E000042427F7F40400000627395
:1001300059496F660000226349497F360000181C48
:1001400016137F7F1000276745457D3900003C7EF0
:100150004B4979300000036371190F070000367FA7
:1001600049497F360000064F49693F1E00000000E4
:100170006C6C0000000000A0EC6C00000000081C8B
:1001800036634100000014141414141400000041DC
:1001900063361C080000020351590F0600003E7F21
:1001A000415D5D1F1E007C7E13137E7C0000417F3D
:1001B0007F49497F36001C3E634141632200417FF5
:1001C0007F41637F1C00417F7F495D416300417F28
:1001D0007F491D0103001C3E6341517372007F7F04
:1001E00008087F7F000000417F7F410000003070E1
:1001F00040417F3F0100417F7F081C776300417FC2
:100200007F41406070007F7F060C067F7F007F7F0C
:10021000060C187F7F001C3E6341633E1C00417F3B
:100220007F49090F06001E3F21717F5E0000417F5C
:100230007F19396F460026674D597B320000034114
:100240007F7F410300007F7F40407F7F00001F3F92
:1002500060603F1F00007F7F3018307F7F00637732
:100260001C081C776300074F78784F0700006773FE
:10027000594D47637100007F7F4141000000010339
:10028000060C183060000041417F7F000000080C20
:100290000603060C0800808080808080808000003B
:1002A000030704000000207454543C784000413F90
:1002B0007F44447C3800387C44446C28000030780B
:1002C00048493F7F4000387C54545C180000487E09
:1002D0007F490302000098BCA4A4F87C0400417F7D
:1002E0007F08047C780000447D7D4000000040C40D
:1002F00084FD7D000000417F7F10386C4400004188
:100300007F7F400000007C7C0C180C7C78007C7C9B
:1003100004047C780000387C44447C38000084FC71
:10032000F8A4243C1800183C24A4F8FC8400447C65
:1003300078441C180000485C5454742400000004E5
:100340003E7F442400003C7C40403C7C40001C3C00
:1003500060603C1C00003C7C6030607C3C00446C75
:100360003810386C44009CBCA0A0FC7C00004C649D
:10037000745C4C64000008083E77414100000000B6
:100380000077770000004141773E08080000020333
:10039000010302030100000000000000005F0000F4
:1003A0000007000700147F147F14242A7F2A1223D9
:1003B0001308646236495522500005030000001CF2
:1003C0002241000041221C00082A1C2A0808083E7D
:1003D00008080050300000080808080800606000A5
:1003E0000020100804023E5149453E00427F400073
:1003F00042615149462141454B311814127F102763
:10040000454545393C4A494930017109050336499A
:10041000494936064949291E00363600000056363D
:10042000000000081422411414141414412214086A
:10043000000201510906324979413E7E1111117EB7
:100440007F494949363E414141227F4141221C7F3B
:10045000494949417F090901013E414151327F0823
:1004600008087F00417F41002040413F017F081480
:1004700022417F404040407F0204027F7F040810F9
:100480007F3E4141413E7F090909063E4151215EBF
:100490007F09192946464949493101017F01013F38
:1004A0004040403F1F2040201F7F2018207F6314C2
:1004B0000814630304780403615149454300007F35
:1004C0004141020408102041417F00000402010262
:1004D000044040404040000102040020545454783D
:1004E0007F484444383844444420384444487F38A2
:1004F00054545418087E090102081454543C7F08CF
:1005000004047800447D40002040443D00007F10FA
:10051000284400417F40007C041804787C080404CF
:100520007838444444387C14141408081414187C93
:100530007C080404084854545420043F4440203CA0
:100540004040207C1C2040201C3C4030403C442843
:100550001028440C5050503C4464544C440008361D
:10056000410000007F000000413608000201030244
:1005700001000000000000000000065F5F060000B0
:10058000000007070007070000147F7F147F7F1417
:1005900000242E6B6B3A120000466630180C66621F
:1005A00000307A4F5D377A480004070300000000EE
:1005B00000001C3E63410000000041633E1C00003F
:1005C00000082A3E1C1C3E2A0808083E3E08080077
:1005D0000000A0E06000000000080808080808000B
:1005E0000000006060000000006030180C0603018D
:1005F000003E7F594D7F3E000042427F7F404000D9
:1006000000627359496F660000226349497F3600D2
:1006100000181C16137F7F1000276745457D3900A1
:10062000003C7E4B4979300000036371190F0700CD
:1006300000367F49497F360000064F49693F1E005A
:100640000000006C6C0000000000A0EC6C000000DA
:1006500000081C3663410000001414141414140024
:1006600000004163361C080000020351590F0600C8
:10067000003E7F415D5D1F1E007C7E13137E7C006B
:1006800000417F7F49497F36001C3E634141632220
:1006900000417F7F41637F1C00417F7F495D416353
:1006A00000417F7F491D0103001C3E63415173726D
:1006B000007F7F08087F7F000000417F7F410000AE
:1006C00000307040417F3F0100417F7F081C77630D
:1006D00000417F7F41406070007F7F060C067F7F76
:1006E000007F7F060C187F7F001C3E6341633E1C29
:1006F00000417F7F49090F06001E3F21717F5E0088
:1007000000417F7F19396F460026674D597B3200C3
:100710000003417F7F410300007F7F40407F7F00D7
:10072000001F3F60603F1F00007F7F3018307F7FD9
:100730000063771C081C776300074F78784F070029
:10074000006773594D47637100007F7F414100008E
:10075000000103060C183060000041417F7F00005B
:1007600000080C0603060C080080808080808080D2
:10077000800000030704000000207454543C7840BB
:1007800000413F7F44447C3800387C44446C28005E
:1007900000307848493F7F4000387C54545C180052
:1007A00000487E7F490302000098BCA4A4F87C04A2
:1007B00000417F7F08047C780000447D7D4000007C
:1007C0000040C484FD7D000000417F7F10386C44F0
:1007D0000000417F7F400000007C7C0C180C7C787E
:1007E000007C7C04047C780000387C44447C380025
:1007F0000084FCF8A4243C1800183C24A4F8FC84D1
:1008000000447C78441C180000485C545474240054
:100810000000043E7F442400003C7C40403C7C407F
:10082000001C3C60603C1C00003C7C6030607C3CF8
:1008300000446C3810386C44009CBCA0A0FC7C00C8
:10084000004C64745C4C64000008083E7741410031
:100850000000000077770000004141773E08080063
:1008600000020301030203010000FFFFFF7E3C18AA
:100870000000183C7EFFFFFF000E1E3E7E7E3E1EE7
:100880000E71787C7F7F7C787000187C7E7E3C18AF
:100890000080808080808080800101010101010151
:1008A0000100000000000000FFFF00000000000049
:1008B00000183C3E3FFFBE3C180011241FBECFEF86
:1008C000D4E0DEBFCDBF13E0A0E0B1E0E4E6F8E3A2
:1008D00002C005900D92AC32B107D9F723E0ACE22B
:1008E000B3E001C01D92AC36B207E1F70E947C0470
:1008F0000C94301C0C940000F8948FE190E00E945E
:1009000041050E947B070E94840985E393E00E94D1
:10091000C60A80E00E949E0C7894C0E0D0E0E12CF2
:10092000F12CCC24C394D12C0FE011E080912C0346
:1009300090912D038130910539F120F0823091059D
:1009400051F1F8CF85E393E00E94FD0A209789F4E6
:100950000E946A07892B51F185E393E00E94550BB1
:100960000E94BD0B90E090932D0380932C03CC2D1F
:10097000DD2D0E946A07892BC9F60E947007892B1A
:10098000A9F6CE2DDF2DD2CF80913B0390913C0371
:100990000E94520ECBCF1F930F930E94AF18E0928C
:1009A0002C03F0922D030F900F90C0CF0E94700780
:1009B000892B91F6DECF1F920F920FB60F92112462
:1009C0002F933F934F935F936F937F938F939F9357
:1009D000AF93BF93EF93FF9360913D0370913E03FC
:1009E00080E090E00E94500DE0913D03F0913E03C5
:1009F000838182308CF082E090E090932D0380938D
:100A00002C030E94C00B85E393E00E94C70BE0918A
:100A10003D03F0913E031382E0913D03F0913E03CC
:100A20008381282F082E000C330B3F938F9389E18D
:100A300091E09F938F930E94AF180F900F900F90AB
:100A40000F90FF91EF91BF91AF919F918F917F9107
:100A50006F915F914F913F912F910F900FBE0F902B
:100A60001F9018955D9BFECF8CB908955F9BFECFBC
:100A70008CB1089590BD89B988E18AB98EE880BDAE
:100A800008950E943A0566E375E082E395E00E94CE
:100A90006418089585B7806885BF80B7806280BF7D
:100AA0000895CF92DF92EF92FF920F931F93CF930F
:100AB000DF9388E291E00E94C5180E9454187C01DF
:100AC0000E945918C12CD12CC0E0D0E00EE311E0F7
:100AD0000E945418F601F85E808320812817A1F047
:100AE00099279F938F931F922F93DF92CF921F93FB
:100AF0000F930E94AF1821968DB79EB708960FB638
:100B0000F8949EBF0FBE8DBF9FEFC91AD90AC114BA
:100B100088E0D806E9F6C7010E94591800E010E005
:100B2000E12CF12C0F2EF7E7CF2EF1E0DF2EF02D88
:100B30000E945418F801F85E20812817B1F0992717
:100B40009F938F931F922F931F930F93DF92CF92B8
:100B50000E94AF189FEFE91AF90A8DB79EB7089661
:100B60000FB6F8949EBF0FBE8DBF0F5F1F4F0115CC
:100B700098E01907E9F6FF92EF92DF93CF9384EBA9
:100B800091E09F938F930E94AF180F900F900F905A
:100B90000F900F900F90DF91CF911F910F91FF90C9
:100BA000EF90DF90CF90089585B7806885BF80B7BC
:100BB000806280BF0895E0E0F4E1808381E48A955B
:100BC000F1F700C080810895E0E0F4E184E08083E3
:100BD00081E48A95F1F700C080810895E0E0F4E1B6
:100BE00085E0808381E48A95F1F700C080810895D3
:100BF000E0E0F4E186E0808381E48A95F1F700C0CB
:100C000080810895E0E0F4E187E0808381E48A95C3
:100C1000F1F700C0808108950E94E40580932F03BE
:100C20000E94EE0580932E030895CF93DF930E94D8
:100C3000D4050E94E405D82F0E94EE05C82F6D2F21
:100C400070E080E090E00E94861520E030E04FEFF9
:100C500052E40E94F8130E944E15062E000C770BEA
:100C6000880B990B0E94861520E030E04FEF52E48C
:100C70000E94DC1420E030E048EC52E40E946A1646
:100C80000E944E15D62F6C2F70E080E090E00E94FD
:100C9000861520E030E04FEF52E40E94F8130E94E6
:100CA0004E15062E000C770B880B990B0E948615AB
:100CB00020E030E04FEF52E40E94DC1420E030E00E
:100CC00048EC52E40E946A160E944E15962F8D2F12
:100CD000DF91CF910895CF92DF92EF92FF92CF9361
:100CE000DF930E941506D82FC92F682F880F770B26
:100CF000880B990B0E9486156B017C016C2F0C2EC2
:100D0000000C770B880B990B0E948615A7019601A2
:100D10000E9478140E944E1544EB469F9001479F15
:100D2000300D1124B901330F880B990B0E948615E1
:100D300020ED3FE049E450E40E94DC146B017C01AB
:100D4000C65FC53120F4D65FD53108F452C020E02B
:100D500030E044E352E4C701B6010E945D168823E7
:100D60005CF020E030E047E053E4C701B6010E94A8
:100D7000D71418160CF040C020E030E044E352ECE9
:100D8000C701B6010E94D714181654F020E030E0D5
:100D900047E053ECC701B6010E945D1688237CF53D
:100DA00020E030E044E352E4C701B6010E94D714CA
:100DB000181654F020E030E044E352ECC701B601CD
:100DC0000E945D168823F4F420E030E047E053E40D
:100DD000C701B6010E945D168823BCF420E030E014
:100DE00047E053ECC701B6010E94D714181684F4EB
:100DF00011C084E090E00EC080E090E00BC081E084
:100E000090E008C083E090E005C082E090E002C07E
:100E100082E090E0DF91CF91FF90EF90DF90CF9054
:100E20000895BA9886B380E090E00895CF93DF9359
:100E30000E940206D82F0E94F805C82F6D2F70E07F
:100E400080E090E00E94861520E030E04FEF52E411
:100E50000E94F8130E944E15062E000C770B880B8B
:100E6000990B0E94861520E030E04FEF52E40E947B
:100E7000DC1420E030E048EC52E40E946A160E9444
:100E80004E15D62F6C2F70E080E090E00E94861502
:100E900020E030E04FEF52E40E94F8130E944E151C
:100EA000062E000C770B880B990B0E94861520E00C
:100EB00030E04FEF52E40E94DC1420E030E048ECD8
:100EC00052E40E946A160E944E15962F8D2FDF91D4
:100ED000CF910895B99886B38695817090E0089572
:100EE000B89886B3817090E00895E0910201F09186
:100EF00003018083089585B7806885BF80B78062CD
:100F000080BFE0910201F09103018EEA8083E091BD
:100F10000201F091030181EA8083E0910201F091E6
:100F200003018AED8083E0910201F091030182E1E7
:100F30008083E0910201F091030188E08083E091D9
:100F40000201F091030188EA8083E0910201F091AF
:100F500003018FE38083E0910201F091030185EDAD
:100F60008083E0910201F091030180E88083E091A9
:100F70000201F091030181E88083E0910201F09188
:100F8000030180E58083E0910201F091030189ED86
:100F90008083E0910201F091030181E28083E0917E
:100FA0000201F091030180E28083E0910201F0915F
:100FB000030182E08083E0910201F09103018BED57
:100FC0008083E0910201F091030180E38083E0914E
:100FD0000201F09103018DEA8083E0910201F0911A
:100FE00003011082E0910201F091030184EA808301
:100FF000E0910201F091030186EA8083E091020111
:10100000F09103018FEA8083E0910201F0910301E6
:1010100088EC80830895E0910001F09101018083C4
:101020000895E0910201F091030191E29083E09133
:101030000201F09103018083E0910201F09103012C
:1010400060830895E0910201F091030192E29083A0
:10105000E0910201F09103018083E0910201F0919F
:10106000030160830895E0910201F0910301982F3C
:101070009F70908382958F708061E0910201F09162
:10108000030180830895E0910201F0910301806BD8
:1010900080830895E0910201F091030180E2808352
:1010A000E0910201F091030110826FE780E00E945D
:1010B000110867E080E00E94220880E094E0E0915F
:1010C0000001F091010110820197C9F7E09102013E
:1010D000F091030180E28083E0910201F09103012D
:1010E00082E080830895CF93C62FE0910201F091B2
:1010F000030190E29083E0910201F091030192E0FC
:1011000090830E9433088C2F0E944308E0910001D5
:10111000F091010188E18083E0910001F0910101EB
:101120008083E0910001F09101019EE79083E091BE
:101130000001F09101019CE39083E0910001F091A6
:1011400001018083CF910895653039F540EE480F55
:10115000242F30E0A901440F551F440F551F420FA3
:10116000531F20E030E0F901E40FF51FEA56FC4F71
:10117000E491A0910001B0910101EC932F5F3F4FEA
:101180002530310581F790E08D50924029F1E091B2
:101190000001F0910101108208956830E9F4805255
:1011A00090E0FC01EE0FFF1FEE0FFF1FEE0FFF1F81
:1011B000E256FF4F880F991F880F991F880F991FBC
:1011C0008A559F4F2491A0910001B09101012C9369
:1011D0003196E817F907B1F70895DF92EF92FF9281
:1011E0000F931F93CF93DF938C01D62E7C01C0E029
:1011F000D0E007C06D2DF70181917F010E94A40806
:101200002196F80101900020E9F73197E01BF10BDE
:10121000CE17DF0778F3DF91CF911F910F91FF90E9
:10122000EF90DF900895CF92DF92EF92FF921F939D
:10123000CF93DF936C017B01142F86E090E00E9436
:10124000DB16EC01D982C882FB82EA82812F90E012
:10125000880F991F0E94DB169D838C83CE01DF913E
:10126000CF911F91FF90EF90DF90CF90089550E0C5
:10127000440F551FFC0184819581FC01E40FF51F8B
:10128000718360830895CF93DF93EC018881998106
:101290009F938F938FE092E09F938F930E94AF185C
:1012A0000E944A0880E00E9443088CE00E943308B4
:1012B0008881998168E00E94ED0882E00E944308DD
:1012C00080E20E943308EC81FD810190F081E02DE5
:1012D00065E0808191810E94ED0884E00E944308CE
:1012E00080E20E943308EC81FD810280F381E02DD1
:1012F00065E0808191810E94ED080F900F900F9022
:101300000F90DF91CF91089543E060E070E08BE1B2
:1013100092E00E941309909354038093530343E097
:10132000BC0183E592E00E941309909348038093E7
:101330004703609153037091540342E085E292E0C9
:101340000E9413099093400380933F0360915303DD
:101350007091540343E084E392E00E941309909358
:10136000420380934103609147037091480342E038
:101370008DE392E00E9413099093580380935703E2
:10138000609147037091480342E08DE492E00E942F
:1013900013099093500380934F0360913F03709122
:1013A000400342E08EE592E00E94130990934E03C1
:1013B00080934D0341E0BC0189E692E00E9413094D
:1013C000909356038093550360914D0370914E03A3
:1013D00041E08EE692E00E94130990935C038093B3
:1013E0005B0360913F037091400342E085E792E028
:1013F0000E94130990934C0380934B0341E0BC017E
:1014000089E692E00E94130990935A03809359034E
:1014100060914B0370914C0341E08EE692E00E9494
:101420001309909352038093510340E060E070E011
:101430008FE792E00E941309909334038093330363
:10144000909346038093450380913F03909140031E
:10145000E0915303F09154030480F581E02D9183D2
:101460008083E0915303F0915403A481B58180916E
:1014700047039091480313969C938E931297048090
:10148000F581E02D809141039091420395838483FF
:1014900080914B0390914C03E0913F03F091400306
:1014A0000480F581E02D91838083E0914D03F091DC
:1014B0004E03A0913F03B091400314960D90BC9150
:1014C000A02D1396FC93EE93129780915503909163
:1014D00056030480F581E02D91838083E0914D03D4
:1014E000F0914E030480F581E02D80915B03909193
:1014F0005C03938382838091590390915A03E09116
:101500004B03F0914C030480F581E02D918380839F
:10151000E0914B03F0914C030480F581E02D809124
:101520005103909152039383828380915903909148
:101530005A039093440380934303809157039091FF
:101540005803E0914703F09148030480F581E02DB2
:1015500091838083E0914703F09148030480F581F3
:10156000E02D80914F03909150039383828380916B
:1015700053039091540390935E0380935D03909383
:101580004A03809349030E9443090895FC0182E0C5
:1015900090E09183808384E090E09383828314823F
:1015A000158262E084E10E9473080895CF93DF936F
:1015B000EC010E9415069D83DF91CF910895CF9392
:1015C0009C019FEF960F9430A0F4C62FF901808103
:1015D0000E94430884E10E94330865E08DE092E0B8
:1015E0000E94ED086C2F84E10E94730881E090E076
:1015F00002C080E090E0CF910895CF93DF93EC019B
:101600000E946B068130910521F0F0F00497A9F15A
:1016100041C08A819B81049781F581E090E09B83A2
:101620008A834091490350914A0368816E5FCE01DD
:101630000E94DF0A892B89F188819981029699831A
:10164000888381E090E02EC08A819B810497A9F471
:101650001B821A824091490350914A03688162506B
:10166000CE010E94DF0A892BD9F0888199810297E7
:101670009983888380E090E015C0409149035091A0
:101680004A036881CE010E94DF0A84E090E09B83D8
:101690008A8308C08FEF9FEF05C081E090E002C011
:1016A00080E090E0DF91CF910895FF920F931F9318
:1016B000CF93DF93EC010E946A07892B09F051C098
:1016C0000E947007892B09F04CC051C000E010E067
:1016D000FF24F39428813981332314F42F5F3F4F83
:1016E00035952795215031092017310701F5E091F3
:1016F0004903F0914A030480F581E02D220F331F46
:10170000E20FF31F8081918190934A0380934903F4
:101710000E9443092091490330914A038091430379
:10172000909144032817390711F4F09230030F5FAA
:101730001F4F0230110571F60E947007892BB9F016
:10174000E0914903F0914A0382819381892B79F0DA
:101750008281938190934A03809349030E944309B5
:1017600006C00E946A07892B09F0B0CFE5CFDF9150
:10177000CF911F910F91FF900895809130030895AC
:1017800080914503909146030E9443090895CF93A9
:10179000DF93EC010E944A08809153039091540317
:1017A00090934A03809349030E944309CE010E940B
:1017B000C60A10923003DF91CF91089587B3806BF2
:1017C00087BB8DB181658DB908958FB9779BFECFA9
:1017D00008958AEA0E94E50B8FB10895BC9A882388
:1017E00019F0813011F00895C498C49A089588239F
:1017F00019F0813019F00895C4980895C49A089595
:10180000CF93C82F80E00E94F70B83E00E94E50B86
:101810008C2F0E94E50B0E94E90BC82F81E00E94EB
:10182000F70B8C2FCF910895CF93DF93C82FD62F2E
:1018300080E00E94F70B82E00E94E50B8D2F0E9452
:10184000E50B8C2F0E94E50B81E00E94F70BDF91E6
:10185000CF910895CF93C82F80E00E94F70BC1303D
:1018600051F028F0C23059F0C33069F00FC081E860
:101870000E94E50B0BC082E80E94E50B07C084E8DC
:101880000E94E50B03C087E80E94E50B81E00E94FF
:10189000F70BCF910895CF9380E00E94F70B80EA79
:1018A0000E94E50B0E94E90BC82F81E00E94F70B14
:1018B0008C2FCF9108951F93CF93DF93182FD62F9E
:1018C000C42F80E00E94F70B85E00E94E50B812F7A
:1018D0000E94E50B8D2F0E94E50B8C2F0E94E50BDB
:1018E00081E00E94F70BDF91CF911F91089580E076
:1018F0000E94F70B80EC0E94E50B81E00E94F70B41
:101900008FEF9FE20197F1F700C0000008950E9459
:10191000DE0B0E94770C8EE00E94000C807E8038E7
:1019200061F01F928F938CE892E09F938F930E94B7
:10193000AF180F900F900F900F900895CF93C82F6E
:101940000E94870C6FE08C2F0E94140C8FE00E9485
:10195000000C1F928F9384ED92E09F938F930E94CF
:10196000AF1843E063E08BE20E945B0C40E063E071
:101970008CE20E945B0C8BB780628BBF85B7826064
:1019800085BF85B78E7F85BF86B1817086B90F9080
:101990000F900F900F90CF910895EF92FF920F93B9
:1019A0001F93CF93DF938C01809131039091320389
:1019B0000196833091052CF4909332038093310388
:1019C00004C01092320310923103F801208131815A
:1019D0007901F7E0EF22FF24C1E3D3E0688162954B
:1019E000607F6F5CC90196958795969587959695CA
:1019F00087950E94140C68816295607F6E5C8E2DC5
:101A00008295880F807E0E94140C68816295607FA9
:101A10006B5CF80182810E94140CF801828188239A
:101A2000D1F0C0E00F2EF1E3EF2EF3E0FF2EF02D0A
:101A3000F70180816C2FF0E18F9F600D11246A5CAB
:101A4000F801EC0FF11D83810E94140CCF5FF801A7
:101A50008281C81768F380913103909132038130FD
:101A6000910551F08230910561F0892B71F460E3AA
:101A700088E00E94140C09C060E488E00E94140C05
:101A800004C060E588E00E94140C809131030E943C
:101A90002A0CDF91CF911F910F91FF90EF90089545
:101AA000EF92FF920F931F93CF93DF937C018B01F3
:101AB000D82FD295D07F81E68D0F0E94000CC82FC1
:101AC00082E68D0F0E94000C807E282F30E0369534
:101AD0002795329522952F7023273F702327C90120
:101AE00048E0C49F800D911D1124F80191838083EB
:101AF00085E68D0F0E94000C8F70F8018283882389
:101B000079F0C0E0DA598D2F8C0F0E94000CF8019B
:101B1000EC0FF11D8383CF5FF8019281C91798F311
:101B2000E114F10421F0EA94EF2831F009C061E0FA
:101B300080E00E94140C04C062E080E00E94140C5B
:101B4000F801C081D181CE019695879596958795AC
:101B50009695879561E30E94140C62E38C2F829521
:101B6000880F807E0E94140C65E3F80182810E9438
:101B7000140CF8018281882371F0C0E066E36C0FD9
:101B8000F801EC0FF11D83810E94140CCF5FF80166
:101B90008281C81798F38CE20E94000C8E7F8F7DA3
:101BA0006CE20E94140C40E063E08CE20E945B0C4B
:101BB000DF91CF911F910F91FF90EF900895CF93F8
:101BC000DF93EC010E94150621E030E03983288381
:101BD0008B839C83282F082E000C330B3F938F930D
:101BE00081EF92E09F938F930E94AF188C81282FF2
:101BF000082E000C330B3F938F9382E093E09F936A
:101C00008F930E94AF1882E08A838B81082E000C8C
:101C1000990B99231CF491958195910920915F036B
:101C2000022E000C330B33231CF43195219531091E
:101C3000821B930B2DB73EB7285F3F4F0FB6F8942A
:101C40003EBF0FBE2DBF0697BCF48C81082E000C42
:101C5000990B99231CF4919581959109209160032A
:101C6000022E000C330B33231CF4319521953109DE
:101C7000821B930B06977CF0CE010E94CD0C8A81CB
:101C8000882369F09B8190935F03823040F08C81C0
:101C90008093600304C08B8180935F03F8CFDF9152
:101CA000CF910895EF92FF920F931F93CF93DF93FD
:101CB000EC010E9402060E941506E82EF92E0E94F1
:101CC0001607182F0E946A07082F0E94700724E049
:101CD00030E039832883EB82FC821D838E830F835F
:101CE00085E08A83212F012E000C330B8091610344
:101CF000281B310987FD3395C901992324F48827CE
:101D00009927821B930B02972CF010936103CE014D
:101D10000E94CD0C8B81082E000C990B20915F0343
:101D2000821B910927FD93959C01992324F4222776
:101D30003327281B390B22303105A4F48C81082E5F
:101D4000000C990B20916003821B910927FD93954C
:101D50009C01992324F422273327281B390B223096
:101D600031054CF0CE010E94CD0CEFE5F3E08B8104
:101D700080838C8181838F81813019F4CE010E9410
:101D8000CD0CDF91CF911F910F91FF90EF900895AF
:101D90000F931F93CF93DF93082F162FD8E0C0E047
:101DA00084E00E94DB058170CC0FC82BD150C1F7B5
:101DB0008C2F90E00E9459180E945418612F70E0F7
:101DC0006F5F7F4F601B71090E94D013800FDF91FE
:101DD000CF911F910F910895CF92DF92FF920F93B1
:101DE0001F93CF93DF930E944A08F12C0F2EF9E93D
:101DF000CF2EF8E0DF2EF02D01EA18E081E00E94FE
:101E000043088F2D0E943308E601FE0184910E9451
:101E10000B082196C017D107C1F7F394FFE7FF1213
:101E2000EDCFF12C0F2EF1EACF2EF8E0DF2EF02DC2
:101E300009EA18E081E00E9443088F2D0E943308D0
:101E4000E601FE0184910E940B082196C017D1077C
:101E5000C1F7F394FFE7FF12EDCFF12C0F2EF9EA53
:101E6000CF2EF8E0DF2EF02D01EB18E08F2D0E9431
:101E7000430880E00E943308E601FE0184910E943D
:101E80000B082196C017D107C1F7F394F8E0FF12B1
:101E9000EDCFF12C0F2EF1EBCF2EF8E0DF2EF02D51
:101EA00009EB18E08F2D0E94430880E00E94330860
:101EB000E601FE0184910E940B082196C017D1070C
:101EC000C1F7F394F8E0FF12EDCFDF91CF911F91AE
:101ED0000F91FF90DF90CF900895BF92CF92DF9245
:101EE000EF92FF920F931F93CF93DF937C0190911A
:101EF0000401992339F1B12C0F2EF1E9CF2EF8E02E
:101F0000DF2EF02D09E918E0CB2DD0E0CC0FDD1F3E
:101F1000CE0DDF1DE881F98182810E944308E881AE
:101F2000F98180810E943308E601FE0184910E94BC
:101F30000B082196C017D107C1F7B3948091040113
:101F4000B81610F3DF91CF911F910F91FF90EF9092
:101F5000DF90CF90BF900895EF92FF920F931F9361
:101F6000CF93DF93EC018B012C813D818E819F818A
:101F70002817390709F478C02130310509F45AC00F
:101F800024F4232B09F43CC0E6C022303105F1F0E3
:101F90002330310509F0DFC08A810E94430888811F
:101FA0000E943308C1E7D8E00F2EF9E7EF2EF8E0E2
:101FB000FF2EF02DFE0184910E940B082196CE1574
:101FC000DF05C1F7C8010E946D0FC5C08A810E945C
:101FD000430888810E943308C9E7D8E00F2EF1E852
:101FE000EF2EF8E0FF2EF02DFE0184910E940B08E9
:101FF0002196CE15DF05C1F7C8010E946D0FABC059
:102000008A810E94430888810E943308C1E8D8E091
:102010000F2EF9E8EF2EF8E0FF2EF02DFE0184914F
:102020000E940B082196CE15DF05C1F7C8010E945A
:102030006D0F91C08A810E94430888810E943308F5
:10204000C9E8D8E00F2EF1E9EF2EF8E0FF2EF02DD1
:10205000FE0184910E940B082196CE15DF05C1F781
:10206000C8010E946D0F77C02130310509F45AC0B4
:1020700024F4232B09F43CC06EC022303105F1F06A
:102080002330310509F067C08A810E9443088881A6
:102090000E943308C1E7D8E00F2EF9E7EF2EF8E0F1
:1020A000FF2EF02DFE0184910E940B082196CE1583
:1020B000DF05C1F7C8010E946D0F4DC08A810E94E3
:1020C000430888810E943308C9E7D8E00F2EF1E861
:1020D000EF2EF8E0FF2EF02DFE0184910E940B08F8
:1020E0002196CE15DF05C1F7C8010E946D0F33C0E0
:1020F0008A810E94430888810E943308C1E8D8E0A1
:102100000F2EF9E8EF2EF8E0FF2EF02DFE0184915E
:102110000E940B082196CE15DF05C1F7C8010E9469
:102120006D0F19C08A810E94430888810E9433087C
:10213000C9E8D8E00F2EF1E9EF2EF8E0FF2EF02DE0
:10214000FE0184910E940B082196CE15DF05C1F790
:10215000C8010E946D0FDF91CF911F910F91FF90E9
:10216000EF9008950F931F93CF93DF93EC018A8133
:102170000E94430888810E943308C9EBD8E001EC33
:1021800018E0FE0184910E940B082196C017D10728
:10219000C1F7DF91CF911F910F9108950F931F9376
:1021A000CF93DF93EC018A810E94430888810E94CB
:1021B0003308C1E7D5E009E715E0FE0184910E94EC
:1021C0000B082196C017D107C1F7DF91CF911F915E
:1021D0000F910895EF92FF920F931F93CF93DF9388
:1021E000EC01E881F981EA0128813981E217F307DE
:1021F00009F077C0FC01228133818A819B812817F5
:10220000390709F06EC020910401E22FF0E0EE0FD3
:10221000FF1FE60FF71F0190F081E02D848195816B
:102220008130910599F01CF4009741F02FC0823065
:102230009105A9F083309105E9F028C00081118152
:10224000A281B3811196E12CF12C22C00081118171
:10225000A281B3811197EE24E394F12C19C000817F
:10226000118108501109A281B3816894EE24E1F82C
:10227000F12C0EC000811181085F1F4FA281B38134
:102280000F2EF3E0EF2EF12CF02D02C080E090E055
:10229000EA012F5F20930401E22FF0E0EE0FFF1F11
:1022A000E60FF71F0190F081E02D11830083B383C7
:1022B000A28395838483F782E68260E788E00E94A8
:1022C000C80E90E09983888366E081E00E94C80E82
:1022D00090E09B838A83CE010E94CE10CE010E94A3
:1022E000B210DF91CF911F910F91FF90EF90089561
:1022F000FB01268137812817390721F084309105A9
:10230000C9F59CC0358324832130310599F024F42C
:102310002115310541F02EC022303105E9F023307E
:10232000310509F127C0428153814F5F5F4F5383CD
:10233000428399C042815381415051095383428362
:1023400081309105B9F120F18230910509F448C03E
:10235000039709F45CC008954081518148505109A8
:102360005183408380C040815181485F5F4F5183DA
:10237000408379C081309105E9F038F082309105D1
:1023800079F1039709F443C008952130310531F400
:10239000BF0184E090E00E947811089582819381CA
:1023A00001969383828384819581978386831582A6
:1023B00014820895232B31F4BF0184E090E00E9441
:1023C0007811089582819381019793838283848118
:1023D00095819783868381E090E095838483089537
:1023E0002330310531F4BF0184E090E00E94781180
:1023F000089580819181089791838083848195815C
:102400009783868382E090E09583848308952230C9
:10241000310531F4BF0184E090E00E947811089505
:1024200080819181089691838083848195819783AF
:10243000868383E090E095838483089535832483A5
:102440002130310509F476CF2CF42115310509F43A
:102450006ACF08952230310509F47ECF233031054B
:1024600009F481CF08958130910509F4A3CF08F4D0
:1024700095CF8230910509F4B3CF039741F20895C7
:10248000CF93DF93EB01FA01A881B981808191811B
:102490008D939C93A881B9818281938113969C939B
:1024A0008E931297A881B98114968D919C9115975E
:1024B00017969C938E931697A881B98184819581F4
:1024C00015969C938E9314978091040190E0019748
:1024D000181619060CF045C020E0E22FF0E0319606
:1024E000EE0FFF1FDE01AE0FBF1F8D919C91119764
:1024F0003297BF016C0F7D1FFB0140815181FA01B2
:1025000040815181FC01518340838D919C911197B1
:10251000FB0140815181FA0142815381FC015383C7
:1025200042838D919C911197FC0144815581578381
:1025300046830D90BC91A02DFB0180819181FC010F
:102540008681978115969C938E9314972F5F422FC7
:1025500050E08091040190E00197481759070CF46E
:10256000BCCFDF91CF910895BF92CF92DF92EF92CF
:10257000FF920F931F93CF93DF930F2EF6E0EF2E72
:10258000F02D0F2EFEE0BF2EF02D09E715E00F2EE7
:10259000F1E7CF2EF5E0DF2EF02D10C0FE01849183
:1025A0000E940B082196C017D107C1F7FA94FF20AB
:1025B00011F0E601F3CFEA94EE2011F0FB2CF9CFF5
:1025C000DF91CF911F910F91FF90EF90DF90CF900F
:1025D000BF900895CF92DF92EF92FF920F931F93D7
:1025E000CF93DF93EC018B017A010E946B066C01A3
:1025F000AE01B8010E944012BE01C6010E947811CE
:102600000E94B412C7010E94B210C7010E94B2100A
:10261000B801CE010E94AC0FDF91CF911F910F91B5
:10262000FF90EF90DF90CF9008950F931F93CF937B
:10263000DF93FC01408151819A01285031092037F4
:10264000310518F502811381C8010197069700F53D
:10265000C0910401D0E01C161D06ECF4A62FB72F84
:1026600080E090E0ED91FD91208131814217530788
:1026700029F4228133810217130781F001968C1708
:102680009D0781F780E090E00BC081E090E008C0FA
:1026900081E090E005C080E090E002C081E090E041
:1026A000DF91CF911F910F9108951F93CF93DF93E7
:1026B0000E944A0881E00E94430880E10E9433089A
:1026C00068E083E193E00E94ED0883E00E94430804
:1026D00080E20E94330868E08DE193E00E94ED08FB
:1026E00085E00E94430880E30E943308C091040102
:1026F000D0E0CC0FDD1FCC0FDD1FCC0FDD1FC7518D
:10270000DA4F10E0FE0184910E940B081F5F2196B2
:102710001830C1F785E00E94430880E40E94330826
:1027200068E084E293E00E94ED08DF91CF911F9171
:102730000895CF93DF93CDB7DEB7C45FD1400FB616
:10274000F894DEBF0FBECDBF1A8219821C821B8295
:1027500060E788E00E94C80E66E081E00E94C80E33
:102760000E94EC0E80E090E00E94B210BE016F5F0C
:102770007F4F80E090E00E94AC0FE12CF12CA7018C
:10278000BE016F5F7F4F00E010E0C8010E94EA12B7
:10279000A701BE016F5F7F4FC8010E94EA10EDCF15
:1027A00097FB072E16F4009407D077FD09D00E94FE
:1027B000E41307FC05D03EF4909581959F4F089552
:1027C000709561957F4F0895AA1BBB1B51E107C00F
:1027D000AA1FBB1FA617B70710F0A61BB70B881FB1
:1027E000991F5A95A9F780959095BC01CD01089540
:1027F0005058BB27AA270E9410140C9423160E943D
:10280000151638F00E941C1620F039F49F3F19F479
:1028100026F40C94EB150EF4E095E7FB0C94E5150B
:10282000E92F0E94341658F3BA176207730784071A
:10283000950720F079F4A6F50C9456160EF4E09561
:102840000B2EBA2FA02D0B01B90190010C01CA016A
:10285000A0011124FF27591B99F0593F50F4503E15
:1028600068F11A16F040A22F232F342F4427585F07
:10287000F3CF469537952795A795F0405395C9F71F
:102880007EF41F16BA0B620B730B840BBAF09150D7
:10289000A1F0FF0FBB1F661F771F881FC2F70EC076
:1028A000BA0F621F731F841F48F487957795679549
:1028B000B795F7959E3F08F0B0CF9395880F08F035
:1028C0009927EE0F9795879508950E94151660F049
:1028D00080E891E009F49EEF0E941C1628F040E881
:1028E00051E071F45EEF0CC00C94EB150C9456168D
:1028F000E92FE0780E94341640F3092E052AB1F33F
:10290000261737074807590738F00E2E07F8E02535
:1029100069F0E025E0640AC0EF6307F8009407FA65
:10292000DB01B9019D01DC01CA01AD01EF930E94F9
:10293000F3140E9423160E94A8145F91552339F0C6
:102940002BED3FE049E450FD49EC0C94F913089558
:10295000DF93DD27B92FBF7740E85FE31616170630
:1029600048075B0718F4D92F0E9462169F938F9334
:102970007F936F930E94D716E0E7F0E00E94EE1578
:102980000E9423162F913F914F915F910E947D16D7
:10299000DD2351F09058A2EA2AED3FE049EC5FE3D5
:1029A000D0785D270E941014DF910C9423160E94AA
:1029B000C11508F481E008950E94F0140C942316C8
:1029C0000E941C1658F00E94151640F029F45F3F33
:1029D00029F00C94E51551110C9457160C94EB1535
:1029E0000E94341668F39923B1F3552391F3951B94
:1029F000550BBB27AA2762177307840738F09F5F20
:102A00005F4F220F331F441FAA1FA9F335D00E2E8C
:102A10003AF0E0E832D091505040E695001CCAF7F9
:102A20002BD0FE2F29D0660F771F881FBB1F2617BC
:102A300037074807AB07B0E809F0BB0B802DBF0193
:102A4000FF2793585F4F3AF09E3F510578F00C9462
:102A5000E5150C9457165F3FE4F3983ED4F3869542
:102A600077956795B795F7959F5FC9F7880F911D83
:102A70009695879597F90895E1E0660F771F881F6F
:102A8000BB1F621773078407BA0720F0621B730B22
:102A9000840BBA0BEE1F88F7E09508950E94551538
:102AA0006894B1110C94571608950E943C1688F052
:102AB0009F5798F0B92F9927B751B0F0E1F0660F02
:102AC000771F881F991F1AF0BA95C9F714C0B13043
:102AD00091F00E945616B1E008950C945616672F97
:102AE000782F8827B85F39F0B93FCCF38695779572
:102AF0006795B395D9F73EF490958095709561955B
:102B00007F4F8F4F9F4F0895E89409C097FB3EF485
:102B100090958095709561957F4F8F4F9F4F99232A
:102B2000A9F0F92F96E9BB279395F69587957795A8
:102B30006795B795F111F8CFFAF4BB0F11F460FF68
:102B40001BC06F5F7F4F8F4F9F4F16C0882311F0C0
:102B500096E911C0772321F09EE8872F762F05C0D4
:102B6000662371F096E8862F70E060E02AF09A956F
:102B7000660F771F881FDAF7880F9695879597F964
:102B80000895990F0008550FAA0BE0E8FEEF1616FE
:102B90001706E807F907C0F012161306E407F50751
:102BA00098F0621B730B840B950B39F40A2661F0C5
:102BB000232B242B252B21F408950A2609F4A14068
:102BC000A6958FEF811D811D089597F99F6780E875
:102BD00070E060E008959FEF80EC0895DF93CF935D
:102BE0001F930F93FF92EF92DF927B018C01689409
:102BF00006C0DA2EEF010E947D16FE01E894A59131
:102C00002591359145915591A6F3EF010E9410143D
:102C1000FE019701A801DA9469F7DF90EF90FF9029
:102C20000F911F91CF91DF91089500240A941616F9
:102C3000170618060906089500240A9412161306AA
:102C4000140605060895092E0394000C11F4882338
:102C500052F0BB0F40F4BF2B11F460FF04C06F5F54
:102C60007F4F8F4F9F4F089557FD9058440F551F2A
:102C700059F05F3F71F04795880F97FB991F61F0FE
:102C80009F3F79F087950895121613061406551F75
:102C9000F2CF4695F1DF08C0161617061806991FE1
:102CA000F1CF86957105610508940895E894BB27D6
:102CB00066277727CB0197F908950E94C11508F47C
:102CC0008FEF08959B01AC0160E070E080E89FE326
:102CD0000C94DC140E947D160C9423160E94151689
:102CE00038F00E941C1620F0952311F00C94E51585
:102CF0000C94EB1511240C9457160E94341670F3A3
:102D0000959FC1F3950F50E0551F629FF001729F90
:102D1000BB27F00DB11D639FAA27F00DB11DAA1F9F
:102D2000649F6627B00DA11D661F829F2227B00DEC
:102D3000A11D621F739FB00DA11D621F839FA00D77
:102D4000611D221F749F3327A00D611D231F849FC7
:102D5000600D211D822F762F6A2F11249F5750401E
:102D60009AF0F1F088234AF0EE0FFF1FBB1F661F99
:102D7000771F881F91505040A9F79E3F510580F062
:102D80000C94E5150C9457165F3FE4F3983ED4F38A
:102D9000869577956795B795F795E7959F5FC1F706
:102DA000FE2B880F911D9695879597F908959B01A5
:102DB000AC010C946A16CF93DF938230910510F426
:102DC00082E090E0E0916403F091650320E030E060
:102DD000C0E0D0E0309711F1408151814817590788
:102DE000C0F04817590761F482819381209719F048
:102DF0009B838A832BC0909365038093640326C0D2
:102E00002115310519F04217530718F49A01BE0134
:102E1000DF01EF010280F381E02DDCCF21153105C8
:102E200009F1281B390B2430310590F412968D914D
:102E30009C9113976115710521F0FB0193838283A7
:102E400004C09093650380936403FD01329644C0EF
:102E5000FD01E20FF31F81939193225031092D93CD
:102E60003C933AC02091620330916303232B41F4D9
:102E7000209107013091080130936303209362038E
:102E800020910501309106012115310541F42DB73E
:102E90003EB74091090150910A01241B350BE09186
:102EA0006203F0916303E217F307A0F42E1B3F0BBC
:102EB0002817390778F0AC014E5F5F4F24173507AC
:102EC00048F04E0F5F1F509363034093620381935A
:102ED000919302C0E0E0F0E0CF01DF91CF9108953F
:102EE0000F931F93CF93DF93009709F48CC0FC01DD
:102EF00032971382128200916403109165030115C9
:102F0000110581F420813181820F931F209162038A
:102F1000309163032817390779F5F0936303E09341
:102F2000620371C0D80140E050E0AE17BF0750F413
:102F300012962D913C911397AD012115310509F1A0
:102F4000D901F3CF9D01DA0133832283608171813E
:102F5000860F971F8217930769F4EC012881398146
:102F6000260F371F2E5F3F4F318320838A819B813D
:102F700093838283452B29F4F0936503E0936403E4
:102F800042C01396FC93EE931297ED01499159912B
:102F90009E01240F351FE217F30771F480819181A0
:102FA000840F951F029611969C938E938281938134
:102FB00013969C938E931297E0E0F0E0D80112965E
:102FC0008D919C911397009719F0F8018C01F6CF21
:102FD0008D919C9198012E5F3F4F820F931F2091FE
:102FE0006203309163032817390769F4309729F495
:102FF000109265031092640302C013821282109330
:10300000630300936203DF91CF911F910F910895A5
:103010008F929F92AF92BF92CF92DF92EF92FF92E8
:10302000CF93DF93EC01688179818A819B8161155F
:1030300071058105910521F464E279ED8BE597E056
:103040002DE133EF41E050E00E94961B49015A0107
:103050009B01AC01A7EAB1E40E94B51B6B017C01A6
:10306000ACEEB4EFA50194010E94C31BDC01CB01BF
:103070008C0D9D1DAE1DBF1DB7FF03C00197A1099B
:10308000B04888839983AA83BB839F77DF91CF91D0
:10309000FF90EF90DF90CF90BF90AF909F908F9078
:1030A00008950E94081808958BE091E00E94081886
:1030B0000895A0E0B0E080930B0190930C01A093E1
:1030C0000D01B0930E0108950F931F93CF93DF93DB
:1030D000009731F46115710519F480E090E03AC071
:1030E0008B01EC016EE070E081E090E00E94C71A75
:1030F000FC01892B91F380E883830115110571F0A0
:103100001387028781E88383809166039091670328
:10311000892B21F4F0936703E09366032097C9F0AD
:10312000D187C08783818260838380916803909177
:103130006903892B71F4F0936903E093680380912C
:103140006A0390916B03892B21F4F0936B03E09356
:103150006A03CF01DF91CF911F910F910895A0E0F5
:10316000B0E0E5EBF8E10C94D81BAE014B5F5F4F8C
:10317000FA0161917191AF018091680390916903A7
:103180000E94F518E2E00C94F41B0F931F93CF9369
:10319000DF93E0916803F0916903238121FF1BC055
:1031A0008C01D0E0C0E0F80181918F01609168034B
:1031B00070916903DB011896ED91FC9119978823B2
:1031C00031F00995892B79F3DFEFCFEFECCF8AE06F
:1031D0000995892B19F08FEF9FEF02C08D2F9C2F3F
:1031E000DF91CF911F910F910895ACE0B0E0EBEF2C
:1031F000F8E10C94C81B7C016B018A01FC01178269
:103200001682838181FFBDC1CE0101964C01F70179
:103210009381F60193FD859193FF81916F0188233E
:1032200009F4ABC1853239F493FD859193FF819107
:103230006F01853229F4B70190E00E94001BE7CFAF
:10324000512C312C20E02032A0F48B3269F030F484
:10325000803259F0833269F420612CC08D3239F00C
:10326000803339F4216026C02260246023C02860A6
:1032700021C027FD27C030ED380F3A3078F426FF03
:1032800006C0FAE05F9E300D1124532E13C08AE071
:10329000389E300D1124332E20620CC08E3221F462
:1032A00026FD6BC1206406C08C3611F4206802C074
:1032B000883641F4F60193FD859193FF81916F016A
:1032C0008111C1CF982F9F7D9554933028F40C5FC6
:1032D0001F4FFFE3F9830DC0833631F0833771F060
:1032E000833509F05BC022C0F801808189830E5FBD
:1032F0001F4F44244394512C540115C03801F2E06F
:103300006F0E711CF801A080B18026FF03C0652DEF
:1033100070E002C06FEF7FEFC5012C870E94F51AA5
:103320002C0183012C852F77222E17C03801F2E063
:103330006F0E711CF801A080B18026FF03C0652DBF
:1033400070E002C06FEF7FEFC5012C870E94E31A87
:103350002C012C852068222E830123FC1BC0832D89
:1033600090E048165906B0F4B70180E290E00E9460
:10337000001B3A94F4CFF50127FC859127FE81913B
:103380005F01B70190E00E94001B31103A94F1E018
:103390004F1A51084114510471F7E5C0843611F0F9
:1033A000893639F5F80127FF07C060817181828174
:1033B00093810C5F1F4F08C060817181072E000C44
:1033C000880B990B0E5F1F4F2F76722E97FF09C047
:1033D00090958095709561957F4F8F4F9F4F206896
:1033E000722E2AE030E0A4010E94381BA82EA818F3
:1033F00044C0853729F42F7EB22E2AE030E025C064
:10340000F22FF97FBF2E8F36C1F018F4883579F08E
:10341000B4C0803719F0883721F0AFC02F2F20615A
:10342000B22EB4FE0DC08B2D8460B82E09C024FFCF
:103430000AC09F2F9660B92E06C028E030E005C074
:1034400020E130E002C020E132E0F801B7FE07C021
:1034500060817181828193810C5F1F4F06C0608102
:10346000718180E090E00E5F1F4FA4010E94381B25
:10347000A82EA818FB2DFF777F2E76FE0BC0372DC8
:103480003E7FA51450F474FE0AC072FC08C0372DAC
:103490003E7E05C0BA2C372D03C0BA2C01C0B52C16
:1034A00034FF0DC0FE01EA0DF11D8081803311F45F
:1034B000397E09C032FF06C0B394B39404C0832F91
:1034C000867809F0B39433FD13C030FF06C05A2C40
:1034D000B31418F4530C5B18B32CB31468F4B7018D
:1034E00080E290E03C870E94001BB3943C85F5CFBE
:1034F000B31410F43B1801C0312C34FF12C0B701D3
:1035000080E390E03C870E94001B3C8532FF17C09F
:1035100031FD03C088E790E002C088E590E0B70184
:103520000CC0832F867859F031FF02C08BE201C0B6
:1035300080E237FD8DE2B70190E00E94001BA514E8
:1035400038F4B70180E390E00E94001B5A94F7CF53
:10355000AA94F401EA0DF11D8081B70190E00E9468
:10356000001BA110F5CF332009F451CEB70180E242
:1035700090E00E94001B3A94F6CFF7018681978174
:1035800002C08FEF9FEF2C96E2E10C94E41B0F93A7
:103590001F93CF93DF93869F8001879F100D969F87
:1035A000100D1124C8010E94DB16EC01009729F0D0
:1035B000A80160E070E00E94EE1ACE01DF91CF9189
:1035C0001F910F910895FC0105906150704001100A
:1035D000D8F7809590958E0F9F1F0895DC0101C04C
:1035E0006D9341505040E0F70895FC0161507040E8
:1035F00001900110D8F7809590958E0F9F1F089528
:103600000F931F93CF93DF93FB01238121FD03C011
:103610008FEF9FEF28C022FF16C04681578124817B
:1036200035814217530744F4A081B1819D012F5F7A
:103630003F4F318320838C93268137812F5F3F4F0B
:103640003783268310C0EB01092F182F0084F185E2
:10365000E02D0995892BE1F68E819F8101969F834C
:103660008E83812F902FDF91CF911F910F9108951D
:10367000FA01AA27283051F1203181F1E8946F93A3
:103680006E7F6E5F7F4F8F4F9F4FAF4FB1E03ED049
:10369000B4E03CD0670F781F891F9A1FA11D680FE7
:1036A000791F8A1F911DA11D6A0F711D811D911D1A
:1036B000A11D20D009F468943F912AE0269F11248F
:1036C0003019305D3193DEF6CF010895462F4770F3
:1036D000405D4193B3E00FD0C9F7F6CF462F4F704E
:1036E000405D4A3318F0495D31FD4052419302D0AC
:1036F000A9F7EACFB4E0A695979587957795679552
:10370000BA95C9F700976105710508959B01AC0151
:103710000A2E06945795479537952795BA95C9F778
:10372000620F731F841F951FA01D0895052E97FB20
:103730001EF400940E94AD1B57FD07D00E94FF1B92
:1037400007FC03D04EF40C94AD1B5095409530957A
:1037500021953F4F4F4F5F4F0895909580957095FD
:1037600061957F4F8F4F9F4F08950E94211CA59F09
:10377000900DB49F900DA49F800D911D112408956C
:10378000B7FF0C94B51B0E94B51B821B930B0895C9
:103790002F923F924F925F926F927F928F929F9261
:1037A000AF92BF92CF92DF92EF92FF920F931F934F
:1037B000CF93DF93CDB7DEB7CA1BDB0B0FB6F89400
:1037C000DEBF0FBECDBF09942A88398848885F8440
:1037D0006E847D848C849B84AA84B984C884DF80B1
:1037E000EE80FD800C811B81AA81B981CE0FD11D95
:1037F0000FB6F894DEBF0FBECDBFED010895A1E274
:103800001A2EAA1BBB1BFD010DC0AA1FBB1FEE1F5A
:10381000FF1FA217B307E407F50720F0A21BB30BA5
:10382000E40BF50B661F771F881F991F1A9469F721
:1038300060957095809590959B01AC01BD01CF017D
:103840000895A29FB001B39FC001A39F700D811D79
:103850001124911DB29F700D811D1124911D089599
:04386000F894FFCF0A
:10386400001200100100006C03200001000000475A
:10387400616D65206F766572005265636569766572
:10388400643A2025640A0D005374617274696E678A
:10389400205352414D20746573742E2E2E0057729E
:1038A400697465207068617365206572726F723A1D
:1038B400206578745F72616D5B2534645D203D2002
:1038C40025303258202873686F756C642062652037
:1038D40025303258290A0052657472696576616C24
:1038E400207068617365206572726F723A20657822
:1038F400745F72616D5B2534645D203D2025303238
:1039040058202873686F756C6420626520253032F6
:1039140058290A005352414D207465737420636F13
:103924006D706C657465642077697468200A253449
:1039340064206572726F727320696E207772697485
:103944006520706861736520616E64200A253464A3
:10395400206572726F727320696E20726574726969
:103964006576616C2070686173650A0A00200054F2
:1039740049544C453A2025730A0D004D41494E20C7
:103984004D454E55005354415254204E45572047FF
:10399400414D450053455454494E47530053484FF5
:1039A40057204849474853434F52455300524553C3
:1039B4004554204849474853434F52455300504CBF
:1039C400415920534E414B4500454153590048410C
:1039D4005244455200504C415920504F4E470047E5
:1039E400414D45204F564552203A50004D435032E8
:1039F400353135206973204E4F5420696E20436F52
:103A04006E66696775726174696F6E206D6F646547
:103A14002061667465722072657365742120436F3A
:103A24006E6669672062697473206172653A202545
:103A3400780A0D0063616E20636F6E74726F6C2080
:103A440072656769737465723A20202578200A0DBF
:103A540000582E6A6F79737469636B3A2025640A7F
:103A64000D00592E6A6F79737469636B3A2025646B
:103A74000A0D0047414D45204F5645520053434FD0
:0C3A840052453A004150504C45533A0066
:00000001FF
