:100000000C945D040C947A040C947A040C94DB0434
:100010000C947A040C947A040C947A040C947A0468
:100020000C947A040C947A040C947A040C947A0458
:100030000C947A040C947A040C947A040C947A0448
:100040000C947A040C947A040C947A040C947A0438
:100050000C947A040C947A040C947A040C947A0428
:100060000C947A040C947A040C947A040C947A0418
:10007000084AD73B3BCE016E84BCBFFDC12F3D6C0F
:1000800074319ABD56833DDA3D00C77F11BED9E475
:10009000BB4C3E916BAAAABE000000803F0000004E
:1000A00000000000000000065F5F0600000000077F
:1000B000070007070000147F7F147F7F1400242EA1
:1000C0006B6B3A120000466630180C666200307A9C
:1000D0004F5D377A48000407030000000000001C51
:1000E0003E63410000000041633E1C000000082AFE
:1000F0003E1C1C3E2A0808083E3E0808000000A0DE
:10010000E06000000000080808080808000000007F
:100110006060000000006030180C060301003E7FA4
:10012000594D7F3E000042427F7F40400000627395
:1001300059496F660000226349497F360000181C48
:1001400016137F7F1000276745457D3900003C7EF0
:100150004B4979300000036371190F070000367FA7
:1001600049497F360000064F49693F1E00000000E4
:100170006C6C0000000000A0EC6C00000000081C8B
:1001800036634100000014141414141400000041DC
:1001900063361C080000020351590F0600003E7F21
:1001A000415D5D1F1E007C7E13137E7C0000417F3D
:1001B0007F49497F36001C3E634141632200417FF5
:1001C0007F41637F1C00417F7F495D416300417F28
:1001D0007F491D0103001C3E6341517372007F7F04
:1001E00008087F7F000000417F7F410000003070E1
:1001F00040417F3F0100417F7F081C776300417FC2
:100200007F41406070007F7F060C067F7F007F7F0C
:10021000060C187F7F001C3E6341633E1C00417F3B
:100220007F49090F06001E3F21717F5E0000417F5C
:100230007F19396F460026674D597B320000034114
:100240007F7F410300007F7F40407F7F00001F3F92
:1002500060603F1F00007F7F3018307F7F00637732
:100260001C081C776300074F78784F0700006773FE
:10027000594D47637100007F7F4141000000010339
:10028000060C183060000041417F7F000000080C20
:100290000603060C0800808080808080808000003B
:1002A000030704000000207454543C784000413F90
:1002B0007F44447C3800387C44446C28000030780B
:1002C00048493F7F4000387C54545C180000487E09
:1002D0007F490302000098BCA4A4F87C0400417F7D
:1002E0007F08047C780000447D7D4000000040C40D
:1002F00084FD7D000000417F7F10386C4400004188
:100300007F7F400000007C7C0C180C7C78007C7C9B
:1003100004047C780000387C44447C38000084FC71
:10032000F8A4243C1800183C24A4F8FC8400447C65
:1003300078441C180000485C5454742400000004E5
:100340003E7F442400003C7C40403C7C40001C3C00
:1003500060603C1C00003C7C6030607C3C00446C75
:100360003810386C44009CBCA0A0FC7C00004C649D
:10037000745C4C64000008083E77414100000000B6
:100380000077770000004141773E08080000020333
:10039000010302030100000000000000005F0000F4
:1003A0000007000700147F147F14242A7F2A1223D9
:1003B0001308646236495522500005030000001CF2
:1003C0002241000041221C00082A1C2A0808083E7D
:1003D00008080050300000080808080800606000A5
:1003E0000020100804023E5149453E00427F400073
:1003F00042615149462141454B311814127F102763
:10040000454545393C4A494930017109050336499A
:10041000494936064949291E00363600000056363D
:10042000000000081422411414141414412214086A
:10043000000201510906324979413E7E1111117EB7
:100440007F494949363E414141227F4141221C7F3B
:10045000494949417F090901013E414151327F0823
:1004600008087F00417F41002040413F017F081480
:1004700022417F404040407F0204027F7F040810F9
:100480007F3E4141413E7F090909063E4151215EBF
:100490007F09192946464949493101017F01013F38
:1004A0004040403F1F2040201F7F2018207F6314C2
:1004B0000814630304780403615149454300007F35
:1004C0004141020408102041417F00000402010262
:1004D000044040404040000102040020545454783D
:1004E0007F484444383844444420384444487F38A2
:1004F00054545418087E090102081454543C7F08CF
:1005000004047800447D40002040443D00007F10FA
:10051000284400417F40007C041804787C080404CF
:100520007838444444387C14141408081414187C93
:100530007C080404084854545420043F4440203CA0
:100540004040207C1C2040201C3C4030403C442843
:100550001028440C5050503C4464544C440008361D
:10056000410000007F000000413608000201030244
:1005700001000000000000000000065F5F060000B0
:10058000000007070007070000147F7F147F7F1417
:1005900000242E6B6B3A120000466630180C66621F
:1005A00000307A4F5D377A480004070300000000EE
:1005B00000001C3E63410000000041633E1C00003F
:1005C00000082A3E1C1C3E2A0808083E3E08080077
:1005D0000000A0E06000000000080808080808000B
:1005E0000000006060000000006030180C0603018D
:1005F000003E7F594D7F3E000042427F7F404000D9
:1006000000627359496F660000226349497F3600D2
:1006100000181C16137F7F1000276745457D3900A1
:10062000003C7E4B4979300000036371190F0700CD
:1006300000367F49497F360000064F49693F1E005A
:100640000000006C6C0000000000A0EC6C000000DA
:1006500000081C3663410000001414141414140024
:1006600000004163361C080000020351590F0600C8
:10067000003E7F415D5D1F1E007C7E13137E7C006B
:1006800000417F7F49497F36001C3E634141632220
:1006900000417F7F41637F1C00417F7F495D416353
:1006A00000417F7F491D0103001C3E63415173726D
:1006B000007F7F08087F7F000000417F7F410000AE
:1006C00000307040417F3F0100417F7F081C77630D
:1006D00000417F7F41406070007F7F060C067F7F76
:1006E000007F7F060C187F7F001C3E6341633E1C29
:1006F00000417F7F49090F06001E3F21717F5E0088
:1007000000417F7F19396F460026674D597B3200C3
:100710000003417F7F410300007F7F40407F7F00D7
:10072000001F3F60603F1F00007F7F3018307F7FD9
:100730000063771C081C776300074F78784F070029
:10074000006773594D47637100007F7F414100008E
:10075000000103060C183060000041417F7F00005B
:1007600000080C0603060C080080808080808080D2
:10077000800000030704000000207454543C7840BB
:1007800000413F7F44447C3800387C44446C28005E
:1007900000307848493F7F4000387C54545C180052
:1007A00000487E7F490302000098BCA4A4F87C04A2
:1007B00000417F7F08047C780000447D7D4000007C
:1007C0000040C484FD7D000000417F7F10386C44F0
:1007D0000000417F7F400000007C7C0C180C7C787E
:1007E000007C7C04047C780000387C44447C380025
:1007F0000084FCF8A4243C1800183C24A4F8FC84D1
:1008000000447C78441C180000485C545474240054
:100810000000043E7F442400003C7C40403C7C407F
:10082000001C3C60603C1C00003C7C6030607C3CF8
:1008300000446C3810386C44009CBCA0A0FC7C00C8
:10084000004C64745C4C64000008083E7741410031
:100850000000000077770000004141773E08080063
:1008600000020301030203010000FFFFFF7E3C18AA
:100870000000183C7EFFFFFF000E1E3E7E7E3E1EE7
:100880000E71787C7F7F7C787000187C7E7E3C18AF
:100890000080808080808080800101010101010151
:1008A0000100000000000000FFFF00000000000049
:1008B00000183C3E3FFFBE3C180011241FBECFEF86
:1008C000D4E0DEBFCDBF13E0A0E0B1E0ECEBF8E395
:1008D00002C005900D92A834B107D9F723E0A8E42F
:1008E000B3E001C01D92A838B207E1F70E947C0472
:1008F0000C945C1C0C940000F8948FE190E00E9432
:1009000041050E947B070E94840981E593E00E94D3
:10091000C60A80E00E94A70C7894C0E0D0E0E12CE9
:10092000F12CCC24C394D12C0FE011E0809148032A
:10093000909149038130910539F120F08230910581
:1009400051F1F8CF81E593E00E94FD0A209789F4E8
:100950000E946A07892B51F181E593E00E94550BB3
:100960000E94BD0B90E09093490380934803CC2DE7
:10097000DD2D0E946A07892BC9F60E947007892B1A
:10098000A9F6CE2DDF2DD2CF809157039091580339
:100990000E945B0ECBCF1F930F930E94DB18E09257
:1009A0004803F09249030F900F90C0CF0E94700748
:1009B000892B91F6DECF1F920F920FB60F92112462
:1009C0002F933F934F935F936F937F938F939F9357
:1009D000AF93BF93EF93FF936091590370915A03C4
:1009E00080E090E00E94590DE0915903F0915A0384
:1009F000838182308CF082E090E090934903809371
:100A000048030E94C00B81E593E00E94D00BE09167
:100A10005903F0915A031382E0915903F0915A035C
:100A20008381282F082E000C330B3F938F9389E18D
:100A300091E09F938F930E94DB180F900F900F907F
:100A40000F90FF91EF91BF91AF919F918F917F9107
:100A50006F915F914F913F912F910F900FBE0F902B
:100A60001F9018955D9BFECF8CB908955F9BFECFBC
:100A70008CB1089590BD89B988E18AB98EE880BDAE
:100A800008950E943A0566E375E082E395E00E94CE
:100A90009018089585B7806885BF80B7806280BF51
:100AA0000895CF92DF92EF92FF920F931F93CF930F
:100AB000DF9388E291E00E94F1180E9480187C0187
:100AC0000E948518C12CD12CC0E0D0E00EE311E0CB
:100AD0000E948018F601F85E808320812817A1F01B
:100AE00099279F938F931F922F93DF92CF921F93FB
:100AF0000F930E94DB1821968DB79EB708960FB60C
:100B0000F8949EBF0FBE8DBF9FEFC91AD90AC114BA
:100B100088E0D806E9F6C7010E94851800E010E0D9
:100B2000E12CF12C0F2EF7E7CF2EF1E0DF2EF02D88
:100B30000E948018F801F85E20812817B1F09927EB
:100B40009F938F931F922F931F930F93DF92CF92B8
:100B50000E94DB189FEFE91AF90A8DB79EB7089635
:100B60000FB6F8949EBF0FBE8DBF0F5F1F4F0115CC
:100B700098E01907E9F6FF92EF92DF93CF9384EBA9
:100B800091E09F938F930E94DB180F900F900F902E
:100B90000F900F900F90DF91CF911F910F91FF90C9
:100BA000EF90DF90CF90089585B7806885BF80B7BC
:100BB000806280BF0895E0E0F4E1808381E48A955B
:100BC000F1F700C080810895E0E0F4E184E08083E3
:100BD00081E48A95F1F700C080810895E0E0F4E1B6
:100BE00085E0808381E48A95F1F700C080810895D3
:100BF000E0E0F4E186E0808381E48A95F1F700C0CB
:100C000080810895E0E0F4E187E0808381E48A95C3
:100C1000F1F700C0808108950E94E40580934B03A2
:100C20000E94EE0580934A030895CF93DF930E94BC
:100C3000D4050E94E405D82F0E94EE05C82F6D2F21
:100C400070E080E090E00E94B21520E030E04FEFCD
:100C500052E40E9424140E947A15062E000C770B91
:100C6000880B990B0E94B21520E030E04FEF52E460
:100C70000E94081520E030E048EC52E40E949616ED
:100C80000E947A15D62F6C2F70E080E090E00E94D1
:100C9000B21520E030E04FEF52E40E9424140E948D
:100CA0007A15062E000C770B880B990B0E94B21553
:100CB00020E030E04FEF52E40E94081520E030E0E1
:100CC00048EC52E40E9496160E947A15962F8D2FBA
:100CD000DF91CF910895CF92DF92EF92FF92CF9361
:100CE000DF930E941506D82FC92F682F880F770B26
:100CF000880B990B0E94B2156B017C016C2F0C2E96
:100D0000000C770B880B990B0E94B215A701960176
:100D10000E94A4140E947A1544EB469F9001479FBD
:100D2000300D1124B901330F880B990B0E94B215B5
:100D300020ED3FE049E450E40E9408156B017C017E
:100D4000C75EC33320F4D75ED33308F452C020E02B
:100D500030E044E352E4C701B6010E9489168823BB
:100D60005CF020E030E047E053E4C701B6010E94A8
:100D7000031518160CF040C020E030E044E352ECBC
:100D8000C701B6010E940315181654F020E030E0A8
:100D900047E053ECC701B6010E94891688237CF511
:100DA00020E030E044E352E4C701B6010E9403159D
:100DB000181654F020E030E044E352ECC701B601CD
:100DC0000E9489168823F4F420E030E047E053E4E1
:100DD000C701B6010E9489168823BCF420E030E0E8
:100DE00047E053ECC701B6010E940315181684F4BE
:100DF00011C084E090E00EC080E090E00BC081E084
:100E000090E008C083E090E005C082E090E002C07E
:100E100082E090E0DF91CF91FF90EF90DF90CF9054
:100E20000895BA9886B380E090E00895CF93DF9359
:100E30000E940206D82F0E94F805C82F6D2F70E07F
:100E400080E090E00E94B21520E030E04FEF52E4E5
:100E50000E9424140E947A15062E000C770B880B32
:100E6000990B0E94B21520E030E04FEF52E40E944F
:100E7000081520E030E048EC52E40E9496160E94EB
:100E80007A15D62F6C2F70E080E090E00E94B215AA
:100E900020E030E04FEF52E40E9424140E947A15C3
:100EA000062E000C770B880B990B0E94B21520E0E0
:100EB00030E04FEF52E40E94081520E030E048ECAB
:100EC00052E40E9496160E947A15962F8D2FDF917C
:100ED000CF910895B99886B38695817090E0089572
:100EE000B89886B3817090E00895E0910201F09186
:100EF00003018083089585B7806885BF80B78062CD
:100F000080BFE0910201F09103018EEA8083E091BD
:100F10000201F091030181EA8083E0910201F091E6
:100F200003018AED8083E0910201F091030182E1E7
:100F30008083E0910201F091030188E08083E091D9
:100F40000201F091030188EA8083E0910201F091AF
:100F500003018FE38083E0910201F091030185EDAD
:100F60008083E0910201F091030180E88083E091A9
:100F70000201F091030181E88083E0910201F09188
:100F8000030180E58083E0910201F091030189ED86
:100F90008083E0910201F091030181E28083E0917E
:100FA0000201F091030180E28083E0910201F0915F
:100FB000030182E08083E0910201F09103018BED57
:100FC0008083E0910201F091030180E38083E0914E
:100FD0000201F09103018DEA8083E0910201F0911A
:100FE00003011082E0910201F091030184EA808301
:100FF000E0910201F091030186EA8083E091020111
:10100000F09103018FEA8083E0910201F0910301E6
:1010100088EC80830895E0910001F09101018083C4
:101020000895E0910201F091030191E29083E09133
:101030000201F09103018083E0910201F09103012C
:1010400060830895E0910201F091030192E29083A0
:10105000E0910201F09103018083E0910201F0919F
:10106000030160830895E0910201F0910301982F3C
:101070009F70908382958F708061E0910201F09162
:10108000030180830895E0910201F0910301806BD8
:1010900080830895E0910201F091030180E2808352
:1010A000E0910201F091030110826FE780E00E945D
:1010B000110867E080E00E94220880E094E0E0915F
:1010C0000001F091010110820197C9F7E09102013E
:1010D000F091030180E28083E0910201F09103012D
:1010E00082E080830895CF93C62FE0910201F091B2
:1010F000030190E29083E0910201F091030192E0FC
:1011000090830E9433088C2F0E944308E0910001D5
:10111000F091010188E18083E0910001F0910101EB
:101120008083E0910001F09101019EE79083E091BE
:101130000001F09101019CE39083E0910001F091A6
:1011400001018083CF910895653039F540EE480F55
:10115000242F30E0A901440F551F440F551F420FA3
:10116000531F20E030E0F901E40FF51FEA56FC4F71
:10117000E491A0910001B0910101EC932F5F3F4FEA
:101180002530310581F790E08D50924029F1E091B2
:101190000001F0910101108208956830E9F4805255
:1011A00090E0FC01EE0FFF1FEE0FFF1FEE0FFF1F81
:1011B000E256FF4F880F991F880F991F880F991FBC
:1011C0008A559F4F2491A0910001B09101012C9369
:1011D0003196E817F907B1F70895DF92EF92FF9281
:1011E0000F931F93CF93DF938C01D62E7C01C0E029
:1011F000D0E007C06D2DF70181917F010E94A40806
:101200002196F80101900020E9F73197E01BF10BDE
:10121000CE17DF0778F3DF91CF911F910F91FF90E9
:10122000EF90DF900895CF92DF92EF92FF921F939D
:10123000CF93DF936C017B01142F86E090E00E9436
:101240000717EC01D982C882FB82EA82812F90E0E5
:10125000880F991F0E9407179D838C83CE01DF9111
:10126000CF911F91FF90EF90DF90CF90089550E0C5
:10127000440F551FFC0184819581FC01E40FF51F8B
:10128000718360830895CF93DF93EC018881998106
:101290009F938F938FE092E09F938F930E94DB1830
:1012A0000E944A0880E00E9443088CE00E943308B4
:1012B0008881998168E00E94ED0882E00E944308DD
:1012C00080E20E943308EC81FD810190F081E02DE5
:1012D00065E0808191810E94ED0884E00E944308CE
:1012E00080E20E943308EC81FD810280F381E02DD1
:1012F00065E0808191810E94ED080F900F900F9022
:101300000F90DF91CF91089543E060E070E08BE1B2
:1013100092E00E9413099093700380936F0343E05F
:10132000BC0183E592E00E941309909364038093CB
:10133000630360916F037091700342E085E292E075
:101340000E94130990935C0380935B0360916F0389
:101350007091700343E084E392E00E94130990933C
:101360005E0380935D03609163037091640342E0C8
:101370008DE392E00E9413099093740380937303AA
:10138000609163037091640342E08DE492E00E94F7
:10139000130990936C0380936B0360915B037091CE
:1013A0005C0342E08EE592E00E94130990936A0389
:1013B0008093690341E0BC0189E692E00E94130931
:1013C00090937203809371036091690370916A0333
:1013D00041E08EE692E00E94130990937803809397
:1013E000770360915B0370915C0342E085E792E0D4
:1013F0000E941309909368038093670341E0BC0146
:1014000089E692E00E941309909376038093750316
:10141000609167037091680341E08EE692E00E945C
:10142000130990936E0380936D0340E060E070E0D9
:101430008FE792E00E9413099093500380934F032B
:10144000909362038093610380915B0390915C03AE
:10145000E0916F03F09170030480F581E02D91839A
:101460008083E0916F03F0917003A481B581809136
:1014700063039091640313969C938E931297048058
:10148000F581E02D80915D0390915E0395838483C7
:101490008091670390916803E0915B03F0915C0396
:1014A0000480F581E02D91838083E0916903F091C0
:1014B0006A03A0915B03B0915C0314960D90BC91FC
:1014C000A02D1396FC93EE93129780917103909147
:1014D00072030480F581E02D91838083E09169039C
:1014E000F0916A030480F581E02D8091770390915B
:1014F0007803938382838091750390917603E091C2
:101500006703F09168030480F581E02D9183808367
:10151000E0916703F09168030480F581E02D8091EC
:101520006D0390916E0393838283809175039091F4
:1015300076039093600380935F038091730390918F
:101540007403E0916303F09164030480F581E02D5E
:1015500091838083E0916303F09164030480F581BB
:10156000E02D80916B0390916C0393838283809133
:101570006F039091700390937A0380937903909313
:101580006603809365030E9443090895FC0182E08D
:1015900090E09183808384E090E09383828314823F
:1015A000158262E084E10E9473080895CF93DF936F
:1015B000EC010E9415069D83DF91CF910895CF9392
:1015C0009C019FEF960F9430A0F4C62FF901808103
:1015D0000E94430884E10E94330865E08DE092E0B8
:1015E0000E94ED086C2F84E10E94730881E090E076
:1015F00002C080E090E0CF910895CF93DF93EC019B
:101600000E946B068130910521F0F0F00497A9F15A
:1016100041C08A819B81049781F581E090E09B83A2
:101620008A83409165035091660368816E5FCE01A5
:101630000E94DF0A892B89F188819981029699831A
:10164000888381E090E02EC08A819B810497A9F471
:101650001B821A8240916503509166036881625033
:10166000CE010E94DF0A892BD9F0888199810297E7
:101670009983888380E090E015C040916503509184
:1016800066036881CE010E94DF0A84E090E09B83BC
:101690008A8308C08FEF9FEF05C081E090E002C011
:1016A00080E090E0DF91CF910895FF920F931F9318
:1016B000CF93DF93EC010E946A07892B09F051C098
:1016C0000E947007892B09F04CC051C000E010E067
:1016D000FF24F39428813981332314F42F5F3F4F83
:1016E00035952795215031092017310701F5E091F3
:1016F0006503F09166030480F581E02D220F331F0E
:10170000E20FF31F808191819093660380936503BC
:101710000E944309209165033091660380915F0325
:10172000909160032817390711F4F0924C030F5F72
:101730001F4F0230110571F60E947007892BB9F016
:10174000E0916503F091660382819381892B79F0A2
:101750008281938190936603809365030E9443097D
:1017600006C00E946A07892B09F0B0CFE5CFDF9150
:10177000CF911F910F91FF90089580914C03089590
:1017800080916103909162030E9443092FEF8FEFD4
:101790009EE0215080409040E1F700C00000089595
:1017A000CF93DF93EC010E944A0880916F039091E0
:1017B000700390936603809365030E944309CE01F2
:1017C0000E94C60A10924C03DF91CF91089587B30F
:1017D000806B87BB8DB181658DB908958FB9779B7B
:1017E000FECF08958AEA0E94EE0B8FB10895BC9A4D
:1017F000882319F0813011F00895C498C49A08958F
:10180000882319F0813019F00895C4980895C49A76
:101810000895CF93C82F80E00E94000C83E00E94BF
:10182000EE0B8C2F0E94EE0B0E94F20BC82F81E072
:101830000E94000C8C2FCF910895CF93DF93C82F77
:10184000D62F80E00E94000C82E00E94EE0B8D2FCC
:101850000E94EE0B8C2F0E94EE0B81E00E94000C88
:10186000DF91CF910895CF93C82F80E00E94000CA4
:10187000C13051F028F0C23059F0C33069F00FC0C8
:1018800081E80E94EE0B0BC082E80E94EE0B07C0BD
:1018900084E80E94EE0B03C087E80E94EE0B81E013
:1018A0000E94000CCF910895CF9380E00E94000C1D
:1018B00080EA0E94EE0B0E94F20BC82F81E00E948A
:1018C000000C8C2FCF9108951F93CF93DF93182F87
:1018D000D62FC42F80E00E94000C85E00E94EE0B02
:1018E000812F0E94EE0B8D2F0E94EE0B8C2F0E94F9
:1018F000EE0B81E00E94000CDF91CF911F910895C3
:1019000080E00E94000C80EC0E94EE0B81E00E94BF
:10191000000C8FEF9FE20197F1F700C000000895DF
:101920000E94E70B0E94800C8EE00E94090C807ED2
:10193000803861F01F928F938CE892E09F938F9391
:101940000E94DB180F900F900F900F900895CF9387
:10195000C82F0E94900C6FE08C2F0E941D0C8FE00E
:101960000E94090C1F928F9384ED92E09F938F93B6
:101970000E94DB1843E063E08BE20E94640C40E0CD
:1019800063E08CE20E94640C8BB780628BBF85B7EA
:10199000826085BF85B78E7F85BF86B1817086B92D
:1019A0000F900F900F900F90CF910895EF92FF92AC
:1019B0000F931F93CF93DF938C0180914D039091F0
:1019C0004E030196833091052CF490934E0380933F
:1019D0004D0304C010924E0310924D03F801208174
:1019E00031817901F7E0EF22FF24CDE4D3E0688173
:1019F0006295607F6F5CC9019695879596958795EE
:101A0000969587950E941D0C68816295607F6E5C3B
:101A10008E2D8295880F807E0E941D0C68816295B4
:101A2000607F6B5CF80182810E941D0CF80182814D
:101A30008823D1F0C0E00F2EFDE4EF2EF3E0FF2E5F
:101A4000F02DF70180816C2FF0E18F9F600D112444
:101A50006A5CF801EC0FF11D83810E941D0CCF5FC1
:101A6000F8018281C81768F380914D0390914E036D
:101A70008130910551F08230910561F0892B71F42C
:101A800060E388E00E941D0C09C060E488E00E94C9
:101A90001D0C04C060E588E00E941D0C80914D0380
:101AA0000E94330CDF91CF911F910F91FF90EF9027
:101AB0000895EF92FF920F931F93CF93DF937C01D2
:101AC0008B01D82FD295D07F81E68D0F0E94090C13
:101AD000C82F82E68D0F0E94090C807E282F30E0EF
:101AE00036952795329522952F7023273F7023270F
:101AF000C90148E0C49F800D911D1124F801918314
:101B0000808385E68D0F0E94090C8F70F801828317
:101B1000882379F0C0E0DA598D2F8C0F0E94090CD0
:101B2000F801EC0FF11D8383CF5FF8019281C91793
:101B300098F3E114F10421F0EA94EF2831F009C0A0
:101B400061E080E00E941D0C04C062E080E00E9421
:101B50001D0CF801C081D181CE019695879596958F
:101B600087959695879561E30E941D0C62E38C2F03
:101B70008295880F807E0E941D0C65E3F8018281AA
:101B80000E941D0CF8018281882371F0C0E066E399
:101B90006C0FF801EC0FF11D83810E941D0CCF5FCB
:101BA000F8018281C81798F38CE20E94090C8E7F9D
:101BB0008F7D6CE20E941D0C40E063E08CE20E948D
:101BC000640CDF91CF911F910F91FF90EF900895DA
:101BD000CF93DF93EC010E94150621E030E03983BA
:101BE00028838B839C83282F082E000C330B3F9374
:101BF0008F9381EF92E09F938F930E94DB188C81EB
:101C0000282F082E000C330B3F938F9382E093E034
:101C10009F938F930E94DB1882E08A838B81082E2A
:101C2000000C990B99231CF49195819591092091B1
:101C30007B03022E000C330B33231CF431952195CA
:101C40003109821B930B2DB73EB7285F3F4F0FB66C
:101C5000F8943EBF0FBE2DBF0697BCF48C81082EB2
:101C6000000C990B99231CF4919581959109209171
:101C70007C03022E000C330B33231CF43195219589
:101C80003109821B930B06977CF0CE010E94D60C83
:101C90008A81882369F09B8190937B03823040F096
:101CA0008C8180937C0304C08B8180937B03F8CF6D
:101CB000DF91CF910895EF92FF920F931F93CF93EF
:101CC000DF93EC010E9402060E941506182FE92EF0
:101CD0000E941607F82E0E946A07082F0E947007BC
:101CE00024E030E0398328831B83EC82FD828E83DD
:101CF0000F8385E08A83812F012E000C990B9F931F
:101D00001F9383E193E09F938F930E94DB188D8153
:101D1000282F082E000C330B3F938F938BE193E019
:101D20009F938F930E94DB184D81842F042E000C0B
:101D3000990B20917D03821B910927FD93959C01AE
:101D4000992324F422273327281B390B8DB79EB7FC
:101D500008960FB6F8949EBF0FBE8DBF2230310596
:101D60002CF040937D03CE010E94D60C8B81082E6F
:101D7000000C990B20917B03821B910927FD939501
:101D80009C01992324F422273327281B390B223066
:101D90003105A4F48C81082E000C990B20917C0352
:101DA000821B910927FD93959C01992324F42227F6
:101DB0003327281B390B223031054CF0CE010E940D
:101DC000D60CEBE7F3E08B8180838C8181838F815C
:101DD000813019F4CE010E94D60CDF91CF911F9172
:101DE0000F91FF90EF9008950F931F93CF93DF9380
:101DF000082F162FD8E0C0E084E00E94DB05817038
:101E0000CC0FC82BD150C1F78C2F90E00E948518C1
:101E10000E948018612F70E06F5F7F4F601B710917
:101E20000E94FC13800FDF91CF911F910F910895B5
:101E3000CF92DF92FF920F931F93CF93DF930E9475
:101E40004A08F12C0F2EF9E9CF2EF8E0DF2EF02D05
:101E500001EA18E081E00E9443088F2D0E943308B8
:101E6000E601FE0184910E940B082196C017D1075C
:101E7000C1F7F394FFE7FF12EDCFF12C0F2EF1EA3B
:101E8000CF2EF8E0DF2EF02D09EA18E081E00E9465
:101E900043088F2D0E943308E601FE0184910E94C1
:101EA0000B082196C017D107C1F7F394FFE7FF1283
:101EB000EDCFF12C0F2EF9EACF2EF8E0DF2EF02D2A
:101EC00001EB18E08F2D0E94430880E00E94330848
:101ED000E601FE0184910E940B082196C017D107EC
:101EE000C1F7F394F8E0FF12EDCFF12C0F2EF1EBD8
:101EF000CF2EF8E0DF2EF02D09EB18E08F2D0E9499
:101F0000430880E00E943308E601FE0184910E94AC
:101F10000B082196C017D107C1F7F394F8E0FF1220
:101F2000EDCFDF91CF911F910F91FF90DF90CF9078
:101F30000895BF92CF92DF92EF92FF920F931F937B
:101F4000CF93DF937C0190910401992339F1B12C57
:101F50000F2EF1E9CF2EF8E0DF2EF02D09E918E081
:101F6000CB2DD0E0CC0FDD1FCE0DDF1DE881F98138
:101F700082810E944308E881F98180810E943308B0
:101F8000E601FE0184910E940B082196C017D1073B
:101F9000C1F7B39480910401B81610F3DF91CF918B
:101FA0001F910F91FF90EF90DF90CF90BF90089519
:101FB000EF92FF920F931F93CF93DF93EC018B016E
:101FC0002C813D818E819F812817390709F478C0C3
:101FD0002130310509F45AC024F4232B09F43CC004
:101FE000E6C022303105F1F02330310509F0DFC0C1
:101FF0008A810E94430888810E943308C1E7D8E0A3
:102000000F2EF9E7EF2EF8E0FF2EF02DFE01849160
:102010000E940B082196CE15DF05C1F7C8010E946A
:10202000990FC5C08A810E94430888810E943308A5
:10203000C9E7D8E00F2EF1E8EF2EF8E0FF2EF02DE3
:10204000FE0184910E940B082196CE15DF05C1F791
:10205000C8010E94990FABC08A810E944308888101
:102060000E943308C1E8D8E00F2EF9E8EF2EF8E01F
:10207000FF2EF02DFE0184910E940B082196CE15B3
:10208000DF05C1F7C8010E94990F91C08A810E94A3
:10209000430888810E943308C9E8D8E00F2EF1E98F
:1020A000EF2EF8E0FF2EF02DFE0184910E940B0828
:1020B0002196CE15DF05C1F7C8010E94990F77C0A0
:1020C0002130310509F45AC024F4232B09F43CC013
:1020D0006EC022303105F1F02330310509F067C0C0
:1020E0008A810E94430888810E943308C1E7D8E0B2
:1020F0000F2EF9E7EF2EF8E0FF2EF02DFE01849170
:102100000E940B082196CE15DF05C1F7C8010E9479
:10211000990F4DC08A810E94430888810E9433082C
:10212000C9E7D8E00F2EF1E8EF2EF8E0FF2EF02DF2
:10213000FE0184910E940B082196CE15DF05C1F7A0
:10214000C8010E94990F33C08A810E944308888188
:102150000E943308C1E8D8E00F2EF9E8EF2EF8E02E
:10216000FF2EF02DFE0184910E940B082196CE15C2
:10217000DF05C1F7C8010E94990F19C08A810E942A
:10218000430888810E943308C9E8D8E00F2EF1E99E
:10219000EF2EF8E0FF2EF02DFE0184910E940B0837
:1021A0002196CE15DF05C1F7C8010E94990FDF9176
:1021B000CF911F910F91FF90EF9008950F931F9370
:1021C000CF93DF93EC018A810E94430888810E94AB
:1021D0003308C9EBD8E001EC18E0FE0184910E94BD
:1021E0000B082196C017D107C1F7DF91CF911F913E
:1021F0000F9108950F931F93CF93DF93EC018A8182
:102200000E94430888810E943308C1E7D5E009E7AE
:1022100015E0FE0184910E940B082196C017D1079A
:10222000C1F7DF91CF911F910F910895EF92FF9227
:102230000F931F93CF93DF93EC01E881F981EA01BB
:1022400028813981E217F30709F077C0FC01228168
:1022500033818A819B812817390709F06EC020914C
:102260000401E22FF0E0EE0FFF1FE60FF71F0190D1
:10227000F081E02D848195818130910599F01CF4E5
:10228000009741F02FC082309105A9F0833091056D
:10229000E9F028C000811181A281B3811196E12C5F
:1022A000F12C22C000811181A281B3811197EE240B
:1022B000E394F12C19C00081118108501109A28109
:1022C000B3816894EE24E1F8F12C0EC000811181F5
:1022D000085F1F4FA281B3810F2EF3E0EF2EF12C88
:1022E000F02D02C080E090E0EA012F5F209304010E
:1022F000E22FF0E0EE0FFF1FE60FF71F0190F081D5
:10230000E02D11830083B383A28395838483F782B6
:10231000E68260E788E00E94F40E90E0998388836B
:1023200066E081E00E94F40E90E09B838A83CE01F8
:102330000E94FA10CE010E94DE10DF91CF911F9112
:102340000F91FF90EF900895FB01268137812817A8
:10235000390721F084309105C9F59CC03583248369
:102360002130310599F024F42115310541F02EC0BA
:1023700022303105E9F02330310509F127C04281CF
:1023800053814F5F5F4F5383428399C04281538192
:10239000415051095383428381309105B9F120F1B5
:1023A0008230910509F448C0039709F45CC0089590
:1023B00040815181485051095183408380C0408100
:1023C0005181485F5F4F5183408379C081309105CF
:1023D000E9F038F08230910579F1039709F443C0B0
:1023E00008952130310531F4BF0184E090E00E946E
:1023F000A4110895828193810196938382838481BD
:10240000958197838683158214820895232B31F456
:10241000BF0184E090E00E94A4110895828193811D
:10242000019793838283848195819783868381E05A
:1024300090E09583848308952330310531F4BF0102
:1024400084E090E00E94A411089580819181089712
:1024500091838083848195819783868382E090E055
:102460009583848308952230310531F4BF0184E0DF
:1024700090E00E94A4110895808191810896918333
:102480008083848195819783868383E090E0958320
:1024900084830895358324832130310509F476CF70
:1024A0002CF42115310509F46ACF08952230310545
:1024B00009F47ECF2330310509F481CF08958130AE
:1024C000910509F4A3CF08F495CF8230910509F462
:1024D000B3CF039741F20895CF93DF93EB01FA0155
:1024E000A881B981808191818D939C93A881B981C4
:1024F0008281938113969C938E931297A881B981C0
:1025000014968D919C91159717969C938E93169780
:10251000A881B9818481958115969C938E93149797
:102520008091040190E00197181619060CF045C03F
:1025300020E0E22FF0E03196EE0FFF1FDE01AE0F3C
:10254000BF1F8D919C9111973297BF016C0F7D1F1A
:10255000FB0140815181FA0140815181FC0151838D
:1025600040838D919C911197FB0140815181FA012B
:1025700042815381FC01538342838D919C91119739
:10258000FC0144815581578346830D90BC91A02D59
:10259000FB0180819181FC018681978115969C9336
:1025A0008E9314972F5F422F50E08091040190E0AA
:1025B0000197481759070CF4BCCFDF91CF910895CC
:1025C000BF92CF92DF92EF92FF920F931F93CF9320
:1025D000DF930F2EF6E0EF2EF02D0F2EFEE0BF2E34
:1025E000F02D09E715E00F2EF1E7CF2EF5E0DF2EF5
:1025F000F02D10C0FE0184910E940B082196C01797
:10260000D107C1F7FA94FF2011F0E601F3CFEA9465
:10261000EE2011F0FB2CF9CFDF91CF911F910F919C
:10262000FF90EF90DF90CF90BF900895CF92DF9210
:10263000EF92FF920F931F93CF93DF93EC018B01E7
:102640007A010E946B066C01AE01B8010E946C1207
:10265000BE01C6010E94A4110E94E012C7010E949F
:10266000DE10C7010E94DE10B801CE010E94D80F13
:10267000DF91CF911F910F91FF90EF90DF90CF905E
:1026800008950F931F93CF93DF93FC0140815181F5
:102690009A01285031092037310518F5028113813C
:1026A000C8010197069700F5C0910401D0E01C16FF
:1026B0001D06ECF4A62FB72F80E090E0ED91FD9180
:1026C000208131814217530729F422813381021777
:1026D000130781F001968C179D0781F780E090E049
:1026E0000BC081E090E008C081E090E005C080E090
:1026F00090E002C081E090E0DF91CF911F910F91B7
:1027000008951F93CF93DF930E944A0881E00E94AF
:10271000430880E10E94330868E08EE293E00E9463
:10272000ED0883E00E94430880E20E94330868E0DD
:1027300088E393E00E94ED0885E00E94430880E36F
:102740000E943308C0910401D0E0CC0FDD1FCC0FF4
:10275000DD1FCC0FDD1FC751DA4F10E0FE01849161
:102760000E940B081F5F21961830C1F785E00E9478
:10277000430880E40E94330868E08FE393E00E94FE
:10278000ED08DF91CF911F910895CF93DF93CDB7DF
:10279000DEB7C45FD1400FB6F894DEBF0FBECDBF29
:1027A0001A8219821C821B8260E788E00E94F40E64
:1027B00066E081E00E94F40E0E94180F80E090E035
:1027C0000E94DE10BE016F5F7F4F80E090E00E94AC
:1027D000D80FE12CF12CA701BE016F5F7F4F00E005
:1027E00010E0C8010E941613A701BE016F5F7F4F62
:1027F000C8010E941611EDCF97FB072E16F4009426
:1028000007D077FD09D00E94101407FC05D03EF4D4
:10281000909581959F4F0895709561957F4F08958C
:10282000AA1BBB1B51E107C0AA1FBB1FA617B707F6
:1028300010F0A61BB70B881F991F5A95A9F7809512
:102840009095BC01CD0108955058BB27AA270E943E
:102850003C140C944F160E94411638F00E94481602
:1028600020F039F49F3F19F426F40C9417160EF457
:10287000E095E7FB0C941116E92F0E94601658F3BF
:10288000BA17620773078407950720F079F4A6F555
:102890000C9482160EF4E0950B2EBA2FA02D0B018E
:1028A000B90190010C01CA01A0011124FF27591B95
:1028B00099F0593F50F4503E68F11A16F040A22F9B
:1028C000232F342F4427585FF3CF4695379527950C
:1028D000A795F0405395C9F77EF41F16BA0B620B0B
:1028E000730B840BBAF09150A1F0FF0FBB1F661F52
:1028F000771F881FC2F70EC0BA0F621F731F841F95
:1029000048F4879577956795B795F7959E3F08F0BA
:10291000B0CF9395880F08F09927EE0F979587957C
:1029200008950E94411660F080E891E009F49EEF5E
:102930000E94481628F040E851E071F45EEF0CC0A8
:102940000C9417160C948216E92FE0780E946016FA
:1029500040F3092E052AB1F3261737074807590710
:1029600038F00E2E07F8E02569F0E025E0640AC093
:10297000EF6307F8009407FADB01B9019D01DC0160
:10298000CA01AD01EF930E941F150E944F160E94CD
:10299000D4145F91552339F02BED3FE049E450FD0D
:1029A00049EC0C9425140895DF93DD27B92FBF77E8
:1029B00040E85FE31616170648075B0718F4D92F9F
:1029C0000E948E169F938F937F936F930E9403179D
:1029D000E0E7F0E00E941A160E944F162F913F91F7
:1029E0004F915F910E94A916DD2351F09058A2EA01
:1029F0002AED3FE049EC5FE3D0785D270E943C146C
:102A0000DF910C944F160E94ED1508F481E00895B3
:102A10000E941C150C944F160E94481658F00E94F4
:102A2000411640F029F45F3F29F00C941116511122
:102A30000C9483160C9417160E94601668F3992361
:102A4000B1F3552391F3951B550BBB27AA276217AA
:102A50007307840738F09F5F5F4F220F331F441FB7
:102A6000AA1FA9F335D00E2E3AF0E0E832D09150EB
:102A70005040E695001CCAF72BD0FE2F29D0660FD8
:102A8000771F881FBB1F261737074807AB07B0E81B
:102A900009F0BB0B802DBF01FF2793585F4F3AF021
:102AA0009E3F510578F00C9411160C9483165F3FED
:102AB000E4F3983ED4F3869577956795B795F795A7
:102AC0009F5FC9F7880F911D9695879597F908958F
:102AD000E1E0660F771F881FBB1F6217730784072B
:102AE000BA0720F0621B730B840BBA0BEE1F88F73A
:102AF000E09508950E9481156894B1110C94831695
:102B000008950E94681688F09F5798F0B92F99276A
:102B1000B751B0F0E1F0660F771F881F991F1AF0C8
:102B2000BA95C9F714C0B13091F00E948216B1E095
:102B300008950C948216672F782F8827B85F39F094
:102B4000B93FCCF3869577956795B395D9F73EF461
:102B500090958095709561957F4F8F4F9F4F089509
:102B6000E89409C097FB3EF4909580957095619527
:102B70007F4F8F4F9F4F9923A9F0F92F96E9BB27DD
:102B80009395F695879577956795B795F111F8CF59
:102B9000FAF4BB0F11F460FF1BC06F5F7F4F8F4FC4
:102BA0009F4F16C0882311F096E911C0772321F0BA
:102BB0009EE8872F762F05C0662371F096E8862F52
:102BC00070E060E02AF09A95660F771F881FDAF7A9
:102BD000880F9695879597F90895990F0008550FD6
:102BE000AA0BE0E8FEEF16161706E807F907C0F093
:102BF00012161306E407F50798F0621B730B840B9B
:102C0000950B39F40A2661F0232B242B252B21F474
:102C100008950A2609F4A140A6958FEF811D811D14
:102C2000089597F99F6780E870E060E008959FEF4E
:102C300080EC0895DF93CF931F930F93FF92EF9251
:102C4000DF927B018C01689406C0DA2EEF010E94AE
:102C5000A916FE01E894A5912591359145915591CC
:102C6000A6F3EF010E943C14FE019701A801DA943B
:102C700069F7DF90EF90FF900F911F91CF91DF9157
:102C8000089500240A9416161706180609060895D2
:102C900000240A9412161306140605060895092E38
:102CA0000394000C11F4882352F0BB0F40F4BF2BA7
:102CB00011F460FF04C06F5F7F4F8F4F9F4F0895E7
:102CC00057FD9058440F551F59F05F3F71F04795DD
:102CD000880F97FB991F61F09F3F79F087950895C2
:102CE000121613061406551FF2CF4695F1DF08C0E1
:102CF000161617061806991FF1CF869571056105FE
:102D000008940895E894BB2766277727CB0197F9A5
:102D100008950E94ED1508F48FEF08959B01AC0112
:102D200060E070E080E89FE30C9408150E94A9160B
:102D30000C944F160E94411638F00E94481620F05D
:102D4000952311F00C9411160C94171611240C9461
:102D500083160E94601670F3959FC1F3950F50E0A3
:102D6000551F629FF001729FBB27F00DB11D639F3D
:102D7000AA27F00DB11DAA1F649F6627B00DA11DE3
:102D8000661F829F2227B00DA11D621F739FB00D89
:102D9000A11D621F839FA00D611D221F749F3327F9
:102DA000A00D611D231F849F600D211D822F762F92
:102DB0006A2F11249F5750409AF0F1F088234AF06F
:102DC000EE0FFF1FBB1F661F771F881F91505040DB
:102DD000A9F79E3F510580F00C9411160C948316B0
:102DE0005F3FE4F3983ED4F3869577956795B79562
:102DF000F795E7959F5FC1F7FE2B880F911D96957C
:102E0000879597F908959B01AC010C949616CF9382
:102E1000DF938230910510F482E090E0E09180032E
:102E2000F091810320E030E0C0E0D0E0309711F174
:102E30004081518148175907C0F04817590761F47C
:102E400082819381209719F09B838A832BC0909372
:102E500081038093800326C02115310519F04217A4
:102E6000530718F49A01BE01DF01EF010280F381DC
:102E7000E02DDCCF2115310509F1281B390B243059
:102E8000310590F412968D919C91139761157105FF
:102E900021F0FB019383828304C09093810380938C
:102EA0008003FD01329644C0FD01E20FF31F8193C0
:102EB0009193225031092D933C933AC020917E0387
:102EC00030917F03232B41F42091070130910801B9
:102ED00030937F0320937E032091050130910601FA
:102EE0002115310541F42DB73EB7409109015091AC
:102EF0000A01241B350BE0917E03F0917F03E2175A
:102F0000F307A0F42E1B3F0B2817390778F0AC010C
:102F10004E5F5F4F2417350748F04E0F5F1F5093E9
:102F20007F0340937E038193919302C0E0E0F0E041
:102F3000CF01DF91CF9108950F931F93CF93DF932C
:102F4000009709F48CC0FC01329713821282009121
:102F50008003109181030115110581F420813181D5
:102F6000820F931F20917E0330917F03281739072A
:102F700079F5F0937F03E0937E0371C0D80140E0C0
:102F800050E0AE17BF0750F412962D913C91139765
:102F9000AD012115310509F1D901F3CF9D01DA0108
:102FA0003383228360817181860F971F8217930775
:102FB00069F4EC0128813981260F371F2E5F3F4FBE
:102FC000318320838A819B8193838283452B29F4DB
:102FD000F0938103E093800342C01396FC93EE9339
:102FE0001297ED01499159919E01240F351FE21767
:102FF000F30771F480819181840F951F02961196D9
:103000009C938E938281938113969C938E931297B7
:10301000E0E0F0E0D80112968D919C911397009713
:1030200019F0F8018C01F6CF8D919C9198012E5FDB
:103030003F4F820F931F20917E0330917F0328170B
:10304000390769F4309729F41092810310928003B4
:1030500002C01382128210937F0300937E03DF91DC
:10306000CF911F910F9108958F929F92AF92BF922F
:10307000CF92DF92EF92FF92CF93DF93EC016881C2
:1030800079818A819B81611571058105910521F402
:1030900064E279ED8BE597E02DE133EF41E050E01C
:1030A0000E94C21B49015A019B01AC01A7EAB1E48D
:1030B0000E94E11B6B017C01ACEEB4EFA501940111
:1030C0000E94EF1BDC01CB018C0D9D1DAE1DBF1DB1
:1030D000B7FF03C00197A109B04888839983AA83E9
:1030E000BB839F77DF91CF91FF90EF90DF90CF90E0
:1030F000BF90AF909F908F9008950E9434180895CC
:103100008BE091E00E9434180895A0E0B0E0809335
:103110000B0190930C01A0930D01B0930E01089543
:103120000F931F93CF93DF93009731F461157105CF
:1031300019F480E090E03AC08B01EC016EE070E0A1
:1031400081E090E00E94F31AFC01892B91F380E862
:1031500083830115110571F01387028781E883834A
:103160008091820390918303892B21F4F093830350
:10317000E09382032097C9F0D187C0878381826062
:1031800083838091840390918503892B71F4F0935C
:103190008503E09384038091860390918703892BB4
:1031A00021F4F0938703E0938603CF01DF91CF9161
:1031B0001F910F910895A0E0B0E0E1EEF8E10C94CA
:1031C000041CAE014B5F5F4FFA0161917191AF0139
:1031D00080918403909185030E942119E2E00C9470
:1031E000201C0F931F93CF93DF93E0918403F09102
:1031F0008503238121FF1BC08C01D0E0C0E0F801D2
:1032000081918F016091840370918503DB01189691
:10321000ED91FC911997882331F00995892B79F369
:10322000DFEFCFEFECCF8AE00995892B19F08FEF14
:103230009FEF02C08D2F9C2FDF91CF911F910F9197
:103240000895ACE0B0E0E7E2F9E10C94F41B7C01F6
:103250006B018A01FC0117821682838181FFBDC147
:10326000CE0101964C01F7019381F60193FD859102
:1032700093FF81916F01882309F4ABC1853239F442
:1032800093FD859193FF81916F01853229F4B701F8
:1032900090E00E942C1BE7CF512C312C20E02032F3
:1032A000A0F48B3269F030F4803259F0833269F443
:1032B00020612CC08D3239F0803339F4216026C072
:1032C0002260246023C0286021C027FD27C030ED84
:1032D000380F3A3078F426FF06C0FAE05F9E300DD2
:1032E0001124532E13C08AE0389E300D1124332E42
:1032F00020620CC08E3221F426FD6BC1206406C012
:103300008C3611F4206802C0883641F4F60193FD32
:10331000859193FF81916F018111C1CF982F9F7D7E
:103320009554933028F40C5F1F4FFFE3F9830DC0D1
:10333000833631F0833771F0833509F05BC022C0EA
:10334000F801808189830E5F1F4F44244394512CE0
:10335000540115C03801F2E06F0E711CF801A08015
:10336000B18026FF03C0652D70E002C06FEF7FEFD4
:10337000C5012C870E94211B2C0183012C852F77EE
:10338000222E17C03801F2E06F0E711CF801A080E8
:10339000B18026FF03C0652D70E002C06FEF7FEFA4
:1033A000C5012C870E940F1B2C012C852068222E22
:1033B000830123FC1BC0832D90E048165906B0F40E
:1033C000B70180E290E00E942C1B3A94F4CFF50103
:1033D00027FC859127FE81915F01B70190E00E9453
:1033E0002C1B31103A94F1E04F1A5108411451044A
:1033F00071F7E5C0843611F0893639F5F80127FFF9
:1034000007C060817181828193810C5F1F4F08C06A
:1034100060817181072E000C880B990B0E5F1F4F86
:103420002F76722E97FF09C09095809570956195C3
:103430007F4F8F4F9F4F2068722E2AE030E0A4010B
:103440000E94641BA82EA81844C0853729F42F7E3B
:10345000B22E2AE030E025C0F22FF97FBF2E8F3642
:10346000C1F018F4883579F0B4C0803719F0883786
:1034700021F0AFC02F2F2061B22EB4FE0DC08B2DD6
:103480008460B82E09C024FF0AC09F2F9660B92E11
:1034900006C028E030E005C020E130E002C020E1B5
:1034A00032E0F801B7FE07C06081718182819381AB
:1034B0000C5F1F4F06C06081718180E090E00E5F5D
:1034C0001F4FA4010E94641BA82EA818FB2DFF7794
:1034D0007F2E76FE0BC0372D3E7FA51450F474FE70
:1034E0000AC072FC08C0372D3E7E05C0BA2C372DAD
:1034F00003C0BA2C01C0B52C34FF0DC0FE01EA0D8B
:10350000F11D8081803311F4397E09C032FF06C07D
:10351000B394B39404C0832F867809F0B39433FD39
:1035200013C030FF06C05A2CB31418F4530C5B18A8
:10353000B32CB31468F4B70180E290E03C870E949A
:103540002C1BB3943C85F5CFB31410F43B1801C089
:10355000312C34FF12C0B70180E390E03C870E9419
:103560002C1B3C8532FF17C031FD03C088E790E07B
:1035700002C088E590E0B7010CC0832F867859F02F
:1035800031FF02C08BE201C080E237FD8DE2B7015E
:1035900090E00E942C1BA51438F4B70180E390E062
:1035A0000E942C1B5A94F7CFAA94F401EA0DF11D46
:1035B0008081B70190E00E942C1BA110F5CF332031
:1035C00009F451CEB70180E290E00E942C1B3A949E
:1035D000F6CFF7018681978102C08FEF9FEF2C967F
:1035E000E2E10C94101C0F931F93CF93DF93869FFF
:1035F0008001879F100D969F100D1124C8010E9415
:103600000717EC01009729F0A80160E070E00E9424
:103610001A1BCE01DF91CF911F910F910895FC01EC
:103620000590615070400110D8F7809590958E0FED
:103630009F1F0895DC0101C06D9341505040E0F799
:103640000895FC016150704001900110D8F78095F9
:1036500090958E0F9F1F08950F931F93CF93DF9325
:10366000FB01238121FD03C08FEF9FEF28C022FFC4
:1036700016C046815781248135814217530744F48F
:10368000A081B1819D012F5F3F4F318320838C93B7
:10369000268137812F5F3F4F3783268310C0EB0190
:1036A000092F182F0084F185E02D0995892BE1F66B
:1036B0008E819F8101969F838E83812F902FDF9132
:1036C000CF911F910F910895FA01AA27283051F147
:1036D000203181F1E8946F936E7F6E5F7F4F8F4F43
:1036E0009F4FAF4FB1E03ED0B4E03CD0670F781FA2
:1036F000891F9A1FA11D680F791F8A1F911DA11D87
:103700006A0F711D811D911DA11D20D009F46894BF
:103710003F912AE0269F11243019305D3193DEF667
:10372000CF010895462F4770405D4193B3E00FD01D
:10373000C9F7F6CF462F4F70405D4A3318F0495D08
:1037400031FD4052419302D0A9F7EACFB4E0A695EB
:103750009795879577956795BA95C9F7009761050D
:10376000710508959B01AC010A2E06945795479563
:1037700037952795BA95C9F7620F731F841F951F58
:10378000A01D0895052E97FB1EF400940E94D91BDE
:1037900057FD07D00E942B1C07FC03D04EF40C945D
:1037A000D91B50954095309521953F4F4F4F5F4F16
:1037B000089590958095709561957F4F8F4F9F4F9D
:1037C00008950E944D1CA59F900DB49F900DA49F3D
:1037D000800D911D11240895B7FF0C94E11B0E94E8
:1037E000E11B821B930B08952F923F924F925F92A1
:1037F0006F927F928F929F92AF92BF92CF92DF9201
:10380000EF92FF920F931F93CF93DF93CDB7DEB765
:10381000CA1BDB0B0FB6F894DEBF0FBECDBF0994F9
:103820002A88398848885F846E847D848C849B8450
:10383000AA84B984C884DF80EE80FD800C811B815E
:10384000AA81B981CE0FD11D0FB6F894DEBF0FBE8D
:10385000CDBFED010895A1E21A2EAA1BBB1BFD01ED
:103860000DC0AA1FBB1FEE1FFF1FA217B307E4075F
:10387000F50720F0A21BB30BE40BF50B661F771FB7
:10388000881F991F1A9469F7609570958095909597
:103890009B01AC01BD01CF010895A29FB001B39F70
:1038A000C001A39F700D811D1124911DB29F700D49
:0C38B000811D1124911D0895F894FFCF94
:1038BC0000120010010000880320000100000047E6
:1038CC00616D65206F76657200526563656976651A
:1038DC00643A2025640A0D005374617274696E6732
:1038EC00205352414D20746573742E2E2E00577246
:1038FC00697465207068617365206572726F723AC5
:10390C00206578745F72616D5B2534645D203D20A9
:10391C0025303258202873686F756C6420626520DE
:10392C0025303258290A0052657472696576616CCB
:10393C00207068617365206572726F723A206578C9
:10394C00745F72616D5B2534645D203D20253032DF
:10395C0058202873686F756C64206265202530329E
:10396C0058290A005352414D207465737420636FBB
:10397C006D706C657465642077697468200A2534F1
:10398C0064206572726F727320696E20777269742D
:10399C006520706861736520616E64200A2534644B
:1039AC00206572726F727320696E20726574726911
:1039BC006576616C2070686173650A0A002000549A
:1039CC0049544C453A2025730A0D004D41494E206F
:1039DC004D454E55005354415254204E45572047A7
:1039EC00414D450053455454494E47530053484F9D
:1039FC0057204849474853434F524553005245536B
:103A0C004554204849474853434F52455300504C66
:103A1C00415920534E414B450045415359004841B3
:103A2C005244455200504C415920504F4E4700478C
:103A3C00414D45204F564552203A50004D4350328F
:103A4C00353135206973204E4F5420696E20436FF9
:103A5C006E66696775726174696F6E206D6F6465EF
:103A6C002061667465722072657365742120436FE2
:103A7C006E6669672062697473206172653A2025ED
:103A8C00780A0D0063616E20636F6E74726F6C2028
:103A9C0072656769737465723A20202578200A0D67
:103AAC0000582E6A6F79737469636B3A2025640A27
:103ABC000D00592E6A6F79737469636B3A20256413
:103ACC000A0D00783A2025640A0D00526967687463
:103ADC0020736C696465723A2025640A0D004741B5
:103AEC004D45204F5645520053434F52453A0041E5
:083AFC0050504C45533A000004
:00000001FF
