:100000000C944F000C946C000C946C000C946C00DD
:100010000C946C000C946C000C946C000C946C00B0
:100020000C946C000C946C000C946C000C946C00A0
:100030000C946C000C946C000C946C000C946C0090
:100040000C946C000C946C000C946C000C946C0080
:100050000C946C000C946C000C946C000C946C0070
:100060000C946C000C946C000C946C000C946C0060
:10007000084AD73B3BCE016E84BCBFFDC12F3D6C0F
:1000800074319ABD56833DDA3D00C77F11BED9E475
:10009000BB4C3E916BAAAABE000000803F00112419
:1000A0001FBECFEFD4E0DEBFCDBF12E0A0E0B1E0D5
:1000B000EEE8F5E102C005900D92AE30B107D9F738
:1000C00022E0AEE0B2E001C01D92A831B207E1F734
:1000D0000E946E000C94C50A0C9400008FE190E021
:1000E0000E94A4000E9437010AE011E0CAE1D1E0B9
:1000F0000E949D01292F092E000C330B3F939F93E3
:100100001F930F930E9417060E94F1019F938F93F4
:10011000DF93CF930E9417068DB79EB708960FB650
:10012000F8949EBF0FBE8DBFE3CF5D9BFECF8CB911
:1001300008955F9BFECF8CB1089590BD89B988E189
:100140008AB98EE880BD08950E949D0069E970E03B
:1001500085E990E00E94CC05089585B7806885BF49
:1001600080B7806280BF0895CF92DF92EF92FF92B6
:100170000F931F93CF93DF9389E291E00E942D06A6
:100180000E94BC057C010E94C105C12CD12CC0E09D
:10019000D0E00FE311E00E94BC05F601F85E808319
:1001A00020812817A1F099279F938F931F922F9357
:1001B000DF92CF921F930F930E94170621968DB75F
:1001C0009EB708960FB6F8949EBF0FBE8DBF9FEFE7
:1001D000C91AD90AC11488E0D806E9F6C7010E94F5
:1001E000C10500E010E0E12CF12C0F2EF8E7CF2E36
:1001F000F1E0DF2EF02D0E94BC05F801F85E2081B1
:100200002817B1F099279F938F931F922F931F93D5
:100210000F93DF92CF920E9417069FEFE91AF90A17
:100220008DB79EB708960FB6F8949EBF0FBE8DBFD0
:100230000F5F1F4F011598E01907E9F6FF92EF9243
:10024000DF93CF9385EB91E09F938F930E941706E6
:100250000F900F900F900F900F900F90DF91CF9114
:100260001F910F91FF90EF90DF90CF90089585B789
:10027000806885BF80B7806280BF0895E0E0F4E1C8
:10028000808385E38A95F1F7000080810895E0E09E
:10029000F4E184E0808385E38A95F1F700008081B2
:1002A0000895E0E0F4E185E0808385E38A95F1F745
:1002B000000080810895E0E0F4E186E0808385E33A
:1002C0008A95F1F7000080810895E0E0F4E187E08D
:1002D000808385E38A95F1F70000808108959FE08F
:1002E00094BB15BA880F880F85BB089591E09ABB1F
:1002F0001BBA94E09BBB833039F0843041F08230EC
:1003000041F481E08BBB089582E08BBB089583E0CC
:100310008BBB08958E9A882311F0969A089596982B
:1003200008958F9A882311F0979A089597980895C1
:100330000E9447010E9451010895CF93DF930E94CC
:100340004701D82F0E945101C82F6D2F70E080E027
:1003500090E00E941B0420E030E04FEF52E40E9446
:100360008D020E94E303062E000C770B880B990B7D
:100370000E941B0420E030E04FEF52E40E94710322
:1003800020E030E048EC52E40E94FF040E94E303C6
:10039000D62F6C2F70E080E090E00E941B0420E0DC
:1003A00030E04FEF52E40E948D020E94E303062EDC
:1003B000000C770B880B990B0E941B0420E030E0A7
:1003C0004FEF52E40E94710320E030E048EC52E429
:1003D0000E94FF040E94E303962F8D2FDF91CF919F
:1003E0000895CF92DF92EF92FF92CF93DF930E9416
:1003F0009D01D82FC92F682F880F770B6F5F7F4F14
:10040000072E000C880B990B0E941B046B017C01CA
:100410004C2F0C2E000C550B4F5F5F4FBA01550F40
:10042000880B990B0E941B04A70196010E940D03E3
:100430006B017C01CB5FCA3020F4DB5FDA3008F45B
:1004400054C02BE83AE046E85FE3C701B6010E94DA
:10045000F20488235CF02BE83AE046E050E4C70160
:10046000B6010E946C0318160CF042C02BE83AE06B
:1004700046E85FEBC701B6010E946C03181654F002
:100480002BE83AE046E050ECC701B6010E94F204C6
:1004900088238CF52BE83AE046E85FE3C701B60114
:1004A0000E946C03181654F02BE83AE046E85FEB24
:1004B000C701B6010E94F204882304F52BE83AE054
:1004C00046E050E4C701B6010E94F2048823CCF054
:1004D0002BE83AE046E050ECC701B6010E946C03FD
:1004E000181694F082E090E011C084E090E00EC015
:1004F00080E090E00BC081E090E008C083E090E0F5
:1005000005C084E090E002C084E090E0DF91CF91EC
:10051000FF90EF90DF90CF9008955058BB27AA2707
:100520000E94A5020C94B8040E94AA0438F00E940C
:10053000B10420F039F49F3F19F426F40C948004A0
:100540000EF4E095E7FB0C947A04E92F0E94C904AD
:1005500058F3BA17620773078407950720F079F4F8
:10056000A6F50C94EB040EF4E0950B2EBA2FA02DFB
:100570000B01B90190010C01CA01A0011124FF2750
:10058000591B99F0593F50F4503E68F11A16F0404B
:10059000A22F232F342F4427585FF3CF469537954A
:1005A0002795A795F0405395C9F77EF41F16BA0B0F
:1005B000620B730B840BBAF09150A1F0FF0FBB1FBD
:1005C000661F771F881FC2F70EC0BA0F621F731F06
:1005D000841F48F4879577956795B795F7959E3F63
:1005E00008F0B0CF9395880F08F09927EE0F9795F4
:1005F000879508950E94AA0460F080E891E009F4CC
:100600009EEF0E94B10428F040E851E071F45EEFE3
:100610000CC00C9480040C94EB04E92FE0780E9449
:10062000C90440F3092E052AB1F3261737074807F6
:10063000590738F00E2E07F8E02569F0E025E06450
:100640000AC0EF6307F8009407FADB01B9019D01C6
:10065000DC01CA01AD01EF930E9488030E94B80437
:100660000E943D035F91552339F02BED3FE049E4B3
:1006700050FD49EC0C948E020895DF93DD27B92FCD
:10068000BF7740E85FE31616170648075B0718F4C4
:10069000D92F0E94F7049F938F937F936F930E94AB
:1006A0006C05E0E7F0E00E9483040E94B8042F91FB
:1006B0003F914F915F910E941205DD2351F09058B8
:1006C000A2EA2AED3FE049EC5FE3D0785D270E9483
:1006D000A502DF910C94B8040E94560408F481E04E
:1006E00008950E9485030C94B8040E94B10458F048
:1006F0000E94AA0440F029F45F3F29F00C947A0488
:1007000051110C94EC040C9480040E94C90468F309
:100710009923B1F3552391F3951B550BBB27AA27BA
:1007200062177307840738F09F5F5F4F220F331FF4
:10073000441FAA1FA9F335D00E2E3AF0E0E832D0BC
:1007400091505040E695001CCAF72BD0FE2F29D0BF
:10075000660F771F881FBB1F261737074807AB0791
:10076000B0E809F0BB0B802DBF01FF2793585F4F06
:100770003AF09E3F510578F00C947A040C94EC0406
:100780005F3FE4F3983ED4F3869577956795B795E8
:10079000F7959F5FC9F7880F911D9695879597F9F3
:1007A0000895E1E0660F771F881FBB1F621773076C
:1007B0008407BA0720F0621B730B840BBA0BEE1F81
:1007C00088F7E09508950E94EA036894B1110C94AB
:1007D000EC0408950E94D10488F09F5798F0B92F37
:1007E0009927B751B0F0E1F0660F771F881F991F66
:1007F0001AF0BA95C9F714C0B13091F00E94EB0419
:10080000B1E008950C94EB04672F782F8827B85F28
:1008100039F0B93FCCF3869577956795B395D9F7BD
:100820003EF490958095709561957F4F8F4F9F4FC7
:100830000895E89409C097FB3EF4909580957095D3
:1008400061957F4F8F4F9F4F9923A9F0F92F96E91C
:10085000BB279395F695879577956795B795F11191
:10086000F8CFFAF4BB0F11F460FF1BC06F5F7F4F2E
:100870008F4F9F4F16C0882311F096E911C0772340
:1008800021F09EE8872F762F05C0662371F096E849
:10089000862F70E060E02AF09A95660F771F881F18
:1008A000DAF7880F9695879597F90895990F0008BC
:1008B000550FAA0BE0E8FEEF16161706E807F90732
:1008C000C0F012161306E407F50798F0621B730BCD
:1008D000840B950B39F40A2661F0232B242B252B4E
:1008E00021F408950A2609F4A140A6958FEF811DF1
:1008F000811D089597F99F6780E870E060E0089592
:100900009FEF80EC0895DF93CF931F930F93FF9297
:10091000EF92DF927B018C01689406C0DA2EEF0122
:100920000E941205FE01E894A5912591359145910B
:100930005591A6F3EF010E94A502FE019701A801BF
:10094000DA9469F7DF90EF90FF900F911F91CF91AC
:10095000DF91089500240A94161617061806090652
:10096000089500240A941216130614060506089525
:10097000092E0394000C11F4882352F0BB0F40F4AD
:10098000BF2B11F460FF04C06F5F7F4F8F4F9F4FED
:10099000089557FD9058440F551F59F05F3F71F06F
:1009A0004795880F97FB991F61F09F3F79F08795D6
:1009B0000895121613061406551FF2CF4695F1DF5F
:1009C00008C0161617061806991FF1CF86957105EF
:1009D000610508940895E894BB2766277727CB0123
:1009E00097F908950E94560408F48FEF08959B012B
:1009F000AC0160E070E080E89FE30C9471030E941A
:100A000012050C94B8040E94AA0438F00E94B104A4
:100A100020F0952311F00C947A040C948004112496
:100A20000C94EC040E94C90470F3959FC1F3950FD8
:100A300050E0551F629FF001729FBB27F00DB11D62
:100A4000639FAA27F00DB11DAA1F649F6627B00DF2
:100A5000A11D661F829F2227B00DA11D621F739FDB
:100A6000B00DA11D621F839FA00D611D221F749FE9
:100A70003327A00D611D231F849F600D211D822F30
:100A8000762F6A2F11249F5750409AF0F1F0882357
:100A90004AF0EE0FFF1FBB1F661F771F881F915084
:100AA0005040A9F79E3F510580F00C947A040C94B5
:100AB000EC045F3FE4F3983ED4F386957795679511
:100AC000B795F795E7959F5FC1F7FE2B880F911DAE
:100AD0009695879597F908959B01AC010C94FF04B6
:100AE0008F929F92AF92BF92CF92DF92EF92FF923E
:100AF000CF93DF93EC01688179818A819B816115B5
:100B000071058105910521F464E279ED8BE597E0AB
:100B10002DE133EF41E050E00E942B0A49015A01D8
:100B20009B01AC01A7EAB1E40E944A0A6B017C0177
:100B3000ACEEB4EFA50194010E94580ADC01CB0190
:100B40008C0D9D1DAE1DBF1DB7FF03C00197A109F0
:100B5000B04888839983AA83BB839F77DF91CF9125
:100B6000FF90EF90DF90CF90BF90AF909F908F90CD
:100B700008950E947005089580E091E00E9470053C
:100B80000895A0E0B0E08093000190930101A0934C
:100B90000201B093030108950F931F93CF93DF9346
:100BA000009731F46115710519F480E090E03AC0C6
:100BB0008B01EC016EE070E081E090E00E942F0874
:100BC000FC01892B91F380E883830115110571F0F5
:100BD0001387028781E8838380910E0290910F0230
:100BE000892B21F4F0930F02E0930E022097C9F0B5
:100BF000D187C08783818260838380911002909126
:100C00001102892B71F4F0931102E093100280918C
:100C1000120290911302892B21F4F0931302E093B6
:100C20001202CF01DF91CF911F910F910895A0E0A3
:100C3000B0E0EDE1F6E00C946D0AAE014B5F5F4F62
:100C4000FA0161917191AF018091100290911102AE
:100C50000E945D06E2E00C94890A0F931F93CF93E4
:100C6000DF93E0911002F0911102238121FF1BC05C
:100C70008C01D0E0C0E0F80181918F0160911002F9
:100C800070911102DB011896ED91FC911997882360
:100C900031F00995892B79F3DFEFCFEFECCF8AE0C4
:100CA0000995892B19F08FEF9FEF02C08D2F9C2F94
:100CB000DF91CF911F910F910895ACE0B0E0E3E692
:100CC000F6E00C945D0A7C016B018A01FC0117823D
:100CD0001682838181FFBDC1CE0101964C01F701CF
:100CE0009381F60193FD859193FF81916F01882394
:100CF00009F4ABC1853239F493FD859193FF81915D
:100D00006F01853229F4B70190E00E949509E7CF81
:100D1000512C312C20E02032A0F48B3269F030F4D9
:100D2000803259F0833269F420612CC08D3239F061
:100D3000803339F4216026C02260246023C02860FB
:100D400021C027FD27C030ED380F3A3078F426FF58
:100D500006C0FAE05F9E300D1124532E13C08AE0C6
:100D6000389E300D1124332E20620CC08E3221F4B7
:100D700026FD6BC1206406C08C3611F4206802C0C9
:100D8000883641F4F60193FD859193FF81916F01BF
:100D90008111C1CF982F9F7D9554933028F40C5F1B
:100DA0001F4FFFE3F9830DC0833631F0833771F0B5
:100DB000833509F05BC022C0F801808189830E5F12
:100DC0001F4F44244394512C540115C03801F2E0C4
:100DD0006F0E711CF801A080B18026FF03C0652D45
:100DE00070E002C06FEF7FEFC5012C870E948A0977
:100DF0002C0183012C852F77222E17C03801F2E0B9
:100E00006F0E711CF801A080B18026FF03C0652D14
:100E100070E002C06FEF7FEFC5012C870E94780958
:100E20002C012C852068222E830123FC1BC0832DDE
:100E300090E048165906B0F4B70180E290E00E94B5
:100E400095093A94F4CFF50127FC859127FE81910D
:100E50005F01B70190E00E94950931103A94F1E0EA
:100E60004F1A51084114510471F7E5C0843611F04E
:100E7000893639F5F80127FF07C0608171818281C9
:100E800093810C5F1F4F08C060817181072E000C99
:100E9000880B990B0E5F1F4F2F76722E97FF09C09C
:100EA00090958095709561957F4F8F4F9F4F2068EB
:100EB000722E2AE030E0A4010E94CD09A82EA818C5
:100EC00044C0853729F42F7EB22E2AE030E025C0B9
:100ED000F22FF97FBF2E8F36C1F018F4883579F0E4
:100EE000B4C0803719F0883721F0AFC02F2F2061B0
:100EF000B22EB4FE0DC08B2D8460B82E09C024FF25
:100F00000AC09F2F9660B92E06C028E030E005C0C9
:100F100020E130E002C020E132E0F801B7FE07C076
:100F200060817181828193810C5F1F4F06C0608157
:100F3000718180E090E00E5F1F4FA4010E94CD09F7
:100F4000A82EA818FB2DFF777F2E76FE0BC0372D1D
:100F50003E7FA51450F474FE0AC072FC08C0372D01
:100F60003E7E05C0BA2C372D03C0BA2C01C0B52C6B
:100F700034FF0DC0FE01EA0DF11D8081803311F4B4
:100F8000397E09C032FF06C0B394B39404C0832FE6
:100F9000867809F0B39433FD13C030FF06C05A2C95
:100FA000B31418F4530C5B18B32CB31468F4B701E2
:100FB00080E290E03C870E949509B3943C85F5CF90
:100FC000B31410F43B1801C0312C34FF12C0B70128
:100FD00080E390E03C870E9495093C8532FF17C072
:100FE00031FD03C088E790E002C088E590E0B701DA
:100FF0000CC0832F867859F031FF02C08BE201C00C
:1010000080E237FD8DE2B70190E00E949509A514BA
:1010100038F4B70180E390E00E9495095A94F7CF25
:10102000AA94F401EA0DF11D8081B70190E00E94BD
:101030009509A110F5CF332009F451CEB70180E214
:1010400090E00E9495093A94F6CFF7018681978146
:1010500002C08FEF9FEF2C96E2E10C94790A0F9378
:101060001F93CF93DF93869F8001879F100D969FDC
:10107000100D1124C8010E944B08EC01009729F0C3
:10108000A80160E070E00E948309CE01DF91CF915A
:101090001F910F910895CF93DF938230910510F443
:1010A00082E090E0E0911602F091170220E030E03B
:1010B000C0E0D0E0309711F14081518148175907C5
:1010C000C0F04817590761F482819381209719F085
:1010D0009B838A832BC0909317028093160226C0AD
:1010E0002115310519F04217530718F49A01BE0172
:1010F000DF01EF010280F381E02DDCCF2115310506
:1011000009F1281B390B2430310590F412968D918A
:101110009C9113976115710521F0FB0193838283E4
:1011200004C09093170280931602FD01329644C0CA
:10113000FD01E20FF31F81939193225031092D930A
:101140003C933AC02091140230911502232B41F4B4
:10115000209106013091070130931502209314026B
:1011600020910401309105012115310541F42DB77D
:101170003EB74091080150910901241B350BE091C5
:101180001402F0911502E217F307A0F42E1B3F0B97
:101190002817390778F0AC014E5F5F4F24173507E9
:1011A00048F04E0F5F1F5093150240931402819335
:1011B000919302C0E0E0F0E0CF01DF91CF9108957C
:1011C0000F931F93CF93DF93009709F48CC0FC011A
:1011D00032971382128200911602109117020115A4
:1011E000110581F420813181820F931F2091140217
:1011F000309115022817390779F5F0931502E0931D
:10120000140271C0D80140E050E0AE17BF0750F49F
:1012100012962D913C911397AD012115310509F1DD
:10122000D901F3CF9D01DA0133832283608171817B
:10123000860F971F8217930769F4EC012881398183
:10124000260F371F2E5F3F4F318320838A819B817A
:1012500093838283452B29F4F0931702E0931602BF
:1012600042C01396FC93EE931297ED014991599168
:101270009E01240F351FE217F30771F480819181DD
:10128000840F951F029611969C938E938281938171
:1012900013969C938E931297E0E0F0E0D80112969B
:1012A0008D919C911397009719F0F8018C01F6CF5E
:1012B0008D919C9198012E5F3F4F820F931F20913B
:1012C0001402309115022817390769F4309729F470
:1012D000109217021092160202C01382128210930B
:1012E000150200931402DF91CF911F910F91089581
:1012F000FC010590615070400110D8F780959095E1
:101300008E0F9F1F0895DC0101C06D934150504026
:10131000E0F70895FC016150704001900110D8F78A
:10132000809590958E0F9F1F08950F931F93CF93D5
:10133000DF93FB01238121FD03C08FEF9FEF28C0C6
:1013400022FF16C0468157812481358142175307F9
:1013500044F4A081B1819D012F5F3F4F31832083F1
:101360008C93268137812F5F3F4F3783268310C0B0
:10137000EB01092F182F0084F185E02D0995892BA9
:10138000E1F68E819F8101969F838E83812F902F1E
:10139000DF91CF911F910F910895FA01AA2728306C
:1013A00051F1203181F1E8946F936E7F6E5F7F4F32
:1013B0008F4F9F4FAF4FB1E03ED0B4E03CD0670FAE
:1013C000781F891F9A1FA11D680F791F8A1F911D01
:1013D000A11D6A0F711D811D911DA11D20D009F451
:1013E00068943F912AE0269F11243019305D319393
:1013F000DEF6CF010895462F4770405D4193B3E07C
:101400000FD0C9F7F6CF462F4F70405D4A3318F022
:10141000495D31FD4052419302D0A9F7EACFB4E0D3
:10142000A6959795879577956795BA95C9F700978B
:101430006105710508959B01AC010A2E069457952C
:10144000479537952795BA95C9F7620F731F841F83
:10145000951FA01D0895052E97FB1EF400940E9471
:10146000420A57FD07D00E94940A07FC03D04EF4AD
:101470000C94420A50954095309521953F4F4F4F1F
:101480005F4F089590958095709561957F4F8F4F30
:101490009F4F08950E94B60AA59F900DB49F900D8E
:1014A000A49F800D911D11240895B7FF0C944A0A42
:1014B0000E944A0A821B930B08952F923F924F92EB
:1014C0005F926F927F928F929F92AF92BF92CF92D4
:1014D000DF92EF92FF920F931F93CF93DF93CDB7DD
:1014E000DEB7CA1BDB0B0FB6F894DEBF0FBECDBF55
:1014F00009942A88398848885F846E847D848C8426
:101500009B84AA84B984C884DF80EE80FD800C812E
:101510001B81AA81B981CE0FD11D0FB6F894DEBF11
:101520000FBECDBFED010895A1E21A2EAA1BBB1B71
:10153000FD010DC0AA1FBB1FEE1FFF1FA217B3079F
:10154000E407F50720F0A21BB30BE40BF50B661FB5
:10155000771F881F991F1A9469F760957095809579
:1015600090959B01AC01BD01CF010895A29FB001F0
:10157000B39FC001A39F700D811D1124911DB29FC7
:0E158000700D811D1124911D0895F894FFCF68
:10158E00010000000000180220005920706F7369DE
:10159E0074696F6E3A2025640A00444952454354DB
:1015AE00494F4E3A2025640A005374617274696E75
:1015BE0067205352414D20746573742E2E2E0057A2
:1015CE0072697465207068617365206572726F72DE
:1015DE003A206578745F72616D5B2534645D203DE1
:1015EE002025303258202873686F756C6420626530
:1015FE002025303258290A00526574726965766169
:10160E006C207068617365206572726F723A206526
:10161E0078745F72616D5B2534645D203D202530EA
:10162E003258202873686F756C64206265202530EF
:10163E003258290A005352414D2074657374206349
:10164E006F6D706C657465642077697468200A2507
:10165E003464206572726F727320696E20777269BE
:10166E00746520706861736520616E64200A25348C
:10167E0064206572726F727320696E207265747267
:0E168E00696576616C2070686173650A0A00F8
:00000001FF
