:100000000C943D010C945A010C945A010C945A0121
:100010000C945A010C945A010C945A010C945A01F4
:100020000C945A010C945A010C945A010C945A01E4
:100030000C945A010C945A010C945A010C945A01D4
:100040000C945A010C945A010C945A010C945A01C4
:100050000C945A010C945A010C945A010C945A01B4
:100060000C945A010C945A010C945A010C945A01A4
:10007000084AD73B3BCE016E84BCBFFDC12F3D6C0F
:1000800074319ABD56833DDA3D00C77F11BED9E475
:10009000BB4C3E916BAAAABE000000803F0000004E
:1000A00000000000005F00000007000700147F143C
:1000B0007F14242A7F2A12231308646236495522AA
:1000C000500005030000001C2241000041221C00DA
:1000D000082A1C2A0808083E0808005030000008BA
:1000E00008080808006060000020100804023E5163
:1000F00049453E00427F4000426151494621414509
:100100004B311814127F1027454545393C4A49495F
:100110003001710905033649494936064949291E06
:100120000036360000005636000000081422411444
:100130001414141441221408000201510906324912
:1001400079413E7E1111117E7F494949363E414138
:1001500041227F4141221C7F494949417F090901D0
:10016000013E414151327F0808087F00417F410034
:100170002040413F017F081422417F404040407FA2
:100180000204027F7F0408107F3E4141413E7F0907
:100190000909063E4151215E7F0919294646494910
:1001A000493101017F01013F4040403F1F20402075
:1001B0001F7F2018207F631408146303047804034E
:1001C000615149454300007F41410204081020412C
:1001D000417F000004020102044040404040000111
:1001E00002040020545454787F484444383844442E
:1001F0004420384444487F3854545418087E090138
:1002000002081454543C7F0804047800447D4000E4
:100210002040443D00007F10284400417F40007C86
:10022000041804787C0804047838444444387C1466
:10023000141408081414187C7C0804040848545446
:100240005420043F4440203C4040207C1C2040205F
:100250001C3C4030403C44281028440C5050503C3A
:100260004464544C44000836410000007F00000004
:100270004136080002010302010011241FBECFEF26
:10028000D4E0DEBFCDBF12E0A0E0B1E0EEE2FBE1E2
:1002900002C005900D92A030B107D9F722E0A0E08E
:1002A000B2E001C01D92AC30B207E1F70E945C01E0
:1002B0000C94950D0C9400008FE190E00E94780161
:1002C0000E94CA030E9499048EE091E00E943B05BF
:1002D000FFCF5D9BFECF8CB908955F9BFECF8CB1A5
:1002E000089590BD89B988E18AB98EE880BD0895E6
:1002F0000E9471016DE671E089E691E00E949C0820
:10030000089585B7806885BF80B7806280BF0895F3
:10031000CF92DF92EF92FF920F931F93CF93DF93D1
:100320008BE191E00E94FD080E948C087C010E94F4
:100330009108C12CD12CC0E0D0E001E311E00E9473
:100340008C08F601F85E808320812817A1F0992798
:100350009F938F931F922F93DF92CF921F930F93B0
:100360000E94E70821968DB79EB708960FB6F894BD
:100370009EBF0FBE8DBF9FEFC91AD90AC11488E076
:10038000D806E9F6C7010E94910800E010E0E12CD0
:10039000F12C0F2EFAE6CF2EF1E0DF2EF02D0E9489
:1003A0008C08F801F85E20812817B1F099279F93F7
:1003B0008F931F922F931F930F93DF92CF920E94E0
:1003C000E7089FEFE91AF90A8DB79EB708960FB6AE
:1003D000F8949EBF0FBE8DBF0F5F1F4F011598E0B1
:1003E0001907E9F6FF92EF92DF93CF9387EA91E046
:1003F0009F938F930E94E7080F900F900F900F909C
:100400000F900F90DF91CF911F910F91FF90EF9080
:10041000DF90CF90089585B7806885BF80B78062F0
:1004200080BF0895E0E0F4E1808385E38A95F1F7E9
:10043000000080810895E0E0F4E184E0808385E3BA
:100440008A95F1F7000080810895E0E0F4E185E00D
:10045000808385E38A95F1F7000080810895E0E0CC
:10046000F4E186E0808385E38A95F1F700008081DE
:100470000895E0E0F4E187E0808385E38A95F1F771
:100480000000808108959FE094BB15BA880F880F03
:1004900085BB089591E09ABB1BBA94E09BBB833067
:1004A00039F0843041F0823041F481E08BBB089513
:1004B00082E08BBB089583E08BBB08958E9A8823DE
:1004C00011F0969A0895969808958F9A882311F0BE
:1004D000979A0895979808950E941B0280930102AD
:1004E0000E942502809300020895CF93DF930E941B
:1004F0001B02D82F0E942502C82F6D2F70E080E0CC
:1005000090E00E94EB0620E030E04FEF52E40E94C2
:100510005D050E94B306062E000C770B880B990B25
:100520000E94EB0620E030E04FEF52E40E944106CB
:1005300020E030E048EC52E40E94CF070E94B3066E
:10054000D62F6C2F70E080E090E00E94EB0620E058
:1005500030E04FEF52E40E945D050E94B306062E84
:10056000000C770B880B990B0E94EB0620E030E023
:100570004FEF52E40E94410620E030E048EC52E4A4
:100580000E94CF070E94B306962F8D2FDF91CF9147
:100590000895CF92DF92EF92FF92CF93DF930E9464
:1005A0007502D82FC92F682F880F770B6F5F7F4F89
:1005B000072E000C880B990B0E94EB066B017C0147
:1005C0004C2F0C2E000C550B4F5F5F4FBA01550F8F
:1005D000880B990B0E94EB06A70196010E94DD058E
:1005E0006B017C01CB5FCB3020F4DB5FDB3008F4A8
:1005F00054C02BE83AE046E85FE3C701B6010E9429
:10060000C20788235CF02BE83AE046E050E4C701DB
:10061000B6010E943C0618160CF042C02BE83AE0E6
:1006200046E85FEBC701B6010E943C06181654F07D
:100630002BE83AE046E050ECC701B6010E94C20741
:1006400088238CF52BE83AE046E85FE3C701B60162
:100650000E943C06181654F02BE83AE046E85FEB9F
:10066000C701B6010E94C207882304F52BE83AE0CF
:1006700046E050E4C701B6010E94C2078823CCF0CF
:100680002BE83AE046E050ECC701B6010E943C0678
:10069000181694F082E090E011C084E090E00EC063
:1006A00080E090E00BC081E090E008C083E090E043
:1006B00005C084E090E002C084E090E0DF91CF913B
:1006C000FF90EF90DF90CF900895CF93DF930E943B
:1006D0003902D82F0E942F02C82F6D2F70E080E0C2
:1006E00090E00E94EB0620E030E04FEF52E40E94E1
:1006F0005D050E94B306062E000C770B880B990B44
:100700000E94EB0620E030E04FEF52E40E944106E9
:1007100020E030E048EC52E40E94CF070E94B3068C
:10072000D62F6C2F70E080E090E00E94EB0620E076
:1007300030E04FEF52E40E945D050E94B306062EA2
:10074000000C770B880B990B0E94EB0620E030E041
:100750004FEF52E40E94410620E030E048EC52E4C2
:100760000E94CF070E94B306962F8D2FDF91CF9165
:100770000895B99886B38695817090E00895B998E8
:1007800086B3817090E00895E0910201F091030139
:100790008083089585B7806885BF80B7806280BFF9
:1007A000E0910201F09103018EEA8083E091020161
:1007B000F091030181EA8083E0910201F09103014D
:1007C0008AED8083E0910201F091030182E1808350
:1007D000E0910201F091030188E08083E091020141
:1007E000F091030188EA8083E0910201F091030116
:1007F0008FE38083E0910201F091030185ED808316
:10080000E0910201F091030180E88083E091020110
:10081000F091030181E88083E0910201F0910301EE
:1008200080E58083E0910201F091030189ED8083EE
:10083000E0910201F091030181E28083E0910201E5
:10084000F091030180E28083E0910201F0910301C5
:1008500082E08083E0910201F09103018BED8083BF
:10086000E0910201F091030180E38083E0910201B5
:10087000F09103018DEA8083E0910201F091030180
:100880001082E0910201F091030184EA8083E091FB
:100890000201F091030186EA8083E0910201F09168
:1008A00003018FEA8083E0910201F091030188EC5B
:1008B00080830895E0910001F09101018083089503
:1008C000E0910201F091030191E29083E091020135
:1008D000F09103018083E0910201F09103016083B4
:1008E0000895E0910201F091030192E29083E0917A
:1008F0000201F09103018083E0910201F091030174
:1009000060830895E0910201F0910301982F9F7098
:10091000908382958F708061E0910201F0910301D4
:1009200080830895E0910201F0910301806B808340
:100930000895E0910201F091030180E28083E0914B
:100940000201F091030110826FE780E00E946004D1
:1009500067E080E00E94710480E094E0E091000193
:10096000F091010110820197C9F7E0910201F09125
:10097000030180E28083E0910201F091030182E0B3
:1009800080830895CF93C62FE0910201F091030177
:1009900090E29083E0910201F091030192E0908354
:1009A0000E9482048C2F0E949204E0910001F09139
:1009B000010188E18083E0910001F09101018083D1
:1009C000E0910001F09101019EE79083E091000128
:1009D000F09101019CE39083E0910001F09101010D
:1009E0008083CF910895CF93DF93C82F862FD42F84
:1009F00065E0680F0E9460046D2F8D2F0E947104C6
:100A0000C0528C2F90E09C01220F331F220F331F06
:100A1000820F931F20E030E0F901E80FF91FE25642
:100A2000FF4FE491A0910001B0910101EC932F5F81
:100A30003F4F2530310581F7DF91CF9108958052E6
:100A400090E09C01220F331F220F331F820F931F50
:100A500020E030E0F901E80FF91FE256FF4FE49182
:100A6000A0910001B0910101EC932F5F3F4F253021
:100A7000310581F70895EF92FF920F931F93CF9363
:100A8000DF938C017C01C0E0D0E006C0F7018191CA
:100A90007F010E941F052196F80101900020E9F7CF
:100AA0003197E01BF10BCE17DF0780F3DF91CF9179
:100AB0001F910F91FF90EF9008955058BB27AA27E0
:100AC0000E9475050C9488070E947A0738F00E94EE
:100AD000810720F039F49F3F19F426F40C94500755
:100AE0000EF4E095E7FB0C944A07E92F0E94990762
:100AF00058F3BA17620773078407950720F079F453
:100B0000A6F50C94BB070EF4E0950B2EBA2FA02D82
:100B10000B01B90190010C01CA01A0011124FF27AA
:100B2000591B99F0593F50F4503E68F11A16F040A5
:100B3000A22F232F342F4427585FF3CF46953795A4
:100B40002795A795F0405395C9F77EF41F16BA0B69
:100B5000620B730B840BBAF09150A1F0FF0FBB1F17
:100B6000661F771F881FC2F70EC0BA0F621F731F60
:100B7000841F48F4879577956795B795F7959E3FBD
:100B800008F0B0CF9395880F08F09927EE0F97954E
:100B9000879508950E947A0760F080E891E009F453
:100BA0009EEF0E94810728F040E851E071F45EEF6B
:100BB0000CC00C9450070C94BB07E92FE0780E94FE
:100BC000990740F3092E052AB1F32617370748077E
:100BD000590738F00E2E07F8E02569F0E025E064AB
:100BE0000AC0EF6307F8009407FADB01B9019D0121
:100BF000DC01CA01AD01EF930E9458060E948807EC
:100C00000E940D065F91552339F02BED3FE049E43A
:100C100050FD49EC0C945E050895DF93DD27B92F54
:100C2000BF7740E85FE31616170648075B0718F41E
:100C3000D92F0E94C7079F938F937F936F930E9432
:100C40003C08E0E7F0E00E9453070E9488072F91DC
:100C50003F914F915F910E94E207DD2351F0905840
:100C6000A2EA2AED3FE049EC5FE3D0785D270E94DD
:100C70007505DF910C9488070E94260708F481E02F
:100C800008950E9455060C9488070E94810758F029
:100C90000E947A0740F029F45F3F29F00C944A073C
:100CA00051110C94BC070C9450070E94990768F3EB
:100CB0009923B1F3552391F3951B550BBB27AA2715
:100CC00062177307840738F09F5F5F4F220F331F4F
:100CD000441FAA1FA9F335D00E2E3AF0E0E832D017
:100CE00091505040E695001CCAF72BD0FE2F29D01A
:100CF000660F771F881FBB1F261737074807AB07EC
:100D0000B0E809F0BB0B802DBF01FF2793585F4F60
:100D10003AF09E3F510578F00C944A070C94BC07BA
:100D20005F3FE4F3983ED4F3869577956795B79542
:100D3000F7959F5FC9F7880F911D9695879597F94D
:100D40000895E1E0660F771F881FBB1F62177307C6
:100D50008407BA0720F0621B730B840BBA0BEE1FDB
:100D600088F7E09508950E94BA066894B1110C9432
:100D7000BC0708950E94A10788F09F5798F0B92FEB
:100D80009927B751B0F0E1F0660F771F881F991FC0
:100D90001AF0BA95C9F714C0B13091F00E94BB07A0
:100DA000B1E008950C94BB07672F782F8827B85FB0
:100DB00039F0B93FCCF3869577956795B395D9F718
:100DC0003EF490958095709561957F4F8F4F9F4F22
:100DD0000895E89409C097FB3EF49095809570952E
:100DE00061957F4F8F4F9F4F9923A9F0F92F96E977
:100DF000BB279395F695879577956795B795F111EC
:100E0000F8CFFAF4BB0F11F460FF1BC06F5F7F4F88
:100E10008F4F9F4F16C0882311F096E911C077239A
:100E200021F09EE8872F762F05C0662371F096E8A3
:100E3000862F70E060E02AF09A95660F771F881F72
:100E4000DAF7880F9695879597F90895990F000816
:100E5000550FAA0BE0E8FEEF16161706E807F9078C
:100E6000C0F012161306E407F50798F0621B730B27
:100E7000840B950B39F40A2661F0232B242B252BA8
:100E800021F408950A2609F4A140A6958FEF811D4B
:100E9000811D089597F99F6780E870E060E00895EC
:100EA0009FEF80EC0895DF93CF931F930F93FF92F2
:100EB000EF92DF927B018C01689406C0DA2EEF017D
:100EC0000E94E207FE01E894A59125913591459194
:100ED0005591A6F3EF010E947505FE019701A80147
:100EE000DA9469F7DF90EF90FF900F911F91CF9107
:100EF000DF91089500240A941616170618060906AD
:100F0000089500240A94121613061406050608957F
:100F1000092E0394000C11F4882352F0BB0F40F407
:100F2000BF2B11F460FF04C06F5F7F4F8F4F9F4F47
:100F3000089557FD9058440F551F59F05F3F71F0C9
:100F40004795880F97FB991F61F09F3F79F0879530
:100F50000895121613061406551FF2CF4695F1DFB9
:100F600008C0161617061806991FF1CF8695710549
:100F7000610508940895E894BB2766277727CB017D
:100F800097F908950E94260708F48FEF08959B01B2
:100F9000AC0160E070E080E89FE30C9441060E94A1
:100FA000E2070C9488070E947A0738F00E948107B4
:100FB00020F0952311F00C944A070C94500711244B
:100FC0000C94BC070E94990770F3959FC1F3950F8D
:100FD00050E0551F629FF001729FBB27F00DB11DBD
:100FE000639FAA27F00DB11DAA1F649F6627B00D4D
:100FF000A11D661F829F2227B00DA11D621F739F36
:10100000B00DA11D621F839FA00D611D221F749F43
:101010003327A00D611D231F849F600D211D822F8A
:10102000762F6A2F11249F5750409AF0F1F08823B1
:101030004AF0EE0FFF1FBB1F661F771F881F9150DE
:101040005040A9F79E3F510580F00C944A070C943C
:10105000BC075F3FE4F3983ED4F386957795679598
:10106000B795F795E7959F5FC1F7FE2B880F911D08
:101070009695879597F908959B01AC010C94CF073D
:101080008F929F92AF92BF92CF92DF92EF92FF9298
:10109000CF93DF93EC01688179818A819B8161150F
:1010A00071058105910521F464E279ED8BE597E006
:1010B0002DE133EF41E050E00E94FB0C49015A0161
:1010C0009B01AC01A7EAB1E40E941A0D6B017C01FF
:1010D000ACEEB4EFA50194010E94280DDC01CB0118
:1010E0008C0D9D1DAE1DBF1DB7FF03C00197A1094B
:1010F000B04888839983AA83BB839F77DF91CF9180
:10110000FF90EF90DF90CF90BF90AF909F908F9027
:1011100008950E944008089584E091E00E944008EC
:101120000895A0E0B0E08093040190930501A0939E
:101130000601B093070108950F931F93CF93DF9398
:10114000009731F46115710519F480E090E03AC020
:101150008B01EC016EE070E081E090E00E94FF0AFC
:10116000FC01892B91F380E883830115110571F04F
:101170001387028781E883838091020290910302A2
:10118000892B21F4F0930302E09302022097C9F027
:10119000D187C0878381826083838091040290918C
:1011A0000502892B71F4F0930502E093040280910B
:1011B000060290910702892B21F4F0930702E09335
:1011C0000602CF01DF91CF911F910F910895A0E00A
:1011D000B0E0EDEEF8E00C943D0DAE014B5F5F4FDB
:1011E000FA0161917191AF01809104029091050221
:1011F0000E942D09E2E00C94590D0F931F93CF9399
:10120000DF93E0910402F0910502238121FF1BC0CE
:101210008C01D0E0C0E0F80181918F01609104025F
:1012200070910502DB011896ED91FC9119978823C6
:1012300031F00995892B79F3DFEFCFEFECCF8AE01E
:101240000995892B19F08FEF9FEF02C08D2F9C2FEE
:10125000DF91CF911F910F910895ACE0B0E0E3E3EF
:10126000F9E00C942D0D7C016B018A01FC011782C1
:101270001682838181FFBDC1CE0101964C01F70129
:101280009381F60193FD859193FF81916F018823EE
:1012900009F4ABC1853239F493FD859193FF8191B7
:1012A0006F01853229F4B70190E00E94650CE7CF09
:1012B000512C312C20E02032A0F48B3269F030F434
:1012C000803259F0833269F420612CC08D3239F0BC
:1012D000803339F4216026C02260246023C0286056
:1012E00021C027FD27C030ED380F3A3078F426FFB3
:1012F00006C0FAE05F9E300D1124532E13C08AE021
:10130000389E300D1124332E20620CC08E3221F411
:1013100026FD6BC1206406C08C3611F4206802C023
:10132000883641F4F60193FD859193FF81916F0119
:101330008111C1CF982F9F7D9554933028F40C5F75
:101340001F4FFFE3F9830DC0833631F0833771F00F
:10135000833509F05BC022C0F801808189830E5F6C
:101360001F4F44244394512C540115C03801F2E01E
:101370006F0E711CF801A080B18026FF03C0652D9F
:1013800070E002C06FEF7FEFC5012C870E945A0CFE
:101390002C0183012C852F77222E17C03801F2E013
:1013A0006F0E711CF801A080B18026FF03C0652D6F
:1013B00070E002C06FEF7FEFC5012C870E94480CE0
:1013C0002C012C852068222E830123FC1BC0832D39
:1013D00090E048165906B0F4B70180E290E00E9410
:1013E000650C3A94F4CFF50127FC859127FE819195
:1013F0005F01B70190E00E94650C31103A94F1E072
:101400004F1A51084114510471F7E5C0843611F0A8
:10141000893639F5F80127FF07C060817181828123
:1014200093810C5F1F4F08C060817181072E000CF3
:10143000880B990B0E5F1F4F2F76722E97FF09C0F6
:1014400090958095709561957F4F8F4F9F4F206845
:10145000722E2AE030E0A4010E949D0CA82EA8184C
:1014600044C0853729F42F7EB22E2AE030E025C013
:10147000F22FF97FBF2E8F36C1F018F4883579F03E
:10148000B4C0803719F0883721F0AFC02F2F20610A
:10149000B22EB4FE0DC08B2D8460B82E09C024FF7F
:1014A0000AC09F2F9660B92E06C028E030E005C024
:1014B00020E130E002C020E132E0F801B7FE07C0D1
:1014C00060817181828193810C5F1F4F06C06081B2
:1014D000718180E090E00E5F1F4FA4010E949D0C7F
:1014E000A82EA818FB2DFF777F2E76FE0BC0372D78
:1014F0003E7FA51450F474FE0AC072FC08C0372D5C
:101500003E7E05C0BA2C372D03C0BA2C01C0B52CC5
:1015100034FF0DC0FE01EA0DF11D8081803311F40E
:10152000397E09C032FF06C0B394B39404C0832F40
:10153000867809F0B39433FD13C030FF06C05A2CEF
:10154000B31418F4530C5B18B32CB31468F4B7013C
:1015500080E290E03C870E94650CB3943C85F5CF17
:10156000B31410F43B1801C0312C34FF12C0B70182
:1015700080E390E03C870E94650C3C8532FF17C0F9
:1015800031FD03C088E790E002C088E590E0B70134
:101590000CC0832F867859F031FF02C08BE201C066
:1015A00080E237FD8DE2B70190E00E94650CA51442
:1015B00038F4B70180E390E00E94650C5A94F7CFAD
:1015C000AA94F401EA0DF11D8081B70190E00E9418
:1015D000650CA110F5CF332009F451CEB70180E29C
:1015E00090E00E94650C3A94F6CFF70186819781CE
:1015F00002C08FEF9FEF2C96E2E10C94490D0F9300
:101600001F93CF93DF93869F8001879F100D969F36
:10161000100D1124C8010E941B0BEC01009729F04A
:10162000A80160E070E00E94530CCE01DF91CF91E1
:101630001F910F910895CF93DF938230910510F49D
:1016400082E090E0E0910A02F0910B0220E030E0AD
:10165000C0E0D0E0309711F140815181481759071F
:10166000C0F04817590761F482819381209719F0DF
:101670009B838A832BC090930B0280930A0226C01F
:101680002115310519F04217530718F49A01BE01CC
:10169000DF01EF010280F381E02DDCCF2115310560
:1016A00009F1281B390B2430310590F412968D91E5
:1016B0009C9113976115710521F0FB01938382833F
:1016C00004C090930B0280930A02FD01329644C03D
:1016D000FD01E20FF31F81939193225031092D9365
:1016E0003C933AC02091080230910902232B41F427
:1016F00020910A0130910B013093090220930802D6
:1017000020910801309109012115310541F42DB7CF
:101710003EB740910C0150910D01241B350BE09117
:101720000802F0910902E217F307A0F42E1B3F0B09
:101730002817390778F0AC014E5F5F4F2417350743
:1017400048F04E0F5F1F50930902409308028193A7
:10175000919302C0E0E0F0E0CF01DF91CF910895D6
:101760000F931F93CF93DF93009709F48CC0FC0174
:1017700032971382128200910A0210910B02011516
:10178000110581F420813181820F931F209108027D
:10179000309109022817390779F5F0930902E0938F
:1017A000080271C0D80140E050E0AE17BF0750F406
:1017B00012962D913C911397AD012115310509F138
:1017C000D901F3CF9D01DA013383228360817181D6
:1017D000860F971F8217930769F4EC0128813981DE
:1017E000260F371F2E5F3F4F318320838A819B81D5
:1017F00093838283452B29F4F0930B02E0930A0232
:1018000042C01396FC93EE931297ED0149915991C2
:101810009E01240F351FE217F30771F48081918137
:10182000840F951F029611969C938E9382819381CB
:1018300013969C938E931297E0E0F0E0D8011296F5
:101840008D919C911397009719F0F8018C01F6CFB8
:101850008D919C9198012E5F3F4F820F931F209195
:101860000802309109022817390769F4309729F4E2
:1018700010920B0210920A0202C01382128210937D
:10188000090200930802DF91CF911F910F910895F3
:10189000FC010590615070400110D8F7809590953B
:1018A0008E0F9F1F0895DC0101C06D934150504081
:1018B000E0F70895FC016150704001900110D8F7E5
:1018C000809590958E0F9F1F08950F931F93CF9330
:1018D000DF93FB01238121FD03C08FEF9FEF28C021
:1018E00022FF16C046815781248135814217530754
:1018F00044F4A081B1819D012F5F3F4F318320834C
:101900008C93268137812F5F3F4F3783268310C00A
:10191000EB01092F182F0084F185E02D0995892B03
:10192000E1F68E819F8101969F838E83812F902F78
:10193000DF91CF911F910F910895FA01AA272830C6
:1019400051F1203181F1E8946F936E7F6E5F7F4F8C
:101950008F4F9F4FAF4FB1E03ED0B4E03CD0670F08
:10196000781F891F9A1FA11D680F791F8A1F911D5B
:10197000A11D6A0F711D811D911DA11D20D009F4AB
:1019800068943F912AE0269F11243019305D3193ED
:10199000DEF6CF010895462F4770405D4193B3E0D6
:1019A0000FD0C9F7F6CF462F4F70405D4A3318F07D
:1019B000495D31FD4052419302D0A9F7EACFB4E02E
:1019C000A6959795879577956795BA95C9F70097E6
:1019D0006105710508959B01AC010A2E0694579587
:1019E000479537952795BA95C9F7620F731F841FDE
:1019F000951FA01D0895052E97FB1EF400940E94CC
:101A0000120D57FD07D00E94640D07FC03D04EF461
:101A10000C94120D50954095309521953F4F4F4FA6
:101A20005F4F089590958095709561957F4F8F4F8A
:101A30009F4F08950E94860DA59F900DB49F900D15
:101A4000A49F800D911D11240895B7FF0C941A0DC9
:101A50000E941A0D821B930B08952F923F924F9272
:101A60005F926F927F928F929F92AF92BF92CF922E
:101A7000DF92EF92FF920F931F93CF93DF93CDB737
:101A8000DEB7CA1BDB0B0FB6F894DEBF0FBECDBFAF
:101A900009942A88398848885F846E847D848C8480
:101AA0009B84AA84B984C884DF80EE80FD800C8189
:101AB0001B81AA81B981CE0FD11D0FB6F894DEBF6C
:101AC0000FBECDBFED010895A1E21A2EAA1BBB1BCC
:101AD000FD010DC0AA1FBB1FEE1FFF1FA217B307FA
:101AE000E407F50720F0A21BB30BE40BF50B661F10
:101AF000771F881F991F1A9469F7609570958095D4
:101B000090959B01AC01BD01CF010895A29FB0014A
:101B1000B39FC001A39F700D811D1124911DB29F21
:0E1B2000700D811D1124911D0895F894FFCFC2
:101B2E00001200100100000000000C0220004865A9
:101B3E006C6C6F20776F726C6421005374617274D9
:101B4E00696E67205352414D20746573742E2E2E8C
:101B5E0000577269746520706861736520657272D2
:101B6E006F723A206578745F72616D5B2534645DC7
:101B7E00203D2025303258202873686F756C642004
:101B8E0062652025303258290A00526574726965E3
:101B9E0076616C207068617365206572726F723A3F
:101BAE00206578745F72616D5B2534645D203D2025
:101BBE0025303258202873686F756C64206265205A
:101BCE0025303258290A005352414D2074657374E2
:101BDE0020636F6D706C657465642077697468201E
:101BEE000A253464206572726F727320696E2077D5
:101BFE007269746520706861736520616E64200A75
:101C0E00253464206572726F727320696E2072655E
:101C1E007472696576616C2070686173650A0A007A
:00000001FF
