:100000000C94D5000C94F6000C94F6000C940A01A4
:100010000C94F6000C94F6000C94F6000C94F60088
:100020000C94F6000C94F6000C94F6000C94F60078
:100030000C94F6000C94F6000C94F6000C94F60068
:100040000C94F6000C94F6000C94F6000C94F60058
:100050000C94F6000C94F6000C94F6000C94F60048
:100060000C94F6000C94F6000C94F6000C94F60038
:100070000C94F6000C94F6000C94F6000C94F60028
:100080000C94F6000C94F6000C94F6000C94F60018
:100090000C94F6000C94F6000C94F6000C944206B6
:1000A0000C94F6000C94F6000C94F6000C94F600F8
:1000B0000C94F6000C94F6000C94F6000C94F600E8
:1000C0000C94F6000C94F6000C94F6000C94F600D8
:1000D0000C94F6000C94F6000C94F6000C94F600C8
:1000E0000C94F6006106B306B306B306B306B30676
:1000F000B306B3066106B306B306B306B306B3068A
:10010000B306B3066306B306B306B306B306B30677
:10011000B306B306B306B306B306B306B306B30617
:10012000B306B3066306B306B306B306B306B30657
:10013000B306B306B306B306B306B306B306B306F7
:10014000B306B306AF06B306B306B306B306B306EB
:10015000B306B3068C06B306B306B306B306B306FE
:10016000B306B306B306B306B306B306B306B306C7
:10017000B306B3068006B306B306B306B306B306EA
:10018000B306B3069E060C949E060C948C060C9443
:1001900080060C94AF060C94B3060C9461060C9484
:1001A00063060C9452010C944A0111241FBECFEF38
:1001B000D1E2DEBFCDBF00E00CBF12E0A0E0B2E0B4
:1001C000E0E6FBE100E00BBF02C007900D92A03714
:1001D000B107D9F722E0A0E7B2E001C01D92A23931
:1001E000B207E1F70E94F8000C94AE0D0C940000E9
:1001F000F89487E690E00E946A0180E00E942B025A
:100200000E940C040E94B8040E94540578940E9435
:100210002C05FDCF1F920F920FB60F9211240BB633
:100220000F922F933F934F935F936F937F938F938F
:100230009F93AF93BF93EF93FF93F89460917D02E8
:1002400070917E0280E090E00E940803E0917D02C0
:10025000F0917E026FE772E083810E941304E091C7
:100260007D02F0917E0284810E94AA057894FF911C
:10027000EF91BF91AF919F918F917F916F915F911E
:100280004F913F912F910F900BBE0F900FBE0F908B
:100290001F901895E0ECF0E0908195FFFDCF8093E2
:1002A000C6000895E0ECF0E080818823ECF78091AF
:1002B000C6000895E4E6F0E020812D7F208390932E
:1002C000C5008093C40088E18093C1008EE08093D4
:1002D000C20008950E945A0162E571E08AE491E04B
:1002E0000E945809089584B1876884B98CB58165E6
:1002F0008CBD08958EBD0DB407FEFDCF089580E03E
:100300000E947A018EB50895882319F0813019F082
:1003100008952F9808952F9A0895CF93C82F80E0BD
:100320000E94840183E00E947A018C2F0E947A014E
:100330000E947F01C82F81E00E9484018C2FCF9101
:100340000895CF93DF93C82FD62F80E00E948401B9
:1003500082E00E947A018D2F0E947A018C2F0E94E8
:100360007A0181E00E948401DF91CF910895CF93BB
:10037000C82F80E00E948401C13051F028F0C230C3
:1003800059F0C33069F00FC081E80E947A010BC0B8
:1003900082E80E947A0107C084E80E947A0103C0C3
:1003A00087E80E947A0181E00E948401CF9108953C
:1003B000CF9380E00E94840180EA0E947A010E942B
:1003C0007F01C82F81E00E9484018C2FCF91089576
:1003D0001F93CF93DF93182FD62FC42F80E00E9456
:1003E000840185E00E947A01812F0E947A018D2F7D
:1003F0000E947A018C2F0E947A0181E00E94840180
:10040000DF91CF911F91089580E00E94840180ECDC
:100410000E947A0181E00E94840183EC99E00197B7
:10042000F1F700C0000008950E9473010E940402C9
:100430008EE00E948D01807E803861F01F928F9344
:1004400089E092E09F938F930E94A3090F900F90F1
:100450000F900F900895CF93C82F0E9414026FE061
:100460008C2F0E94A1018FE00E948D0143E063E088
:100470008BE20E94E80140E063E08CE20E94E80128
:10048000E9E6F0E0808182608083EA9AE29ACF9187
:100490000895EF92FF920F931F93CF93DF93CDB701
:1004A000DEB72B970FB6F894DEBF0FBECDBF7C0131
:1004B00050E0022F10E00115110571F0A62FB72FA3
:1004C000FE013496BE01600F711F6C5F7F4F9D91DE
:1004D0009193E617F707D9F75A8349832B838BE06B
:1004E000FE013196D70101900D928A95E1F7C7017F
:1004F0002B960FB6F894DEBF0FBECDBFDF91CF9124
:100500001F910F91FF90EF900895EF92FF920F933C
:100510001F93CF93DF938C018091700290917102B1
:100520000196833091052CF49093710280937002B0
:1005300004C01092710210927002F8012081318182
:100540007901F7E0EF22FF24C0E7D2E068816295ED
:10055000607F6F5CC901969587959695879596956E
:1005600087950E94A10168816295607F6E5C8E2DE7
:100570008295880F807E0E94A10168816295607FCC
:100580006B5CF80182810E94A101F80182818823BD
:10059000D1F0C0E00F2EF0E7EF2EF2E0FF2EF02DAD
:1005A000F70180816C2FF0E18F9F600D11246A5C50
:1005B000F801EC0FF11D83810E94A101CF5FF801CA
:1005C0008281C81768F38091700290917102813026
:1005D000910551F08230910561F0892B71F460E34F
:1005E00088E00E94A10109C060E488E00E94A101A6
:1005F00004C060E588E00E94A101809170020E9421
:10060000B701DF91CF911F910F91FF90EF90089567
:10061000EF92FF920F931F93CF93DF937C018B0197
:10062000D82FD295D07F81E68D0F0E948D01C82FE3
:1006300082E68D0F0E948D01807E282F30E0369556
:100640002795329522952F7023273F702327C901C4
:1006500048E0C49F800D911D1124F801918380838F
:1006600085E68D0F0E948D018F70F80182838823AB
:1006700079F0C0E0DA598D2F8C0F0E948D01F801BE
:10068000EC0FF11D8383CF5FF8019281C91798F3B6
:10069000E114F10421F0EA94EF2831F009C061E09F
:1006A00080E00E94A10104C062E080E00E94A101FC
:1006B000F801C081D181CE01969587959695879551
:1006C0009695879561E30E94A10162E38C2F829544
:1006D000880F807E0E94A10165E3F80182810E945B
:1006E000A101F8018281882371F0C0E066E36C0FFC
:1006F000F801EC0FF11D83810E94A101CF5FF80189
:100700008281C81798F340E063E08CE20E94E80120
:10071000DF91CF911F910F91FF90EF900895A1E885
:10072000B0E09C9198619C93E0E8F0E09081926049
:10073000908390819E7F90839C9194609C939C91E8
:100740009D7F9C939C919E7F9C93259A908190681D
:10075000908390819F7B9083282F30E0322F222737
:10076000032E000C440B550B60E074E284EF90E024
:100770000E94DD06215031093093870020938600C6
:100780008CE590E090938900809388000895CF9342
:10079000682F70E064567109072E000C880B990BC6
:1007A0000E943B0820E030E04AE752E40E94EB0858
:1007B00020E030E048EC52E40E94980720E030E06E
:1007C00046E752E40E9427070E940A08C62F70E0FD
:1007D00080E090E00E943B0820E030E046E752E4F1
:1007E0000E94930788233CF48DE390E09093890066
:1007F000809388000FC0CD3738F08CE790E090935D
:1008000089008093880006C06C2F70E07093890087
:1008100060938800CF91089582E30E948F0308952A
:100820000E94C7030895CF938031ECF1082E000C8D
:10083000990BAC01461B510967FD53959A0155234D
:1008400024F422273327241B350B2A3131050CF4DD
:1008500066C0BC0165507109072E000C880B990B0E
:100860000E943B0829E93BEB46E05FE30E94EB086E
:100870009B01AC0160E070E086E193E40E942607F2
:100880000E940A08C62F1F926F9381E592E09F9302
:100890008F930E94A3098C2F0E94C7030F900F9083
:1008A0000F900F903CC0813FD4F5082E000C990B9F
:1008B000AC01461B510967FD53959A01552324F459
:1008C00022273327241B350B2A31310544F16BEFE6
:1008D0007FEF681B790B072E000C880B990B0E9489
:1008E0003B0829E93BEB46E05FE30E94EB0820E090
:1008F00030E046E153E40E9427070E940A08C62F11
:100900001F926F9381E592E09F938F930E94A309BA
:100910008C2F0E94C7030F900F900F900F90CF91D4
:100920000895EAE7F0E0808180648083808184FF1D
:10093000FDCF20917800809179002295269526950B
:100940002370880F880F90E0820F911D0895809882
:10095000EAE7F0E0808187688083ECE7F0E080815F
:10096000806C80838081806280830E9491040895DE
:10097000CF930E94A70490910102992341F0E0E8EF
:10098000F2E080E0119211928F5F8917D8F3C09145
:1009900075020E949104EC2FF0E0EE0FFF1FE0586B
:1009A000FD4F91838083E0917502F0E0EE0FFF1F11
:1009B000E058FD4F8081918190937402809373027F
:1009C000CF910895CF938091730290917402E0913A
:1009D0007502F0E0EE0FFF1FE058FD4F20813181DE
:1009E000821B930B9093740280937302C0917502E3
:1009F0000E949104EC2FF0E0EE0FFF1FE058FD4F36
:100A000091838083E091750220917302309174028A
:100A1000F0E0EE0FFF1FE058FD4F80819181820FC3
:100A2000931F9093740280937302809175028F5F7D
:100A3000809375028091750260910102861710F013
:100A400010927502809173029091740270E00E947E
:100A5000C906CB01CF9108950E94E2048536910525
:100A600060F480910002811108C0809172028F5F52
:100A70008093720281E0809300020E94E2048E3F24
:100A8000910530F080910002813011F41092000243
:100A90008091720290E008950E942C0521E0449715
:100AA00008F420E0822F08950E94C005E1E0F1E003
:100AB00080818A67808310920701E2E0F1E0808103
:100AC0008061808380818F7B808386E08A95F1F7C7
:100AD00000C08081806480830895CF93DF93E2E03B
:100AE000F1E080818F7D80838081877F808384E6B1
:100AF0008A95F1F7A6E0B1E09C91808188608083BF
:100B000084E68A95F1F7CC91808180628083D0E081
:100B1000D92BDF93CF9382E692E09F938F930E942D
:100B2000A3090F900F900F900F90CE01DF91CF91FE
:100B300008950E94C3050895882331F0E2E0F1E0B2
:100B40008081826080830895E2E0F1E080818D7F82
:100B500080830895CF93C82F813F44F480E00E94A2
:100B60009C058C2F81950E94C30508C0803134F00C
:100B700081E00E949C058C2F0E94C305CF910895AF
:100B80000E94D7050895CF93DF9300D0CDB7DEB78D
:100B900090E599831A828B8363E0CE0101960E94CF
:100BA000ED050F900F900F90DF91CF9108958CE09D
:100BB0008093B8008FEF8093BB0084E08093BC00EB
:100BC00008958091BC0081700895ECEBF0E0808185
:100BD00080FDFDCF809102020895CF93DF93EC0159
:100BE000ECEBF0E0908190FDFDCF6093780298816E
:100BF0009093790290FD13C0623088F0FE01319627
:100C0000AAE7B2E06250262F30E02E5F3F4FCE01C0
:100C1000820F931F21912D93E817F907D9F71092AE
:100C2000760288EF8093020285EA8093BC00DF9110
:100C3000CF910895ECEBF0E0808180FDFDCF109224
:100C4000760288EF8093020285EA8093BC000895C3
:100C5000ECEBF0E0208120FDFDCF2091760220FF1B
:100C60000DC0662359F029E732E0A82FB92FF9010A
:100C700081918D938E2F821B8617D0F380917602FF
:100C8000817008951F920F920FB60F9211240BB628
:100C90000F922F933F938F939F93AF93BF93EF93B5
:100CA000FF93E091B9008E2F90E0FC013897E13579
:100CB000F10508F058C08827EE58FF4F8F4F0C946D
:100CC000FC0610927702E091770280917802E81793
:100CD00070F481E08E0F80937702F0E0E758FD4FCB
:100CE00080818093BB0085E88093BC0043C08091E5
:100CF000760281608093760284E98093BC003AC0DA
:100D0000E091770281E08E0F809377028091BB00A3
:100D1000F0E0E758FD4F80832091770230E080912A
:100D2000780290E001972817390724F485EC809326
:100D3000BC0020C085E88093BC001CC08091BB0033
:100D4000E0917702F0E0E758FD4F808380917602D2
:100D500081608093760284E98093BC000BC085EAB1
:100D60008093BC0007C08091B9008093020284E0A8
:100D70008093BC00FF91EF91BF91AF919F918F91B4
:100D80003F912F910F900BBE0F900FBE0F901F90B1
:100D90001895AA1BBB1B51E107C0AA1FBB1FA617B2
:100DA000B70710F0A61BB70B881F991F5A95A9F714
:100DB00080959095BC01CD010895052E97FB1EF4FA
:100DC00000940E94F40657FD07D00E94040707FC18
:100DD00003D04EF40C94F40650954095309521952F
:100DE0003F4F4F4F5F4F0895909580957095619557
:100DF0007F4F8F4F9F4F0895EE0FFF1F881F8BBFB0
:100E00000790F691E02D1994A1E21A2EAA1BBB1BA4
:100E1000FD010DC0AA1FBB1FEE1FFF1FA217B307C6
:100E2000E407F50720F0A21BB30BE40BF50B661FDC
:100E3000771F881F991F1A9469F7609570958095A0
:100E400090959B01AC01BD01CF0108955058BB277F
:100E5000AA270E943E070C94B1080E94A30838F00C
:100E60000E94AA0820F039F49F3F19F426F40C944C
:100E7000A0080EF4E095E7FB0C949A08E92F0E9475
:100E8000C20858F3BA17620773078407950720F062
:100E900079F4A6F50C94E4080EF4E0950B2EBA2F25
:100EA000A02D0B01B90190010C01CA01A001112470
:100EB000FF27591B99F0593F50F4503E68F11A161C
:100EC000F040A22F232F342F4427585FF3CF4695AD
:100ED00037952795A795F0405395C9F77EF41F16CF
:100EE000BA0B620B730B840BBAF09150A1F0FF0F99
:100EF000BB1F661F771F881FC2F70EC0BA0F621F85
:100F0000731F841F48F4879577956795B795F79574
:100F10009E3F08F0B0CF9395880F08F09927EE0F09
:100F20009795879508950E94760808F481E00895C2
:100F30000E94AC070C94B1080E94AA0858F00E94C5
:100F4000A30840F029F45F3F29F00C949A0851114E
:100F50000C94E5080C94A0080E94C20868F3992339
:100F6000B1F3552391F3951B550BBB27AA276217A5
:100F70007307840738F09F5F5F4F220F331F441FB2
:100F8000AA1FA9F335D00E2E3AF0E0E832D09150E6
:100F90005040E695001CCAF72BD0FE2F29D0660FD3
:100FA000771F881FBB1F261737074807AB07B0E816
:100FB00009F0BB0B802DBF01FF2793585F4F3AF01C
:100FC0009E3F510578F00C949A080C94E5085F3F19
:100FD000E4F3983ED4F3869577956795B795F795A2
:100FE0009F5FC9F7880F911D9695879597F908958A
:100FF000E1E0660F771F881FBB1F62177307840726
:10100000BA0720F0621B730B840BBA0BEE1F88F734
:10101000E09508950E94CA0888F09F5798F0B92F6C
:101020009927B751B0F0E1F0660F771F881F991F1D
:101030001AF0BA95C9F714C0B13091F00E94E408D3
:10104000B1E008950C94E408672F782F8827B85FE3
:1010500039F0B93FCCF3869577956795B395D9F775
:101060003EF490958095709561957F4F8F4F9F4F7F
:101070000895E89409C097FB3EF49095809570958B
:1010800061957F4F8F4F9F4F9923A9F0F92F96E9D4
:10109000BB279395F695879577956795B795F11149
:1010A000F8CFFAF4BB0F11F460FF1BC06F5F7F4FE6
:1010B0008F4F9F4F16C0882311F096E911C07723F8
:1010C00021F09EE8872F762F05C0662371F096E801
:1010D000862F70E060E02AF09A95660F771F881FD0
:1010E000DAF7880F9695879597F90895990F000874
:1010F000550FAA0BE0E8FEEF16161706E807F907EA
:10110000C0F012161306E407F50798F0621B730B84
:10111000840B950B39F40A2661F0232B242B252B05
:1011200021F408950A2609F4A140A6958FEF811DA8
:10113000811D089597F99F6780E870E060E0089549
:101140009FEF80EC089500240A94161617061806DF
:101150000906089500240A941216130614060506BB
:101160000895092E0394000C11F4882352F0BB0F4C
:1011700040F4BF2B11F460FF04C06F5F7F4F8F4FAF
:101180009F4F089557FD9058440F551F59F05F3FEA
:1011900071F04795880F97FB991F61F09F3F79F099
:1011A00087950895121613061406551FF2CF46951B
:1011B000F1DF08C0161617061806991FF1CF86959D
:1011C0007105610508940895E894BB276627772781
:1011D000CB0197F908950E94FE080C94B1080E9473
:1011E000A30838F00E94AA0820F0952311F00C946F
:1011F0009A080C94A00811240C94E5080E94C208D7
:1012000070F3959FC1F3950F50E0551F629FF00159
:10121000729FBB27F00DB11D639FAA27F00DB11D72
:10122000AA1F649F6627B00DA11D661F829F2227FB
:10123000B00DA11D621F739FB00DA11D621F839F82
:10124000A00D611D221F749F3327A00D611D231F58
:10125000849F600D211D822F762F6A2F11249F57A6
:1012600050409AF0F1F088234AF0EE0FFF1FBB1FA9
:10127000661F771F881F91505040A9F79E3F510568
:1012800080F00C949A080C94E5085F3FE4F3983ED4
:10129000D4F3869577956795B795F795E7959F5F12
:1012A000C1F7FE2B880F911D9695879597F90895A4
:1012B0000F931F93CF93DF93009731F4611571055E
:1012C00019F480E090E03AC08B01EC016EE070E030
:1012D00081E090E00E94B20BFC01892B91F380E841
:1012E00083830115110571F01387028781E88383D9
:1012F0008091880290918902892B21F4F0938902D0
:10130000E09388022097C9F0D187C08783818260EB
:10131000838380918A0290918B02892B71F4F093E0
:101320008B02E0938A0280918C0290918D02892B2E
:1013300021F4F0938D02E0938C02CF01DF91CF91E5
:101340001F910F910895CF93DF93CDB7DEB7AE0114
:101350004A5F5F4FFA0161917191AF0180918A02FA
:1013600090918B020E94B709DF91CF9108952F923F
:101370003F924F925F926F927F928F929F92AF9225
:10138000BF92CF92DF92EF92FF920F931F93CF9372
:10139000DF93CDB7DEB72C970FB6F894DEBF0FBE44
:1013A000CDBF7C016B018A01FC011782168283810B
:1013B00081FFBDC1CE0101964C01F7019381F60179
:1013C00093FD859193FF81916F01882309F4ABC14F
:1013D000853239F493FD859193FF81916F018532B8
:1013E00029F4B70190E00E94180DE7CF512C312C61
:1013F00020E02032A0F48B3269F030F4803259F0D2
:10140000833269F420612CC08D3239F0803339F495
:10141000216026C02260246023C0286021C027FDEF
:1014200027C030ED380F3A3078F426FF06C0FAE0D6
:101430005F9E300D1124532E13C08AE0389E300D6C
:101440001124332E20620CC08E3221F426FD6BC194
:10145000206406C08C3611F4206802C0883641F43E
:10146000F60193FD859193FF81916F018111C1CFA9
:10147000982F9F7D9554933028F40C5F1F4FFFE306
:10148000F9830DC0833631F0833771F0833509F06D
:101490005BC022C0F801808189830E5F1F4F442406
:1014A0004394512C540115C03801F2E06F0E711CA9
:1014B000F801A080B18026FF03C0652D70E002C056
:1014C0006FEF7FEFC5012C870E940D0D2C0183016A
:1014D0002C852F77222E17C03801F2E06F0E711C79
:1014E000F801A080B18026FF03C0652D70E002C026
:1014F0006FEF7FEFC5012C870E94FB0C2C012C8520
:101500002068222E830123FC1BC0832D90E0481607
:101510005906B0F4B70180E290E00E94180D3A94A9
:10152000F4CFF50127FC859127FE81915F01B7017A
:1015300090E00E94180D31103A94F1E04F1A5108D2
:101540004114510471F7E5C0843611F0893639F53C
:10155000F80127FF07C060817181828193810C5F50
:101560001F4F08C060817181072E000C880B990BFA
:101570000E5F1F4F2F76722E97FF09C090958095B2
:10158000709561957F4F8F4F9F4F2068722E2AE094
:1015900030E0A4010E94500DA82EA81844C0853741
:1015A00029F42F7EB22E2AE030E025C0F22FF97FF9
:1015B000BF2E8F36C1F018F4883579F0B4C080376B
:1015C00019F0883721F0AFC02F2F2061B22EB4FE62
:1015D0000DC08B2D8460B82E09C024FF0AC09F2F38
:1015E0009660B92E06C028E030E005C020E130E06A
:1015F00002C020E132E0F801B7FE07C060817181CE
:10160000828193810C5F1F4F06C06081718180E0F1
:1016100090E00E5F1F4FA4010E94500DA82EA81845
:10162000FB2DFF777F2E76FE0BC0372D3E7FA51456
:1016300050F474FE0AC072FC08C0372D3E7E05C00F
:10164000BA2C372D03C0BA2C01C0B52C34FF0DC005
:10165000FE01EA0DF11D8081803311F4397E09C04D
:1016600032FF06C0B394B39404C0832F867809F088
:10167000B39433FD13C030FF06C05A2CB31418F4D2
:10168000530C5B18B32CB31468F4B70180E290E0FC
:101690003C870E94180DB3943C85F5CFB31410F429
:1016A0003B1801C0312C34FF12C0B70180E390E039
:1016B0003C870E94180D3C8532FF17C031FD03C0E6
:1016C00088E790E002C088E590E0B7010CC0832F66
:1016D000867859F031FF02C08BE201C080E237FD0D
:1016E0008DE2B70190E00E94180DA51438F4B701FF
:1016F00080E390E00E94180D5A94F7CFAA94F40169
:10170000EA0DF11D8081B70190E00E94180DA11033
:10171000F5CF332009F451CEB70180E290E00E946A
:10172000180D3A94F6CFF7018681978102C08FEFAA
:101730009FEF2C960FB6F894DEBF0FBECDBFDF91A2
:10174000CF911F910F91FF90EF90DF90CF90BF90BE
:10175000AF909F908F907F906F905F904F903F9051
:101760002F9008950F931F93CF93DF93869F80014F
:10177000879F100D969F100D1124C8010E94CE0B5B
:10178000EC01009729F0A80160E070E00E94060DCE
:10179000CE01DF91CF911F910F910895CF93DF93E9
:1017A0008230910510F482E090E0E0919002F09197
:1017B000910220E030E0C0E0D0E0309711F14081AC
:1017C000518148175907C0F04817590761F48281C1
:1017D0009381209719F09B838A832BC09093910269
:1017E0008093900226C02115310519F04217530746
:1017F00018F49A01BE01DF01EF010280F381E02DB0
:10180000DCCF2115310509F1281B390B24303105B6
:1018100090F412968D919C9113976115710521F0AA
:10182000FB019383828304C0909391028093900282
:10183000FD01329644C0FD01E20FF31F81939193A5
:10184000225031092D933C933AC020918E02309161
:101850008F02232B41F42091050230910602309330
:101860008F0220938E0220910302309104022115F1
:10187000310541F42DB73EB740910702509108025F
:10188000241B350BE0918E02F0918F02E217F307D3
:10189000A0F42E1B3F0B2817390778F0AC014E5FE0
:1018A0005F4F2417350748F04E0F5F1F50938F028C
:1018B00040938E028193919302C0E0E0F0E0CF016B
:1018C000DF91CF9108950F931F93CF93DF930097EC
:1018D00009F48CC0FC0132971382128200919002AD
:1018E000109191020115110581F420813181820F3F
:1018F000931F20918E0230918F022817390779F5B6
:10190000F0938F02E0938E0271C0D80140E050E066
:10191000AE17BF0750F412962D913C911397AD016D
:101920002115310509F1D901F3CF9D01DA01338386
:10193000228360817181860F971F8217930769F454
:10194000EC0128813981260F371F2E5F3F4F3183ED
:1019500020838A819B8193838283452B29F4F09392
:101960009102E093900242C01396FC93EE9312977B
:10197000ED01499159919E01240F351FE217F3079C
:1019800071F480819181840F951F029611969C932A
:101990008E938281938113969C938E931297E0E0AD
:1019A000F0E0D80112968D919C911397009719F051
:1019B000F8018C01F6CF8D919C9198012E5F3F4FDD
:1019C000820F931F20918E0230918F0228173907C2
:1019D00069F4309729F4109291021092900202C09B
:1019E0001382128210938F0200938E02DF91CF91A7
:1019F0001F910F910895FC010590615070400110F6
:101A0000D8F7809590958E0F9F1F0895DC0101C037
:101A10006D9341505040E0F70895FC0161507040D3
:101A200001900110D8F7809590958E0F9F1F089513
:101A30000F931F93CF93DF93FB01238121FD03C0FD
:101A40008FEF9FEF28C022FF16C046815781248167
:101A500035814217530744F4A081B1819D012F5F66
:101A60003F4F318320838C93268137812F5F3F4FF7
:101A70003783268310C0EB01092F182F0084F185CE
:101A8000E02D1995892BE1F68E819F8101969F8328
:101A90008E83812F902FDF91CF911F910F91089509
:101AA000FA01AA27283051F1203181F1E8946F938F
:101AB0006E7F6E5F7F4F8F4F9F4FAF4FB1E03ED035
:101AC000B4E03CD0670F781F891F9A1FA11D680FD3
:101AD000791F8A1F911DA11D6A0F711D811D911D06
:101AE000A11D20D009F468943F912AE0269F11247B
:101AF0003019305D3193DEF6CF010895462F4770DF
:101B0000405D4193B3E00FD0C9F7F6CF462F4F7039
:101B1000405D4A3318F0495D31FD4052419302D097
:101B2000A9F7EACFB4E0A69597958795779567953D
:101B3000BA95C9F700976105710508959B01AC013D
:101B40000A2E06945795479537952795BA95C9F764
:101B5000620F731F841F951FA01D0895F894FFCF77
:101B60000104F80000920220004D43503235313517
:101B7000206973204E4F5420696E20436F6E666952
:101B80006775726174696F6E206D6F646520616640
:101B90007465722072657365742120436F6E666987
:101BA000672062697473206172653A2025780A0D96
:101BB00000447574795F6379636C653A2025640A23
:101BC0000D00456E636F6465723A2025640A0D004E
:00000001FF
