:100000000C9476000C9497000C9497000C94970035
:100010000C9497000C9497000C9497000C94970004
:100020000C9497000C9497000C9497000C949700F4
:100030000C9497000C9497000C9497000C949700E4
:100040000C9497000C9497000C9497000C949700D4
:100050000C9497000C9497000C9497000C949700C4
:100060000C9497000C9497000C9497000C949700B4
:100070000C9497000C9497000C9497000C949700A4
:100080000C9497000C9497000C9497000C94970094
:100090000C9497000C9497000C9497000C94970084
:1000A0000C9497000C9497000C9497000C94970074
:1000B0000C9497000C9497000C9497000C94970064
:1000C0000C9497000C9497000C9497000C94970054
:1000D0000C9497000C9497000C9497000C94970044
:1000E0000C9497000C94C9000C94C10011241FBEFD
:1000F000CFEFD1E2DEBFCDBF00E00CBF12E0A0E049
:10010000B2E0E8EAFEE000E00BBF02C007900D920B
:10011000A237B107D9F722E0A2E7B2E001C01D92F1
:10012000AE37B207E1F70E9499000C9452070C9485
:100130000000CF93DF93CDB7DEB72B970FB6F894BF
:10014000DEBF0FBECDBF87E690E00E94E10080E0F9
:100150000E94A20126E042E066E072E0CE01019634
:100160000E94BB01CE0101960E94F70180E090E061
:100170002B960FB6F894DEBF0FBECDBFDF91CF91A7
:100180000895E0ECF0E0908195FFFDCF8093C600EC
:100190000895E0ECF0E080818823ECF78091C600C0
:1001A0000895E4E6F0E020812D7F20839093C50040
:1001B0008093C40088E18093C1008EE08093C200E8
:1001C00008950E94D10069EC70E081EC90E00E94FB
:1001D000FC02089584B1876884B98CB581658CBDB3
:1001E00008958EBD0DB407FEFDCF089580E00E94F6
:1001F000F1008EB50895882319F0813019F0089523
:100200002F9808952F9A0895CF93C82F80E00E94C9
:10021000FB0083E00E94F1008C2F0E94F1000E94FD
:10022000F600C82F81E00E94FB008C2FCF9108952B
:10023000CF93DF93C82FD62F80E00E94FB0082E08F
:100240000E94F1008D2F0E94F1008C2F0E94F1007E
:1002500081E00E94FB00DF91CF910895CF93C82FDA
:1002600080E00E94FB00C13051F028F0C23059F00C
:10027000C33069F00FC081E80E94F1000BC082E832
:100280000E94F10007C084E80E94F10003C087E8E3
:100290000E94F10081E00E94FB00CF910895CF936E
:1002A00080E00E94FB0080EA0E94F1000E94F600BC
:1002B000C82F81E00E94FB008C2FCF9108951F93DF
:1002C000CF93DF93182FD62FC42F80E00E94FB001E
:1002D00085E00E94F100812F0E94F1008D2F0E9485
:1002E000F1008C2F0E94F10081E00E94FB00DF9161
:1002F000CF911F91089580E00E94FB0080EC0E9446
:10030000F10081E00E94FB0083EC99E00197F1F796
:1003100000C0000008950E94EA000E947B018EE068
:100320000E940401807E803861F01F928F938DE0DF
:1003300092E09F938F930E9447030F900F900F902E
:100340000F900895CF93C82F0E948B016FE08C2FE0
:100350000E9418018FE00E9404011F928F9385E58F
:1003600092E09F938F930E9447030F900F900F90FE
:100370000F90CF910895EF92FF920F931F93CF9319
:10038000DF93CDB7DEB72B970FB6F894DEBF0FBE65
:10039000CDBF7C0150E0022F10E00115110571F076
:1003A000A62FB72FFE013496BE01600F711F6C5F40
:1003B0007F4F9D919193E617F707D9F75A834983A9
:1003C0002B838BE0FE013196D70101900D928A9527
:1003D000E1F7C7012B960FB6F894DEBF0FBECDBF75
:1003E000DF91CF911F910F91FF90EF900895EF92C1
:1003F000FF920F931F93CF93DF938C018091720232
:10040000909173020196833091052CF490937302BE
:100410008093720204C01092730210927202F8016B
:10042000208131817901F7E0EF22FF24C2E7D2E099
:1004300068816295607F6F5CC901969587959695F6
:100440008795969587950E94180168816295607FCF
:100450006E5C8E2D8295880F807E0E9418016881C7
:100460006295607F6B5CF80182810E941801F8013F
:1004700082818823D1F0C0E00F2EF2E7EF2EF2E068
:10048000FF2EF02DF70180816C2FF0E18F9F600D22
:1004900011246A5CF801EC0FF11D83810E941801A0
:1004A000CF5FF8018281C81768F380917202909142
:1004B00073028130910551F08230910561F0892BF2
:1004C00071F460E388E00E94180109C060E488E0EC
:1004D0000E94180104C060E588E00E941801809124
:1004E00072020E942E01DF91CF911F910F91FF9018
:1004F000EF900895EF92FF920F931F93CF93DF93A6
:100500007C018B01D82FD295D07F81E68D0F0E9480
:100510000401C82F82E68D0F0E940401807E282FDF
:1005200030E036952795329522952F7023273F701E
:100530002327C90148E0C49F800D911D1124F801B3
:100540009183808385E68D0F0E9404018F70F801EE
:100550008283882379F0C0E0DA598D2F8C0F0E94B6
:100560000401F801EC0FF11D8383CF5FF801928144
:10057000C91798F3E114F10421F0EA94EF2831F05F
:1005800009C061E080E00E94180104C062E080E0E0
:100590000E941801F801C081D181CE0196958795FE
:1005A000969587959695879561E30E94180162E379
:1005B0008C2F8295880F807E0E94180165E3F801D8
:1005C00082810E941801F8018281882371F0C0E0C5
:1005D00066E36C0FF801EC0FF11D83810E94180196
:1005E000CF5FF8018281C81798F3DF91CF911F91F7
:1005F0000F91FF90EF9008950F931F93CF93DF9388
:10060000009731F46115710519F480E090E03AC06B
:100610008B01EC016EE070E081E090E00E945605F5
:10062000FC01892B91F380E883830115110571F09A
:100630001387028781E88383809174029091750209
:10064000892B21F4F0937502E09374022097C9F08E
:10065000D187C08783818260838380917602909165
:100660007702892B71F4F0937702E0937602809100
:10067000780290917902892B21F4F0937902E0932A
:100680007802CF01DF91CF911F910F910895CF9301
:10069000DF93CDB7DEB7AE014A5F5F4FFA016191DC
:1006A0007191AF0180917602909177020E945B0375
:1006B000DF91CF9108952F923F924F925F926F9268
:1006C0007F928F929F92AF92BF92CF92DF92EF92E2
:1006D000FF920F931F93CF93DF93CDB7DEB72C9785
:1006E0000FB6F894DEBF0FBECDBF7C016B018A014F
:1006F000FC0117821682838181FFBDC1CE01019664
:100700004C01F7019381F60193FD859193FF81914F
:100710006F01882309F4ABC1853239F493FD8591CB
:1007200093FF81916F01853229F4B70190E00E9417
:10073000BC06E7CF512C312C20E02032A0F48B32C4
:1007400069F030F4803259F0833269F420612CC0B2
:100750008D3239F0803339F4216026C02260246064
:1007600023C0286021C027FD27C030ED380F3A3064
:1007700078F426FF06C0FAE05F9E300D1124532E58
:1007800013C08AE0389E300D1124332E20620CC035
:100790008E3221F426FD6BC1206406C08C3611F424
:1007A000206802C0883641F4F60193FD859193FFDD
:1007B00081916F018111C1CF982F9F7D9554933006
:1007C00028F40C5F1F4FFFE3F9830DC0833631F02F
:1007D000833771F0833509F05BC022C0F801808156
:1007E00089830E5F1F4F44244394512C540115C03C
:1007F0003801F2E06F0E711CF801A080B18026FF75
:1008000003C0652D70E002C06FEF7FEFC5012C873C
:100810000E94B1062C0183012C852F77222E17C050
:100820003801F2E06F0E711CF801A080B18026FF44
:1008300003C0652D70E002C06FEF7FEFC5012C870C
:100840000E949F062C012C852068222E830123FC08
:100850001BC0832D90E048165906B0F4B70180E222
:1008600090E00E94BC063A94F4CFF50127FC8591F4
:1008700027FE81915F01B70190E00E94BC06311014
:100880003A94F1E04F1A51084114510471F7E5C050
:10089000843611F0893639F5F80127FF07C06081E9
:1008A0007181828193810C5F1F4F08C060817181CB
:1008B000072E000C880B990B0E5F1F4F2F76722EA0
:1008C00097FF09C090958095709561957F4F8F4FE8
:1008D0009F4F2068722E2AE030E0A4010E94F406A7
:1008E000A82EA81844C0853729F42F7EB22E2AE0FE
:1008F00030E025C0F22FF97FBF2E8F36C1F018F4FB
:10090000883579F0B4C0803719F0883721F0AFC04E
:100910002F2F2061B22EB4FE0DC08B2D8460B82E17
:1009200009C024FF0AC09F2F9660B92E06C028E098
:1009300030E005C020E130E002C020E132E0F80103
:10094000B7FE07C060817181828193810C5F1F4F68
:1009500006C06081718180E090E00E5F1F4FA401AE
:100960000E94F406A82EA818FB2DFF777F2E76FE96
:100970000BC0372D3E7FA51450F474FE0AC072FCE4
:1009800008C0372D3E7E05C0BA2C372D03C0BA2CC7
:1009900001C0B52C34FF0DC0FE01EA0DF11D8081B0
:1009A000803311F4397E09C032FF06C0B394B3948A
:1009B00004C0832F867809F0B39433FD13C030FF51
:1009C00006C05A2CB31418F4530C5B18B32CB31490
:1009D00068F4B70180E290E03C870E94BC06B394C3
:1009E0003C85F5CFB31410F43B1801C0312C34FF13
:1009F00012C0B70180E390E03C870E94BC063C85B2
:100A000032FF17C031FD03C088E790E002C088E5DF
:100A100090E0B7010CC0832F867859F031FF02C0F7
:100A20008BE201C080E237FD8DE2B70190E00E94C9
:100A3000BC06A51438F4B70180E390E00E94BC0620
:100A40005A94F7CFAA94F401EA0DF11D8081B70101
:100A500090E00E94BC06A110F5CF332009F451CEDE
:100A6000B70180E290E00E94BC063A94F6CFF7010D
:100A70008681978102C08FEF9FEF2C960FB6F89476
:100A8000DEBF0FBECDBFDF91CF911F910F91FF90C1
:100A9000EF90DF90CF90BF90AF909F908F907F901E
:100AA0006F905F904F903F902F9008950F931F93FA
:100AB000CF93DF93869F8001879F100D969F100D27
:100AC0001124C8010E947205EC01009729F0A801C9
:100AD00060E070E00E94AA06CE01DF91CF911F91E5
:100AE0000F910895CF93DF938230910510F482E047
:100AF00090E0E0917C02F0917D0220E030E0C0E0E7
:100B0000D0E0309711F14081518148175907C0F06A
:100B10004817590761F482819381209719F09B83CC
:100B20008A832BC090937D0280937C0226C021157E
:100B3000310519F04217530718F49A01BE01DF017D
:100B4000EF010280F381E02DDCCF2115310509F1A1
:100B5000281B390B2430310590F412968D919C910D
:100B600013976115710521F0FB019383828304C003
:100B700090937D0280937C02FD01329644C0FD017A
:100B8000E20FF31F81939193225031092D933C93EF
:100B90003AC020917A0230917B02232B41F42091BC
:100BA00002023091030230937B0220937A0220915B
:100BB0000002309101022115310541F42DB73EB7F5
:100BC0004091040250910502241B350BE0917A02FA
:100BD000F0917B02E217F307A0F42E1B3F0B2817BE
:100BE000390778F0AC014E5F5F4F2417350748F0A6
:100BF0004E0F5F1F50937B0240937A028193919333
:100C000002C0E0E0F0E0CF01DF91CF9108950F93B3
:100C10001F93CF93DF93009709F48CC0FC013297A8
:100C20001382128200917C0210917D020115110540
:100C300081F420813181820F931F20917A023091BB
:100C40007B022817390779F5F0937B02E0937A024B
:100C500071C0D80140E050E0AE17BF0750F41296C3
:100C60002D913C911397AD012115310509F1D90161
:100C7000F3CF9D01DA013383228360817181860F76
:100C8000971F8217930769F4EC0128813981260F99
:100C9000371F2E5F3F4F318320838A819B8193834F
:100CA0008283452B29F4F0937D02E0937C0242C0BD
:100CB0001396FC93EE931297ED01499159919E0181
:100CC000240F351FE217F30771F480819181840F9F
:100CD000951F029611969C938E9382819381139611
:100CE0009C938E931297E0E0F0E0D80112968D91DC
:100CF0009C911397009719F0F8018C01F6CF8D9114
:100D00009C9198012E5F3F4F820F931F20917A0292
:100D100030917B022817390769F4309729F4109233
:100D20007D0210927C0202C01382128210937B0219
:100D300000937A02DF91CF911F910F910895FC01EA
:100D40000590615070400110D8F7809590958E0FF6
:100D50009F1F0895DC0101C06D9341505040E0F7A2
:100D60000895FC016150704001900110D8F7809502
:100D700090958E0F9F1F08950F931F93CF93DF932E
:100D8000FB01238121FD03C08FEF9FEF28C022FFCD
:100D900016C046815781248135814217530744F498
:100DA000A081B1819D012F5F3F4F318320838C93C0
:100DB000268137812F5F3F4F3783268310C0EB0199
:100DC000092F182F0084F185E02D1995892BE1F664
:100DD0008E819F8101969F838E83812F902FDF913B
:100DE000CF911F910F910895FA01AA27283051F150
:100DF000203181F1E8946F936E7F6E5F7F4F8F4F4C
:100E00009F4FAF4FB1E03ED0B4E03CD0670F781FAA
:100E1000891F9A1FA11D680F791F8A1F911DA11D8F
:100E20006A0F711D811D911DA11D20D009F46894C8
:100E30003F912AE0269F11243019305D3193DEF670
:100E4000CF010895462F4770405D4193B3E00FD026
:100E5000C9F7F6CF462F4F70405D4A3318F0495D11
:100E600031FD4052419302D0A9F7EACFB4E0A695F4
:100E70009795879577956795BA95C9F70097610516
:100E8000710508959B01AC010A2E0694579547956C
:100E900037952795BA95C9F7620F731F841F951F61
:080EA000A01D0895F894FFCF96
:100EA80000007E02200048454C4C4F31004D435015
:100EB80032353135206973204E4F5420696E2043F6
:100EC8006F6E66696775726174696F6E206D6F64A5
:100ED80065206166746572207265736574212043AC
:100EE8006F6E6669672062697473206172653A2063
:100EF80025780A0D0063616E20636F6E74726F6CE3
:100F08002072656769737465723A20202578200A13
:020F18000D00CA
:00000001FF
