:100000000C94D5000C94F6000C94F6000C941C0192
:100010000C94F6000C94F6000C94F6000C94F60088
:100020000C94F6000C94F6000C94F6000C94F60078
:100030000C94F6000C94F6000C94F6000C94F60068
:100040000C94F6000C94F6000C94F6000C94F60058
:100050000C94F6000C94F6000C94F6000C94F60048
:100060000C94F6000C94F6000C94F6000C94F60038
:100070000C94F6000C94F6000C94F6000C94F60028
:100080000C9484010C94F6000C94F6000C94F60089
:100090000C94F6000C94F6000C94F6000C940B07EC
:1000A0000C94F6000C94F6000C94F6000C94F600F8
:1000B0000C94F6000C94F6000C94F6000C94F600E8
:1000C0000C94F6000C94F6000C94F6000C94F600D8
:1000D0000C94F6000C94F6000C94F6000C94F600C8
:1000E0000C94F6002A077C077C077C077C077C07BA
:1000F0007C077C072A077C077C077C077C077C073A
:100100007C077C072C077C077C077C077C077C0727
:100110007C077C077C077C077C077C077C077C07C7
:100120007C077C072C077C077C077C077C077C0707
:100130007C077C077C077C077C077C077C077C07A7
:100140007C077C0778077C077C077C077C077C079B
:100150007C077C0755077C077C077C077C077C07AE
:100160007C077C077C077C077C077C077C077C0777
:100170007C077C0749077C077C077C077C077C079A
:100180007C077C0767070C9467070C947C070C942A
:100190002A070C942C070C9449070C9478070C94AC
:1001A0009F010C9455070C94970111241FBECFEFAB
:1001B000D1E2DEBFCDBF00E00CBF12E0A0E0B2E0B4
:1001C000E0E4FFE100E00BBF02C007900D92A6390A
:1001D000B107D9F722E0A6E9B2E001C01D92A63C22
:1001E000B207E1F70E94F8000C949E0F0C940000F7
:1001F000F89487E690E00E94B70180E00E947802C0
:100200000E9461040E94D0040E948C050E94E905AE
:100210000E9438060E9492070E94A30878940E94C8
:1002200073058130E1F3809104028823C1F30E94B9
:10023000CE0710920402F3CF1F920F920FB60F92C7
:1002400011240BB60F922F933F934F935F936F93AD
:100250007F938F939F93AF93BF93EF93FF930E94EE
:1002600073058130F1F16091B1027091B20280E0CA
:1002700090E00E945503E091B102F091B2028381B7
:100280000E946804E091B102F091B20285810E945F
:10029000AE078091980290919902892B99F4E09190
:1002A000B102F091B20280910002E80FF11D83814A
:1002B000882399F00E94A60881E090E0909399022B
:1002C00080939802E091B102F091B2028091000215
:1002D000E80FF11D8381811104C0109299021092E0
:1002E0009802FF91EF91BF91AF919F918F917F9174
:1002F0006F915F914F913F912F910F900BBE0F9097
:100300000FBE0F901F9018951F920F920FB60F926D
:1003100011248F9381E08093040210929500109233
:1003200094008F910F900FBE0F901F901895E0ECE6
:10033000F0E0908195FFFDCF8093C6000895E0EC3A
:10034000F0E080818823ECF78091C6000895E4E610
:10035000F0E020812D7F20839093C5008093C4001E
:1003600088E18093C1008EE08093C20008950E94CE
:10037000A7016FE971E087E991E00E94480B0895B9
:1003800084B1876884B98CB581658CBD08958EBDB4
:100390000DB407FEFDCF089580E00E94C7018EB521
:1003A0000895882319F0813019F008952F98089541
:1003B0002F9A0895CF93C82F80E00E94D10183E047
:1003C0000E94C7018C2F0E94C7010E94CC01C82F38
:1003D00081E00E94D1018C2FCF910895CF93DF93BC
:1003E000C82FD62F80E00E94D10182E00E94C70171
:1003F0008D2F0E94C7018C2F0E94C70181E00E94AF
:10040000D101DF91CF910895CF93C82F80E00E9452
:10041000D101C13051F028F0C23059F0C33069F039
:100420000FC081E80E94C7010BC082E80E94C7018B
:1004300007C084E80E94C70103C087E80E94C70183
:1004400081E00E94D101CF910895CF9380E00E9476
:10045000D10180EA0E94C7010E94CC01C82F81E02F
:100460000E94D1018C2FCF9108951F93CF93DF93DA
:10047000182FD62FC42F80E00E94D10185E00E9462
:10048000C701812F0E94C7018D2F0E94C7018C2FA9
:100490000E94C70181E00E94D101DF91CF911F919D
:1004A000089580E00E94D10180EC0E94C70181E0A4
:1004B0000E94D10183EC99E00197F1F700C00000A0
:1004C00008950E94C0010E9451028EE00E94DA014C
:1004D000807E803861F01F928F9382E292E09F933A
:1004E0008F930E94930B0F900F900F900F90089591
:1004F000CF93C82F0E9461026FE08C2F0E94EE0103
:100500008FE00E94DA0143E063E08BE20E94350253
:1005100040E063E08CE20E943502E9E6F0E0808191
:1005200082608083EA9AE29ACF910895EF92FF92D7
:100530000F931F93CF93DF93CDB7DEB72B970FB6F3
:10054000F894DEBF0FBECDBF7C0150E0022F10E05B
:100550000115110571F0A62FB72FFE013496BE01CB
:10056000600F711F6C5F7F4F9D919193E617F707A6
:10057000D9F75A8349832B838BE0FE013196D7014B
:1005800001900D928A95E1F7C7012B960FB6F8946A
:10059000DEBF0FBECDBFDF91CF911F910F91FF90B6
:1005A000EF900895EF92FF920F931F93CF93DF93F5
:1005B0008C0180919B0290919C0201968330910561
:1005C0002CF490939C0280939B0204C010929C0296
:1005D00010929B02F801208131817901F7E0EF222E
:1005E000FF24CBE9D2E068816295607F6F5CC9012E
:1005F0009695879596958795969587950E94EE0195
:1006000068816295607F6E5C8E2D8295880F807EFA
:100610000E94EE0168816295607F6B5CF8018281C7
:100620000E94EE01F80182818823D1F0C0E00F2EF4
:10063000FBE9EF2EF2E0FF2EF02DF70180816C2F09
:10064000F0E18F9F600D11246A5CF801EC0FF11D41
:1006500083810E94EE01CF5FF8018281C81768F3A1
:1006600080919B0290919C028130910551F08230E3
:10067000910561F0892B71F460E388E00E94EE013E
:1006800009C060E488E00E94EE0104C060E588E0F3
:100690000E94EE0180919B020E940402DF91CF91A3
:1006A0001F910F91FF90EF900895EF92FF920F939B
:1006B0001F93CF93DF937C018B01D82FD295D07FEE
:1006C00081E68D0F0E94DA01C82F82E68D0F0E940D
:1006D000DA01807E282F30E03695279532952295D5
:1006E0002F7023273F702327C90148E0C49F800D46
:1006F000911D1124F8019183808385E68D0F0E945E
:10070000DA018F70F8018283882379F0C0E0DA592A
:100710008D2F8C0F0E94DA01F801EC0FF11D8383FD
:10072000CF5FF8019281C91798F3E114F10421F029
:10073000EA94EF2831F009C061E080E00E94EE0108
:1007400004C062E080E00E94EE01F801C081D18126
:10075000CE0196958795969587959695879561E3B1
:100760000E94EE0162E38C2F8295880F807E0E94AA
:10077000EE0165E3F80182810E94EE01F8018281B9
:10078000882371F0C0E066E36C0FF801EC0FF11DF7
:1007900083810E94EE01CF5FF8018281C81798F330
:1007A0008CE20E94DA018E7F8F7D6CE20E94EE0166
:1007B00040E063E08CE20E943502DF91CF911F910F
:1007C0000F91FF90EF900895A1E8B0E09C9198619F
:1007D0009C93E0E8F0E090819260908390819E7F0E
:1007E00090839C9194609C939C919D7F9C939C9101
:1007F0009E7F9C93259A90819068908390819F7BA7
:100800009083282F30E0322F2227032E000C440B38
:10081000550B60E074E284EF90E00E94C60821501E
:10082000310930938700209386008CE590E0909307
:100830008900809388000895CF93682F70E06456F4
:100840007109072E000C880B990B0E942B0A20E0DF
:1008500030E04AE752E40E94DB0A20E030E048EC56
:1008600052E40E94810920E030E046E752E40E9411
:1008700010090E94FA09C62F70E080E090E00E9403
:100880002B0A20E030E046E752E40E947C098823EE
:100890003CF48DE390E090938900809388000FC032
:1008A000CD3738F08CE790E09093890080938800F2
:1008B00006C06C2F70E07093890060938800CF9120
:1008C000089582E30E94E40308950E941C040895A1
:1008D0008730FCF0682F880F770B65507109072E61
:1008E000000C880B990B0E942B0A29E93BEB46E090
:1008F0005FE30E94DB0A9B01AC0160E070E086E1EF
:1009000093E40E940F090E94FA09862F0E941C049A
:1009100008958A3FECF46BEF7FEF681B710987FD48
:100920007395072E000C880B990B0E942B0A29E95E
:100930003BEB46E05FE30E94DB0A20E030E046E16B
:1009400053E40E9410090E94FA09862F0E941C0499
:100950000895EAE7F0E0808180648083808184FFED
:10096000FDCF2091780080917900229526952695DB
:100970002370880F880F90E0820F911D0895809852
:10098000EAE7F0E0808187688083ECE7F0E080812F
:10099000806C80838081806280830E94A904089596
:1009A000CF930E94BF0490910602992341F0E4EB9B
:1009B000F2E080E0119211928F5F8917D8F3C09115
:1009C000A0020E94A904EC2FF0E0EE0FFF1FEC54F0
:1009D000FD4F91838083E091A002F0E0EE0FFF1FB6
:1009E000EC54FD4F8081918190939F0280939E02F1
:1009F000CF910895CF93DF9380919E0290919F02B3
:100A0000E091A002F0E0EE0FFF1FEC54FD4F2081BB
:100A10003181821B930B90939F0280939E02C09121
:100A2000A0020E94A904EC2FF0E0EE0FFF1FEC548F
:100A3000FD4F91838083E091A00220919E0230912E
:100A40009F02F0E0EE0FFF1FEC54FD4F808191817B
:100A5000820F931F90939F0280939E028091A00229
:100A60008F5F8093A0028091A0026091060286179A
:100A700010F01092A00280919E0290919F0270E06F
:100A80000E94B208EB010E94A9049F938F932AE66B
:100A900032E03F932F930E94930B0F900F900F9093
:100AA0000F90CE01DF91CF9108950E94FA044597EF
:100AB00060F480910502811108C080919D028F5FD2
:100AC00080939D0281E0809305020E94FA0488973A
:100AD00030F080910502813011F41092050280916E
:100AE0009D0290E008950E94550580939D0280919B
:100AF0009D021F928F9384E792E09F938F930E94B1
:100B0000930B90919D0281E00F900F900F900F90AA
:100B1000923008F480E008950E948806E1E0F1E058
:100B200080818A67808310920701E2E0F1E0808192
:100B30008061808380818F7B80838AE68A95F1F74C
:100B400000C08081806480830895E2E0F1E08081CC
:100B50008F7D80838081877F80838AE68A95F1F705
:100B600000C0A6E0B1E02C918081886080838AE695
:100B70008A95F1F700C08C9190819062908390E00B
:100B8000922B08950E948C060895882331F0E2E0AC
:100B9000F1E08081826080830895E2E0F1E080816D
:100BA0008D7F80830895CF93C82F8E3F44F480E0DB
:100BB0000E94C5058C2F81950E948C0608C0833049
:100BC00034F081E00E94C5058C2F0E948C06CF91E5
:100BD000089580E00E94C50584E60E948C062FEFF0
:100BE00083ED90E3215080409040E1F700C0000089
:100BF000E2E0F1E080818F7B80832AE62A95F1F79D
:100C000000C08081806480830E94A5058093A1023A
:100C10009093A2029F938F9381E892E09F938F938A
:100C20000E94930B81E00E94C50584E60E948C0619
:100C30008FEF93ED20E3815090402040E1F700C01A
:100C400000000E94A5058093A3029093A4029F93A5
:100C50008F938BE892E09F938F930E94930B8DB7B5
:100C60009EB708960FB6F8949EBF0FBE8DBF08952D
:100C7000CF92DF92EF92FF920F931F93CF93DF9368
:100C80008091A1029091A2022091A3023091A4022E
:100C9000821B930BBC0112F46F5F7F4FEB01D59564
:100CA000C795DD231CF4D195C195D1090E94A505F6
:100CB0008C01BE01DD0F880B990B0E942B0A6B0182
:100CC0007C01C801992324F488279927801B910B64
:100CD000BC01990F880B990B0E942B0AA701960162
:100CE0000E940F09A70196010E94810920E030E0CF
:100CF00048EC52E40E94DB0A0E94F309862FDF9140
:100D0000CF911F910F91FF90EF90DF90CF900895BA
:100D100078940E94A0060895CF93DF9300D0CDB7BA
:100D2000DEB790E599831A828B8363E0CE0101964A
:100D30000E94B6060F900F900F90DF91CF9108950B
:100D40008CE08093B8008FEF8093BB0084E08093A9
:100D5000BC0008958091BC0081700895ECEBF0E038
:100D6000808180FDFDCF809107020895CF93DF93AE
:100D7000EC01ECEBF0E0908190FDFDCF6093A702D9
:100D800098819093A80290FD13C0623088F0FE0114
:100D90003196A9EAB2E06250262F30E02E5F3F4F35
:100DA000CE01820F931F21912D93E817F907D9F7F0
:100DB0001092A50288EF8093070285EA8093BC0019
:100DC000DF91CF910895ECEBF0E0808180FDFDCFC5
:100DD0001092A50288EF8093070285EA8093BC00F9
:100DE0000895ECEBF0E0208120FDFDCF2091A502DD
:100DF00020FF0DC0662359F028EA32E0A82FB92F52
:100E0000F90181918D938E2F821B8617D0F38091EB
:100E1000A502817008951F920F920FB60F921124B0
:100E20000BB60F922F933F938F939F93AF93BF93E4
:100E3000EF93FF93E091B9008E2F90E0FC0138977B
:100E4000E135F10508F058C08827EE58FF4F8F4F65
:100E50000C94E5081092A602E091A6028091A702E8
:100E6000E81770F481E08E0F8093A602F0E0E85559
:100E7000FD4F80818093BB0085E88093BC0043C018
:100E80008091A50281608093A50284E98093BC00D3
:100E90003AC0E091A60281E08E0F8093A602809175
:100EA000BB00F0E0E855FD4F80832091A60230E0C2
:100EB0008091A70290E001972817390724F485EC68
:100EC0008093BC0020C085E88093BC001CC080914A
:100ED000BB00E091A602F0E0E855FD4F80838091D1
:100EE000A50281608093A50284E98093BC000BC0B9
:100EF00085EA8093BC0007C08091B9008093070207
:100F000084E08093BC00FF91EF91BF91AF919F91DE
:100F10008F913F912F910F900BBE0F900FBE0F90AE
:100F20001F901895E0E9F0E0808188608083E1E916
:100F3000F0E080818460808380818D7F80838081E8
:100F40008E7F808381E792E0909399008093980050
:100F5000E1E7F0E080818260808308958093AC02B5
:100F60000895CF92DF92EF92FF920F931F93FC01AF
:100F7000408351836283738304831583268337837D
:100F8000C086D186E286F3868FEF858786871F919C
:100F90000F91FF90EF90DF90CF9008958F929F92E6
:100FA000AF92BF92CF92DF92EF92FF920F931F9377
:100FB000CF93DF930E943806C091AC020C2E000C38
:100FC000DD0BC81BD10987FDD395D0930B02C093CD
:100FD0000A02BE010D2E000C880B990B0E942B0AF1
:100FE0006B017C01209118023091190240911A0284
:100FF00050911B020E94DB0A2091AD023091AE029B
:101000004091AF025091B0020E9410094B015C0167
:101010006093AD027093AE028093AF029093B002E2
:101020002097A1F51092AD021092AE021092AF027D
:101030001092B002209114023091150240911602D4
:1010400050911702C701B6010E94DB0A6B017C01B7
:1010500020E030E0A90160911002709111028091AE
:101060001202909113020E94DB0A9B01AC01C7019E
:10107000B6010E9410090E94F3098B0177230CF03E
:101080004AC000271127061B170B45C020911402E8
:10109000309115024091160250911702C701B60116
:1010A0000E94DB0A6B017C01209110023091110239
:1010B0004091120250911302C501B4010E94DB0A53
:1010C0009B01AC01C701B6010E9410090E94F309FF
:1010D0008B01772324F400271127061B170BCE0161
:1010E000DD2324F4882799278C1B9D0B02979CF005
:1010F000DD234CF480E00E94C505073411055CF047
:1011000006E410E008C081E00E94C505073411051F
:1011100014F006E410E0802F0E94C20580910A02BC
:1011200090910B029093090280930802DF91CF9176
:101130001F910F91FF90EF90DF90CF90BF90AF90F5
:101140009F908F900895839A8B9A08958B982FEF94
:1011500080E792E0215080409040E1F700C000001D
:101160008B9A0895AA1BBB1B51E107C0AA1FBB1F86
:10117000A617B70710F0A61BB70B881F991F5A9523
:10118000A9F780959095BC01CD010895052E97FB98
:101190001EF400940E94DD0857FD07D00E94ED0860
:1011A00007FC03D04EF40C94DD0850954095309523
:1011B00021953F4F4F4F5F4F0895909580957095C3
:1011C00061957F4F8F4F9F4F0895EE0FFF1F881F30
:1011D0008BBF0790F691E02D1994A1E21A2EAA1B5D
:1011E000BB1BFD010DC0AA1FBB1FEE1FFF1FA217D7
:1011F000B307E407F50720F0A21BB30BE40BF50BD4
:10120000661F771F881F991F1A9469F7609570955C
:10121000809590959B01AC01BD01CF010895505878
:10122000BB27AA270E9427090C94A10A0E94930AAF
:1012300038F00E949A0A20F039F49F3F19F426F4FE
:101240000C94900A0EF4E095E7FB0C948A0AE92FBF
:101250000E94B20A58F3BA1762077307840795070A
:1012600020F079F4A6F50C94D40A0EF4E0950B2E38
:10127000BA2FA02D0B01B90190010C01CA01A001E8
:101280001124FF27591B99F0593F50F4503E68F143
:101290001A16F040A22F232F342F4427585FF3CF84
:1012A000469537952795A795F0405395C9F77EF455
:1012B0001F16BA0B620B730B840BBAF09150A1F09E
:1012C000FF0FBB1F661F771F881FC2F70EC0BA0F24
:1012D000621F731F841F48F4879577956795B795AC
:1012E000F7959E3F08F0B0CF9395880F08F09927A7
:1012F000EE0F9795879508950E94660A08F481E09D
:1013000008950E9495090C94A10A0E949A0A58F027
:101310000E94930A40F029F45F3F29F00C948A0A56
:1013200051110C94D50A0C94900A0E94B20A68F3E9
:101330009923B1F3552391F3951B550BBB27AA278E
:1013400062177307840738F09F5F5F4F220F331FC8
:10135000441FAA1FA9F335D00E2E3AF0E0E832D090
:1013600091505040E695001CCAF72BD0FE2F29D093
:10137000660F771F881FBB1F261737074807AB0765
:10138000B0E809F0BB0B802DBF01FF2793585F4FDA
:101390003AF09E3F510578F00C948A0A0C94D50AD5
:1013A0005F3FE4F3983ED4F3869577956795B795BC
:1013B000F7959F5FC9F7880F911D9695879597F9C7
:1013C0000895E1E0660F771F881FBB1F6217730740
:1013D0008407BA0720F0621B730B840BBA0BEE1F55
:1013E00088F7E09508950E94FA096894B1110C9469
:1013F000D50A08950E94BA0A88F09F5798F0B92F2D
:101400009927B751B0F0E1F0660F771F881F991F39
:101410001AF0BA95C9F714C0B13091F00E94D40AFD
:10142000B1E008950C94D40A672F782F8827B85F0D
:1014300039F0B93FCCF3869577956795B395D9F791
:101440003EF490958095709561957F4F8F4F9F4F9B
:101450000895E89409C097FB3EF4909580957095A7
:1014600061957F4F8F4F9F4F9923A9F0F92F96E9F0
:10147000BB279395F695879577956795B795F11165
:10148000F8CFFAF4BB0F11F460FF1BC06F5F7F4F02
:101490008F4F9F4F16C0882311F096E911C0772314
:1014A00021F09EE8872F762F05C0662371F096E81D
:1014B000862F70E060E02AF09A95660F771F881FEC
:1014C000DAF7880F9695879597F90895990F000890
:1014D000550FAA0BE0E8FEEF16161706E807F90706
:1014E000C0F012161306E407F50798F0621B730BA1
:1014F000840B950B39F40A2661F0232B242B252B22
:1015000021F408950A2609F4A140A6958FEF811DC4
:10151000811D089597F99F6780E870E060E0089565
:101520009FEF80EC089500240A94161617061806FB
:101530000906089500240A941216130614060506D7
:101540000895092E0394000C11F4882352F0BB0F68
:1015500040F4BF2B11F460FF04C06F5F7F4F8F4FCB
:101560009F4F089557FD9058440F551F59F05F3F06
:1015700071F04795880F97FB991F61F09F3F79F0B5
:1015800087950895121613061406551FF2CF469537
:10159000F1DF08C0161617061806991FF1CF8695B9
:1015A0007105610508940895E894BB27662777279D
:1015B000CB0197F908950E94EE0A0C94A10A0E94AB
:1015C000930A38F00E949A0A20F0952311F00C94A7
:1015D0008A0A0C94900A11240C94D50A0E94B20A2B
:1015E00070F3959FC1F3950F50E0551F629FF00176
:1015F000729FBB27F00DB11D639FAA27F00DB11D8F
:10160000AA1F649F6627B00DA11D661F829F222717
:10161000B00DA11D621F739FB00DA11D621F839F9E
:10162000A00D611D221F749F3327A00D611D231F74
:10163000849F600D211D822F762F6A2F11249F57C2
:1016400050409AF0F1F088234AF0EE0FFF1FBB1FC5
:10165000661F771F881F91505040A9F79E3F510584
:1016600080F00C948A0A0C94D50A5F3FE4F3983E0C
:10167000D4F3869577956795B795F795E7959F5F2E
:10168000C1F7FE2B880F911D9695879597F90895C0
:101690000F931F93CF93DF93009731F4611571057A
:1016A00019F480E090E03AC08B01EC016EE070E04C
:1016B00081E090E00E94A20DFC01892B91F380E86B
:1016C00083830115110571F01387028781E88383F5
:1016D0008091BC029091BD02892B21F4F093BD0250
:1016E000E093BC022097C9F0D187C08783818260D4
:1016F00083838091BE029091BF02892B71F4F09395
:10170000BF02E093BE028091C0029091C102892B7A
:1017100021F4F093C102E093C002CF01DF91CF9199
:101720001F910F910895CF93DF93CDB7DEB7AE0130
:101730004A5F5F4FFA0161917191AF018091BE02E2
:101740009091BF020E94A70BDF91CF9108952F9235
:101750003F924F925F926F927F928F929F92AF9241
:10176000BF92CF92DF92EF92FF920F931F93CF938E
:10177000DF93CDB7DEB72C970FB6F894DEBF0FBE60
:10178000CDBF7C016B018A01FC0117821682838127
:1017900081FFBDC1CE0101964C01F7019381F60195
:1017A00093FD859193FF81916F01882309F4ABC16B
:1017B000853239F493FD859193FF81916F018532D4
:1017C00029F4B70190E00E94080FE7CF512C312C8B
:1017D00020E02032A0F48B3269F030F4803259F0EE
:1017E000833269F420612CC08D3239F0803339F4B2
:1017F000216026C02260246023C0286021C027FD0C
:1018000027C030ED380F3A3078F426FF06C0FAE0F2
:101810005F9E300D1124532E13C08AE0389E300D88
:101820001124332E20620CC08E3221F426FD6BC1B0
:10183000206406C08C3611F4206802C0883641F45A
:10184000F60193FD859193FF81916F018111C1CFC5
:10185000982F9F7D9554933028F40C5F1F4FFFE322
:10186000F9830DC0833631F0833771F0833509F089
:101870005BC022C0F801808189830E5F1F4F442422
:101880004394512C540115C03801F2E06F0E711CC5
:10189000F801A080B18026FF03C0652D70E002C072
:1018A0006FEF7FEFC5012C870E94FD0E2C01830195
:1018B0002C852F77222E17C03801F2E06F0E711C95
:1018C000F801A080B18026FF03C0652D70E002C042
:1018D0006FEF7FEFC5012C870E94EB0E2C012C854A
:1018E0002068222E830123FC1BC0832D90E0481624
:1018F0005906B0F4B70180E290E00E94080F3A94D4
:10190000F4CFF50127FC859127FE81915F01B70196
:1019100090E00E94080F31103A94F1E04F1A5108FC
:101920004114510471F7E5C0843611F0893639F558
:10193000F80127FF07C060817181828193810C5F6C
:101940001F4F08C060817181072E000C880B990B16
:101950000E5F1F4F2F76722E97FF09C090958095CE
:10196000709561957F4F8F4F9F4F2068722E2AE0B0
:1019700030E0A4010E94400FA82EA81844C085376B
:1019800029F42F7EB22E2AE030E025C0F22FF97F15
:10199000BF2E8F36C1F018F4883579F0B4C0803787
:1019A00019F0883721F0AFC02F2F2061B22EB4FE7E
:1019B0000DC08B2D8460B82E09C024FF0AC09F2F54
:1019C0009660B92E06C028E030E005C020E130E086
:1019D00002C020E132E0F801B7FE07C060817181EA
:1019E000828193810C5F1F4F06C06081718180E00E
:1019F00090E00E5F1F4FA4010E94400FA82EA81870
:101A0000FB2DFF777F2E76FE0BC0372D3E7FA51472
:101A100050F474FE0AC072FC08C0372D3E7E05C02B
:101A2000BA2C372D03C0BA2C01C0B52C34FF0DC021
:101A3000FE01EA0DF11D8081803311F4397E09C069
:101A400032FF06C0B394B39404C0832F867809F0A4
:101A5000B39433FD13C030FF06C05A2CB31418F4EE
:101A6000530C5B18B32CB31468F4B70180E290E018
:101A70003C870E94080FB3943C85F5CFB31410F453
:101A80003B1801C0312C34FF12C0B70180E390E055
:101A90003C870E94080F3C8532FF17C031FD03C010
:101AA00088E790E002C088E590E0B7010CC0832F82
:101AB000867859F031FF02C08BE201C080E237FD29
:101AC0008DE2B70190E00E94080FA51438F4B70129
:101AD00080E390E00E94080F5A94F7CFAA94F40193
:101AE000EA0DF11D8081B70190E00E94080FA1105E
:101AF000F5CF332009F451CEB70180E290E00E9487
:101B0000080F3A94F6CFF7018681978102C08FEFD4
:101B10009FEF2C960FB6F894DEBF0FBECDBFDF91BE
:101B2000CF911F910F91FF90EF90DF90CF90BF90DA
:101B3000AF909F908F907F906F905F904F903F906D
:101B40002F9008950F931F93CF93DF93869F80016B
:101B5000879F100D969F100D1124C8010E94BE0D85
:101B6000EC01009729F0A80160E070E00E94F60EF9
:101B7000CE01DF91CF911F910F910895CF93DF9305
:101B80008230910510F482E090E0E091C402F0917F
:101B9000C50220E030E0C0E0D0E0309711F1408194
:101BA000518148175907C0F04817590761F48281DD
:101BB0009381209719F09B838A832BC09093C50251
:101BC0008093C40226C02115310519F0421753072E
:101BD00018F49A01BE01DF01EF010280F381E02DCC
:101BE000DCCF2115310509F1281B390B24303105D3
:101BF00090F412968D919C9113976115710521F0C7
:101C0000FB019383828304C09093C5028093C40236
:101C1000FD01329644C0FD01E20FF31F81939193C1
:101C2000225031092D933C933AC02091C202309149
:101C3000C302232B41F420911E0230911F023093E6
:101C4000C3022093C20220911C0230911D02211573
:101C5000310541F42DB73EB7409120025091210249
:101C6000241B350BE091C202F091C302E217F30787
:101C7000A0F42E1B3F0B2817390778F0AC014E5FFC
:101C80005F4F2417350748F04E0F5F1F5093C30274
:101C90004093C2028193919302C0E0E0F0E0CF0153
:101CA000DF91CF9108950F931F93CF93DF93009708
:101CB00009F48CC0FC013297138212820091C40295
:101CC0001091C5020115110581F420813181820F27
:101CD000931F2091C2023091C3022817390779F56A
:101CE000F093C302E093C20271C0D80140E050E01B
:101CF000AE17BF0750F412962D913C911397AD018A
:101D00002115310509F1D901F3CF9D01DA013383A2
:101D1000228360817181860F971F8217930769F470
:101D2000EC0128813981260F371F2E5F3F4F318309
:101D300020838A819B8193838283452B29F4F093AE
:101D4000C502E093C40242C01396FC93EE9312972F
:101D5000ED01499159919E01240F351FE217F307B8
:101D600071F480819181840F951F029611969C9346
:101D70008E938281938113969C938E931297E0E0C9
:101D8000F0E0D80112968D919C911397009719F06D
:101D9000F8018C01F6CF8D919C9198012E5F3F4FF9
:101DA000820F931F2091C2023091C3022817390776
:101DB00069F4309729F41092C5021092C40202C04F
:101DC000138212821093C3020093C202DF91CF915B
:101DD0001F910F910895FC01059061507040011012
:101DE000D8F7809590958E0F9F1F0895DC0101C054
:101DF0006D9341505040E0F70895FC0161507040F0
:101E000001900110D8F7809590958E0F9F1F08952F
:101E10000F931F93CF93DF93FB01238121FD03C019
:101E20008FEF9FEF28C022FF16C046815781248183
:101E300035814217530744F4A081B1819D012F5F82
:101E40003F4F318320838C93268137812F5F3F4F13
:101E50003783268310C0EB01092F182F0084F185EA
:101E6000E02D1995892BE1F68E819F8101969F8344
:101E70008E83812F902FDF91CF911F910F91089525
:101E8000FA01AA27283051F1203181F1E8946F93AB
:101E90006E7F6E5F7F4F8F4F9F4FAF4FB1E03ED051
:101EA000B4E03CD0670F781F891F9A1FA11D680FEF
:101EB000791F8A1F911DA11D6A0F711D811D911D22
:101EC000A11D20D009F468943F912AE0269F112497
:101ED0003019305D3193DEF6CF010895462F4770FB
:101EE000405D4193B3E00FD0C9F7F6CF462F4F7056
:101EF000405D4A3318F0495D31FD4052419302D0B4
:101F0000A9F7EACFB4E0A695979587957795679559
:101F1000BA95C9F700976105710508959B01AC0159
:101F20000A2E06945795479537952795BA95C9F780
:101F3000620F731F841F951FA01D0895F894FFCF93
:101F400004030201010104F8FFFFFFFF000020412C
:101F50000000C03F0000803F0AD7233C0000C602BB
:101F600020004D435032353135206973204E4F5497
:101F700020696E20436F6E66696775726174696F60
:101F80006E206D6F64652061667465722072657382
:101F900065742120436F6E666967206269747320DF
:101FA0006172653A2025780A0D004144433A2025A4
:101FB000640A0D0053636F72653A202564200A0D90
:101FC000006C6566742025640A0D00726967687488
:061FD0002025640A0D004B
:00000001FF
