:100000000C9476000C9497000C9497000C94970035
:100010000C9497000C9497000C9497000C94970004
:100020000C9497000C9497000C9497000C949700F4
:100030000C9497000C9497000C9497000C949700E4
:100040000C9497000C9497000C9497000C949700D4
:100050000C9497000C9497000C9497000C949700C4
:100060000C9497000C9497000C9497000C949700B4
:100070000C9497000C9497000C9497000C949700A4
:100080000C9497000C9497000C9497000C94970094
:100090000C9497000C9497000C9497000C94970084
:1000A0000C9497000C9497000C9497000C94970074
:1000B0000C9497000C9497000C9497000C94970064
:1000C0000C9497000C9497000C9497000C94970054
:1000D0000C9497000C9497000C9497000C94970044
:1000E0000C9497000C94C6000C94BE0011241FBE03
:1000F000CFEFD1E2DEBFCDBF00E00CBF12E0A0E049
:10010000B2E0E4EBF5E100E00BBF02C007900D9216
:10011000A03BB107D9F722E0A0EBB2E001C01D92ED
:10012000AC3BB207E1F70E9499000C94D80A0C94FA
:10013000000087E690E00E94DE0080E00E949F01C0
:100140000E94910306E012E0C0E0D0E0BE0180E032
:1001500090E00E947702CB818C2F0E9498038C2F15
:100160000C2E000C990B9F93CF931F930F930E941B
:10017000CD060F900F900F900F90E6CFE0ECF0E0DF
:10018000908195FFFDCF8093C6000895E0ECF0E0EC
:1001900080818823ECF78091C6000895E4E6F0E0C2
:1001A00020812D7F20839093C5008093C40088E137
:1001B0008093C1008EE08093C20008950E94CE001B
:1001C00066EC70E08EEB90E00E948206089584B1A8
:1001D000876884B98CB581658CBD08958EBD0DB4DA
:1001E00007FEFDCF089580E00E94EE008EB50895D1
:1001F000882319F0813019F008952F9808952F9AC7
:100200000895CF93C82F80E00E94F80083E00E94F9
:10021000EE008C2F0E94EE000E94F300C82F81E0B8
:100220000E94F8008C2FCF910895CF93DF93C82FB1
:10023000D62F80E00E94F80082E00E94EE008D2F11
:100240000E94EE008C2F0E94EE0081E00E94F800D8
:10025000DF91CF910895CF93C82F80E00E94F800DE
:10026000C13051F028F0C23059F0C33069F00FC0EE
:1002700081E80E94EE000BC082E80E94EE0007C0F9
:1002800084E80E94EE0003C087E80E94EE0081E04F
:100290000E94F800CF910895CF9380E00E94F8006B
:1002A00080EA0E94EE000E94F300C82F81E00E94C5
:1002B000F8008C2FCF9108951F93CF93DF93182FC1
:1002C000D62FC42F80E00E94F80085E00E94EE0047
:1002D000812F0E94EE008D2F0E94EE008C2F0E9435
:1002E000EE0081E00E94F800DF91CF911F91089508
:1002F00080E00E94F80080EC0E94EE0081E00E9405
:10030000F80083EC99E00197F1F700C00000089530
:100310000E94E7000E9478018EE00E940101807E29
:10032000803861F01F928F938EE092E09F938F93BD
:100330000E94CD060F900F900F900F900895CF93CD
:10034000C82F0E9488016FE08C2F0E9415018FE05A
:100350000E9401011F928F9386E592E09F938F93F5
:100360000E94CD060F900F900F900F90CF9108959F
:10037000EF92FF920F931F93CF93DF93CDB7DEB72A
:100380002B970FB6F894DEBF0FBECDBF7C0150E0B7
:10039000022F10E00115110571F0A62FB72FFE01F5
:1003A0003496BE01600F711F6C5F7F4F9D919193DA
:1003B000E617F707D9F75A8349832B838BE0FE01B1
:1003C0003196D70101900D928A95E1F7C7012B96DE
:1003D0000FB6F894DEBF0FBECDBFDF91CF911F9156
:1003E0000F91FF90EF900895EF92FF920F931F935C
:1003F000CF93DF938C018091B0029091B10201966E
:10040000833091052CF49093B1028093B00204C024
:100410001092B1021092B002F8012081318179016D
:10042000F7E0EF22FF24C0EBD2E068816295607FA5
:100430006F5CC90196958795969587959695879552
:100440000E94150168816295607F6E5C8E2D829599
:10045000880F807E0E94150168816295607F6B5CC9
:10046000F80182810E941501F80182818823D1F070
:10047000C0E00F2EF0EBEF2EF2E0FF2EF02DF70193
:1004800080816C2FF0E18F9F600D11246A5CF80170
:10049000EC0FF11D83810E941501CF5FF80182816D
:1004A000C81768F38091B0029091B1028130910534
:1004B00051F08230910561F0892B71F460E388E09E
:1004C0000E94150109C060E488E00E94150104C083
:1004D00060E588E00E9415018091B0020E942B0126
:1004E000DF91CF911F910F91FF90EF900895EF92C0
:1004F000FF920F931F93CF93DF937C018B01D82F33
:10050000D295D07F81E68D0F0E940101C82F82E62F
:100510008D0F0E940101807E282F30E036952795AF
:10052000329522952F7023273F702327C90148E079
:10053000C49F800D911D1124F8019183808385E66D
:100540008D0F0E9401018F70F8018283882379F05A
:10055000C0E0DA598D2F8C0F0E940101F801EC0FD9
:10056000F11D8383CF5FF8019281C91798F3E114DD
:10057000F10421F0EA94EF2831F009C061E080E055
:100580000E94150104C062E080E00E941501F8019C
:10059000C081D181CE019695879596958795969540
:1005A000879561E30E94150162E38C2F8295880F85
:1005B000807E0E94150165E3F80182810E94150189
:1005C000F8018281882371F0C0E066E36C0FF801C6
:1005D000EC0FF11D83810E941501CF5FF80182812C
:1005E000C81798F38CE20E9401018E7F8F7D6CE228
:1005F0000E941501DF91CF911F910F91FF90EF9015
:100600000895A1E8B0E09C9198619C93E0E8F0E047
:1006100090819260908390819E7F90839C91946062
:100620009C939C919D7F9C939C919E7F9C93259AEB
:1006300090819068908390819F7B9083282F30E0F9
:10064000322F2227032E000C440B550B60E074E27E
:1006500084EF90E00E940F0421503109309387000D
:10066000209386008CE590E0909389008093880029
:1006700008950F931F93CF93682F70E0645671090C
:10068000072E000C880B990B0E94650520E030E0D6
:100690004AE752E40E94150620E030E048EC52E4BC
:1006A0000E94C20420E030E046E752E40E94510478
:1006B0000E943405C62F062F10E01F926F9383E728
:1006C00092E09F938F930E94CD06B801110F880B83
:1006D000990B0E9465050F900F900F900F9020E0EE
:1006E00030E046E752E40E94BD0488233CF48DE3E9
:1006F00090E090938900809388000FC0CD3738F048
:100700008CE790E0909389008093880006C06C2F5E
:1007100070E07093890060938800CF911F910F91D2
:10072000089582E30E94010308950E943903089509
:10073000CF93C82F1F921F9285E892E09F938F93CB
:100740000E94CD060F900F900F900F90C630CCF105
:100750006C2FCC0F770B65507109072E000C880B9E
:10076000990B0E94650520E030E040E05FE30E94C5
:1007700015069B01AC0160E070E086E193E40E9405
:1007800050040E943405C62F1F926F938DE892E0AB
:100790009F938F930E94CD068C2F0E9439031F9246
:1007A00082E08F938EE992E09F938F930E94CD0613
:1007B0008DB79EB708960FB6F8949EBF0FBE8DBF3B
:1007C0002CC0CB3F54F56BEF7FEF6C1B7109C7FD5D
:1007D0007395072E000C880B990B0E94650520E08D
:1007E00030E040E05FE30E94150620E030E046E1A3
:1007F00053E40E9451040E943405862F0E9439035D
:100800001F9283E08F9387EA92E09F938F930E94D9
:10081000CD060F900F900F900F90CF910895052E59
:1008200097FB1EF400940E94260457FD07D00E94F7
:100830002E0407FC03D04EF40C94260450954095EA
:10084000309521953F4F4F4F5F4F0895909580957C
:10085000709561957F4F8F4F9F4F0895A1E21A2E9B
:10086000AA1BBB1BFD010DC0AA1FBB1FEE1FFF1F54
:10087000A217B307E407F50720F0A21BB30BE40BA4
:10088000F50B661F771F881F991F1A9469F76095EB
:100890007095809590959B01AC01BD01CF010895A5
:1008A0005058BB27AA270E9468040C94DB050E94BD
:1008B000CD0538F00E94D40520F039F49F3F19F49B
:1008C00026F40C94CA050EF4E095E7FB0C94C405DD
:1008D000E92F0E94EC0558F3BA17620773078407E3
:1008E000950720F079F4A6F50C940E060EF4E09529
:1008F0000B2EBA2FA02D0B01B90190010C01CA01DA
:10090000A0011124FF27591B99F0593F50F4503E84
:1009100068F11A16F040A22F232F342F4427585F76
:10092000F3CF469537952795A795F0405395C9F78E
:100930007EF41F16BA0B620B730B840BBAF0915046
:10094000A1F0FF0FBB1F661F771F881FC2F70EC0E5
:10095000BA0F621F731F841F48F4879577956795B8
:10096000B795F7959E3F08F0B0CF9395880F08F0A4
:100970009927EE0F9795879508950E94A00508F492
:1009800081E008950E94D6040C94DB050E94D405F2
:1009900058F00E94CD0540F029F45F3F29F00C94F7
:1009A000C40551110C940F060C94CA050E94EC0565
:1009B00068F39923B1F3552391F3951B550BBB278E
:1009C000AA2762177307840738F09F5F5F4F220FD3
:1009D000331F441FAA1FA9F335D00E2E3AF0E0E8CA
:1009E00032D091505040E695001CCAF72BD0FE2F14
:1009F00029D0660F771F881FBB1F261737074807A8
:100A0000AB07B0E809F0BB0B802DBF01FF2793585F
:100A10005F4F3AF09E3F510578F00C94C4050C945A
:100A20000F065F3FE4F3983ED4F38695779567957C
:100A3000B795F7959F5FC9F7880F911D9695879594
:100A400097F90895E1E0660F771F881FBB1F6217B3
:100A500073078407BA0720F0621B730B840BBA0B71
:100A6000EE1F88F7E09508950E94F40588F09F57DF
:100A700098F0B92F9927B751B0F0E1F0660F771FC2
:100A8000881F991F1AF0BA95C9F714C0B13091F0B8
:100A90000E940E06B1E008950C940E06672F782F81
:100AA0008827B85F39F0B93FCCF38695779567957D
:100AB000B395D9F73EF490958095709561957F4FE9
:100AC0008F4F9F4F0895E89409C097FB3EF490958F
:100AD0008095709561957F4F8F4F9F4F9923A9F017
:100AE000F92F96E9BB279395F695879577956795A6
:100AF000B795F111F8CFFAF4BB0F11F460FF1BC0EA
:100B00006F5F7F4F8F4F9F4F16C0882311F096E97C
:100B100011C0772321F09EE8872F762F05C066232A
:100B200071F096E8862F70E060E02AF09A95660FE3
:100B3000771F881FDAF7880F9695879597F908959C
:100B4000990F0008550FAA0BE0E8FEEF16161706DE
:100B5000E807F907C0F012161306E407F50798F046
:100B6000621B730B840B950B39F40A2661F0232B5F
:100B7000242B252B21F408950A2609F4A140A695DB
:100B80008FEF811D811D089597F99F6780E870E0C0
:100B900060E008959FEF80EC089500240A941616F3
:100BA000170618060906089500240A94121613065B
:100BB000140605060895092E0394000C11F48823E9
:100BC00052F0BB0F40F4BF2B11F460FF04C06F5F05
:100BD0007F4F8F4F9F4F089557FD9058440F551FDB
:100BE00059F05F3F71F04795880F97FB991F61F0AF
:100BF0009F3F79F087950895121613061406551F26
:100C0000F2CF4695F1DF08C0161617061806991F91
:100C1000F1CF86957105610508940895E894BB2786
:100C200066277727CB0197F908950E9428060C9430
:100C3000DB050E94CD0538F00E94D40520F09523F5
:100C400011F00C94C4050C94CA0511240C940F06E1
:100C50000E94EC0570F3959FC1F3950F50E0551F6E
:100C6000629FF001729FBB27F00DB11D639FAA2701
:100C7000F00DB11DAA1F649F6627B00DA11D661F50
:100C8000829F2227B00DA11D621F739FB00DA11D71
:100C9000621F839FA00D611D221F749F3327A00D2B
:100CA000611D231F849F600D211D822F762F6A2FC7
:100CB00011249F5750409AF0F1F088234AF0EE0F2C
:100CC000FF1FBB1F661F771F881F91505040A9F759
:100CD0009E3F510580F00C94C4050C940F065F3FB5
:100CE000E4F3983ED4F3869577956795B795F79595
:100CF000E7959F5FC1F7FE2B880F911D969587950D
:100D000097F908950F931F93CF93DF93009731F4D2
:100D10006115710519F480E090E03AC08B01EC0197
:100D20006EE070E081E090E00E94DC08FC01892B1D
:100D300091F380E883830115110571F01387028711
:100D400081E883838091B2029091B302892B21F4D0
:100D5000F093B302E093B2022097C9F0D187C08725
:100D60008381826083838091B4029091B502892B44
:100D700071F4F093B502E093B4028091B6029091C1
:100D8000B702892B21F4F093B702E093B602CF01AA
:100D9000DF91CF911F910F910895CF93DF93CDB73E
:100DA000DEB7AE014A5F5F4FFA0161917191AF0109
:100DB0008091B4029091B5020E94E106DF91CF913B
:100DC00008952F923F924F925F926F927F928F92EF
:100DD0009F92AF92BF92CF92DF92EF92FF920F93CA
:100DE0001F93CF93DF93CDB7DEB72C970FB6F89450
:100DF000DEBF0FBECDBF7C016B018A01FC011782F3
:100E00001682838181FFBDC1CE0101964C01F7019D
:100E10009381F60193FD859193FF81916F01882362
:100E200009F4ABC1853239F493FD859193FF81912B
:100E30006F01853229F4B70190E00E94420AE7CFA2
:100E4000512C312C20E02032A0F48B3269F030F4A8
:100E5000803259F0833269F420612CC08D3239F030
:100E6000803339F4216026C02260246023C02860CA
:100E700021C027FD27C030ED380F3A3078F426FF27
:100E800006C0FAE05F9E300D1124532E13C08AE095
:100E9000389E300D1124332E20620CC08E3221F486
:100EA00026FD6BC1206406C08C3611F4206802C098
:100EB000883641F4F60193FD859193FF81916F018E
:100EC0008111C1CF982F9F7D9554933028F40C5FEA
:100ED0001F4FFFE3F9830DC0833631F0833771F084
:100EE000833509F05BC022C0F801808189830E5FE1
:100EF0001F4F44244394512C540115C03801F2E093
:100F00006F0E711CF801A080B18026FF03C0652D13
:100F100070E002C06FEF7FEFC5012C870E94370A97
:100F20002C0183012C852F77222E17C03801F2E087
:100F30006F0E711CF801A080B18026FF03C0652DE3
:100F400070E002C06FEF7FEFC5012C870E94250A79
:100F50002C012C852068222E830123FC1BC0832DAD
:100F600090E048165906B0F4B70180E290E00E9484
:100F7000420A3A94F4CFF50127FC859127FE81912E
:100F80005F01B70190E00E94420A31103A94F1E00B
:100F90004F1A51084114510471F7E5C0843611F01D
:100FA000893639F5F80127FF07C060817181828198
:100FB00093810C5F1F4F08C060817181072E000C68
:100FC000880B990B0E5F1F4F2F76722E97FF09C06B
:100FD00090958095709561957F4F8F4F9F4F2068BA
:100FE000722E2AE030E0A4010E947A0AA82EA818E6
:100FF00044C0853729F42F7EB22E2AE030E025C088
:10100000F22FF97FBF2E8F36C1F018F4883579F0B2
:10101000B4C0803719F0883721F0AFC02F2F20617E
:10102000B22EB4FE0DC08B2D8460B82E09C024FFF3
:101030000AC09F2F9660B92E06C028E030E005C098
:1010400020E130E002C020E132E0F801B7FE07C045
:1010500060817181828193810C5F1F4F06C0608126
:10106000718180E090E00E5F1F4FA4010E947A0A18
:10107000A82EA818FB2DFF777F2E76FE0BC0372DEC
:101080003E7FA51450F474FE0AC072FC08C0372DD0
:101090003E7E05C0BA2C372D03C0BA2C01C0B52C3A
:1010A00034FF0DC0FE01EA0DF11D8081803311F483
:1010B000397E09C032FF06C0B394B39404C0832FB5
:1010C000867809F0B39433FD13C030FF06C05A2C64
:1010D000B31418F4530C5B18B32CB31468F4B701B1
:1010E00080E290E03C870E94420AB3943C85F5CFB1
:1010F000B31410F43B1801C0312C34FF12C0B701F7
:1011000080E390E03C870E94420A3C8532FF17C092
:1011100031FD03C088E790E002C088E590E0B701A8
:101120000CC0832F867859F031FF02C08BE201C0DA
:1011300080E237FD8DE2B70190E00E94420AA514DB
:1011400038F4B70180E390E00E94420A5A94F7CF46
:10115000AA94F401EA0DF11D8081B70190E00E948C
:10116000420AA110F5CF332009F451CEB70180E235
:1011700090E00E94420A3A94F6CFF7018681978167
:1011800002C08FEF9FEF2C960FB6F894DEBF0FBE14
:10119000CDBFDF91CF911F910F91FF90EF90DF9026
:1011A000CF90BF90AF909F908F907F906F905F9007
:1011B0004F903F902F9008950F931F93CF93DF93FD
:1011C000869F8001879F100D969F100D1124C801E6
:1011D0000E94F808EC01009729F0A80160E070E097
:1011E0000E94300ACE01DF91CF911F910F91089597
:1011F000CF93DF938230910510F482E090E0E0918C
:10120000BA02F091BB0220E030E0C0E0D0E03097BD
:1012100011F14081518148175907C0F0481759070B
:1012200061F482819381209719F09B838A832BC07C
:101230009093BB028093BA0226C02115310519F0A4
:101240004217530718F49A01BE01DF01EF01028033
:10125000F381E02DDCCF2115310509F1281B390B75
:101260002430310590F412968D919C91139761155D
:10127000710521F0FB019383828304C09093BB022C
:101280008093BA02FD01329644C0FD01E20FF31FC4
:1012900081939193225031092D933C933AC0209130
:1012A000B8023091B902232B41F42091020230910F
:1012B00003023093B9022093B802209100023091CA
:1012C00001022115310541F42DB73EB740910402CA
:1012D00050910502241B350BE091B802F091B90240
:1012E000E217F307A0F42E1B3F0B2817390778F0FD
:1012F000AC014E5F5F4F2417350748F04E0F5F1F5C
:101300005093B9024093B8028193919302C0E0E0F8
:10131000F0E0CF01DF91CF9108950F931F93CF930A
:10132000DF93009709F48CC0FC013297138212827C
:101330000091BA021091BB020115110581F42081C0
:101340003181820F931F2091B8023091B902281782
:10135000390779F5F093B902E093B80271C0D8016A
:1013600040E050E0AE17BF0750F412962D913C912B
:101370001397AD012115310509F1D901F3CF9D0175
:10138000DA013383228360817181860F971F821770
:10139000930769F4EC0128813981260F371F2E5FEE
:1013A0003F4F318320838A819B8193838283452BA6
:1013B00029F4F093BB02E093BA0242C01396FC9367
:1013C000EE931297ED01499159919E01240F351F1B
:1013D000E217F30771F480819181840F951F0296C3
:1013E00011969C938E938281938113969C938E93F6
:1013F0001297E0E0F0E0D80112968D919C9113973E
:10140000009719F0F8018C01F6CF8D919C9198010D
:101410002E5F3F4F820F931F2091B8023091B90287
:101420002817390769F4309729F41092BB021092FB
:10143000BA0202C0138212821093B9020093B8025A
:10144000DF91CF911F910F910895FC01059061509C
:1014500070400110D8F7809590958E0F9F1F0895CA
:10146000DC0101C06D9341505040E0F70895FC014C
:101470006150704001900110D8F7809590958E0FC3
:101480009F1F08950F931F93CF93DF93FB01238139
:1014900021FD03C08FEF9FEF28C022FF16C04681B9
:1014A0005781248135814217530744F4A081B181CB
:1014B0009D012F5F3F4F318320838C93268137819D
:1014C0002F5F3F4F3783268310C0EB01092F182F62
:1014D0000084F185E02D1995892BE1F68E819F819D
:1014E00001969F838E83812F902FDF91CF911F9143
:1014F0000F910895FA01AA27283051F1203181F186
:10150000E8946F936E7F6E5F7F4F8F4F9F4FAF4F0B
:10151000B1E03ED0B4E03CD0670F781F891F9A1F1E
:10152000A11D680F791F8A1F911DA11D6A0F711DD2
:10153000811D911DA11D20D009F468943F912AE0DE
:10154000269F11243019305D3193DEF6CF010895C6
:10155000462F4770405D4193B3E00FD0C9F7F6CFF7
:10156000462F4F70405D4A3318F0495D31FD4052BF
:10157000419302D0A9F7EACFB4E0A6959795879555
:1015800077956795BA95C9F7009761057105089534
:101590009B01AC010A2E06945795479537952795E0
:1015A000BA95C9F7620F731F841F951FA01D089578
:0415B000F894FFCFDD
:1015B4000000BC022000583A2025640A0D004D4367
:1015C4005032353135206973204E4F5420696E20D6
:1015D400436F6E66696775726174696F6E206D6FB3
:1015E4006465206166746572207265736574212078
:1015F400436F6E6669672062697473206172653A2D
:101604002025780A0D0063616E20636F6E74726F1B
:101614006C2072656769737465723A20202578209E
:101624000A0D00447574795F7363616C65643A20D4
:1016340025640A0D00543A2025640A0D004475748B
:10164400795F6379636C653A2025640A0D0054322E
:101654003A2025640A0D0054333A2025640A0D000B
:00000001FF
