:100000000C9476000C9497000C9497000C94970035
:100010000C9497000C9497000C9497000C94970004
:100020000C9497000C9497000C9497000C949700F4
:100030000C9497000C9497000C9497000C949700E4
:100040000C9497000C9497000C9497000C949700D4
:100050000C9497000C9497000C9497000C949700C4
:100060000C9497000C9497000C9497000C949700B4
:100070000C9497000C9497000C9497000C949700A4
:100080000C9497000C9497000C9497000C94970094
:100090000C9497000C9497000C9497000C94970084
:1000A0000C9497000C9497000C9497000C94970074
:1000B0000C9497000C9497000C9497000C94970064
:1000C0000C9497000C9497000C9497000C94970054
:1000D0000C9497000C9497000C9497000C94970044
:1000E0000C9497000C94DB000C94D30011241FBED9
:1000F000CFEFD1E2DEBFCDBF00E00CBF12E0A0E049
:10010000B2E0EEECF7E100E00BBF02C007900D9209
:10011000A83DB107D9F722E0A8EDB2E001C01D92D9
:10012000A03FB207E1F70E9499000C94E50B0C94F4
:10013000000087E690E00E94F30080E00E94B40196
:100140000E94A6030E944B040F2EF8E0EF2EF2E06F
:10015000FF2EF02D05E112E00E94E00499279F9305
:100160008F93FF92EF920E94DA07C0E0D0E0BE01C9
:1001700080E090E00E948C02CB818C2F0E94AD0326
:100180008C2F0C2E000C990B9F93CF931F930F93E2
:100190000E94DA078DB79EB708960FB6F8949EBFF7
:1001A0000FBE8DBFD9CFE0ECF0E0908195FFFDCF81
:1001B0008093C6000895E0ECF0E080818823ECF79E
:1001C0008091C6000895E4E6F0E020812D7F208331
:1001D0009093C5008093C40088E18093C1008EE0B5
:1001E0008093C20008950E94E3006BED70E083ED00
:1001F00090E00E948F07089584B1876884B98CB518
:1002000081658CBD08958EBD0DB407FEFDCF0895A8
:1002100080E00E9403018EB50895882319F0813093
:1002200019F008952F9808952F9A0895CF93C82F05
:1002300080E00E940D0183E00E9403018C2F0E9448
:1002400003010E940801C82F81E00E940D018C2F3C
:10025000CF910895CF93DF93C82FD62F80E00E94CF
:100260000D0182E00E9403018D2F0E9403018C2F5B
:100270000E94030181E00E940D01DF91CF9108955A
:10028000CF93C82F80E00E940D01C13051F028F0BB
:10029000C23059F0C33069F00FC081E80E940301F9
:1002A0000BC082E80E94030107C084E80E9403019A
:1002B00003C087E80E94030181E00E940D01CF91F5
:1002C0000895CF9380E00E940D0180EA0E9403010F
:1002D0000E940801C82F81E00E940D018C2FCF9150
:1002E00008951F93CF93DF93182FD62FC42F80E04C
:1002F0000E940D0185E00E940301812F0E940301ED
:100300008D2F0E9403018C2F0E94030181E00E9427
:100310000D01DF91CF911F91089580E00E940D01A2
:1003200080EC0E94030181E00E940D0183EC99E0C2
:100330000197F1F700C0000008950E94FC000E94A0
:100340008D018EE00E941601807E803861F01F9240
:100350008F938DE192E09F938F930E94DA070F9025
:100360000F900F900F900895CF93C82F0E949D017A
:100370006FE08C2F0E942A018FE00E9416011F92CD
:100380008F9385E692E09F938F930E94DA070F90F8
:100390000F900F900F90CF910895EF92FF920F93CF
:1003A0001F93CF93DF93CDB7DEB72B970FB6F8949B
:1003B000DEBF0FBECDBF7C0150E0022F10E0011563
:1003C000110571F0A62FB72FFE013496BE01600F04
:1003D000711F6C5F7F4F9D919193E617F707D9F7D7
:1003E0005A8349832B838BE0FE013196D70101901C
:1003F0000D928A95E1F7C7012B960FB6F894DEBFF0
:100400000FBECDBFDF91CF911F910F91FF90EF9065
:100410000895EF92FF920F931F93CF93DF938C0178
:100420008091D8029091D9020196833091052CF4E5
:100430009093D9028093D80204C01092D9021092EE
:10044000D802F801208131817901F7E0EF22FF2401
:10045000C8EDD2E068816295607F6F5CC9019695B6
:10046000879596958795969587950E942A0168812C
:100470006295607F6E5C8E2D8295880F807E0E94D3
:100480002A0168816295607F6B5CF80182810E941D
:100490002A01F80182818823D1F0C0E00F2EF8ED07
:1004A000EF2EF2E0FF2EF02DF70180816C2FF0E1AE
:1004B0008F9F600D11246A5CF801EC0FF11D8381A0
:1004C0000E942A01CF5FF8018281C81768F38091EA
:1004D000D8029091D9028130910551F08230910576
:1004E00061F0892B71F460E388E00E942A0109C061
:1004F00060E488E00E942A0104C060E588E00E9470
:100500002A018091D8020E944001DF91CF911F9172
:100510000F91FF90EF900895EF92FF920F931F932A
:10052000CF93DF937C018B01D82FD295D07F81E6CA
:100530008D0F0E941601C82F82E68D0F0E941601B2
:10054000807E282F30E036952795329522952F70A2
:1005500023273F702327C90148E0C49F800D911DC8
:100560001124F8019183808385E68D0F0E94160186
:100570008F70F8018283882379F0C0E0DA598D2FDB
:100580008C0F0E941601F801EC0FF11D8383CF5FE1
:10059000F8019281C91798F3E114F10421F0EA946B
:1005A000EF2831F009C061E080E00E942A0104C018
:1005B00062E080E00E942A01F801C081D181CE0171
:1005C00096958795969587959695879561E30E9470
:1005D0002A0162E38C2F8295880F807E0E942A0177
:1005E00065E3F80182810E942A01F8018281882353
:1005F00071F0C0E066E36C0FF801EC0FF11D838130
:100600000E942A01CF5FF8018281C81798F38CE21B
:100610000E9416018E7F8F7D6CE20E942A01DF917D
:10062000CF911F910F91FF90EF900895A1E8B0E056
:100630009C9198619C93E0E8F0E0908192609083B7
:1006400090819E7F90839C9194609C939C919D7FD0
:100650009C939C919E7F9C93259A90819068908317
:1006600090819F7B9083282F30E0322F2227032E0A
:10067000000C440B550B60E074E284EF90E00E94A4
:100680001C052150310930938700209386008CE5AA
:1006900090E0909389008093880008950F931F93B2
:1006A000CF93682F70E064567109072E000C880BF9
:1006B000990B0E94720620E030E04AE752E40E9463
:1006C000220720E030E048EC52E40E94CF0520E011
:1006D00030E046E752E40E945E050E944106C62FC4
:1006E000062F10E01F926F9382E892E09F938F9302
:1006F0000E94DA07B801110F880B990B0E9472064D
:100700000F900F900F900F9020E030E046E752E4FA
:100710000E94CA0588233CF48DE390E09093890001
:10072000809388000FC0CD3738F08CE790E090932D
:1007300089008093880006C06C2F70E07093890058
:1007400060938800CF911F910F91089582E30E94DA
:10075000160308950E944E030895CF93C82F1F9249
:100760001F9284E992E09F938F930E94DA070F9083
:100770000F900F900F90C630CCF16C2FCC0F770BF1
:1007800065507109072E000C880B990B0E947206A8
:1007900020E030E040E05FE30E9422079B01AC01D3
:1007A00060E070E086E193E40E945D050E944106EE
:1007B000C62F1F926F938CE992E09F938F930E94B4
:1007C000DA078C2F0E944E031F9282E08F938DEAEE
:1007D00092E09F938F930E94DA078DB79EB7089699
:1007E0000FB6F8949EBF0FBE8DBF2CC0CB3F54F503
:1007F0006BEF7FEF6C1B7109C7FD7395072E000C23
:10080000880B990B0E94720620E030E040E05FE325
:100810000E94220720E030E046E153E40E945E059A
:100820000E944106862F0E944E031F9283E08F9301
:1008300086EB92E09F938F930E94DA070F900F90C0
:100840000F900F90CF910895EAE7F0E080818064E7
:100850008083808184FFFDCF209178008091790092
:100860002295269526952370880F880F90E0820F99
:10087000911D08958098EAE7F0E080818768808381
:10088000ECE7F0E08081806C8083808180628083EF
:100890000E9424040895CF930E943A04909101028B
:1008A000992341F0EEEDF2E080E0119211928F5F1A
:1008B0008917D8F3C091DD020E942404EC2FF0E0E8
:1008C000EE0FFF1FE252FD4F91838083E091DD0226
:1008D000F0E0EE0FFF1FE252FD4F80819181909377
:1008E000DC028093DB028091DB029091DC029F931B
:1008F0008F938FEB92E09F938F930E94DA070F9074
:100900000F900F900F90CF910895CF93DF93809128
:10091000DB029091DC02E091DD02F0E0EE0FFF1FC0
:10092000E252FD4F20813181821B930B9093DC02B8
:100930008093DB02C091DD020E942404EC2FF0E0E2
:10094000EE0FFF1FE252FD4F91838083E091DD02A5
:100950002091DB023091DC02F0E0EE0FFF1FE2524B
:10096000FD4F80819181820F931F9093DC028093D1
:10097000DB028091DD028F5F8093DD028091DD02DA
:1009800060910102861710F01092DD028091DB0267
:100990009091DC0270E00E940805D62FC72F7F934C
:1009A0006F9389EC92E09F938F930E94DA070F90E8
:1009B0000F900F900F908D2F9C2FDF91CF91089566
:1009C0000E9485048536910560F4809100028111B2
:1009D00008C08091DA028F5F8093DA0281E0809311
:1009E00000020E9485048E3F910530F08091000244
:1009F000813011F4109200028091DA0290E00895A3
:100A00000E94E00421E0449708F420E0822F08953A
:100A1000AA1BBB1B51E107C0AA1FBB1FA617B70724
:100A200010F0A61BB70B881F991F5A95A9F7809540
:100A30009095BC01CD010895052E97FB1EF40094FE
:100A40000E94330557FD07D00E943B0507FC03D0E9
:100A50004EF40C94330550954095309521953F4FB9
:100A60004F4F5F4F089590958095709561957F4F9A
:100A70008F4F9F4F0895A1E21A2EAA1BBB1BFD01A9
:100A80000DC0AA1FBB1FEE1FFF1FA217B307E4076D
:100A9000F50720F0A21BB30BE40BF50B661F771FC5
:100AA000881F991F1A9469F76095709580959095A5
:100AB0009B01AC01BD01CF0108955058BB27AA2767
:100AC0000E9475050C94E8060E94DA0638F00E9430
:100AD000E10620F039F49F3F19F426F40C94D70670
:100AE0000EF4E095E7FB0C94D106E92F0E94F9067D
:100AF00058F3BA17620773078407950720F079F453
:100B0000A6F50C941B070EF4E0950B2EBA2FA02D22
:100B10000B01B90190010C01CA01A0011124FF27AA
:100B2000591B99F0593F50F4503E68F11A16F040A5
:100B3000A22F232F342F4427585FF3CF46953795A4
:100B40002795A795F0405395C9F77EF41F16BA0B69
:100B5000620B730B840BBAF09150A1F0FF0FBB1F17
:100B6000661F771F881FC2F70EC0BA0F621F731F60
:100B7000841F48F4879577956795B795F7959E3FBD
:100B800008F0B0CF9395880F08F09927EE0F97954E
:100B9000879508950E94AD0608F481E008950E94AB
:100BA000E3050C94E8060E94E10658F00E94DA067C
:100BB00040F029F45F3F29F00C94D10651110C94B8
:100BC0001C070C94D7060E94F90668F39923B1F329
:100BD000552391F3951B550BBB27AA276217730763
:100BE000840738F09F5F5F4F220F331F441FAA1FF7
:100BF000A9F335D00E2E3AF0E0E832D091505040B3
:100C0000E695001CCAF72BD0FE2F29D0660F771F60
:100C1000881FBB1F261737074807AB07B0E809F046
:100C2000BB0B802DBF01FF2793585F4F3AF09E3FCB
:100C3000510578F00C94D1060C941C075F3FE4F347
:100C4000983ED4F3869577956795B795F7959F5F0E
:100C5000C9F7880F911D9695879597F90895E1E05A
:100C6000660F771F881FBB1F621773078407BA07B9
:100C700020F0621B730B840BBA0BEE1F88F7E09514
:100C800008950E94010788F09F5798F0B92F99277F
:100C9000B751B0F0E1F0660F771F881F991F1AF067
:100CA000BA95C9F714C0B13091F00E941B07B1E0AA
:100CB00008950C941B07672F782F8827B85F39F0A9
:100CC000B93FCCF3869577956795B395D9F73EF400
:100CD00090958095709561957F4F8F4F9F4F0895A8
:100CE000E89409C097FB3EF49095809570956195C6
:100CF0007F4F8F4F9F4F9923A9F0F92F96E9BB277C
:100D00009395F695879577956795B795F111F8CFF7
:100D1000FAF4BB0F11F460FF1BC06F5F7F4F8F4F62
:100D20009F4F16C0882311F096E911C0772321F058
:100D30009EE8872F762F05C0662371F096E8862FF0
:100D400070E060E02AF09A95660F771F881FDAF747
:100D5000880F9695879597F90895990F0008550F74
:100D6000AA0BE0E8FEEF16161706E807F907C0F031
:100D700012161306E407F50798F0621B730B840B39
:100D8000950B39F40A2661F0232B242B252B21F413
:100D900008950A2609F4A140A6958FEF811D811DB3
:100DA000089597F99F6780E870E060E008959FEFED
:100DB00080EC089500240A941616170618060906F2
:100DC000089500240A9412161306140605060895C1
:100DD000092E0394000C11F4882352F0BB0F40F449
:100DE000BF2B11F460FF04C06F5F7F4F8F4F9F4F89
:100DF000089557FD9058440F551F59F05F3F71F00B
:100E00004795880F97FB991F61F09F3F79F0879571
:100E10000895121613061406551FF2CF4695F1DFFA
:100E200008C0161617061806991FF1CF869571058A
:100E3000610508940895E894BB2766277727CB01BE
:100E400097F908950E9435070C94E8060E94DA0687
:100E500038F00E94E10620F0952311F00C94D106A1
:100E60000C94D70611240C941C070E94F90670F309
:100E7000959FC1F3950F50E0551F629FF001729F3F
:100E8000BB27F00DB11D639FAA27F00DB11DAA1F4E
:100E9000649F6627B00DA11D661F829F2227B00D9B
:100EA000A11D621F739FB00DA11D621F839FA00D26
:100EB000611D221F749F3327A00D611D231F849F76
:100EC000600D211D822F762F6A2F11249F575040CD
:100ED0009AF0F1F088234AF0EE0FFF1FBB1F661F48
:100EE000771F881F91505040A9F79E3F510580F011
:100EF0000C94D1060C941C075F3FE4F3983ED4F3A6
:100F0000869577956795B795F795E7959F5FC1F7B4
:100F1000FE2B880F911D9695879597F908950F934D
:100F20001F93CF93DF93009731F46115710519F486
:100F300080E090E03AC08B01EC016EE070E081E06F
:100F400090E00E94E909FC01892B91F380E88383FA
:100F50000115110571F01387028781E88383809161
:100F6000E6029091E702892B21F4F093E702E093E7
:100F7000E6022097C9F0D187C0878381826083838E
:100F80008091E8029091E902892B71F4F093E902D3
:100F9000E093E8028091EA029091EB02892B21F420
:100FA000F093EB02E093EA02CF01DF91CF911F9122
:100FB0000F910895CF93DF93CDB7DEB7AE014A5FAF
:100FC0005F4FFA0161917191AF018091E8029091B8
:100FD000E9020E94EE07DF91CF9108952F923F9290
:100FE0004F925F926F927F928F929F92AF92BF9239
:100FF000CF92DF92EF92FF920F931F93CF93DF93E5
:10100000CDB7DEB72C970FB6F894DEBF0FBECDBFBD
:101010007C016B018A01FC0117821682838181FFAA
:10102000BDC1CE0101964C01F7019381F60193FDFC
:10103000859193FF81916F01882309F4ABC18532BB
:1010400039F493FD859193FF81916F01853229F4E5
:10105000B70190E00E944F0BE7CF512C312C20E0DC
:101060002032A0F48B3269F030F4803259F08332B0
:1010700069F420612CC08D3239F0803339F421605D
:1010800026C02260246023C0286021C027FD27C01D
:1010900030ED380F3A3078F426FF06C0FAE05F9E54
:1010A000300D1124532E13C08AE0389E300D1124C8
:1010B000332E20620CC08E3221F426FD6BC12064D9
:1010C00006C08C3611F4206802C0883641F4F6015F
:1010D00093FD859193FF81916F018111C1CF982F6D
:1010E0009F7D9554933028F40C5F1F4FFFE3F983E5
:1010F0000DC0833631F0833771F0833509F05BC062
:1011000022C0F801808189830E5F1F4F44244394DD
:10111000512C540115C03801F2E06F0E711CF8011A
:10112000A080B18026FF03C0652D70E002C06FEF84
:101130007FEFC5012C870E94440B2C0183012C8575
:101140002F77222E17C03801F2E06F0E711CF801C4
:10115000A080B18026FF03C0652D70E002C06FEF54
:101160007FEFC5012C870E94320B2C012C85206853
:10117000222E830123FC1BC0832D90E048165906C4
:10118000B0F4B70180E290E00E944F0B3A94F4CFA4
:10119000F50127FC859127FE81915F01B70190E061
:1011A0000E944F0B31103A94F1E04F1A510841144C
:1011B000510471F7E5C0843611F0893639F5F8012C
:1011C00027FF07C060817181828193810C5F1F4F6F
:1011D00008C060817181072E000C880B990B0E5F8F
:1011E0001F4F2F76722E97FF09C0909580957095AE
:1011F00061957F4F8F4F9F4F2068722E2AE030E01D
:10120000A4010E94870BA82EA81844C0853729F492
:101210002F7EB22E2AE030E025C0F22FF97FBF2EBC
:101220008F36C1F018F4883579F0B4C0803719F0E2
:10123000883721F0AFC02F2F2061B22EB4FE0DC031
:101240008B2D8460B82E09C024FF0AC09F2F9660A2
:10125000B92E06C028E030E005C020E130E002C031
:1012600020E132E0F801B7FE07C060817181828120
:1012700093810C5F1F4F06C06081718180E090E018
:101280000E5F1F4FA4010E94870BA82EA818FB2DEC
:10129000FF777F2E76FE0BC0372D3E7FA51450F4CE
:1012A00074FE0AC072FC08C0372D3E7E05C0BA2C01
:1012B000372D03C0BA2C01C0B52C34FF0DC0FE0180
:1012C000EA0DF11D8081803311F4397E09C032FFAF
:1012D00006C0B394B39404C0832F867809F0B39406
:1012E00033FD13C030FF06C05A2CB31418F4530C4E
:1012F0005B18B32CB31468F4B70180E290E03C872C
:101300000E944F0BB3943C85F5CFB31410F43B18F7
:1013100001C0312C34FF12C0B70180E390E03C875C
:101320000E944F0B3C8532FF17C031FD03C088E798
:1013300090E002C088E590E0B7010CC0832F86786A
:1013400059F031FF02C08BE201C080E237FD8DE22F
:10135000B70190E00E944F0BA51438F4B70180E369
:1013600090E00E944F0B5A94F7CFAA94F401EA0D33
:10137000F11D8081B70190E00E944F0BA110F5CFC5
:10138000332009F451CEB70180E290E00E944F0B68
:101390003A94F6CFF7018681978102C08FEF9FEFD5
:1013A0002C960FB6F894DEBF0FBECDBFDF91CF9164
:1013B0001F910F91FF90EF90DF90CF90BF90AF9073
:1013C0009F908F907F906F905F904F903F902F9065
:1013D00008950F931F93CF93DF93869F8001879F7C
:1013E000100D969F100D1124C8010E94050AEC01F2
:1013F000009729F0A80160E070E00E943D0BCE014B
:10140000DF91CF911F910F910895CF93DF93823099
:10141000910510F482E090E0E091EE02F091EF028D
:1014200020E030E0C0E0D0E0309711F14081518100
:1014300048175907C0F04817590761F48281938112
:10144000209719F09B838A832BC09093EF0280939F
:10145000EE0226C02115310519F04217530718F482
:101460009A01BE01DF01EF010280F381E02DDCCFA4
:101470002115310509F1281B390B2430310590F471
:1014800012968D919C9113976115710521F0FB01C6
:101490009383828304C09093EF028093EE02FD0158
:1014A000329644C0FD01E20FF31F819391932250C5
:1014B00031092D933C933AC02091EC023091ED021A
:1014C000232B41F420910402309105023093ED0268
:1014D0002093EC0220910202309103022115310584
:1014E00041F42DB73EB74091060250910702241BEC
:1014F000350BE091EC02F091ED02E217F307A0F456
:101500002E1B3F0B2817390778F0AC014E5F5F4F59
:101510002417350748F04E0F5F1F5093ED0240939C
:10152000EC028193919302C0E0E0F0E0CF01DF9103
:10153000CF9108950F931F93CF93DF93009709F4F2
:101540008CC0FC013297138212820091EE0210913E
:10155000EF020115110581F420813181820F931F63
:101560002091EC023091ED022817390779F5F093BC
:10157000ED02E093EC0271C0D80140E050E0AE17FC
:10158000BF0750F412962D913C911397AD01211590
:10159000310509F1D901F3CF9D01DA0133832283AB
:1015A00060817181860F971F8217930769F4EC01A0
:1015B00028813981260F371F2E5F3F4F31832083CB
:1015C0008A819B8193838283452B29F4F093EF02D8
:1015D000E093EE0242C01396FC93EE931297ED0156
:1015E000499159919E01240F351FE217F30771F4B9
:1015F00080819181840F951F029611969C938E9302
:101600008281938113969C938E931297E0E0F0E091
:10161000D80112968D919C911397009719F0F801BB
:101620008C01F6CF8D919C9198012E5F3F4F820FD8
:10163000931F2091EC023091ED022817390769F4CD
:10164000309729F41092EF021092EE0202C013823A
:1016500012821093ED020093EC02DF91CF911F9163
:101660000F910895FC010590615070400110D8F76A
:10167000809590958E0F9F1F0895DC0101C06D939A
:1016800041505040E0F70895FC01615070400190D6
:101690000110D8F7809590958E0F9F1F08950F9396
:1016A0001F93CF93DF93FB01238121FD03C08FEFB5
:1016B0009FEF28C022FF16C04681578124813581C3
:1016C0004217530744F4A081B1819D012F5F3F4F22
:1016D000318320838C93268137812F5F3F4F37835F
:1016E000268310C0EB01092F182F0084F185E02D0F
:1016F0001995892BE1F68E819F8101969F838E83B8
:10170000812F902FDF91CF911F910F910895FA01B2
:10171000AA27283051F1203181F1E8946F936E7F30
:101720006E5F7F4F8F4F9F4FAF4FB1E03ED0B4E021
:101730003CD0670F781F891F9A1FA11D680F791F62
:101740008A1F911DA11D6A0F711D811D911DA11D73
:1017500020D009F468943F912AE0269F1124301983
:10176000305D3193DEF6CF010895462F4770405D1E
:101770004193B3E00FD0C9F7F6CF462F4F70405DCD
:101780004A3318F0495D31FD4052419302D0A9F728
:10179000EACFB4E0A6959795879577956795BA9522
:1017A000C9F700976105710508959B01AC010A2EE8
:1017B00006945795479537952795BA95C9F7620FBF
:0E17C000731F841F951FA01D0895F894FFCF7E
:1017CE0001040000F002200053636F72653A202579
:1017DE0064200A0D00583A2025640A0D004D43502E
:1017EE0032353135206973204E4F5420696E2043B7
:1017FE006F6E66696775726174696F6E206D6F6466
:10180E00652061667465722072657365742120436C
:10181E006F6E6669672062697473206172653A2023
:10182E0025780A0D0063616E20636F6E74726F6CA3
:10183E002072656769737465723A20202578200AD4
:10184E000D00447574795F7363616C65643A20258D
:10185E00640A0D00543A2025640A0D00447574790B
:10186E005F6379636C653A2025640A0D0054323A41
:10187E002025640A0D0054333A2025640A0D0053C6
:10188E00554D3A2025780A0D0041766572616765DF
:08189E003A2025780A0D000034
:00000001FF
