:100000000C94B9020C94D6020C94D6020C94D6022D
:100010000C94D6020C94D6020C94D6020C94D60200
:100020000C94D6020C94D6020C94D6020C94D602F0
:100030000C94D6020C94D6020C94D6020C94D602E0
:100040000C94D6020C94D6020C94D6020C94D602D0
:100050000C94D6020C94D6020C94D6020C94D602C0
:100060000C94D6020C94D6020C94D6020C94D602B0
:10007000084AD73B3BCE016E84BCBFFDC12F3D6C0F
:1000800074319ABD56833DDA3D00C77F11BED9E475
:10009000BB4C3E916BAAAABE000000803F0000004E
:1000A00000000000000000065F5F0600000000077F
:1000B000070007070000147F7F147F7F1400242EA1
:1000C0006B6B3A120000466630180C666200307A9C
:1000D0004F5D377A48000407030000000000001C51
:1000E0003E63410000000041633E1C000000082AFE
:1000F0003E1C1C3E2A0808083E3E0808000000A0DE
:10010000E06000000000080808080808000000007F
:100110006060000000006030180C060301003E7FA4
:10012000594D7F3E000042427F7F40400000627395
:1001300059496F660000226349497F360000181C48
:1001400016137F7F1000276745457D3900003C7EF0
:100150004B4979300000036371190F070000367FA7
:1001600049497F360000064F49693F1E00000000E4
:100170006C6C0000000000A0EC6C00000000081C8B
:1001800036634100000014141414141400000041DC
:1001900063361C080000020351590F0600003E7F21
:1001A000415D5D1F1E007C7E13137E7C0000417F3D
:1001B0007F49497F36001C3E634141632200417FF5
:1001C0007F41637F1C00417F7F495D416300417F28
:1001D0007F491D0103001C3E6341517372007F7F04
:1001E00008087F7F000000417F7F410000003070E1
:1001F00040417F3F0100417F7F081C776300417FC2
:100200007F41406070007F7F060C067F7F007F7F0C
:10021000060C187F7F001C3E6341633E1C00417F3B
:100220007F49090F06001E3F21717F5E0000417F5C
:100230007F19396F460026674D597B320000034114
:100240007F7F410300007F7F40407F7F00001F3F92
:1002500060603F1F00007F7F3018307F7F00637732
:100260001C081C776300074F78784F0700006773FE
:10027000594D47637100007F7F4141000000010339
:10028000060C183060000041417F7F000000080C20
:100290000603060C0800808080808080808000003B
:1002A000030704000000207454543C784000413F90
:1002B0007F44447C3800387C44446C28000030780B
:1002C00048493F7F4000387C54545C180000487E09
:1002D0007F490302000098BCA4A4F87C0400417F7D
:1002E0007F08047C780000447D7D4000000040C40D
:1002F00084FD7D000000417F7F10386C4400004188
:100300007F7F400000007C7C0C180C7C78007C7C9B
:1003100004047C780000387C44447C38000084FC71
:10032000F8A4243C1800183C24A4F8FC8400447C65
:1003300078441C180000485C5454742400000004E5
:100340003E7F442400003C7C40403C7C40001C3C00
:1003500060603C1C00003C7C6030607C3C00446C75
:100360003810386C44009CBCA0A0FC7C00004C649D
:10037000745C4C64000008083E77414100000000B6
:100380000077770000004141773E08080000020333
:10039000010302030100000000000000005F0000F4
:1003A0000007000700147F147F14242A7F2A1223D9
:1003B0001308646236495522500005030000001CF2
:1003C0002241000041221C00082A1C2A0808083E7D
:1003D00008080050300000080808080800606000A5
:1003E0000020100804023E5149453E00427F400073
:1003F00042615149462141454B311814127F102763
:10040000454545393C4A494930017109050336499A
:10041000494936064949291E00363600000056363D
:10042000000000081422411414141414412214086A
:10043000000201510906324979413E7E1111117EB7
:100440007F494949363E414141227F4141221C7F3B
:10045000494949417F090901013E414151327F0823
:1004600008087F00417F41002040413F017F081480
:1004700022417F404040407F0204027F7F040810F9
:100480007F3E4141413E7F090909063E4151215EBF
:100490007F09192946464949493101017F01013F38
:1004A0004040403F1F2040201F7F2018207F6314C2
:1004B0000814630304780403615149454300007F35
:1004C0004141020408102041417F00000402010262
:1004D000044040404040000102040020545454783D
:1004E0007F484444383844444420384444487F38A2
:1004F00054545418087E090102081454543C7F08CF
:1005000004047800447D40002040443D00007F10FA
:10051000284400417F40007C041804787C080404CF
:100520007838444444387C14141408081414187C93
:100530007C080404084854545420043F4440203CA0
:100540004040207C1C2040201C3C4030403C442843
:100550001028440C5050503C4464544C440008361D
:10056000410000007F000000413608000201030244
:10057000010011241FBECFEFD4E0DEBFCDBF12E0DB
:10058000A0E0B1E0E0E3F9E202C005900D92AA3DDF
:10059000B107D9F722E0AAEDB2E001C01D92AA3E50
:1005A000B207E1F70E94D8020C9496140C94000054
:1005B000CF93DF93CDB7DEB728970FB6F894DEBFA1
:1005C0000FBECDBF8FE190E00E942F030E94B505C2
:1005D0000E94BE07CE0101960E94640880E00E943E
:1005E000FE0900E010E0EE24E394F12CC12CD12CA4
:1005F000BE01695F7F4F80E090E00E94580BCE0102
:1006000001960E949C080115110551F40E94A40551
:10061000892B89F0CE0101960E94E8080E2D1F2D2E
:100620000E94A405892B21F70E94AA05892B01F7B6
:100630000C2D1D2DDDCF0E94AA05892B59F7F0CF77
:100640005D9BFECF8CB908955F9BFECF8CB1089562
:1006500090BD89B988E18AB98EE880BD08950E946D
:10066000280364E273E080E293E00E94CA100895D8
:1006700085B7806885BF80B7806280BF0895CF92BC
:10068000DF92EF92FF920F931F93CF93DF938EE051
:1006900091E00E942B110E94BA107C010E94BF10B1
:1006A000C12CD12CC0E0D0E004E211E00E94BA10CD
:1006B000F601F85E808320812817A1F099279F9387
:1006C0008F931F922F93DF92CF921F930F930E94CD
:1006D000151121968DB79EB708960FB6F8949EBF58
:1006E0000FBE8DBF9FEFC91AD90AC11488E0D80682
:1006F000E9F6C7010E94BF1000E010E0E12CF12CE8
:100700000F2EFDE5CF2EF1E0DF2EF02D0E94BA1066
:10071000F801F85E20812817B1F099279F938F93F5
:100720001F922F931F930F93DF92CF920E94151168
:100730009FEFE91AF90A8DB79EB708960FB6F8949D
:100740009EBF0FBE8DBF0F5F1F4F011598E01907A9
:10075000E9F6FF92EF92DF93CF938AE991E09F93BE
:100760008F930E9415110F900F900F900F900F9084
:100770000F90DF91CF911F910F91FF90EF90DF903D
:10078000CF90089585B7806885BF80B7806280BFAD
:100790000895E0E0F4E1808381E48A95F1F700C0F8
:1007A00080810895E0E0F4E184E0808381E48A952B
:1007B000F1F700C080810895E0E0F4E185E08083F6
:1007C00081E48A95F1F700C080810895E0E0F4E1CA
:1007D00086E0808381E48A95F1F700C080810895E6
:1007E000E0E0F4E187E0808381E48A95F1F700C0DE
:1007F000808108959FE094BB15BA880F880F85BB50
:10080000089591E09ABB1BBA94E09BBB833039F00A
:10081000843041F0823041F481E08BBB089582E066
:100820008BBB089583E08BBB08958E9A882311F0CB
:10083000969A0895969808958F9A882311F0979A1A
:100840000895979808950E94D2038093DB020E9436
:10085000DC038093DA020895FF920F931F93CF93E6
:10086000DF930E94C2030E94D203C82F0E94DC03C0
:10087000F82E0C2F10E01F92CF9383EF91E09F93FF
:100880008F930E941511CF2DD0E01F92FF928FEF12
:1008900091E09F938F930E941511B801110F880B5F
:1008A000990B0E94EC0D20E030E04FEF52E40E94E3
:1008B0005E0C0E94B40D062E000C770B880B990B72
:1008C0000E94EC0D20E030E04FEF52E40E94420D18
:1008D00020E030E048EC52E40E94D00E0E94B40DBB
:1008E000162FBE01DD0F880B990B0E94EC0D20E046
:1008F00030E04FEF52E40E945E0C0E94B40D062ED1
:10090000000C770B880B990B0E94EC0D20E030E077
:100910004FEF52E40E94420D20E030E048EC52E4F8
:100920000E94D00E0E94B40D962F2DB73EB7285FBF
:100930003F4F0FB6F8943EBF0FBE2DBF812FDF9102
:10094000CF911F910F91FF900895CF92DF92EF9278
:10095000FF92CF93DF930E942C04D82FC92F682FCA
:10096000880F770B880B990B0E94EC0D6B017C01B3
:100970006C2F0C2E000C770B880B990B0E94EC0D42
:10098000A70196010E94DE0C0E94B40D44EB469F25
:100990009001479F300D1124B901330F880B990B3B
:1009A0000E94EC0D20ED3FE049E450E40E94420D2E
:1009B0006B017C01CB5FCB3020F4DB5FDB3008F4D4
:1009C00052C020E030E044E352E4C701B6010E9487
:1009D000C30E88235CF020E030E047E053E4C70119
:1009E000B6010E943D0D18160CF040C020E030E02A
:1009F00044E352ECC701B6010E943D0D181654F0B5
:100A000020E030E047E053ECC701B6010E94C30E7E
:100A100088237CF520E030E044E352E4C701B601CE
:100A20000E943D0D181654F020E030E044E352ECF3
:100A3000C701B6010E94C30E8823F4F420E030E021
:100A400047E053E4C701B6010E94C30E8823BCF4FB
:100A500020E030E047E053ECC701B6010E943D0DB5
:100A6000181684F411C084E090E00EC080E090E09D
:100A70000BC081E090E008C083E090E005C082E018
:100A800090E002C082E090E0DF91CF91FF90EF9084
:100A9000DF90CF900895BA9886B380E090E00895F3
:100AA000CF93DF930E94F003D82F0E94E603C82F54
:100AB0006D2F70E080E090E00E94EC0D20E030E0CF
:100AC0004FEF52E40E945E0C0E94B40D062E000C03
:100AD000770B880B990B0E94EC0D20E030E04FEF74
:100AE00052E40E94420D20E030E048EC52E40E94C3
:100AF000D00E0E94B40DD62F6C2F70E080E090E0F5
:100B00000E94EC0D20E030E04FEF52E40E945E0CBA
:100B10000E94B40D062E000C770B880B990B0E94D7
:100B2000EC0D20E030E04FEF52E40E94420D20E057
:100B300030E048EC52E40E94D00E0E94B40D962F93
:100B40008D2FDF91CF910895B99886B386958170E6
:100B500090E00895B89886B3817090E00895E09190
:100B60000201F09103018083089585B7806885BFF5
:100B700080B7806280BFE0910201F09103018EEAAC
:100B80008083E0910201F091030181EA8083E0918A
:100B90000201F09103018AED8083E0910201F0915E
:100BA000030182E18083E0910201F091030188E07A
:100BB0008083E0910201F091030188EA8083E09153
:100BC0000201F09103018FE38083E0910201F09133
:100BD000030185ED8083E0910201F091030180E83B
:100BE0008083E0910201F091030181E88083E0912C
:100BF0000201F091030180E58083E0910201F09110
:100C0000030189ED8083E0910201F091030181E20B
:100C10008083E0910201F091030180E28083E09102
:100C20000201F091030182E08083E0910201F091E2
:100C300003018BED8083E0910201F091030180E3D9
:100C40008083E0910201F09103018DEA8083E091BD
:100C50000201F09103011082E0910201F091030181
:100C600084EA8083E0910201F091030186EA8083A7
:100C7000E0910201F09103018FEA8083E09102018B
:100C8000F091030188EC80830895E0910001F091D8
:100C9000010180830895E0910201F091030191E246
:100CA0009083E0910201F09103018083E0910201C1
:100CB000F091030160830895E0910201F091030136
:100CC00092E29083E0910201F09103018083E09130
:100CD0000201F091030160830895E0910201F09117
:100CE0000301982F9F70908382958F708061E091AF
:100CF0000201F091030180830895E0910201F091D7
:100D00000301806B80830895E0910201F09103015B
:100D100080E28083E0910201F091030110826FE78D
:100D200080E00E944B0667E080E00E945C0680E065
:100D300094E0E0910001F091010110820197C9F760
:100D4000E0910201F091030180E28083E0910201D1
:100D5000F091030182E080830895CF93C62FE09144
:100D60000201F091030190E29083E0910201F09181
:100D7000030192E090830E946D068C2F0E947D06F5
:100D8000E0910001F091010188E18083E091000190
:100D9000F09101018083E0910001F09101019EE753
:100DA0009083E0910001F09101019CE39083E09138
:100DB0000001F09101018083CF910895653039F5EC
:100DC00040EE480F242F30E0A901440F551F440F77
:100DD000551F420F531F20E030E0F901E40FF51FCB
:100DE000EA56FC4FE491A0910001B0910101EC930F
:100DF0002F5F3F4F2530310581F790E08B509240B7
:100E000029F1E0910001F09101011082089568300C
:100E1000E9F4805290E0FC01EE0FFF1FEE0FFF1F80
:100E2000EE0FFF1FE256FF4F880F991F880F991F83
:100E3000880F991F8A559F4F2491A0910001B0916E
:100E400001012C933196E817F907B1F70895DF9265
:100E5000EF92FF920F931F93CF93DF938C01D62EC7
:100E60007C01C0E0D0E007C06D2DF70181917F01CA
:100E70000E94DE062196F80101900020E9F73197E3
:100E8000E01BF10BCE17DF0778F3DF91CF911F91B5
:100E90000F91FF90EF90DF900895CF92DF92EF9245
:100EA000FF921F93CF93DF936C017B01142F86E099
:100EB00090E00E94410FEC01D982C882FB82EA8255
:100EC000812F90E0880F991F0E94410F9D838C8392
:100ED000CE01DF91CF911F91FF90EF90DF90CF90E7
:100EE000089550E0440F551FFC0184819581FC0159
:100EF000E40FF51F718360830895CF93DF93EC01B6
:100F0000888199819F938F938DE092E09F938F9337
:100F10000E9415110E94840680E00E947D0684E1F3
:100F20000E946D068881998168E00E94270782E00F
:100F30000E947D0680E20E946D06EC81FD81019099
:100F4000F081E02D65E0808191810E94270784E097
:100F50000E947D0680E20E946D06EC81FD81028088
:100F6000F381E02D65E0808191810E9427070F9039
:100F70000F900F900F90DF91CF910895CF92DF9255
:100F8000EF92FF920F931F93CF93DF9342E060E0C5
:100F900070E089E192E00E944D07EC0142E0BC0163
:100FA00088E492E00E944D078C0142E0BE0183E29A
:100FB00092E00E944D076C0142E0B80182E392E0AA
:100FC0000E944D077C0142E0B80182E492E00E9459
:100FD0004D07EC81FD81D182C082EC81FD811383BC
:100FE0000283D8011496ED91FC911597F182E0826D
:100FF0001496ED91FC91159793838283D093DF0231
:10100000C093DE02CE010E947D07DF91CF911F9138
:101010000F91FF90EF90DF90CF900895AF92BF9225
:10102000CF92DF92EF92FF920F931F93CF93DF93B4
:101030007C01EB015A01690189E192E0F70191839A
:1010400080831382128284E090E00E94410FF701B6
:1010500095838483FC01D183C0831383028389E158
:1010600092E00E942B1188E492E099838883FB82AE
:10107000EA8284E090E00E94410F9D838C83FC0112
:10108000B182A082D382C28282E392E0F501918391
:101090008083D383C28382E492E0F60191838083CC
:1010A000D383C28383E292E0F80191838083F38249
:1010B000E282DF91CF911F910F91FF90EF90DF902F
:1010C000CF90BF90AF900895FC0182E090E09183B3
:1010D000808384E090E0938382831482158262E0AF
:1010E00084E10E94AD060895CF93DF93EC010E9446
:1010F0002C048C839D83DF91CF910895CF939C0125
:101100009FEF960F9430A0F4C62FF90180810E94C2
:101110007D0684E10E946D0665E08BE092E00E940E
:1011200027076C2F84E10E94AD0681E090E002C0A9
:1011300080E090E0CF910895CF93DF93EC010E947F
:10114000A5048130910521F0D0F0049769F135C0F4
:101150008A819B81049741F581E090E09B838A839B
:1011600068816E5FCE010E947E08892B49F18881DB
:10117000998102969983888381E090E026C08A81D4
:101180009B81049789F41B821A8268816250CE0188
:101190000E947E08892BB9F08881998102979983F2
:1011A000888380E090E011C06881CE010E947E08B3
:1011B00084E090E09B838A8308C08FEF9FEF05C097
:1011C00081E090E002C080E090E0DF91CF9108954F
:1011D0000F931F93CF93DF93EC010E94A405892BFB
:1011E00009F041C00E94AA05892BE9F542C000E040
:1011F00010E028813981332314F42F5F3F4F359558
:101200002795215031092017310799F4E091DE022A
:10121000F091DF020480F581E02D220F331FE20FF1
:10122000F31F808191819093DF028093DE020E9400
:101230007D070F5F1F4F02301105D9F60E94AA05E6
:10124000892BB9F0E091DE02F091DF028281938177
:10125000892B79F0828193819093DF028093DE0263
:101260000E947D0706C00E94A405892B09F0BFCF0C
:10127000E5CFDF91CF911F910F91089587B3806BD8
:1012800087BB8DB181658DB908958FB9779BFECFEE
:1012900008958AEA0E9445098FB10895BC9A88236F
:1012A00019F0813011F00895C498C49A08958823E4
:1012B00019F0813019F00895C4980895C49A0895DA
:1012C000CF93C82F80E00E94570983E00E94450910
:1012D0008C2F0E9445090E944909C82F81E00E9475
:1012E00057098C2FCF910895CF93DF93C82FD62F16
:1012F00080E00E94570982E00E9445098D2F0E94DC
:1013000045098C2F0E94450981E00E945709DF9111
:10131000CF910895CF93C82F80E00E945709C13024
:1013200051F028F0C23059F0C33069F00FC081E8A5
:101330000E9445090BC082E80E94450907C084E865
:101340000E94450903C087E80E94450981E00E9488
:101350005709CF910895CF9380E00E94570980EA02
:101360000E9445090E944909C82F81E00E9457093F
:101370008C2FCF9108951F93CF93DF93182FD62FE3
:10138000C42F80E00E94570985E00E944509812F03
:101390000E9445098D2F0E9445098C2F0E94450906
:1013A00081E00E945709DF91CF911F91089580E05D
:1013B0000E94570980EC0E94450981E00E9457096C
:1013C0008FEF9FE20197F1F700C0000008950E949F
:1013D0003E090E94D7098EE00E946009807E803815
:1013E00061F01F928F9383E592E09F938F930E9409
:1013F00015110F900F900F900F900895CF93C82F55
:101400000E94E7096FE08C2F0E9474098FE00E9410
:1014100060091F928F938BE992E09F938F930E94B4
:1014200015110F900F900F900F90CF910895EF929C
:10143000FF920F931F93CF93DF93CDB7DEB72B9718
:101440000FB6F894DEBF0FBECDBF7C0150E0022F77
:1014500010E00115110571F0A62FB72FFE0134968B
:10146000BE01600F711F6C5F7F4F9D919193E617D6
:10147000F707D9F75A8349832B838BE0FE01319616
:10148000D70101900D928A95E1F7C7012B960FB60F
:10149000F894DEBF0FBECDBFDF91CF911F910F91AA
:1014A000FF90EF900895EF92FF920F931F93CF93C9
:1014B000DF938C018091DC029091DD0201968330F4
:1014C00091052CF49093DD028093DC0204C010920D
:1014D000DD021092DC02F801208131817901F7E010
:1014E000EF22FF24CCEDD2E068816295607F6F5CD3
:1014F000C9019695879596958795969587950E94AB
:10150000740968816295607F6E5C8E2D8295880F6C
:10151000807E0E94740968816295607F6B5CF8012F
:1015200082810E947409F80182818823D1F0C0E091
:101530000F2EFCEDEF2EF2E0FF2EF02DF701808153
:101540006C2FF0E18F9F600D11246A5CF801EC0FA5
:10155000F11D83810E947409CF5FF8018281C81751
:1015600068F38091DC029091DD028130910551F0A9
:101570008230910561F0892B71F460E388E00E946C
:10158000740909C060E488E00E94740904C060E541
:1015900088E00E9474098091DC020E948A09DF9130
:1015A000CF911F910F91FF90EF900895EF92FF92CE
:1015B0000F931F93CF93DF937C018B01D82FD2958C
:1015C000D07F81E68D0F0E946009C82F82E68D0FC3
:1015D0000E946009807E282F30E03695279532954D
:1015E00022952F7023273F702327C90148E0C49F0D
:1015F000800D911D1124F8019183808385E68D0F64
:101600000E9460098F70F8018283882379F0C0E01E
:10161000DA598D2F8C0F0E946009F801EC0FF11D33
:101620008383CF5FF8019281C91798F3E114F10425
:1016300021F0EA94EF2831F009C061E080E00E94D7
:10164000740904C062E080E00E947409F801C0815E
:10165000D181CE0196958795969587959695879594
:1016600061E30E94740962E38C2F8295880F807E6B
:101670000E94740965E3F80182810E947409F801EF
:101680008281882371F0C0E066E36C0FF801EC0FF3
:10169000F11D83810E947409CF5FF8018281C81710
:1016A00098F3DF91CF911F910F91FF90EF900895E4
:1016B0000F931F93CF93DF93EC018B010E942C04B7
:1016C000198218828B839C83282F082E000C330BE1
:1016D0003F938F9388EB92E09F938F930E94151115
:1016E0008C81282F082E000C330B3F938F9389ECAD
:1016F00092E09F938F930E94151182E08A838B81E1
:10170000082E000C990B99231CF491958195910951
:10171000F8012081022E000C330B33231CF4319589
:1017200021953109821B930B2DB73EB7285F3F4FA0
:101730000FB6F8943EBF0FBE2DBF0697BCF48C8148
:10174000082E000C990B99231CF491958195910911
:10175000F8012181022E000C330B33231CF4319548
:1017600021953109821B930B069734F0CE010E941C
:10177000530A8A81882371F0DE011396F80140E054
:1017800050E08D9181934F5F5F4F2A8130E0421787
:101790005307B8F3DF91CF911F910F9108950F93E5
:1017A0001F93CF93DF93EC010E94F003082F0E9458
:1017B000E603182F0E942C04198218828B839C83C5
:1017C0000D831E8384E08A83CE010E94530ADF9139
:1017D000CF911F910F910895DF92EF92FF920F9397
:1017E0001F93CF93DF93EC01F62E8A010E94F00342
:1017F000D82E0E94E603E82E0E942C04198218823B
:101800008B839C83DD82EE8284E08A83CE010E94FA
:10181000530A8D81082E000C990B8F199109069798
:101820001CF0CE010E94530A8B81082E000C990BEC
:1018300099231CF4919581959109F8012081022E3C
:10184000000C330B33231CF4319521953109821B95
:10185000930B0697BCF48C81082E000C990B9923EE
:101860001CF4919581959109F8012181022E000CBB
:10187000330B33231CF4319521953109821B930BD3
:1018800006971CF0CE010E94530A8A81882371F0CA
:10189000DE011396F80160E070E08D9181936F5F37
:1018A0007F4F2A8130E062177307B8F3DF91CF9141
:1018B0001F910F91FF90EF90DF9008955058BB2734
:1018C000AA270E94760C0C94890E0E947B0E38F099
:1018D0000E94820E20F039F49F3F19F426F40C94F4
:1018E000510E0EF4E095E7FB0C944B0EE92F0E948D
:1018F0009A0E58F3BA17620773078407950720F00A
:1019000079F4A6F50C94BC0E0EF4E0950B2EBA2FCC
:10191000A02D0B01B90190010C01CA01A0011124F5
:10192000FF27591B99F0593F50F4503E68F11A16A1
:10193000F040A22F232F342F4427585FF3CF469532
:1019400037952795A795F0405395C9F77EF41F1654
:10195000BA0B620B730B840BBAF09150A1F0FF0F1E
:10196000BB1F661F771F881FC2F70EC0BA0F621F0A
:10197000731F841F48F4879577956795B795F795FA
:101980009E3F08F0B0CF9395880F08F09927EE0F8F
:101990009795879508950E947B0E60F080E891E00E
:1019A00009F49EEF0E94820E28F040E851E071F4A5
:1019B0005EEF0CC00C94510E0C94BC0EE92FE07835
:1019C0000E949A0E40F3092E052AB1F32617370715
:1019D0004807590738F00E2E07F8E02569F0E02592
:1019E000E0640AC0EF6307F8009407FADB01B9016D
:1019F0009D01DC01CA01AD01EF930E94590D0E94C7
:101A0000890E0E940E0D5F91552339F02BED3FE0BA
:101A100049E450FD49EC0C945F0C0895DF93DD27F9
:101A2000B92FBF7740E85FE31616170648075B0734
:101A300018F4D92F0E94C80E9F938F937F936F93B2
:101A40000E943D0FE0E7F0E00E94540E0E94890ED4
:101A50002F913F914F915F910E94E30EDD2351F052
:101A60009058A2EA2AED3FE049EC5FE3D0785D2789
:101A70000E94760CDF910C94890E0E94270E08F4C8
:101A800081E008950E94560D0C94890E0E94820EEA
:101A900058F00E947B0E40F029F45F3F29F00C942F
:101AA0004B0E51110C94BD0E0C94510E0E949A0EC7
:101AB00068F39923B1F3552391F3951B550BBB277D
:101AC000AA2762177307840738F09F5F5F4F220FC2
:101AD000331F441FAA1FA9F335D00E2E3AF0E0E8B9
:101AE00032D091505040E695001CCAF72BD0FE2F03
:101AF00029D0660F771F881FBB1F26173707480797
:101B0000AB07B0E809F0BB0B802DBF01FF2793584E
:101B10005F4F3AF09E3F510578F00C944B0E0C94B9
:101B2000BD0E5F3FE4F3983ED4F3869577956795B5
:101B3000B795F7959F5FC9F7880F911D9695879583
:101B400097F90895E1E0660F771F881FBB1F6217A2
:101B500073078407BA0720F0621B730B840BBA0B60
:101B6000EE1F88F7E09508950E94BB0D6894B111AF
:101B70000C94BD0E08950E94A20E88F09F5798F015
:101B8000B92F9927B751B0F0E1F0660F771F881F82
:101B9000991F1AF0BA95C9F714C0B13091F00E949C
:101BA000BC0EB1E008950C94BC0E672F782F8827E7
:101BB000B85F39F0B93FCCF3869577956795B395C3
:101BC000D9F73EF490958095709561957F4F8F4F32
:101BD0009F4F0895E89409C097FB3EF49095809537
:101BE000709561957F4F8F4F9F4F9923A9F0F92FE3
:101BF00096E9BB279395F695879577956795B79561
:101C0000F111F8CFFAF4BB0F11F460FF1BC06F5F46
:101C10007F4F8F4F9F4F16C0882311F096E911C058
:101C2000772321F09EE8872F762F05C0662371F079
:101C300096E8862F70E060E02AF09A95660F771F8D
:101C4000881FDAF7880F9695879597F90895990F69
:101C50000008550FAA0BE0E8FEEF16161706E80776
:101C6000F907C0F012161306E407F50798F0621B97
:101C7000730B840B950B39F40A2661F0232B242B6C
:101C8000252B21F408950A2609F4A140A6958FEF8B
:101C9000811D811D089597F99F6780E870E060E0DD
:101CA00008959FEF80EC0895DF93CF931F930F93D8
:101CB000FF92EF92DF927B018C01689406C0DA2ECE
:101CC000EF010E94E30EFE01E894A5912591359164
:101CD00045915591A6F3EF010E94760CFE01970104
:101CE000A801DA9469F7DF90EF90FF900F911F91B0
:101CF000CF91DF91089500240A941616170618064E
:101D00000906089500240A941216130614060506FF
:101D10000895092E0394000C11F4882352F0BB0F90
:101D200040F4BF2B11F460FF04C06F5F7F4F8F4FF3
:101D30009F4F089557FD9058440F551F59F05F3F2E
:101D400071F04795880F97FB991F61F09F3F79F0DD
:101D500087950895121613061406551FF2CF46955F
:101D6000F1DF08C0161617061806991FF1CF8695E1
:101D70007105610508940895E894BB2766277727C5
:101D8000CB0197F908950E94270E08F48FEF08956C
:101D90009B01AC0160E070E080E89FE30C94420D91
:101DA0000E94E30E0C94890E0E947B0E38F00E9474
:101DB000820E20F0952311F00C944B0E0C94510ED2
:101DC00011240C94BD0E0E949A0E70F3959FC1F3DE
:101DD000950F50E0551F629FF001729FBB27F00DD9
:101DE000B11D639FAA27F00DB11DAA1F649F66272E
:101DF000B00DA11D661F829F2227B00DA11D621F7D
:101E0000739FB00DA11D621F839FA00D611D221F36
:101E1000749F3327A00D611D231F849F600D211D1A
:101E2000822F762F6A2F11249F5750409AF0F1F09D
:101E300088234AF0EE0FFF1FBB1F661F771F881F06
:101E400091505040A9F79E3F510580F00C944B0EE5
:101E50000C94BD0E5F3FE4F3983ED4F386957795DE
:101E60006795B795F795E7959F5FC1F7FE2B880FAC
:101E7000911D9695879597F908959B01AC010C9457
:101E8000D00ECF93DF938230910510F482E090E082
:101E9000E091E202F091E30220E030E0C0E0D0E027
:101EA000309711F14081518148175907C0F0481708
:101EB000590761F482819381209719F09B838A836B
:101EC0002BC09093E3028093E20226C021153105D6
:101ED00019F04217530718F49A01BE01DF01EF0110
:101EE0000280F381E02DDCCF2115310509F1281B9B
:101EF000390B2430310590F412968D919C911397F3
:101F00006115710521F0FB019383828304C09093D6
:101F1000E3028093E202FD01329644C0FD01E20F2C
:101F2000F31F81939193225031092D933C933AC032
:101F30002091E0023091E102232B41F4209106012F
:101F4000309107013093E1022093E00220910401D7
:101F5000309105012115310541F42DB73EB740916F
:101F6000080150910901241B350BE091E002F0912A
:101F7000E102E217F307A0F42E1B3F0B28173907E5
:101F800078F0AC014E5F5F4F2417350748F04E0FD5
:101F90005F1F5093E1024093E0028193919302C04E
:101FA000E0E0F0E0CF01DF91CF9108950F931F9310
:101FB000CF93DF93009709F48CC0FC013297138212
:101FC00012820091E2021091E3020115110581F4E1
:101FD00020813181820F931F2091E0023091E10234
:101FE0002817390779F5F093E102E093E00271C018
:101FF000D80140E050E0AE17BF0750F412962D9183
:102000003C911397AD012115310509F1D901F3CFA9
:102010009D01DA013383228360817181860F971FCE
:102020008217930769F4EC0128813981260F371F45
:102030002E5F3F4F318320838A819B8193838283EC
:10204000452B29F4F093E302E093E20242C0139699
:10205000FC93EE931297ED01499159919E01240F43
:10206000351FE217F30771F480819181840F951F6A
:10207000029611969C938E938281938113969C93E2
:102080008E931297E0E0F0E0D80112968D919C912A
:102090001397009719F0F8018C01F6CF8D919C9160
:1020A00098012E5F3F4F820F931F2091E0023091E5
:1020B000E1022817390769F4309729F41092E302F6
:1020C0001092E20202C0138212821093E102009386
:1020D000E002DF91CF911F910F9108958F929F920F
:1020E000AF92BF92CF92DF92EF92FF92CF93DF93A6
:1020F000EC01688179818A819B8161157105810577
:10210000910521F464E279ED8BE597E02DE133EF61
:1021100041E050E00E94FC1349015A019B01AC01CF
:10212000A7EAB1E40E941B146B017C01ACEEB4EF92
:10213000A50194010E942914DC01CB018C0D9D1D89
:10214000AE1DBF1DB7FF03C00197A109B04888832A
:102150009983AA83BB839F77DF91CF91FF90EF9004
:10216000DF90CF90BF90AF909F908F9008950E9486
:102170006E1008958AE091E00E946E100895A0E02C
:10218000B0E080930A0190930B01A0930C01B093EF
:102190000D0108950F931F93CF93DF93009731F4B0
:1021A0006115710519F480E090E03AC08B01EC01F3
:1021B0006EE070E081E090E00E942D13FC01892B1D
:1021C00091F380E883830115110571F0138702876D
:1021D00081E883838091E4029091E502892B21F4C8
:1021E000F093E502E093E4022097C9F0D187C0871D
:1021F0008381826083838091E6029091E702892B3C
:1022000071F4F093E702E093E6028091E802909186
:10221000E902892B21F4F093E902E093E802CF016F
:10222000DF91CF911F910F910895A0E0B0E0EBE115
:10223000F1E10C943E14AE014B5F5F4FFA016191E6
:102240007191AF018091E6029091E7020E945B11CB
:10225000E2E00C945A140F931F93CF93DF93E09115
:10226000E602F091E702238121FF1BC08C01D0E040
:10227000C0E0F80181918F016091E6027091E70260
:10228000DB011896ED91FC911997882331F009959F
:10229000892B79F3DFEFCFEFECCF8AE00995892B1B
:1022A00019F08FEF9FEF02C08D2F9C2FDF91CF9100
:1022B0001F910F910895ACE0B0E0E1E6F1E10C94DC
:1022C0002E147C016B018A01FC0117821682838126
:1022D00081FFBDC1CE0101964C01F7019381F6014A
:1022E00093FD859193FF81916F01882309F4ABC120
:1022F000853239F493FD859193FF81916F01853289
:1023000029F4B70190E00E946613E7CF512C312CDD
:1023100020E02032A0F48B3269F030F4803259F0A2
:10232000833269F420612CC08D3239F0803339F466
:10233000216026C02260246023C0286021C027FDC0
:1023400027C030ED380F3A3078F426FF06C0FAE0A7
:102350005F9E300D1124532E13C08AE0389E300D3D
:102360001124332E20620CC08E3221F426FD6BC165
:10237000206406C08C3611F4206802C0883641F40F
:10238000F60193FD859193FF81916F018111C1CF7A
:10239000982F9F7D9554933028F40C5F1F4FFFE3D7
:1023A000F9830DC0833631F0833771F0833509F03E
:1023B0005BC022C0F801808189830E5F1F4F4424D7
:1023C0004394512C540115C03801F2E06F0E711C7A
:1023D000F801A080B18026FF03C0652D70E002C027
:1023E0006FEF7FEFC5012C870E945B132C018301E7
:1023F0002C852F77222E17C03801F2E06F0E711C4A
:10240000F801A080B18026FF03C0652D70E002C0F6
:102410006FEF7FEFC5012C870E9449132C012C859B
:102420002068222E830123FC1BC0832D90E04816D8
:102430005906B0F4B70180E290E00E9466133A9426
:10244000F4CFF50127FC859127FE81915F01B7014B
:1024500090E00E94661331103A94F1E04F1A51084F
:102460004114510471F7E5C0843611F0893639F50D
:10247000F80127FF07C060817181828193810C5F21
:102480001F4F08C060817181072E000C880B990BCB
:102490000E5F1F4F2F76722E97FF09C09095809583
:1024A000709561957F4F8F4F9F4F2068722E2AE065
:1024B00030E0A4010E949E13A82EA81844C08537BE
:1024C00029F42F7EB22E2AE030E025C0F22FF97FCA
:1024D000BF2E8F36C1F018F4883579F0B4C080373C
:1024E00019F0883721F0AFC02F2F2061B22EB4FE33
:1024F0000DC08B2D8460B82E09C024FF0AC09F2F09
:102500009660B92E06C028E030E005C020E130E03A
:1025100002C020E132E0F801B7FE07C0608171819E
:10252000828193810C5F1F4F06C06081718180E0C2
:1025300090E00E5F1F4FA4010E949E13A82EA818C2
:10254000FB2DFF777F2E76FE0BC0372D3E7FA51427
:1025500050F474FE0AC072FC08C0372D3E7E05C0E0
:10256000BA2C372D03C0BA2C01C0B52C34FF0DC0D6
:10257000FE01EA0DF11D8081803311F4397E09C01E
:1025800032FF06C0B394B39404C0832F867809F059
:10259000B39433FD13C030FF06C05A2CB31418F4A3
:1025A000530C5B18B32CB31468F4B70180E290E0CD
:1025B0003C870E946613B3943C85F5CFB31410F4A6
:1025C0003B1801C0312C34FF12C0B70180E390E00A
:1025D0003C870E9466133C8532FF17C031FD03C063
:1025E00088E790E002C088E590E0B7010CC0832F37
:1025F000867859F031FF02C08BE201C080E237FDDE
:102600008DE2B70190E00E946613A51438F4B7017B
:1026100080E390E00E9466135A94F7CFAA94F401E5
:10262000EA0DF11D8081B70190E00E946613A110B0
:10263000F5CF332009F451CEB70180E290E00E943B
:1026400066133A94F6CFF7018681978102C08FEF27
:102650009FEF2C96E2E10C944A140F931F93CF93B3
:10266000DF93869F8001879F100D969F100D112488
:10267000C8010E94410FEC01009729F0A80160E019
:1026800070E00E945413CE01DF91CF911F910F9102
:102690000895FC010590615070400110D8F78095B5
:1026A00090958E0F9F1F0895DC0101C06D934150DE
:1026B0005040E0F70895FC01615070400190011016
:1026C000D8F7809590958E0F9F1F08950F931F93B5
:1026D000CF93DF93FB01238121FD03C08FEF9FEF99
:1026E00028C022FF16C046815781248135814217B8
:1026F000530744F4A081B1819D012F5F3F4F318387
:1027000020838C93268137812F5F3F4F3783268329
:1027100010C0EB01092F182F0084F185E02D0995D9
:10272000892BE1F68E819F8101969F838E83812F75
:10273000902FDF91CF911F910F910895FA01AA2751
:10274000283051F1203181F1E8946F936E7F6E5FF4
:102750007F4F8F4F9F4FAF4FB1E03ED0B4E03CD0A2
:10276000670F781F891F9A1FA11D680F791F8A1F85
:10277000911DA11D6A0F711D811D911DA11D20D0EC
:1027800009F468943F912AE0269F11243019305DA6
:102790003193DEF6CF010895462F4770405D419397
:1027A000B3E00FD0C9F7F6CF462F4F70405D4A33E4
:1027B00018F0495D31FD4052419302D0A9F7EACFAC
:1027C000B4E0A6959795879577956795BA95C9F7DB
:1027D00000976105710508959B01AC010A2E0694CE
:1027E0005795479537952795BA95C9F7620F731F87
:1027F000841F951FA01D0895052E97FB1EF40094BD
:102800000E94131457FD07D00E94651407FC03D0E3
:102810004EF40C94131450954095309521953F4FEC
:102820004F4F5F4F089590958095709561957F4FBC
:102830008F4F9F4F08950E948714A59F900DB49FBE
:10284000900DA49F800D911D11240895B7FF0C9445
:102850001B140E941B14821B930B08952F923F920E
:102860004F925F926F927F928F929F92AF92BF92A0
:10287000CF92DF92EF92FF920F931F93CF93DF934C
:10288000CDB7DEB7CA1BDB0B0FB6F894DEBF0FBEA9
:10289000CDBF09942A88398848885F846E847D84F6
:1028A0008C849B84AA84B984C884DF80EE80FD80F8
:1028B0000C811B81AA81B981CE0FD11D0FB6F8946E
:1028C000DEBF0FBECDBFED010895A1E21A2EAA1BF7
:1028D000BB1BFD010DC0AA1FBB1FEE1FFF1FA217D0
:1028E000B307E407F50720F0A21BB30BE40BF50BCD
:1028F000661F771F881F991F1A9469F76095709556
:10290000809590959B01AC01BD01CF010895A29FD8
:10291000B001B39FC001A39F700D811D1124911DB3
:10292000B29F700D811D1124911D0895F894FFCF61
:10293000001200100000EA022000010000005374A1
:10294000617274696E67205352414D2074657374CF
:102950002E2E2E0057726974652070686173652091
:102960006572726F723A206578745F72616D5B2573
:1029700034645D203D2025303258202873686F75FF
:102980006C642062652025303258290A0052657433
:1029900072696576616C207068617365206572721A
:1029A0006F723A206578745F72616D5B2534645D87
:1029B000203D2025303258202873686F756C6420C4
:1029C00062652025303258290A005352414D207447
:1029D00065737420636F6D706C65746564207769CE
:1029E0007468200A253464206572726F72732069DE
:1029F0006E20777269746520706861736520616EFE
:102A000064200A253464206572726F727320696EC7
:102A10002072657472696576616C20706861736597
:102A20000A0A00585F4144433A2025640A0D0059C0
:102A30005F4144433A2025640A0D00200054495464
:102A40004C453A2025730A0D004D41494E204D4515
:102A50004E55005354415254204E45572047414D46
:102A6000450053484F57204849474853434F524524
:102A700053005245534554204849474853434F5209
:102A80004553004D435032353135206973204E4F48
:102A90005420696E20436F6E666967757261746950
:102AA0006F6E206D6F64652061667465722072655B
:102AB0007365742120436F6E666967206269747361
:102AC000206172653A2025780A0D0063616E2063EB
:102AD0006F6E74726F6C2072656769737465723A99
:102AE00020202578200A0D00582E6A6F79737469AA
:102AF000636B3A2025640A0D00592E6A6F7973744E
:0A2B000069636B3A2025640A0D009A
:00000001FF
