:100000000C94B9020C94D6020C94D6020C94D6022D
:100010000C94D6020C94D6020C94D6020C94D60200
:100020000C94D6020C94D6020C94D6020C94D602F0
:100030000C94D6020C94D6020C94D6020C94D602E0
:100040000C94D6020C94D6020C94D6020C94D602D0
:100050000C94D6020C94D6020C94D6020C94D602C0
:100060000C94D6020C94D6020C94D6020C94D602B0
:10007000084AD73B3BCE016E84BCBFFDC12F3D6C0F
:1000800074319ABD56833DDA3D00C77F11BED9E475
:10009000BB4C3E916BAAAABE000000803F0000004E
:1000A00000000000000000065F5F0600000000077F
:1000B000070007070000147F7F147F7F1400242EA1
:1000C0006B6B3A120000466630180C666200307A9C
:1000D0004F5D377A48000407030000000000001C51
:1000E0003E63410000000041633E1C000000082AFE
:1000F0003E1C1C3E2A0808083E3E0808000000A0DE
:10010000E06000000000080808080808000000007F
:100110006060000000006030180C060301003E7FA4
:10012000594D7F3E000042427F7F40400000627395
:1001300059496F660000226349497F360000181C48
:1001400016137F7F1000276745457D3900003C7EF0
:100150004B4979300000036371190F070000367FA7
:1001600049497F360000064F49693F1E00000000E4
:100170006C6C0000000000A0EC6C00000000081C8B
:1001800036634100000014141414141400000041DC
:1001900063361C080000020351590F0600003E7F21
:1001A000415D5D1F1E007C7E13137E7C0000417F3D
:1001B0007F49497F36001C3E634141632200417FF5
:1001C0007F41637F1C00417F7F495D416300417F28
:1001D0007F491D0103001C3E6341517372007F7F04
:1001E00008087F7F000000417F7F410000003070E1
:1001F00040417F3F0100417F7F081C776300417FC2
:100200007F41406070007F7F060C067F7F007F7F0C
:10021000060C187F7F001C3E6341633E1C00417F3B
:100220007F49090F06001E3F21717F5E0000417F5C
:100230007F19396F460026674D597B320000034114
:100240007F7F410300007F7F40407F7F00001F3F92
:1002500060603F1F00007F7F3018307F7F00637732
:100260001C081C776300074F78784F0700006773FE
:10027000594D47637100007F7F4141000000010339
:10028000060C183060000041417F7F000000080C20
:100290000603060C0800808080808080808000003B
:1002A000030704000000207454543C784000413F90
:1002B0007F44447C3800387C44446C28000030780B
:1002C00048493F7F4000387C54545C180000487E09
:1002D0007F490302000098BCA4A4F87C0400417F7D
:1002E0007F08047C780000447D7D4000000040C40D
:1002F00084FD7D000000417F7F10386C4400004188
:100300007F7F400000007C7C0C180C7C78007C7C9B
:1003100004047C780000387C44447C38000084FC71
:10032000F8A4243C1800183C24A4F8FC8400447C65
:1003300078441C180000485C5454742400000004E5
:100340003E7F442400003C7C40403C7C40001C3C00
:1003500060603C1C00003C7C6030607C3C00446C75
:100360003810386C44009CBCA0A0FC7C00004C649D
:10037000745C4C64000008083E77414100000000B6
:100380000077770000004141773E08080000020333
:10039000010302030100000000000000005F0000F4
:1003A0000007000700147F147F14242A7F2A1223D9
:1003B0001308646236495522500005030000001CF2
:1003C0002241000041221C00082A1C2A0808083E7D
:1003D00008080050300000080808080800606000A5
:1003E0000020100804023E5149453E00427F400073
:1003F00042615149462141454B311814127F102763
:10040000454545393C4A494930017109050336499A
:10041000494936064949291E00363600000056363D
:10042000000000081422411414141414412214086A
:10043000000201510906324979413E7E1111117EB7
:100440007F494949363E414141227F4141221C7F3B
:10045000494949417F090901013E414151327F0823
:1004600008087F00417F41002040413F017F081480
:1004700022417F404040407F0204027F7F040810F9
:100480007F3E4141413E7F090909063E4151215EBF
:100490007F09192946464949493101017F01013F38
:1004A0004040403F1F2040201F7F2018207F6314C2
:1004B0000814630304780403615149454300007F35
:1004C0004141020408102041417F00000402010262
:1004D000044040404040000102040020545454783D
:1004E0007F484444383844444420384444487F38A2
:1004F00054545418087E090102081454543C7F08CF
:1005000004047800447D40002040443D00007F10FA
:10051000284400417F40007C041804787C080404CF
:100520007838444444387C14141408081414187C93
:100530007C080404084854545420043F4440203CA0
:100540004040207C1C2040201C3C4030403C442843
:100550001028440C5050503C4464544C440008361D
:10056000410000007F000000413608000201030244
:10057000010011241FBECFEFD4E0DEBFCDBF12E0DB
:10058000A0E0B1E0E4E0F9E202C005900D92AE3DDA
:10059000B107D9F722E0AEEDB2E001C01D92A13F54
:1005A000B207E1F70E94D8020C9480140C9400006A
:1005B000CF93DF93CDB7DEB728970FB6F894DEBFA1
:1005C0000FBECDBF8FE190E00E9430030E949305E3
:1005D0000E949C07CE0101960E94420880E00E9482
:1005E000DC0900E010E0EE24E394F12CC12CD12CC6
:1005F000AE01495F5F4F60E080E090E00E94C40B75
:10060000CE0101960E947A080115110551F40E944D
:100610008205892B89F0CE0101960E94C6080E2D15
:100620001F2D0E948205892B19F70E948805892BAE
:10063000F9F60C2D1D2DDCCF0E948805892B59F76A
:10064000F0CF5D9BFECF8CB908955F9BFECF8CB140
:10065000089590BD89B988E18AB98EE880BD089572
:100660000E94290365E273E081E293E00E94B410E6
:10067000089585B7806885BF80B7806280BF089580
:10068000CF92DF92EF92FF920F931F93CF93DF935E
:100690008EE091E00E9415110E94A4107C010E943E
:1006A000A910C12CD12CC0E0D0E004E211E00E94DE
:1006B000A410F601F85E808320812817A1F0992705
:1006C0009F938F931F922F93DF92CF921F930F933D
:1006D0000E94FF1021968DB79EB708960FB6F8942A
:1006E0009EBF0FBE8DBF9FEFC91AD90AC11488E003
:1006F000D806E9F6C7010E94A91000E010E0E12C3D
:10070000F12C0F2EFDE5CF2EF1E0DF2EF02D0E9413
:10071000A410F801F85E20812817B1F099279F9363
:100720008F931F922F931F930F93DF92CF920E946C
:10073000FF109FEFE91AF90A8DB79EB708960FB61A
:10074000F8949EBF0FBE8DBF0F5F1F4F011598E03D
:100750001907E9F6FF92EF92DF93CF938AE991E0D0
:100760009F938F930E94FF100F900F900F900F9008
:100770000F900F90DF91CF911F910F91FF90EF900D
:10078000DF90CF90089585B7806885BF80B780627D
:1007900080BF0895E0E0F4E1808381E48A95F1F779
:1007A00000C080810895E0E0F4E184E0808381E48A
:1007B0008A95F1F700C080810895E0E0F4E185E0DA
:1007C000808381E48A95F1F700C080810895E0E09C
:1007D000F4E186E0808381E48A95F1F700C08081AE
:1007E0000895E0E0F4E187E0808381E48A95F1F701
:1007F00000C0808108959FE094BB15BA880F880FD0
:1008000085BB089591E09ABB1BBA94E09BBB8330F3
:1008100039F0843041F0823041F481E08BBB08959F
:1008200082E08BBB089583E08BBB08958E9A88236A
:1008300011F0969A0895969808958F9A882311F04A
:10084000979A0895979808950E94D3038093DF02A2
:100850000E94DD038093DE020895CF93DF930E9410
:10086000C3030E94D303D82F0E94DD03C82F6D2F2E
:1008700070E080E090E00E94D60D20E030E04FEF85
:1008800052E40E94480C0E949E0D062E000C770B2D
:10089000880B990B0E94D60D20E030E04FEF52E418
:1008A0000E942C0D20E030E048EC52E40E94BA0E89
:1008B0000E949E0DD62F6C2F70E080E090E00E9489
:1008C000D60D20E030E04FEF52E40E94480C0E9429
:1008D0009E0D062E000C770B880B990B0E94D60DEF
:1008E00020E030E04FEF52E40E942C0D20E030E099
:1008F00048EC52E40E94BA0E0E949E0D962F8D2F56
:10090000DF91CF910895CF92DF92EF92FF92CF9334
:10091000DF930E942D04D82FC92F682F880F770BE3
:10092000880B990B0E94D60D6B017C016C2F0C2E4D
:10093000000C770B880B990B0E94D60DA70196012E
:100940000E94C80C0E949E0D44EB469F9001479F59
:10095000300D1124B901330F880B990B0E94D60D6D
:1009600020ED3FE049E450E40E942C0D6B017C0136
:10097000CB5FCB3020F4DB5FDB3008F452C020E0EB
:1009800030E044E352E4C701B6010E94AD0E882373
:100990005CF020E030E047E053E4C701B6010E947C
:1009A000270D18160CF040C020E030E044E352EC74
:1009B000C701B6010E94270D181654F020E030E060
:1009C00047E053ECC701B6010E94AD0E88237CF5C9
:1009D00020E030E044E352E4C701B6010E94270D55
:1009E000181654F020E030E044E352ECC701B601A1
:1009F0000E94AD0E8823F4F420E030E047E053E499
:100A0000C701B6010E94AD0E8823BCF420E030E09F
:100A100047E053ECC701B6010E94270D181684F475
:100A200011C084E090E00EC080E090E00BC081E057
:100A300090E008C083E090E005C082E090E002C052
:100A400082E090E0DF91CF91FF90EF90DF90CF9028
:100A50000895BA9886B380E090E00895CF93DF932D
:100A60000E94F103D82F0E94E703C82F6D2F70E07A
:100A700080E090E00E94D60D20E030E04FEF52E49D
:100A80000E94480C0E949E0D062E000C770B880BCE
:100A9000990B0E94D60D20E030E04FEF52E40E9407
:100AA0002C0D20E030E048EC52E40E94BA0E0E9487
:100AB0009E0DD62F6C2F70E080E090E00E94D60D46
:100AC00020E030E04FEF52E40E94480C0E949E0D5F
:100AD000062E000C770B880B990B0E94D60D20E098
:100AE00030E04FEF52E40E942C0D20E030E048EC63
:100AF00052E40E94BA0E0E949E0D962F8D2FDF9118
:100B0000CF910895B99886B38695817090E0089545
:100B1000B89886B3817090E00895E0910201F09159
:100B200003018083089585B7806885BF80B78062A0
:100B300080BFE0910201F09103018EEA8083E09191
:100B40000201F091030181EA8083E0910201F091BA
:100B500003018AED8083E0910201F091030182E1BB
:100B60008083E0910201F091030188E08083E091AD
:100B70000201F091030188EA8083E0910201F09183
:100B800003018FE38083E0910201F091030185ED81
:100B90008083E0910201F091030180E88083E0917D
:100BA0000201F091030181E88083E0910201F0915C
:100BB000030180E58083E0910201F091030189ED5A
:100BC0008083E0910201F091030181E28083E09152
:100BD0000201F091030180E28083E0910201F09133
:100BE000030182E08083E0910201F09103018BED2B
:100BF0008083E0910201F091030180E38083E09122
:100C00000201F09103018DEA8083E0910201F091ED
:100C100003011082E0910201F091030184EA8083D4
:100C2000E0910201F091030186EA8083E0910201E4
:100C3000F09103018FEA8083E0910201F0910301BA
:100C400088EC80830895E0910001F0910101808398
:100C50000895E0910201F091030191E29083E09107
:100C60000201F09103018083E0910201F091030100
:100C700060830895E0910201F091030192E2908374
:100C8000E0910201F09103018083E0910201F09173
:100C9000030160830895E0910201F0910301982F10
:100CA0009F70908382958F708061E0910201F09136
:100CB000030180830895E0910201F0910301806BAC
:100CC00080830895E0910201F091030180E2808326
:100CD000E0910201F091030110826FE780E00E9431
:100CE000290667E080E00E943A0680E094E0E09107
:100CF0000001F091010110820197C9F7E091020112
:100D0000F091030180E28083E0910201F091030100
:100D100082E080830895CF93C62FE0910201F09185
:100D2000030190E29083E0910201F091030192E0CF
:100D300090830E944B068C2F0E945B06E09100017D
:100D4000F091010188E18083E0910001F0910101BF
:100D50008083E0910001F09101019EE79083E09192
:100D60000001F09101019CE39083E0910001F0917A
:100D700001018083CF910895653039F540EE480F29
:100D8000242F30E0A901440F551F440F551F420F77
:100D9000531F20E030E0F901E40FF51FEA56FC4F45
:100DA000E491A0910001B0910101EC932F5F3F4FBE
:100DB0002530310581F790E0835F914029F1E09182
:100DC0000001F0910101108208956830E9F4805229
:100DD00090E0FC01EE0FFF1FEE0FFF1FEE0FFF1F55
:100DE000E256FF4F880F991F880F991F880F991F90
:100DF0008A559F4F2491A0910001B09101012C933D
:100E00003196E817F907B1F70895DF92EF92FF9254
:100E10000F931F93CF93DF938C01D62E7C01C0E0FC
:100E2000D0E007C06D2DF70181917F010E94BC06C3
:100E30002196F80101900020E9F73197E01BF10BB2
:100E4000CE17DF0778F3DF91CF911F910F91FF90BD
:100E5000EF90DF900895CF92DF92EF92FF921F9371
:100E6000CF93DF936C017B01142F86E090E00E940A
:100E70002B0FEC01D982C882FB82EA82812F90E09D
:100E8000880F991F0E942B0F9D838C83CE01DF91C9
:100E9000CF911F91FF90EF90DF90CF90089550E099
:100EA000440F551FFC0184819581FC01E40FF51F5F
:100EB000718360830895CF93DF93EC0188819981DA
:100EC0009F938F9385EF91E09F938F930E94FF10E4
:100ED0000E94620680E00E945B0684E10E944B064D
:100EE0008881998168E00E94050782E00E945B0684
:100EF00080E20E944B06EC81FD810190F081E02DA3
:100F000065E0808191810E94050784E00E945B0674
:100F100080E20E944B06EC81FD810280F381E02D8E
:100F200065E0808191810E9405070F900F900F90DE
:100F30000F90DF91CF910895CF92DF92EF92FF92C1
:100F40000F931F93CF93DF9342E060E070E081E066
:100F500092E00E942B07EC0142E0BC0180E392E0AA
:100F60000E942B078C0142E0BE018BE092E00E94C0
:100F70002B076C0142E0B8018AE192E00E942B0746
:100F80007C0142E0B8018AE292E00E942B07EC81EA
:100F9000FD81D182C082EC81FD8113830283D8015F
:100FA0001496ED91FC911597F182E0821496ED91E3
:100FB000FC91159793838283D093E302C093E2025E
:100FC000CE010E945B07DF91CF911F910F91FF909F
:100FD000EF90DF90CF900895AF92BF92CF92DF92C3
:100FE000EF92FF920F931F93CF93DF937C01EB015E
:100FF0005A01690181E092E0F701918380831382B5
:10100000128284E090E00E942B0FF7019583848385
:10101000FC01D183C0831383028381E092E00E94AC
:10102000151180E392E099838883FB82EA8284E051
:1010300090E00E942B0F9D838C83FC01B182A082E3
:10104000D382C2828AE192E0F50191838083D383C7
:10105000C2838AE292E0F60191838083D383C283C4
:101060008BE092E0F80191838083F382E282DF914A
:10107000CF911F910F91FF90EF90DF90CF90BF9095
:10108000AF900895FC0182E090E09183808384E03A
:1010900090E0938382831482158262E084E10E944F
:1010A0008B060895CF93DF93EC010E942D048C836F
:1010B0009D83DF91CF910895CF939C019FEF960F71
:1010C0009430A0F4C62FF90180810E945B0684E170
:1010D0000E944B0665E083EF91E00E9405076C2FAC
:1010E00084E10E948B0681E090E002C080E090E005
:1010F000CF910895CF93DF93EC010E948304813058
:10110000910521F0D0F0049769F135C08A819B8167
:10111000049741F581E090E09B838A8368816E5F4C
:10112000CE010E945C08892B49F188819981029641
:101130009983888381E090E026C08A819B8104970F
:1011400089F41B821A8268816250CE010E945C0879
:10115000892BB9F08881998102979983888380E0EF
:1011600090E011C06881CE010E945C0884E090E0AC
:101170009B838A8308C08FEF9FEF05C081E090E0DA
:1011800002C080E090E0DF91CF9108950F931F930C
:10119000CF93DF93EC010E948205892B09F041C0B7
:1011A0000E948805892BE9F542C000E010E0288103
:1011B0003981332314F42F5F3F4F35952795215004
:1011C00031092017310799F4E091E202F091E3022E
:1011D0000480F581E02D220F331FE20FF31F808181
:1011E00091819093E3028093E2020E945B070F5F7C
:1011F0001F4F02301105D9F60E948805892BB9F0DE
:10120000E091E202F091E30282819381892B79F0EF
:10121000828193819093E3028093E2020E945B07B4
:1012200006C00E948205892B09F0BFCFE5CFDF9170
:10123000CF911F910F91089587B3806B87BB8DB1BC
:1012400081658DB908958FB9779BFECF08958AEA9D
:101250000E9423098FB10895BC9A882319F0813028
:1012600011F00895C498C49A0895882319F0813024
:1012700019F00895C4980895C49A0895CF93C82F7B
:1012800080E00E94350983E00E9423098C2F0E9490
:1012900023090E942709C82F81E00E9435098C2F5D
:1012A000CF910895CF93DF93C82FD62F80E00E946F
:1012B000350982E00E9423098D2F0E9423098C2F7B
:1012C0000E94230981E00E943509DF91CF910895A2
:1012D000CF93C82F80E00E943509C13051F028F02B
:1012E000C23059F0C33069F00FC081E80E94230971
:1012F0000BC082E80E94230907C084E80E942309EA
:1013000003C087E80E94230981E00E943509CF913C
:101310000895CF9380E00E94350980EA0E94230956
:101320000E942709C82F81E00E9435098C2FCF9198
:1013300008951F93CF93DF93182FD62FC42F80E0EB
:101340000E94350985E00E942309812F0E9423090C
:101350008D2F0E9423098C2F0E94230981E00E9477
:101360003509DF91CF911F91089580E00E943509E2
:1013700080EC0E94230981E00E9435098FEF9FE2F3
:101380000197F1F700C0000008950E941C090E9417
:10139000B5098EE00E943E09807E803861F01F9280
:1013A0008F938BE392E09F938F930E94FF100F9097
:1013B0000F900F900F900895CF93C82F0E94C509EA
:1013C0006FE08C2F0E9452098FE00E943E091F920D
:1013D0008F9383E892E09F938F930E94FF100F906A
:1013E0000F900F900F90CF910895EF92FF920F936F
:1013F0001F93CF93DF93CDB7DEB72B970FB6F8943B
:10140000DEBF0FBECDBF7C0150E0022F10E0011502
:10141000110571F0A62FB72FFE013496BE01600FA3
:10142000711F6C5F7F4F9D919193E617F707D9F776
:101430005A8349832B838BE0FE013196D7010190BB
:101440000D928A95E1F7C7012B960FB6F894DEBF8F
:101450000FBECDBFDF91CF911F910F91FF90EF9005
:101460000895EF92FF920F931F93CF93DF938C0118
:101470008091E0029091E1020196833091052CF475
:101480009093E1028093E00204C01092E102109276
:10149000E002F801208131817901F7E0EF22FF2499
:1014A000C0EED2E068816295607F6F5CC90196955D
:1014B000879596958795969587950E94520968819C
:1014C0006295607F6E5C8E2D8295880F807E0E9473
:1014D000520968816295607F6B5CF80182810E948D
:1014E0005209F80182818823D1F0C0E00F2EF0EE7E
:1014F000EF2EF2E0FF2EF02DF70180816C2FF0E14E
:101500008F9F600D11246A5CF801EC0FF11D83813F
:101510000E945209CF5FF8018281C81768F3809159
:10152000E0029091E1028130910551F08230910505
:1015300061F0892B71F460E388E00E94520909C0D0
:1015400060E488E00E94520904C060E588E00E94DF
:1015500052098091E0020E946809DF91CF911F91AA
:101560000F91FF90EF900895EF92FF920F931F93CA
:10157000CF93DF937C018B01D82FD295D07F81E66A
:101580008D0F0E943E09C82F82E68D0F0E943E09F2
:10159000807E282F30E036952795329522952F7042
:1015A00023273F702327C90148E0C49F800D911D68
:1015B0001124F8019183808385E68D0F0E943E09F6
:1015C0008F70F8018283882379F0C0E0DA598D2F7B
:1015D0008C0F0E943E09F801EC0FF11D8383CF5F51
:1015E000F8019281C91798F3E114F10421F0EA940B
:1015F000EF2831F009C061E080E00E94520904C088
:1016000062E080E00E945209F801C081D181CE01E0
:1016100096958795969587959695879561E30E940F
:10162000520962E38C2F8295880F807E0E945209B6
:1016300065E3F80182810E945209F80182818823C2
:1016400071F0C0E066E36C0FF801EC0FF11D8381CF
:101650000E945209CF5FF8018281C81798F3DF9189
:10166000CF911F910F91FF90EF900895CF93DF934B
:10167000EC010E942D04198218828B839C83282FF1
:10168000082E000C330B3F938F9380EA92E09F93D8
:101690008F930E94FF108C81282F082E000C330B93
:1016A0003F938F9381EB92E09F938F930E94FF1063
:1016B00082E08A838B81082E000C990B99231CF4FD
:1016C0009195819591092091E402022E000C330B33
:1016D00033231CF4319521953109821B930B2DB7CF
:1016E0003EB7285F3F4F0FB6F8943EBF0FBE2DBFE9
:1016F0000697BCF48C81082E000C990B99231CF4DE
:101700009195819591092091E502022E000C330BF1
:1017100033231CF4319521953109821B930B0697D5
:101720007CF0CE010E94310A8A81882369F09B8176
:101730009093E402823040F08C818093E50204C0F3
:101740008B818093E402F8CFDF91CF9108950F93BE
:101750001F93CF93DF93EC010E94F103082F0E94A7
:10176000E703182F0E942D04198218828B839C8313
:101770000D831E8384E08A83CE010E94310ADF91AB
:10178000CF911F910F9108950F931F93CF93DF93E4
:10179000EC010E942D04182F092F0E942E0519829A
:1017A00018821B830C838D839E8384E08A83812F20
:1017B000012E000C990B9F931F9382EC92E09F9354
:1017C0008F930E94FF108D81282F082E000C330B61
:1017D0003F938F938AEC92E09F938F930E94FF1028
:1017E0004D81842F042E000C990B2091E602821B60
:1017F000910927FD93959C01992324F422273327EF
:10180000281B390B8DB79EB708960FB6F8949EBF6C
:101810000FBE8DBF223031052CF04093E602CE0181
:101820000E94310A8B81082E000C990B2091E40252
:10183000821B910927FD93959C01992324F422276B
:101840003327281B390B22303105A4F48C81082E54
:10185000000C990B2091E502821B910927FD9395BD
:101860009C01992324F422273327281B390B22308B
:1018700031054CF0CE010E94310AE4EEF2E08B819A
:1018800080838C818183DF91CF911F910F91089587
:101890005058BB27AA270E94600C0C94730E0E941C
:1018A000650E38F00E946C0E20F039F49F3F19F459
:1018B00026F40C943B0E0EF4E095E7FB0C94350EE9
:1018C000E92F0E94840E58F3BA1762077307840742
:1018D000950720F079F4A6F50C94A60E0EF4E09589
:1018E0000B2EBA2FA02D0B01B90190010C01CA01DA
:1018F000A0011124FF27591B99F0593F50F4503E85
:1019000068F11A16F040A22F232F342F4427585F76
:10191000F3CF469537952795A795F0405395C9F78E
:101920007EF41F16BA0B620B730B840BBAF0915046
:10193000A1F0FF0FBB1F661F771F881FC2F70EC0E5
:10194000BA0F621F731F841F48F4879577956795B8
:10195000B795F7959E3F08F0B0CF9395880F08F0A4
:101960009927EE0F9795879508950E94650E60F070
:1019700080E891E009F49EEF0E946C0E28F040E8A8
:1019800051E071F45EEF0CC00C943B0E0C94A60E6B
:10199000E92FE0780E94840E40F3092E052AB1F366
:1019A000261737074807590738F00E2E07F8E025A5
:1019B00069F0E025E0640AC0EF6307F8009407FAD5
:1019C000DB01B9019D01DC01CA01AD01EF930E9469
:1019D000430D0E94730E0E94F80C5F91552339F05D
:1019E0002BED3FE049E450FD49EC0C94490C08957F
:1019F000DF93DD27B92FBF7740E85FE316161706A0
:101A000048075B0718F4D92F0E94B20E9F938F935B
:101A10007F936F930E94270FE0E7F0E00E943E0E55
:101A20000E94730E2F913F914F915F910E94CD0EB6
:101A3000DD2351F09058A2EA2AED3FE049EC5FE344
:101A4000D0785D270E94600CDF910C94730E0E9489
:101A5000110E08F481E008950E94400D0C94730E5D
:101A60000E946C0E58F00E94650E40F029F45F3F12
:101A700029F00C94350E51110C94A70E0C943B0ECA
:101A80000E94840E68F39923B1F3552391F3951BBB
:101A9000550BBB27AA2762177307840738F09F5F8F
:101AA0005F4F220F331F441FAA1FA9F335D00E2EFC
:101AB0003AF0E0E832D091505040E695001CCAF769
:101AC0002BD0FE2F29D0660F771F881FBB1F26172C
:101AD00037074807AB07B0E809F0BB0B802DBF0103
:101AE000FF2793585F4F3AF09E3F510578F00C94D2
:101AF000350E0C94A70E5F3FE4F3983ED4F3869521
:101B000077956795B795F7959F5FC9F7880F911DF2
:101B10009695879597F90895E1E0660F771F881FDE
:101B2000BB1F621773078407BA0720F0621B730B91
:101B3000840BBA0BEE1F88F7E09508950E94A50D5F
:101B40006894B1110C94A70E08950E948C0E88F031
:101B50009F5798F0B92F9927B751B0F0E1F0660F71
:101B6000771F881F991F1AF0BA95C9F714C0B130B2
:101B700091F00E94A60EB1E008950C94A60E672F76
:101B8000782F8827B85F39F0B93FCCF386957795E1
:101B90006795B395D9F73EF49095809570956195CA
:101BA0007F4F8F4F9F4F0895E89409C097FB3EF4F5
:101BB00090958095709561957F4F8F4F9F4F99239A
:101BC000A9F0F92F96E9BB279395F6958795779518
:101BD0006795B795F111F8CFFAF4BB0F11F460FFD8
:101BE0001BC06F5F7F4F8F4F9F4F16C0882311F030
:101BF00096E911C0772321F09EE8872F762F05C044
:101C0000662371F096E8862F70E060E02AF09A95DE
:101C1000660F771F881FDAF7880F9695879597F9D3
:101C20000895990F0008550FAA0BE0E8FEEF16166D
:101C30001706E807F907C0F012161306E407F507C0
:101C400098F0621B730B840B950B39F40A2661F034
:101C5000232B242B252B21F408950A2609F4A140D7
:101C6000A6958FEF811D811D089597F99F6780E8E4
:101C700070E060E008959FEF80EC0895DF93CF93CC
:101C80001F930F93FF92EF92DF927B018C01689478
:101C900006C0DA2EEF010E94CD0EFE01E894A59158
:101CA0002591359145915591A6F3EF010E94600C65
:101CB000FE019701A801DA9469F7DF90EF90FF9099
:101CC0000F911F91CF91DF91089500240A94161669
:101CD000170618060906089500240A94121613061A
:101CE000140605060895092E0394000C11F48823A8
:101CF00052F0BB0F40F4BF2B11F460FF04C06F5FC4
:101D00007F4F8F4F9F4F089557FD9058440F551F99
:101D100059F05F3F71F04795880F97FB991F61F06D
:101D20009F3F79F087950895121613061406551FE4
:101D3000F2CF4695F1DF08C0161617061806991F50
:101D4000F1CF86957105610508940895E894BB2745
:101D500066277727CB0197F908950E94110E08F4A2
:101D60008FEF08959B01AC0160E070E080E89FE395
:101D70000C942C0D0E94CD0E0C94730E0E94650ED7
:101D800038F00E946C0E20F0952311F00C94350E63
:101D90000C943B0E11240C94A70E0E94840E70F339
:101DA000959FC1F3950F50E0551F629FF001729F00
:101DB000BB27F00DB11D639FAA27F00DB11DAA1F0F
:101DC000649F6627B00DA11D661F829F2227B00D5C
:101DD000A11D621F739FB00DA11D621F839FA00DE7
:101DE000611D221F749F3327A00D611D231F849F37
:101DF000600D211D822F762F6A2F11249F5750408E
:101E00009AF0F1F088234AF0EE0FFF1FBB1F661F08
:101E1000771F881F91505040A9F79E3F510580F0D1
:101E20000C94350E0C94A70E5F3FE4F3983ED4F368
:101E3000869577956795B795F795E7959F5FC1F775
:101E4000FE2B880F911D9695879597F908959B0114
:101E5000AC010C94BA0ECF93DF938230910510F44D
:101E600082E090E0E091E902F091EA0220E030E0C7
:101E7000C0E0D0E0309711F14081518148175907F7
:101E8000C0F04817590761F482819381209719F0B7
:101E90009B838A832BC09093EA028093E90226C039
:101EA0002115310519F04217530718F49A01BE01A4
:101EB000DF01EF010280F381E02DDCCF2115310538
:101EC00009F1281B390B2430310590F412968D91BD
:101ED0009C9113976115710521F0FB019383828317
:101EE00004C09093EA028093E902FD01329644C057
:101EF000FD01E20FF31F81939193225031092D933D
:101F00003C933AC02091E7023091E802232B41F440
:101F100020910601309107013093E8022093E702F7
:101F200020910401309105012115310541F42DB7AF
:101F30003EB74091080150910901241B350BE091F7
:101F4000E702F091E802E217F307A0F42E1B3F0B23
:101F50002817390778F0AC014E5F5F4F241735071B
:101F600048F04E0F5F1F5093E8024093E7028193C1
:101F7000919302C0E0E0F0E0CF01DF91CF910895AE
:101F80000F931F93CF93DF93009709F48CC0FC014C
:101F90003297138212820091E9021091EA02011530
:101FA000110581F420813181820F931F2091E70276
:101FB0003091E8022817390779F5F093E802E093A9
:101FC000E70271C0D80140E050E0AE17BF0750F4FF
:101FD00012962D913C911397AD012115310509F110
:101FE000D901F3CF9D01DA013383228360817181AE
:101FF000860F971F8217930769F4EC0128813981B6
:10200000260F371F2E5F3F4F318320838A819B81AC
:1020100093838283452B29F4F093EA02E093E9024B
:1020200042C01396FC93EE931297ED01499159919A
:102030009E01240F351FE217F30771F4808191810F
:10204000840F951F029611969C938E9382819381A3
:1020500013969C938E931297E0E0F0E0D8011296CD
:102060008D919C911397009719F0F8018C01F6CF90
:102070008D919C9198012E5F3F4F820F931F20916D
:10208000E7023091E8022817390769F4309729F4FC
:102090001092EA021092E90202C013821282109397
:1020A000E8020093E702DF91CF911F910F9108950D
:1020B0008F929F92AF92BF92CF92DF92EF92FF9258
:1020C000CF93DF93EC01688179818A819B816115CF
:1020D00071058105910521F464E279ED8BE597E0C6
:1020E0002DE133EF41E050E00E94E61349015A012F
:1020F0009B01AC01A7EAB1E40E9405146B017C01CD
:10210000ACEEB4EFA50194010E941314DC01CB01E5
:102110008C0D9D1DAE1DBF1DB7FF03C00197A1090A
:10212000B04888839983AA83BB839F77DF91CF913F
:10213000FF90EF90DF90CF90BF90AF909F908F90E7
:1021400008950E94581008958AE091E00E94581066
:102150000895A0E0B0E080930A0190930B01A09352
:102160000C01B0930D0108950F931F93CF93DF934C
:10217000009731F46115710519F480E090E03AC0E0
:102180008B01EC016EE070E081E090E00E9417139B
:10219000FC01892B91F380E883830115110571F00F
:1021A0001387028781E883838091EB029091EC0290
:1021B000892B21F4F093EC02E093EB022097C9F015
:1021C000D187C0878381826083838091ED02909163
:1021D000EE02892B71F4F093EE02E093ED02809110
:1021E000EF029091F002892B21F4F093F002E0933A
:1021F000EF02CF01DF91CF911F910F910895A0E0E1
:10220000B0E0E5E0F1E10C942814AE014B5F5F4FC4
:10221000FA0161917191AF018091ED029091EE020E
:102220000E944511E2E00C9444140F931F93CF9346
:10223000DF93E091ED02F091EE02238121FF1BC0BC
:102240008C01D0E0C0E0F80181918F016091ED0236
:102250007091EE02DB011896ED91FC91199788239D
:1022600031F00995892B79F3DFEFCFEFECCF8AE0DE
:102270000995892B19F08FEF9FEF02C08D2F9C2FAE
:10228000DF91CF911F910F910895ACE0B0E0EBE4A6
:10229000F1E10C9418147C016B018A01FC01178296
:1022A0001682838181FFBDC1CE0101964C01F701E9
:1022B0009381F60193FD859193FF81916F018823AE
:1022C00009F4ABC1853239F493FD859193FF819177
:1022D0006F01853229F4B70190E00E945013E7CFD7
:1022E000512C312C20E02032A0F48B3269F030F4F4
:1022F000803259F0833269F420612CC08D3239F07C
:10230000803339F4216026C02260246023C0286015
:1023100021C027FD27C030ED380F3A3078F426FF72
:1023200006C0FAE05F9E300D1124532E13C08AE0E0
:10233000389E300D1124332E20620CC08E3221F4D1
:1023400026FD6BC1206406C08C3611F4206802C0E3
:10235000883641F4F60193FD859193FF81916F01D9
:102360008111C1CF982F9F7D9554933028F40C5F35
:102370001F4FFFE3F9830DC0833631F0833771F0CF
:10238000833509F05BC022C0F801808189830E5F2C
:102390001F4F44244394512C540115C03801F2E0DE
:1023A0006F0E711CF801A080B18026FF03C0652D5F
:1023B00070E002C06FEF7FEFC5012C870E944513CC
:1023C0002C0183012C852F77222E17C03801F2E0D3
:1023D0006F0E711CF801A080B18026FF03C0652D2F
:1023E00070E002C06FEF7FEFC5012C870E943313AE
:1023F0002C012C852068222E830123FC1BC0832DF9
:1024000090E048165906B0F4B70180E290E00E94CF
:1024100050133A94F4CFF50127FC859127FE819162
:102420005F01B70190E00E94501331103A94F1E03F
:102430004F1A51084114510471F7E5C0843611F068
:10244000893639F5F80127FF07C0608171818281E3
:1024500093810C5F1F4F08C060817181072E000CB3
:10246000880B990B0E5F1F4F2F76722E97FF09C0B6
:1024700090958095709561957F4F8F4F9F4F206805
:10248000722E2AE030E0A4010E948813A82EA8181A
:1024900044C0853729F42F7EB22E2AE030E025C0D3
:1024A000F22FF97FBF2E8F36C1F018F4883579F0FE
:1024B000B4C0803719F0883721F0AFC02F2F2061CA
:1024C000B22EB4FE0DC08B2D8460B82E09C024FF3F
:1024D0000AC09F2F9660B92E06C028E030E005C0E4
:1024E00020E130E002C020E132E0F801B7FE07C091
:1024F00060817181828193810C5F1F4F06C0608172
:10250000718180E090E00E5F1F4FA4010E9488134C
:10251000A82EA818FB2DFF777F2E76FE0BC0372D37
:102520003E7FA51450F474FE0AC072FC08C0372D1B
:102530003E7E05C0BA2C372D03C0BA2C01C0B52C85
:1025400034FF0DC0FE01EA0DF11D8081803311F4CE
:10255000397E09C032FF06C0B394B39404C0832F00
:10256000867809F0B39433FD13C030FF06C05A2CAF
:10257000B31418F4530C5B18B32CB31468F4B701FC
:1025800080E290E03C870E945013B3943C85F5CFE5
:10259000B31410F43B1801C0312C34FF12C0B70142
:1025A00080E390E03C870E9450133C8532FF17C0C7
:1025B00031FD03C088E790E002C088E590E0B701F4
:1025C0000CC0832F867859F031FF02C08BE201C026
:1025D00080E237FD8DE2B70190E00E945013A51410
:1025E00038F4B70180E390E00E9450135A94F7CF7B
:1025F000AA94F401EA0DF11D8081B70190E00E94D8
:102600005013A110F5CF332009F451CEB70180E269
:1026100090E00E9450133A94F6CFF701868197819B
:1026200002C08FEF9FEF2C96E2E10C9434140F93CD
:102630001F93CF93DF93869F8001879F100D969FF6
:10264000100D1124C8010E942B0FEC01009729F0F6
:10265000A80160E070E00E943E13CE01DF91CF91AF
:102660001F910F910895FC01059061507040011079
:10267000D8F7809590958E0F9F1F0895DC0101C0BB
:102680006D9341505040E0F70895FC016150704057
:1026900001900110D8F7809590958E0F9F1F089597
:1026A0000F931F93CF93DF93FB01238121FD03C081
:1026B0008FEF9FEF28C022FF16C0468157812481EB
:1026C00035814217530744F4A081B1819D012F5FEA
:1026D0003F4F318320838C93268137812F5F3F4F7B
:1026E0003783268310C0EB01092F182F0084F18552
:1026F000E02D0995892BE1F68E819F8101969F83BC
:102700008E83812F902FDF91CF911F910F9108958C
:10271000FA01AA27283051F1203181F1E8946F9312
:102720006E7F6E5F7F4F8F4F9F4FAF4FB1E03ED0B8
:10273000B4E03CD0670F781F891F9A1FA11D680F56
:10274000791F8A1F911DA11D6A0F711D811D911D89
:10275000A11D20D009F468943F912AE0269F1124FE
:102760003019305D3193DEF6CF010895462F477062
:10277000405D4193B3E00FD0C9F7F6CF462F4F70BD
:10278000405D4A3318F0495D31FD4052419302D01B
:10279000A9F7EACFB4E0A6959795879577956795C1
:1027A000BA95C9F700976105710508959B01AC01C1
:1027B0000A2E06945795479537952795BA95C9F7E8
:1027C000620F731F841F951FA01D0895052E97FB90
:1027D0001EF400940E94FD1357FD07D00E944F1471
:1027E00007FC03D04EF40C94FD13509540953095A2
:1027F00021953F4F4F4F5F4F08959095809570956D
:1028000061957F4F8F4F9F4F08950E947114A59F30
:10281000900DB49F900DA49F800D911D11240895DB
:10282000B7FF0C9405140E940514821B930B0895A6
:102830002F923F924F925F926F927F928F929F92D0
:10284000AF92BF92CF92DF92EF92FF920F931F93BE
:10285000CF93DF93CDB7DEB7CA1BDB0B0FB6F8946F
:10286000DEBF0FBECDBF09942A88398848885F84AF
:102870006E847D848C849B84AA84B984C884DF8020
:10288000EE80FD800C811B81AA81B981CE0FD11D04
:102890000FB6F894DEBF0FBECDBFED010895A1E2E3
:1028A0001A2EAA1BBB1BFD010DC0AA1FBB1FEE1FCA
:1028B000FF1FA217B307E407F50720F0A21BB30B15
:1028C000E40BF50B661F771F881F991F1A9469F791
:1028D00060957095809590959B01AC01BD01CF01ED
:1028E0000895A29FB001B39FC001A39F700D811DE9
:1028F0001124911DB29F700D811D1124911D089509
:04290000F894FFCF79
:10290400001200100000F1022000010000005374C6
:10291400617274696E67205352414D2074657374FB
:102924002E2E2E00577269746520706861736520BD
:102934006572726F723A206578745F72616D5B259F
:1029440034645D203D2025303258202873686F752B
:102954006C642062652025303258290A005265745F
:1029640072696576616C2070686173652065727246
:102974006F723A206578745F72616D5B2534645DB3
:10298400203D2025303258202873686F756C6420F0
:1029940062652025303258290A005352414D207473
:1029A40065737420636F6D706C65746564207769FA
:1029B4007468200A253464206572726F727320690A
:1029C4006E20777269746520706861736520616E2A
:1029D40064200A253464206572726F727320696EF4
:1029E4002072657472696576616C207068617365C4
:1029F4000A0A0020005449544C453A2025730A0D14
:102A0400004D41494E204D454E55005354415254BA
:102A1400204E45572047414D450053484F572048C5
:102A240049474853434F5245530052455345542058
:102A34004849474853434F524553004D435032355C
:102A44003135206973204E4F5420696E20436F6ED8
:102A540066696775726174696F6E206D6F64652055
:102A640061667465722072657365742120436F6EAC
:102A74006669672062697473206172653A202578FB
:102A84000A0D0063616E20636F6E74726F6C207246
:102A9400656769737465723A20202578200A0D00F1
:102AA400582E6A6F79737469636B3A2025640A0D32
:102AB40000592E6A6F79737469636B3A2025640A2E
:102AC4000D00783A2025640A0D0052696768742065
:0E2AD400736C696465723A2025640A0D000077
:00000001FF
